{"abi":[{"type":"constructor","inputs":[{"name":"_usdc","type":"address","internalType":"address"},{"name":"_diamond","type":"address","internalType":"address"}],"stateMutability":"nonpayable"},{"type":"function","name":"BASIS_POINTS","inputs":[],"outputs":[{"name":"","type":"uint256","internalType":"uint256"}],"stateMutability":"view"},{"type":"function","name":"COPY_WINDOW","inputs":[],"outputs":[{"name":"","type":"uint256","internalType":"uint256"}],"stateMutability":"view"},{"type":"function","name":"EMERGENCY_DELAY","inputs":[],"outputs":[{"name":"","type":"uint256","internalType":"uint256"}],"stateMutability":"view"},{"type":"function","name":"MAX_RESULT_PCT","inputs":[],"outputs":[{"name":"","type":"int256","internalType":"int256"}],"stateMutability":"view"},{"type":"function","name":"MIN_COLLATERAL","inputs":[],"outputs":[{"name":"","type":"uint256","internalType":"uint256"}],"stateMutability":"view"},{"type":"function","name":"acceptAdmin","inputs":[],"outputs":[],"stateMutability":"nonpayable"},{"type":"function","name":"activeSignalId","inputs":[],"outputs":[{"name":"","type":"uint256","internalType":"uint256"}],"stateMutability":"view"},{"type":"function","name":"admin","inputs":[],"outputs":[{"name":"","type":"address","internalType":"address"}],"stateMutability":"view"},{"type":"function","name":"adminDeposit","inputs":[{"name":"_amount","type":"uint256","internalType":"uint256"}],"outputs":[],"stateMutability":"nonpayable"},{"type":"function","name":"autoCopy","inputs":[{"name":"","type":"address","internalType":"address"}],"outputs":[{"name":"amount","type":"uint256","internalType":"uint256"},{"name":"enabled","type":"bool","internalType":"bool"}],"stateMutability":"view"},{"type":"function","name":"autoCopyUsers","inputs":[{"name":"","type":"uint256","internalType":"uint256"}],"outputs":[{"name":"","type":"address","internalType":"address"}],"stateMutability":"view"},{"type":"function","name":"cancelSignal","inputs":[{"name":"_id","type":"uint256","internalType":"uint256"}],"outputs":[],"stateMutability":"nonpayable"},{"type":"function","name":"claimProceeds","inputs":[{"name":"_id","type":"uint256","internalType":"uint256"}],"outputs":[],"stateMutability":"nonpayable"},{"type":"function","name":"closeSignal","inputs":[{"name":"_id","type":"uint256","internalType":"uint256"},{"name":"_result","type":"int256","internalType":"int256"}],"outputs":[],"stateMutability":"nonpayable"},{"type":"function","name":"closeTradeMarket","inputs":[{"name":"_index","type":"uint32","internalType":"uint32"},{"name":"_expectedPrice","type":"uint64","internalType":"uint64"}],"outputs":[],"stateMutability":"nonpayable"},{"type":"function","name":"copyTrade","inputs":[{"name":"_id","type":"uint256","internalType":"uint256"},{"name":"_amount","type":"uint256","internalType":"uint256"}],"outputs":[],"stateMutability":"nonpayable"},{"type":"function","name":"diamond","inputs":[],"outputs":[{"name":"","type":"address","internalType":"contract IGNSMultiCollatDiamond"}],"stateMutability":"view"},{"type":"function","name":"disableAutoCopy","inputs":[],"outputs":[],"stateMutability":"nonpayable"},{"type":"function","name":"emergencyWithdraw","inputs":[{"name":"_id","type":"uint256","internalType":"uint256"}],"outputs":[],"stateMutability":"nonpayable"},{"type":"function","name":"enableAutoCopy","inputs":[{"name":"_amountPerTrade","type":"uint256","internalType":"uint256"}],"outputs":[],"stateMutability":"nonpayable"},{"type":"function","name":"executeCopyFor","inputs":[{"name":"_user","type":"address","internalType":"address"},{"name":"_signalId","type":"uint256","internalType":"uint256"}],"outputs":[],"stateMutability":"nonpayable"},{"type":"function","name":"feePercent","inputs":[],"outputs":[{"name":"","type":"uint256","internalType":"uint256"}],"stateMutability":"view"},{"type":"function","name":"getActiveSignalId","inputs":[],"outputs":[{"name":"","type":"uint256","internalType":"uint256"}],"stateMutability":"view"},{"type":"function","name":"getAutoCopyUserCount","inputs":[],"outputs":[{"name":"","type":"uint256","internalType":"uint256"}],"stateMutability":"view"},{"type":"function","name":"getAutoCopyUsers","inputs":[],"outputs":[{"name":"","type":"address[]","internalType":"address[]"}],"stateMutability":"view"},{"type":"function","name":"getExpectedPayout","inputs":[{"name":"_user","type":"address","internalType":"address"},{"name":"_id","type":"uint256","internalType":"uint256"}],"outputs":[{"name":"","type":"uint256","internalType":"uint256"}],"stateMutability":"view"},{"type":"function","name":"getUserSignalIds","inputs":[{"name":"_user","type":"address","internalType":"address"}],"outputs":[{"name":"","type":"uint256[]","internalType":"uint256[]"}],"stateMutability":"view"},{"type":"function","name":"isAutoCopyUser","inputs":[{"name":"","type":"address","internalType":"address"}],"outputs":[{"name":"","type":"bool","internalType":"bool"}],"stateMutability":"view"},{"type":"function","name":"nextTradeIndex","inputs":[],"outputs":[{"name":"","type":"uint32","internalType":"uint32"}],"stateMutability":"view"},{"type":"function","name":"paused","inputs":[],"outputs":[{"name":"","type":"bool","internalType":"bool"}],"stateMutability":"view"},{"type":"function","name":"pendingAdmin","inputs":[],"outputs":[{"name":"","type":"address","internalType":"address"}],"stateMutability":"view"},{"type":"function","name":"positions","inputs":[{"name":"","type":"address","internalType":"address"},{"name":"","type":"uint256","internalType":"uint256"}],"outputs":[{"name":"collateral","type":"uint256","internalType":"uint256"},{"name":"gTradeIndex","type":"uint32","internalType":"uint32"},{"name":"claimed","type":"bool","internalType":"bool"}],"stateMutability":"view"},{"type":"function","name":"postSignal","inputs":[{"name":"_long","type":"bool","internalType":"bool"},{"name":"_entry","type":"uint64","internalType":"uint64"},{"name":"_tp","type":"uint64","internalType":"uint64"},{"name":"_sl","type":"uint64","internalType":"uint64"},{"name":"_lev","type":"uint24","internalType":"uint24"}],"outputs":[],"stateMutability":"nonpayable"},{"type":"function","name":"setFeePercent","inputs":[{"name":"_fee","type":"uint256","internalType":"uint256"}],"outputs":[],"stateMutability":"nonpayable"},{"type":"function","name":"setPaused","inputs":[{"name":"_paused","type":"bool","internalType":"bool"}],"outputs":[],"stateMutability":"nonpayable"},{"type":"function","name":"signalCore","inputs":[{"name":"","type":"uint256","internalType":"uint256"}],"outputs":[{"name":"long","type":"bool","internalType":"bool"},{"name":"active","type":"bool","internalType":"bool"},{"name":"closed","type":"bool","internalType":"bool"},{"name":"entryPrice","type":"uint64","internalType":"uint64"},{"name":"tp","type":"uint64","internalType":"uint64"},{"name":"sl","type":"uint64","internalType":"uint64"},{"name":"leverage","type":"uint24","internalType":"uint24"},{"name":"resultPct","type":"int256","internalType":"int256"},{"name":"feeAtCreation","type":"uint256","internalType":"uint256"}],"stateMutability":"view"},{"type":"function","name":"signalCount","inputs":[],"outputs":[{"name":"","type":"uint256","internalType":"uint256"}],"stateMutability":"view"},{"type":"function","name":"signalMeta","inputs":[{"name":"","type":"uint256","internalType":"uint256"}],"outputs":[{"name":"timestamp","type":"uint256","internalType":"uint256"},{"name":"closedAt","type":"uint256","internalType":"uint256"},{"name":"totalCopied","type":"uint256","internalType":"uint256"},{"name":"copierCount","type":"uint256","internalType":"uint256"}],"stateMutability":"view"},{"type":"function","name":"totalFeesCollected","inputs":[],"outputs":[{"name":"","type":"uint256","internalType":"uint256"}],"stateMutability":"view"},{"type":"function","name":"transferAdmin","inputs":[{"name":"_newAdmin","type":"address","internalType":"address"}],"outputs":[],"stateMutability":"nonpayable"},{"type":"function","name":"usdc","inputs":[],"outputs":[{"name":"","type":"address","internalType":"contract IERC20"}],"stateMutability":"view"},{"type":"function","name":"userSignalIds","inputs":[{"name":"","type":"address","internalType":"address"},{"name":"","type":"uint256","internalType":"uint256"}],"outputs":[{"name":"","type":"uint256","internalType":"uint256"}],"stateMutability":"view"},{"type":"function","name":"withdrawFees","inputs":[],"outputs":[],"stateMutability":"nonpayable"},{"type":"event","name":"AdminDeposited","inputs":[{"name":"amount","type":"uint256","indexed":false,"internalType":"uint256"}],"anonymous":false},{"type":"event","name":"AdminTransferStarted","inputs":[{"name":"newAdmin","type":"address","indexed":true,"internalType":"address"}],"anonymous":false},{"type":"event","name":"AdminTransferred","inputs":[{"name":"oldAdmin","type":"address","indexed":true,"internalType":"address"},{"name":"newAdmin","type":"address","indexed":true,"internalType":"address"}],"anonymous":false},{"type":"event","name":"AutoCopied","inputs":[{"name":"user","type":"address","indexed":true,"internalType":"address"},{"name":"signalId","type":"uint256","indexed":true,"internalType":"uint256"},{"name":"amount","type":"uint256","indexed":false,"internalType":"uint256"}],"anonymous":false},{"type":"event","name":"AutoCopyDisabled","inputs":[{"name":"user","type":"address","indexed":true,"internalType":"address"}],"anonymous":false},{"type":"event","name":"AutoCopyEnabled","inputs":[{"name":"user","type":"address","indexed":true,"internalType":"address"},{"name":"amount","type":"uint256","indexed":false,"internalType":"uint256"}],"anonymous":false},{"type":"event","name":"FeeUpdated","inputs":[{"name":"newFeePercent","type":"uint256","indexed":false,"internalType":"uint256"}],"anonymous":false},{"type":"event","name":"FeesWithdrawn","inputs":[{"name":"amount","type":"uint256","indexed":false,"internalType":"uint256"}],"anonymous":false},{"type":"event","name":"Paused","inputs":[{"name":"isPaused","type":"bool","indexed":false,"internalType":"bool"}],"anonymous":false},{"type":"event","name":"ProceedsClaimed","inputs":[{"name":"user","type":"address","indexed":true,"internalType":"address"},{"name":"signalId","type":"uint256","indexed":true,"internalType":"uint256"},{"name":"payout","type":"uint256","indexed":false,"internalType":"uint256"},{"name":"fee","type":"uint256","indexed":false,"internalType":"uint256"}],"anonymous":false},{"type":"event","name":"SignalClosed","inputs":[{"name":"signalId","type":"uint256","indexed":true,"internalType":"uint256"},{"name":"resultPct","type":"int256","indexed":false,"internalType":"int256"}],"anonymous":false},{"type":"event","name":"SignalPosted","inputs":[{"name":"signalId","type":"uint256","indexed":true,"internalType":"uint256"},{"name":"long","type":"bool","indexed":false,"internalType":"bool"},{"name":"entryPrice","type":"uint64","indexed":false,"internalType":"uint64"},{"name":"tp","type":"uint64","indexed":false,"internalType":"uint64"},{"name":"sl","type":"uint64","indexed":false,"internalType":"uint64"},{"name":"leverage","type":"uint24","indexed":false,"internalType":"uint24"}],"anonymous":false},{"type":"event","name":"TradeCopied","inputs":[{"name":"user","type":"address","indexed":true,"internalType":"address"},{"name":"signalId","type":"uint256","indexed":true,"internalType":"uint256"},{"name":"amount","type":"uint256","indexed":false,"internalType":"uint256"}],"anonymous":false}],"bytecode":{"object":"0x60c06040526107d06003553480156200001757600080fd5b50604051620061133803806200611383398181016040528101906200003d9190620002f3565b600073ffffffffffffffffffffffffffffffffffffffff168273ffffffffffffffffffffffffffffffffffffffff1614158015620000a85750600073ffffffffffffffffffffffffffffffffffffffff168173ffffffffffffffffffffffffffffffffffffffff1614155b620000ea576040517f08c379a0000000000000000000000000000000000000000000000000000000008152600401620000e1906200039b565b60405180910390fd5b336000806101000a81548173ffffffffffffffffffffffffffffffffffffffff021916908373ffffffffffffffffffffffffffffffffffffffff16021790555060016002819055508173ffffffffffffffffffffffffffffffffffffffff1660808173ffffffffffffffffffffffffffffffffffffffff16815250508073ffffffffffffffffffffffffffffffffffffffff1660a08173ffffffffffffffffffffffffffffffffffffffff168152505060805173ffffffffffffffffffffffffffffffffffffffff1663095ea7b3827fffffffffffffffffffffffffffffffffffffffffffffffffffffffffffffffff6040518363ffffffff1660e01b8152600401620001f9929190620003e9565b6020604051808303816000875af115801562000219573d6000803e3d6000fd5b505050506040513d601f19601f820116820180604052508101906200023f919062000453565b62000281576040517f08c379a00000000000000000000000000000000000000000000000000000000081526004016200027890620004d5565b60405180910390fd5b5050620004f7565b600080fd5b600073ffffffffffffffffffffffffffffffffffffffff82169050919050565b6000620002bb826200028e565b9050919050565b620002cd81620002ae565b8114620002d957600080fd5b50565b600081519050620002ed81620002c2565b92915050565b600080604083850312156200030d576200030c62000289565b5b60006200031d85828601620002dc565b92505060206200033085828601620002dc565b9150509250929050565b600082825260208201905092915050565b7f5a65726f20616464720000000000000000000000000000000000000000000000600082015250565b6000620003836009836200033a565b915062000390826200034b565b602082019050919050565b60006020820190508181036000830152620003b68162000374565b9050919050565b620003c881620002ae565b82525050565b6000819050919050565b620003e381620003ce565b82525050565b6000604082019050620004006000830185620003bd565b6200040f6020830184620003d8565b9392505050565b60008115159050919050565b6200042d8162000416565b81146200043957600080fd5b50565b6000815190506200044d8162000422565b92915050565b6000602082840312156200046c576200046b62000289565b5b60006200047c848285016200043c565b91505092915050565b7f417070726f7665206661696c6564000000000000000000000000000000000000600082015250565b6000620004bd600e836200033a565b9150620004ca8262000485565b602082019050919050565b60006020820190508181036000830152620004f081620004ae565b9050919050565b60805160a051615ba26200057160003960008181610fee01528181613cd80152613f780152600081816108ad0152818161107f015281816111d4015281816115660152818161169301528181611c4601528181611d6b015281816124b00152818161380c015281816138bb0152613bdb0152615ba26000f3fe608060405234801561001057600080fd5b50600436106102695760003560e01c806380447e3211610151578063be55b9e5116100c3578063e1f1c4a711610087578063e1f1c4a71461070e578063e6b8d04f1461072c578063f0b7db4e14610748578063f851a44014610766578063fa77964814610784578063fc6fee9c146107a257610269565b8063be55b9e514610652578063c1be667714610670578063c8541cf1146106a2578063cfb18916146106c0578063d89052f5146106de57610269565b8063a1dd575211610115578063a1dd57521461057e578063a55190361461059a578063a5534664146105ca578063a5eda181146105fa578063ae0041aa14610604578063b9341b1c1461062257610269565b806380447e32146104c457806382944e2d146104f7578063840f51f5146105155780638e1f4fcf1461053157806399d8528e1461056257610269565b8063476343ee116101ea57806375829def116101ae57806375829def146103fe578063783e9f711461041a5780637a88d0b5146104365780637ce3489b1461046e5780637ee7cf141461048a5780637fd6f15c146104a657610269565b8063476343ee1461037e5780634cb96a92146103885780635312ea8e146103a65780635c975abb146103c257806360c6d8ae146103e057610269565b806330cb5b4a1161023157806330cb5b4a146102ec57806331794a031461030a57806336ce736b146103265780633e413bee1461034257806342c9c4211461036057610269565b8063086877941461026e5780630e18b6811461028a57806316c38b3c1461029457806326782247146102b05780632e1b5124146102ce575b600080fd5b61028860048036038101906102839190614048565b6107d2565b005b6102926109ec565b005b6102ae60048036038101906102a991906140ad565b610bbe565b005b6102b8610ca0565b6040516102c5919061411b565b60405180910390f35b6102d6610cc6565b6040516102e39190614155565b60405180910390f35b6102f4610cdc565b604051610301919061417f565b60405180910390f35b610324600480360381019061031f9190614048565b610ce2565b005b610340600480360381019061033b9190614206565b610f5e565b005b61034a61107d565b60405161035791906142a5565b60405180910390f35b6103686110a1565b604051610375919061417f565b60405180910390f35b6103866110a7565b005b610390611311565b60405161039d919061417f565b60405180910390f35b6103c060048036038101906103bb9190614048565b61131b565b005b6103ca611780565b6040516103d791906142cf565b60405180910390f35b6103e8611793565b6040516103f5919061417f565b60405180910390f35b61041860048036038101906104139190614316565b611799565b005b610434600480360381019061042f9190614048565b61191d565b005b610450600480360381019061044b9190614048565b611e59565b60405161046599989796959493929190614389565b60405180910390f35b61048860048036038101906104839190614048565b611f19565b005b6104a4600480360381019061049f9190614416565b61202d565b005b6104ae6125a6565b6040516104bb919061417f565b60405180910390f35b6104de60048036038101906104d99190614048565b6125ac565b6040516104ee9493929190614456565b60405180910390f35b6104ff6125dc565b60405161050c919061417f565b60405180910390f35b61052f600480360381019061052a9190614048565b6125e3565b005b61054b60048036038101906105469190614316565b6127dc565b60405161055992919061449b565b60405180910390f35b61057c600480360381019061057791906144f0565b61280d565b005b61059860048036038101906105939190614597565b612d78565b005b6105b460048036038101906105af91906145d7565b612fcc565b6040516105c1919061417f565b60405180910390f35b6105e460048036038101906105df91906145d7565b6131b9565b6040516105f1919061417f565b60405180910390f35b6106026131ea565b005b61060c613319565b604051610619919061417f565b60405180910390f35b61063c60048036038101906106379190614316565b61331f565b60405161064991906142cf565b60405180910390f35b61065a61333f565b60405161066791906146d5565b60405180910390f35b61068a600480360381019061068591906145d7565b6133cd565b604051610699939291906146f7565b60405180910390f35b6106aa613421565b6040516106b7919061472e565b60405180910390f35b6106c8613427565b6040516106d5919061417f565b60405180910390f35b6106f860048036038101906106f39190614048565b613434565b604051610705919061411b565b60405180910390f35b610716613473565b604051610723919061417f565b60405180910390f35b610746600480360381019061074191906145d7565b613479565b005b610750613cd6565b60405161075d919061476a565b60405180910390f35b61076e613cfa565b60405161077b919061411b565b60405180910390f35b61078c613d1e565b604051610799919061417f565b60405180910390f35b6107bc60048036038101906107b79190614316565b613d25565b6040516107c99190614843565b60405180910390f35b60008054906101000a900473ffffffffffffffffffffffffffffffffffffffff1673ffffffffffffffffffffffffffffffffffffffff163373ffffffffffffffffffffffffffffffffffffffff1614610860576040517f08c379a0000000000000000000000000000000000000000000000000000000008152600401610857906148c2565b60405180910390fd5b60028054036108a4576040517f08c379a000000000000000000000000000000000000000000000000000000000815260040161089b9061492e565b60405180910390fd5b600280819055507f000000000000000000000000000000000000000000000000000000000000000073ffffffffffffffffffffffffffffffffffffffff166323b872dd60008054906101000a900473ffffffffffffffffffffffffffffffffffffffff1630846040518463ffffffff1660e01b81526004016109289392919061494e565b6020604051808303816000875af1158015610947573d6000803e3d6000fd5b505050506040513d601f19601f8201168201806040525081019061096b919061499a565b6109aa576040517f08c379a00000000000000000000000000000000000000000000000000000000081526004016109a190614a13565b60405180910390fd5b7fb0daddc179952de74346a5e7759111c9edc9f99ca9204e97c889b85fb55b55c7816040516109d9919061417f565b60405180910390a1600160028190555050565b600160009054906101000a900473ffffffffffffffffffffffffffffffffffffffff1673ffffffffffffffffffffffffffffffffffffffff163373ffffffffffffffffffffffffffffffffffffffff1614610a7c576040517f08c379a0000000000000000000000000000000000000000000000000000000008152600401610a7390614a7f565b60405180910390fd5b600160009054906101000a900473ffffffffffffffffffffffffffffffffffffffff1673ffffffffffffffffffffffffffffffffffffffff1660008054906101000a900473ffffffffffffffffffffffffffffffffffffffff1673ffffffffffffffffffffffffffffffffffffffff167ff8ccb027dfcd135e000e9d45e6cc2d662578a8825d4c45b5e32e0adf67e79ec660405160405180910390a3600160009054906101000a900473ffffffffffffffffffffffffffffffffffffffff166000806101000a81548173ffffffffffffffffffffffffffffffffffffffff021916908373ffffffffffffffffffffffffffffffffffffffff1602179055506000600160006101000a81548173ffffffffffffffffffffffffffffffffffffffff021916908373ffffffffffffffffffffffffffffffffffffffff160217905550565b60008054906101000a900473ffffffffffffffffffffffffffffffffffffffff1673ffffffffffffffffffffffffffffffffffffffff163373ffffffffffffffffffffffffffffffffffffffff1614610c4c576040517f08c379a0000000000000000000000000000000000000000000000000000000008152600401610c43906148c2565b60405180910390fd5b80600160146101000a81548160ff0219169083151502179055507f0e2fb031ee032dc02d8011dc50b816eb450cf856abd8261680dac74f72165bd281604051610c9591906142cf565b60405180910390a150565b600160009054906101000a900473ffffffffffffffffffffffffffffffffffffffff1681565b600660009054906101000a900463ffffffff1681565b60075481565b624c4b40811015610d28576040517f08c379a0000000000000000000000000000000000000000000000000000000008152600401610d1f90614aeb565b60405180910390fd5b6effffffffffffffffffffffffffffff8016811115610d7c576040517f08c379a0000000000000000000000000000000000000000000000000000000008152600401610d7390614b57565b60405180910390fd5b600d60003373ffffffffffffffffffffffffffffffffffffffff1673ffffffffffffffffffffffffffffffffffffffff16815260200190815260200160002060009054906101000a900460ff16610e8957600e339080600181540180825580915050600190039060005260206000200160009091909190916101000a81548173ffffffffffffffffffffffffffffffffffffffff021916908373ffffffffffffffffffffffffffffffffffffffff1602179055506001600d60003373ffffffffffffffffffffffffffffffffffffffff1673ffffffffffffffffffffffffffffffffffffffff16815260200190815260200160002060006101000a81548160ff0219169083151502179055505b604051806040016040528082815260200160011515815250600c60003373ffffffffffffffffffffffffffffffffffffffff1673ffffffffffffffffffffffffffffffffffffffff1681526020019081526020016000206000820151816000015560208201518160010160006101000a81548160ff0219169083151502179055509050503373ffffffffffffffffffffffffffffffffffffffff167f5bccc6c4e703e8efb2f9943a5958ab7ee60a3820c301ab1d6009b6549aa75e8e82604051610f53919061417f565b60405180910390a250565b60008054906101000a900473ffffffffffffffffffffffffffffffffffffffff1673ffffffffffffffffffffffffffffffffffffffff163373ffffffffffffffffffffffffffffffffffffffff1614610fec576040517f08c379a0000000000000000000000000000000000000000000000000000000008152600401610fe3906148c2565b60405180910390fd5b7f000000000000000000000000000000000000000000000000000000000000000073ffffffffffffffffffffffffffffffffffffffff166336ce736b83836040518363ffffffff1660e01b8152600401611047929190614b77565b600060405180830381600087803b15801561106157600080fd5b505af1158015611075573d6000803e3d6000fd5b505050505050565b7f000000000000000000000000000000000000000000000000000000000000000081565b610e1081565b60008054906101000a900473ffffffffffffffffffffffffffffffffffffffff1673ffffffffffffffffffffffffffffffffffffffff163373ffffffffffffffffffffffffffffffffffffffff1614611135576040517f08c379a000000000000000000000000000000000000000000000000000000000815260040161112c906148c2565b60405180910390fd5b6002805403611179576040517f08c379a00000000000000000000000000000000000000000000000000000000081526004016111709061492e565b60405180910390fd5b6002808190555060006005549050600081116111ca576040517f08c379a00000000000000000000000000000000000000000000000000000000081526004016111c190614bec565b60405180910390fd5b60006005819055507f000000000000000000000000000000000000000000000000000000000000000073ffffffffffffffffffffffffffffffffffffffff1663a9059cbb60008054906101000a900473ffffffffffffffffffffffffffffffffffffffff16836040518363ffffffff1660e01b815260040161124d929190614c0c565b6020604051808303816000875af115801561126c573d6000803e3d6000fd5b505050506040513d601f19601f82011682018060405250810190611290919061499a565b6112cf576040517f08c379a00000000000000000000000000000000000000000000000000000000081526004016112c690614a13565b60405180910390fd5b7f9800e6f57aeb4360eaa72295a820a4293e1e66fbfcabcd8874ae141304a76deb816040516112fe919061417f565b60405180910390a1506001600281905550565b6000600754905090565b600280540361135f576040517f08c379a00000000000000000000000000000000000000000000000000000000081526004016113569061492e565b60405180910390fd5b6002808190555060006008600083815260200190815260200160002090508060000160019054906101000a900460ff1680156113aa57508060000160029054906101000a900460ff16155b6113e9576040517f08c379a00000000000000000000000000000000000000000000000000000000081526004016113e090614c81565b60405180910390fd5b62093a80600960008481526020019081526020016000206000015461140e9190614cd0565b421161144f576040517f08c379a000000000000000000000000000000000000000000000000000000000815260040161144690614d50565b60405180910390fd5b6000600a60003373ffffffffffffffffffffffffffffffffffffffff1673ffffffffffffffffffffffffffffffffffffffff1681526020019081526020016000206000848152602001908152602001600020905060008160000154116114ea576040517f08c379a00000000000000000000000000000000000000000000000000000000081526004016114e190614dbc565b60405180910390fd5b8060010160049054906101000a900460ff161561153c576040517f08c379a000000000000000000000000000000000000000000000000000000000815260040161153390614e28565b60405180910390fd5b60018160010160046101000a81548160ff02191690831515021790555060008160000154905060007f000000000000000000000000000000000000000000000000000000000000000073ffffffffffffffffffffffffffffffffffffffff166370a08231306040518263ffffffff1660e01b81526004016115bd919061411b565b602060405180830381865afa1580156115da573d6000803e3d6000fd5b505050506040513d601f19601f820116820180604052508101906115fe9190614e5d565b905060006005548211611612576000611621565b600554826116209190614e8a565b5b905060008184116116325783611634565b815b9050863373ffffffffffffffffffffffffffffffffffffffff167fe6eaa9e244e3ac7b66d442524b15004802abd126e7ffd91eec5703890df31053836000604051611680929190614ef9565b60405180910390a3600081111561176f577f000000000000000000000000000000000000000000000000000000000000000073ffffffffffffffffffffffffffffffffffffffff1663a9059cbb33836040518363ffffffff1660e01b81526004016116ec929190614c0c565b6020604051808303816000875af115801561170b573d6000803e3d6000fd5b505050506040513d601f19601f8201168201806040525081019061172f919061499a565b61176e576040517f08c379a000000000000000000000000000000000000000000000000000000000815260040161176590614a13565b60405180910390fd5b5b505050505050600160028190555050565b600160149054906101000a900460ff1681565b60055481565b60008054906101000a900473ffffffffffffffffffffffffffffffffffffffff1673ffffffffffffffffffffffffffffffffffffffff163373ffffffffffffffffffffffffffffffffffffffff1614611827576040517f08c379a000000000000000000000000000000000000000000000000000000000815260040161181e906148c2565b60405180910390fd5b600073ffffffffffffffffffffffffffffffffffffffff168173ffffffffffffffffffffffffffffffffffffffff1603611896576040517f08c379a000000000000000000000000000000000000000000000000000000000815260040161188d90614f6e565b60405180910390fd5b80600160006101000a81548173ffffffffffffffffffffffffffffffffffffffff021916908373ffffffffffffffffffffffffffffffffffffffff1602179055508073ffffffffffffffffffffffffffffffffffffffff167f7e5a44b25c18c9c756d8bb0c33e9f77d9ab83dc254932c8a69436f23ab74f63460405160405180910390a250565b6002805403611961576040517f08c379a00000000000000000000000000000000000000000000000000000000081526004016119589061492e565b60405180910390fd5b6002808190555060006008600083815260200190815260200160002090508060000160029054906101000a900460ff166119d0576040517f08c379a00000000000000000000000000000000000000000000000000000000081526004016119c790614fda565b60405180910390fd5b6000600a60003373ffffffffffffffffffffffffffffffffffffffff1673ffffffffffffffffffffffffffffffffffffffff168152602001908152602001600020600084815260200190815260200160002090506000816000015411611a6b576040517f08c379a0000000000000000000000000000000000000000000000000000000008152600401611a6290614dbc565b60405180910390fd5b8060010160049054906101000a900460ff1615611abd576040517f08c379a0000000000000000000000000000000000000000000000000000000008152600401611ab490614e28565b60405180910390fd5b60018160010160046101000a81548160ff0219169083151502179055506000816000015490506000806000856001015412611bc457600085600001601b9054906101000a900462ffffff1662ffffff16866001015485611b1d9190614ffa565b611b279190614ffa565b90506103e861271080611b3a9190614ffa565b611b449190614ffa565b866002015482611b549190614ffa565b611b5e919061506b565b915060006103e8612710611b729190614ffa565b82611b7d919061506b565b905080831115611b8b578092505b8260056000828254611b9d9190614cd0565b92505081905550828186611bb19190614cd0565b611bbb9190614e8a565b93505050611c42565b60006103e8612710611bd69190614ffa565b86600001601b9054906101000a900462ffffff1662ffffff168760010154611bfd9061509c565b86611c089190614ffa565b611c129190614ffa565b611c1c919061506b565b905083811015611c37578084611c329190614e8a565b611c3a565b60005b925060009150505b60007f000000000000000000000000000000000000000000000000000000000000000073ffffffffffffffffffffffffffffffffffffffff166370a08231306040518263ffffffff1660e01b8152600401611c9d919061411b565b602060405180830381865afa158015611cba573d6000803e3d6000fd5b505050506040513d601f19601f82011682018060405250810190611cde9190614e5d565b905060006005548211611cf2576000611d01565b60055482611d009190614e8a565b5b905080841115611d0f578093505b873373ffffffffffffffffffffffffffffffffffffffff167fe6eaa9e244e3ac7b66d442524b15004802abd126e7ffd91eec5703890df310538686604051611d589291906150e4565b60405180910390a36000841115611e47577f000000000000000000000000000000000000000000000000000000000000000073ffffffffffffffffffffffffffffffffffffffff1663a9059cbb33866040518363ffffffff1660e01b8152600401611dc4929190614c0c565b6020604051808303816000875af1158015611de3573d6000803e3d6000fd5b505050506040513d601f19601f82011682018060405250810190611e07919061499a565b611e46576040517f08c379a0000000000000000000000000000000000000000000000000000000008152600401611e3d90614a13565b60405180910390fd5b5b50505050505050600160028190555050565b60086020528060005260406000206000915090508060000160009054906101000a900460ff16908060000160019054906101000a900460ff16908060000160029054906101000a900460ff16908060000160039054906101000a900467ffffffffffffffff169080600001600b9054906101000a900467ffffffffffffffff16908060000160139054906101000a900467ffffffffffffffff169080600001601b9054906101000a900462ffffff16908060010154908060020154905089565b60008054906101000a900473ffffffffffffffffffffffffffffffffffffffff1673ffffffffffffffffffffffffffffffffffffffff163373ffffffffffffffffffffffffffffffffffffffff1614611fa7576040517f08c379a0000000000000000000000000000000000000000000000000000000008152600401611f9e906148c2565b60405180910390fd5b6107d0811115611fec576040517f08c379a0000000000000000000000000000000000000000000000000000000008152600401611fe390615159565b60405180910390fd5b806003819055507f8c4d35e54a3f2ef1134138fd8ea3daee6a3c89e10d2665996babdf70261e2c7681604051612022919061417f565b60405180910390a150565b600160149054906101000a900460ff161561207d576040517f08c379a0000000000000000000000000000000000000000000000000000000008152600401612074906151c5565b60405180910390fd5b60028054036120c1576040517f08c379a00000000000000000000000000000000000000000000000000000000081526004016120b89061492e565b60405180910390fd5b6002808190555060006008600084815260200190815260200160002090508060000160019054906101000a900460ff16801561210c57508060000160029054906101000a900460ff16155b61214b576040517f08c379a000000000000000000000000000000000000000000000000000000000815260040161214290614c81565b60405180910390fd5b610e10600960008581526020019081526020016000206000015461216f9190614cd0565b4211156121b1576040517f08c379a00000000000000000000000000000000000000000000000000000000081526004016121a890615231565b60405180910390fd5b624c4b408210156121f7576040517f08c379a00000000000000000000000000000000000000000000000000000000081526004016121ee90614aeb565b60405180910390fd5b6000600a60003373ffffffffffffffffffffffffffffffffffffffff1673ffffffffffffffffffffffffffffffffffffffff1681526020019081526020016000206000858152602001908152602001600020600001541461228d576040517f08c379a00000000000000000000000000000000000000000000000000000000081526004016122849061529d565b60405180910390fd5b6000600660009054906101000a900463ffffffff1690506006600081819054906101000a900463ffffffff16809291906122c6906152bd565b91906101000a81548163ffffffff021916908363ffffffff1602179055505060405180606001604052808481526020018263ffffffff16815260200160001515815250600a60003373ffffffffffffffffffffffffffffffffffffffff1673ffffffffffffffffffffffffffffffffffffffff16815260200190815260200160002060008681526020019081526020016000206000820151816000015560208201518160010160006101000a81548163ffffffff021916908363ffffffff16021790555060408201518160010160046101000a81548160ff021916908315150217905550905050600b60003373ffffffffffffffffffffffffffffffffffffffff1673ffffffffffffffffffffffffffffffffffffffff16815260200190815260200160002084908060018154018082558091505060019003906000526020600020016000909190919091505560006009600086815260200190815260200160002090508381600201600082825461243e9190614cd0565b9250508190555080600301600081548092919061245a906152e9565b9190505550843373ffffffffffffffffffffffffffffffffffffffff167f0781b72d927fc2fcfd2be33c7fbfa6c56aaf0a10406aee7bb7538f0e522bf0bc866040516124a6919061417f565b60405180910390a37f000000000000000000000000000000000000000000000000000000000000000073ffffffffffffffffffffffffffffffffffffffff166323b872dd3330876040518463ffffffff1660e01b815260040161250b9392919061494e565b6020604051808303816000875af115801561252a573d6000803e3d6000fd5b505050506040513d601f19601f8201168201806040525081019061254e919061499a565b61258d576040517f08c379a00000000000000000000000000000000000000000000000000000000081526004016125849061537d565b60405180910390fd5b6125978385613dbc565b50505060016002819055505050565b60035481565b60096020528060005260406000206000915090508060000154908060010154908060020154908060030154905084565b62093a8081565b60008054906101000a900473ffffffffffffffffffffffffffffffffffffffff1673ffffffffffffffffffffffffffffffffffffffff163373ffffffffffffffffffffffffffffffffffffffff1614612671576040517f08c379a0000000000000000000000000000000000000000000000000000000008152600401612668906148c2565b60405180910390fd5b60075481146126b5576040517f08c379a00000000000000000000000000000000000000000000000000000000081526004016126ac906153e9565b60405180910390fd5b60006008600083815260200190815260200160002090508060000160019054906101000a900460ff1680156126f957508060000160029054906101000a900460ff16155b612738576040517f08c379a000000000000000000000000000000000000000000000000000000000815260040161272f90615455565b60405180910390fd5b60008160000160016101000a81548160ff02191690831515021790555060018160000160026101000a81548160ff021916908315150217905550600081600101819055504260096000848152602001908152602001600020600101819055506000600781905550817f40277e9171139c6aea3baad573ce3b0f843e17979f9b03706fe89b0ebea1cbff60006040516127d091906154a6565b60405180910390a25050565b600c6020528060005260406000206000915090508060000154908060010160009054906101000a900460ff16905082565b60008054906101000a900473ffffffffffffffffffffffffffffffffffffffff1673ffffffffffffffffffffffffffffffffffffffff163373ffffffffffffffffffffffffffffffffffffffff161461289b576040517f08c379a0000000000000000000000000000000000000000000000000000000008152600401612892906148c2565b60405180910390fd5b600160149054906101000a900460ff16156128eb576040517f08c379a00000000000000000000000000000000000000000000000000000000081526004016128e2906151c5565b60405180910390fd5b6107d08162ffffff161015801561290a57506203d0908162ffffff1611155b612949576040517f08c379a00000000000000000000000000000000000000000000000000000000081526004016129409061550d565b60405180910390fd5b60008467ffffffffffffffff1611801561296d575060008367ffffffffffffffff16115b8015612983575060008267ffffffffffffffff16115b6129c2576040517f08c379a00000000000000000000000000000000000000000000000000000000081526004016129b990615579565b60405180910390fd5b600060075414612a07576040517f08c379a00000000000000000000000000000000000000000000000000000000081526004016129fe906155e5565b60405180910390fd5b8415612a87578367ffffffffffffffff168367ffffffffffffffff16118015612a4357508367ffffffffffffffff168267ffffffffffffffff16105b612a82576040517f08c379a0000000000000000000000000000000000000000000000000000000008152600401612a7990615651565b60405180910390fd5b612afd565b8367ffffffffffffffff168367ffffffffffffffff16108015612abd57508367ffffffffffffffff168267ffffffffffffffff16115b612afc576040517f08c379a0000000000000000000000000000000000000000000000000000000008152600401612af3906156bd565b60405180910390fd5b5b60046000815480929190612b10906152e9565b919050555060405180610120016040528086151581526020016001151581526020016000151581526020018567ffffffffffffffff1681526020018467ffffffffffffffff1681526020018367ffffffffffffffff1681526020018262ffffff1681526020016000815260200160035481525060086000600454815260200190815260200160002060008201518160000160006101000a81548160ff02191690831515021790555060208201518160000160016101000a81548160ff02191690831515021790555060408201518160000160026101000a81548160ff02191690831515021790555060608201518160000160036101000a81548167ffffffffffffffff021916908367ffffffffffffffff160217905550608082015181600001600b6101000a81548167ffffffffffffffff021916908367ffffffffffffffff16021790555060a08201518160000160136101000a81548167ffffffffffffffff021916908367ffffffffffffffff16021790555060c082015181600001601b6101000a81548162ffffff021916908362ffffff16021790555060e082015181600101556101008201518160020155905050604051806080016040528042815260200160008152602001600081526020016000815250600960006004548152602001908152602001600020600082015181600001556020820151816001015560408201518160020155606082015181600301559050506004546007819055506004547fb3d05fed32daec5aa56697b6be763432a7921ad08804e3fd7be57f5ffd8e84db8686868686604051612d699594939291906156dd565b60405180910390a25050505050565b60008054906101000a900473ffffffffffffffffffffffffffffffffffffffff1673ffffffffffffffffffffffffffffffffffffffff163373ffffffffffffffffffffffffffffffffffffffff1614612e06576040517f08c379a0000000000000000000000000000000000000000000000000000000008152600401612dfd906148c2565b60405180910390fd5b6007548214612e4a576040517f08c379a0000000000000000000000000000000000000000000000000000000008152600401612e41906153e9565b60405180910390fd5b611388612e569061509c565b8112158015612e6757506113888113155b612ea6576040517f08c379a0000000000000000000000000000000000000000000000000000000008152600401612e9d9061577c565b60405180910390fd5b60006008600084815260200190815260200160002090508060000160019054906101000a900460ff168015612eea57508060000160029054906101000a900460ff16155b612f29576040517f08c379a0000000000000000000000000000000000000000000000000000000008152600401612f2090615455565b60405180910390fd5b60008160000160016101000a81548160ff02191690831515021790555060018160000160026101000a81548160ff0219169083151502179055508181600101819055504260096000858152602001908152602001600020600101819055506000600781905550827f40277e9171139c6aea3baad573ce3b0f843e17979f9b03706fe89b0ebea1cbff83604051612fbf919061472e565b60405180910390a2505050565b6000806008600084815260200190815260200160002090506000600a60008673ffffffffffffffffffffffffffffffffffffffff1673ffffffffffffffffffffffffffffffffffffffff1681526020019081526020016000206000858152602001908152602001600020600001549050600081148061305a57508160000160029054906101000a900460ff16155b1561306a576000925050506131b3565b600082600101541261313457600082600001601b9054906101000a900462ffffff1662ffffff168360010154836130a19190614ffa565b6130ab9190614ffa565b905060006103e8612710806130c09190614ffa565b6130ca9190614ffa565b8460020154836130da9190614ffa565b6130e4919061506b565b905060006103e86127106130f89190614ffa565b83613103919061506b565b905080821115613111578091505b81818561311e9190614cd0565b6131289190614e8a565b955050505050506131b3565b60006103e86127106131469190614ffa565b83600001601b9054906101000a900462ffffff1662ffffff16846001015461316d9061509c565b846131789190614ffa565b6131829190614ffa565b61318c919061506b565b90508181106131a157600093505050506131b3565b80826131ad9190614e8a565b93505050505b92915050565b600b60205281600052604060002081815481106131d557600080fd5b90600052602060002001600091509150505481565b600c60003373ffffffffffffffffffffffffffffffffffffffff1673ffffffffffffffffffffffffffffffffffffffff16815260200190815260200160002060010160009054906101000a900460ff16613279576040517f08c379a0000000000000000000000000000000000000000000000000000000008152600401613270906157e8565b60405180910390fd5b6000600c60003373ffffffffffffffffffffffffffffffffffffffff1673ffffffffffffffffffffffffffffffffffffffff16815260200190815260200160002060010160006101000a81548160ff0219169083151502179055503373ffffffffffffffffffffffffffffffffffffffff167fc3f8909f4265c5b63d7d761bd8e16f650147eafd2ba56de2cea36f4080fcbba360405160405180910390a2565b60045481565b600d6020528060005260406000206000915054906101000a900460ff1681565b6060600e8054806020026020016040519081016040528092919081815260200182805480156133c357602002820191906000526020600020905b8160009054906101000a900473ffffffffffffffffffffffffffffffffffffffff1673ffffffffffffffffffffffffffffffffffffffff1681526020019060010190808311613379575b5050505050905090565b600a602052816000526040600020602052806000526040600020600091509150508060000154908060010160009054906101000a900463ffffffff16908060010160049054906101000a900460ff16905083565b61138881565b6000600e80549050905090565b600e818154811061344457600080fd5b906000526020600020016000915054906101000a900473ffffffffffffffffffffffffffffffffffffffff1681565b61271081565b60008054906101000a900473ffffffffffffffffffffffffffffffffffffffff1673ffffffffffffffffffffffffffffffffffffffff163373ffffffffffffffffffffffffffffffffffffffff1614613507576040517f08c379a00000000000000000000000000000000000000000000000000000000081526004016134fe906148c2565b60405180910390fd5b600160149054906101000a900460ff1615613557576040517f08c379a000000000000000000000000000000000000000000000000000000000815260040161354e906151c5565b60405180910390fd5b600280540361359b576040517f08c379a00000000000000000000000000000000000000000000000000000000081526004016135929061492e565b60405180910390fd5b600280819055506000600c60008473ffffffffffffffffffffffffffffffffffffffff1673ffffffffffffffffffffffffffffffffffffffff16815260200190815260200160002090508060010160009054906101000a900460ff16613636576040517f08c379a000000000000000000000000000000000000000000000000000000000815260040161362d906157e8565b60405180910390fd5b624c4b4081600001541015613680576040517f08c379a000000000000000000000000000000000000000000000000000000000815260040161367790615854565b60405180910390fd5b60006008600084815260200190815260200160002090508060000160019054906101000a900460ff1680156136c457508060000160029054906101000a900460ff16155b613703576040517f08c379a00000000000000000000000000000000000000000000000000000000081526004016136fa90614c81565b60405180910390fd5b610e1060096000858152602001908152602001600020600001546137279190614cd0565b421115613769576040517f08c379a000000000000000000000000000000000000000000000000000000000815260040161376090615231565b60405180910390fd5b6000600a60008673ffffffffffffffffffffffffffffffffffffffff1673ffffffffffffffffffffffffffffffffffffffff168152602001908152602001600020600085815260200190815260200160002060000154146137ff576040517f08c379a00000000000000000000000000000000000000000000000000000000081526004016137f69061529d565b60405180910390fd5b60008260000154905060007f000000000000000000000000000000000000000000000000000000000000000073ffffffffffffffffffffffffffffffffffffffff166370a08231876040518263ffffffff1660e01b8152600401613863919061411b565b602060405180830381865afa158015613880573d6000803e3d6000fd5b505050506040513d601f19601f820116820180604052508101906138a49190614e5d565b9050818110156138b75750505050613cca565b60007f000000000000000000000000000000000000000000000000000000000000000073ffffffffffffffffffffffffffffffffffffffff1663dd62ed3e88306040518363ffffffff1660e01b8152600401613914929190615874565b602060405180830381865afa158015613931573d6000803e3d6000fd5b505050506040513d601f19601f820116820180604052508101906139559190614e5d565b905082811015613969575050505050613cca565b6000600660009054906101000a900463ffffffff1690506006600081819054906101000a900463ffffffff16809291906139a2906152bd565b91906101000a81548163ffffffff021916908363ffffffff1602179055505060405180606001604052808581526020018263ffffffff16815260200160001515815250600a60008a73ffffffffffffffffffffffffffffffffffffffff1673ffffffffffffffffffffffffffffffffffffffff16815260200190815260200160002060008981526020019081526020016000206000820151816000015560208201518160010160006101000a81548163ffffffff021916908363ffffffff16021790555060408201518160010160046101000a81548160ff021916908315150217905550905050600b60008973ffffffffffffffffffffffffffffffffffffffff1673ffffffffffffffffffffffffffffffffffffffff168152602001908152602001600020879080600181540180825580915050600190039060005260206000200160009091909190915055600060096000898152602001908152602001600020905084816002016000828254613b1a9190614cd0565b92505081905550806003016000815480929190613b36906152e9565b9190505550878973ffffffffffffffffffffffffffffffffffffffff167f50970995f776987bcfd0053b1488bc9823f1c134be16465d2a4d8a6701ecaa8287604051613b82919061417f565b60405180910390a3878973ffffffffffffffffffffffffffffffffffffffff167f0781b72d927fc2fcfd2be33c7fbfa6c56aaf0a10406aee7bb7538f0e522bf0bc87604051613bd1919061417f565b60405180910390a37f000000000000000000000000000000000000000000000000000000000000000073ffffffffffffffffffffffffffffffffffffffff166323b872dd8a30886040518463ffffffff1660e01b8152600401613c369392919061494e565b6020604051808303816000875af1158015613c55573d6000803e3d6000fd5b505050506040513d601f19601f82011682018060405250810190613c79919061499a565b613cb8576040517f08c379a0000000000000000000000000000000000000000000000000000000008152600401613caf9061537d565b60405180910390fd5b613cc28686613dbc565b505050505050505b60016002819055505050565b7f000000000000000000000000000000000000000000000000000000000000000081565b60008054906101000a900473ffffffffffffffffffffffffffffffffffffffff1681565b624c4b4081565b6060600b60008373ffffffffffffffffffffffffffffffffffffffff1673ffffffffffffffffffffffffffffffffffffffff168152602001908152602001600020805480602002602001604051908101604052809291908181526020018280548015613db057602002820191906000526020600020905b815481526020019060010190808311613d9c575b50505050509050919050565b6effffffffffffffffffffffffffffff8016811115613e10576040517f08c379a0000000000000000000000000000000000000000000000000000000008152600401613e0790614b57565b60405180910390fd5b6000604051806101e001604052803073ffffffffffffffffffffffffffffffffffffffff168152602001600063ffffffff168152602001605a61ffff16815260200184600001601b9054906101000a900462ffffff1662ffffff1681526020018460000160009054906101000a900460ff1615158152602001600115158152602001600360ff16815260200160006002811115613eb057613eaf61589d565b5b8152602001836effffffffffffffffffffffffffffff1681526020018460000160039054906101000a900467ffffffffffffffff1667ffffffffffffffff16815260200184600001600b9054906101000a900467ffffffffffffffff1667ffffffffffffffff1681526020018460000160139054906101000a900467ffffffffffffffff1667ffffffffffffffff168152602001600015158152602001600073ffffffffffffffffffffffffffffffffffffffff168152602001600062ffffff1681525090507f000000000000000000000000000000000000000000000000000000000000000073ffffffffffffffffffffffffffffffffffffffff16635bfcc4f8826103e860006040518463ffffffff1660e01b8152600401613fd693929190615b32565b600060405180830381600087803b158015613ff057600080fd5b505af1158015614004573d6000803e3d6000fd5b50505050505050565b600080fd5b6000819050919050565b61402581614012565b811461403057600080fd5b50565b6000813590506140428161401c565b92915050565b60006020828403121561405e5761405d61400d565b5b600061406c84828501614033565b91505092915050565b60008115159050919050565b61408a81614075565b811461409557600080fd5b50565b6000813590506140a781614081565b92915050565b6000602082840312156140c3576140c261400d565b5b60006140d184828501614098565b91505092915050565b600073ffffffffffffffffffffffffffffffffffffffff82169050919050565b6000614105826140da565b9050919050565b614115816140fa565b82525050565b6000602082019050614130600083018461410c565b92915050565b600063ffffffff82169050919050565b61414f81614136565b82525050565b600060208201905061416a6000830184614146565b92915050565b61417981614012565b82525050565b60006020820190506141946000830184614170565b92915050565b6141a381614136565b81146141ae57600080fd5b50565b6000813590506141c08161419a565b92915050565b600067ffffffffffffffff82169050919050565b6141e3816141c6565b81146141ee57600080fd5b50565b600081359050614200816141da565b92915050565b6000806040838503121561421d5761421c61400d565b5b600061422b858286016141b1565b925050602061423c858286016141f1565b9150509250929050565b6000819050919050565b600061426b614266614261846140da565b614246565b6140da565b9050919050565b600061427d82614250565b9050919050565b600061428f82614272565b9050919050565b61429f81614284565b82525050565b60006020820190506142ba6000830184614296565b92915050565b6142c981614075565b82525050565b60006020820190506142e460008301846142c0565b92915050565b6142f3816140fa565b81146142fe57600080fd5b50565b600081359050614310816142ea565b92915050565b60006020828403121561432c5761432b61400d565b5b600061433a84828501614301565b91505092915050565b61434c816141c6565b82525050565b600062ffffff82169050919050565b61436a81614352565b82525050565b6000819050919050565b61438381614370565b82525050565b60006101208201905061439f600083018c6142c0565b6143ac602083018b6142c0565b6143b9604083018a6142c0565b6143c66060830189614343565b6143d36080830188614343565b6143e060a0830187614343565b6143ed60c0830186614361565b6143fa60e083018561437a565b614408610100830184614170565b9a9950505050505050505050565b6000806040838503121561442d5761442c61400d565b5b600061443b85828601614033565b925050602061444c85828601614033565b9150509250929050565b600060808201905061446b6000830187614170565b6144786020830186614170565b6144856040830185614170565b6144926060830184614170565b95945050505050565b60006040820190506144b06000830185614170565b6144bd60208301846142c0565b9392505050565b6144cd81614352565b81146144d857600080fd5b50565b6000813590506144ea816144c4565b92915050565b600080600080600060a0868803121561450c5761450b61400d565b5b600061451a88828901614098565b955050602061452b888289016141f1565b945050604061453c888289016141f1565b935050606061454d888289016141f1565b925050608061455e888289016144db565b9150509295509295909350565b61457481614370565b811461457f57600080fd5b50565b6000813590506145918161456b565b92915050565b600080604083850312156145ae576145ad61400d565b5b60006145bc85828601614033565b92505060206145cd85828601614582565b9150509250929050565b600080604083850312156145ee576145ed61400d565b5b60006145fc85828601614301565b925050602061460d85828601614033565b9150509250929050565b600081519050919050565b600082825260208201905092915050565b6000819050602082019050919050565b61464c816140fa565b82525050565b600061465e8383614643565b60208301905092915050565b6000602082019050919050565b600061468282614617565b61468c8185614622565b935061469783614633565b8060005b838110156146c85781516146af8882614652565b97506146ba8361466a565b92505060018101905061469b565b5085935050505092915050565b600060208201905081810360008301526146ef8184614677565b905092915050565b600060608201905061470c6000830186614170565b6147196020830185614146565b61472660408301846142c0565b949350505050565b6000602082019050614743600083018461437a565b92915050565b600061475482614272565b9050919050565b61476481614749565b82525050565b600060208201905061477f600083018461475b565b92915050565b600081519050919050565b600082825260208201905092915050565b6000819050602082019050919050565b6147ba81614012565b82525050565b60006147cc83836147b1565b60208301905092915050565b6000602082019050919050565b60006147f082614785565b6147fa8185614790565b9350614805836147a1565b8060005b8381101561483657815161481d88826147c0565b9750614828836147d8565b925050600181019050614809565b5085935050505092915050565b6000602082019050818103600083015261485d81846147e5565b905092915050565b600082825260208201905092915050565b7f4e6f742061646d696e0000000000000000000000000000000000000000000000600082015250565b60006148ac600983614865565b91506148b782614876565b602082019050919050565b600060208201905081810360008301526148db8161489f565b9050919050565b7f5265656e7472616e740000000000000000000000000000000000000000000000600082015250565b6000614918600983614865565b9150614923826148e2565b602082019050919050565b600060208201905081810360008301526149478161490b565b9050919050565b6000606082019050614963600083018661410c565b614970602083018561410c565b61497d6040830184614170565b949350505050565b60008151905061499481614081565b92915050565b6000602082840312156149b0576149af61400d565b5b60006149be84828501614985565b91505092915050565b7f4661696c65640000000000000000000000000000000000000000000000000000600082015250565b60006149fd600683614865565b9150614a08826149c7565b602082019050919050565b60006020820190508181036000830152614a2c816149f0565b9050919050565b7f4e6f742070656e64696e672061646d696e000000000000000000000000000000600082015250565b6000614a69601183614865565b9150614a7482614a33565b602082019050919050565b60006020820190508181036000830152614a9881614a5c565b9050919050565b7f4d696e2035205553444300000000000000000000000000000000000000000000600082015250565b6000614ad5600a83614865565b9150614ae082614a9f565b602082019050919050565b60006020820190508181036000830152614b0481614ac8565b9050919050565b7f416d6f756e7420746f6f206c6172676500000000000000000000000000000000600082015250565b6000614b41601083614865565b9150614b4c82614b0b565b602082019050919050565b60006020820190508181036000830152614b7081614b34565b9050919050565b6000604082019050614b8c6000830185614146565b614b996020830184614343565b9392505050565b7f4e6f206665657300000000000000000000000000000000000000000000000000600082015250565b6000614bd6600783614865565b9150614be182614ba0565b602082019050919050565b60006020820190508181036000830152614c0581614bc9565b9050919050565b6000604082019050614c21600083018561410c565b614c2e6020830184614170565b9392505050565b7f4e6f742061637469766500000000000000000000000000000000000000000000600082015250565b6000614c6b600a83614865565b9150614c7682614c35565b602082019050919050565b60006020820190508181036000830152614c9a81614c5e565b9050919050565b7f4e487b7100000000000000000000000000000000000000000000000000000000600052601160045260246000fd5b6000614cdb82614012565b9150614ce683614012565b9250828201905080821115614cfe57614cfd614ca1565b5b92915050565b7f546f6f206561726c790000000000000000000000000000000000000000000000600082015250565b6000614d3a600983614865565b9150614d4582614d04565b602082019050919050565b60006020820190508181036000830152614d6981614d2d565b9050919050565b7f4e6f20706f736974696f6e000000000000000000000000000000000000000000600082015250565b6000614da6600b83614865565b9150614db182614d70565b602082019050919050565b60006020820190508181036000830152614dd581614d99565b9050919050565b7f436c61696d656400000000000000000000000000000000000000000000000000600082015250565b6000614e12600783614865565b9150614e1d82614ddc565b602082019050919050565b60006020820190508181036000830152614e4181614e05565b9050919050565b600081519050614e578161401c565b92915050565b600060208284031215614e7357614e7261400d565b5b6000614e8184828501614e48565b91505092915050565b6000614e9582614012565b9150614ea083614012565b9250828203905081811115614eb857614eb7614ca1565b5b92915050565b6000819050919050565b6000614ee3614ede614ed984614ebe565b614246565b614012565b9050919050565b614ef381614ec8565b82525050565b6000604082019050614f0e6000830185614170565b614f1b6020830184614eea565b9392505050565b7f5a65726f20616464720000000000000000000000000000000000000000000000600082015250565b6000614f58600983614865565b9150614f6382614f22565b602082019050919050565b60006020820190508181036000830152614f8781614f4b565b9050919050565b7f4e6f7420636c6f73656400000000000000000000000000000000000000000000600082015250565b6000614fc4600a83614865565b9150614fcf82614f8e565b602082019050919050565b60006020820190508181036000830152614ff381614fb7565b9050919050565b600061500582614012565b915061501083614012565b925082820261501e81614012565b9150828204841483151761503557615034614ca1565b5b5092915050565b7f4e487b7100000000000000000000000000000000000000000000000000000000600052601260045260246000fd5b600061507682614012565b915061508183614012565b9250826150915761509061503c565b5b828204905092915050565b60006150a782614370565b91507f800000000000000000000000000000000000000000000000000000000000000082036150d9576150d8614ca1565b5b816000039050919050565b60006040820190506150f96000830185614170565b6151066020830184614170565b9392505050565b7f4d61782032302500000000000000000000000000000000000000000000000000600082015250565b6000615143600783614865565b915061514e8261510d565b602082019050919050565b6000602082019050818103600083015261517281615136565b9050919050565b7f5061757365640000000000000000000000000000000000000000000000000000600082015250565b60006151af600683614865565b91506151ba82615179565b602082019050919050565b600060208201905081810360008301526151de816151a2565b9050919050565b7f436f70792077696e646f7720636c6f7365640000000000000000000000000000600082015250565b600061521b601283614865565b9150615226826151e5565b602082019050919050565b6000602082019050818103600083015261524a8161520e565b9050919050565b7f416c726561647920636f70696564000000000000000000000000000000000000600082015250565b6000615287600e83614865565b915061529282615251565b602082019050919050565b600060208201905081810360008301526152b68161527a565b9050919050565b60006152c882614136565b915063ffffffff82036152de576152dd614ca1565b5b600182019050919050565b60006152f482614012565b91507fffffffffffffffffffffffffffffffffffffffffffffffffffffffffffffffff820361532657615325614ca1565b5b600182019050919050565b7f5472616e73666572206661696c65640000000000000000000000000000000000600082015250565b6000615367600f83614865565b915061537282615331565b602082019050919050565b600060208201905081810360008301526153968161535a565b9050919050565b7f4e6f7420616374697665207369676e616c000000000000000000000000000000600082015250565b60006153d3601183614865565b91506153de8261539d565b602082019050919050565b60006020820190508181036000830152615402816153c6565b9050919050565b7f496e76616c696400000000000000000000000000000000000000000000000000600082015250565b600061543f600783614865565b915061544a82615409565b602082019050919050565b6000602082019050818103600083015261546e81615432565b9050919050565b600061549061548b61548684614ebe565b614246565b614370565b9050919050565b6154a081615475565b82525050565b60006020820190506154bb6000830184615497565b92915050565b7f4c65762032782d32353078000000000000000000000000000000000000000000600082015250565b60006154f7600b83614865565b9150615502826154c1565b602082019050919050565b60006020820190508181036000830152615526816154ea565b9050919050565b7f4261642070726963657300000000000000000000000000000000000000000000600082015250565b6000615563600a83614865565b915061556e8261552d565b602082019050919050565b6000602082019050818103600083015261559281615556565b9050919050565b7f436c6f736520616374697665207369676e616c20666972737400000000000000600082015250565b60006155cf601983614865565b91506155da82615599565b602082019050919050565b600060208201905081810360008301526155fe816155c2565b9050919050565b7f4c6f6e673a2054503e656e7472793e534c000000000000000000000000000000600082015250565b600061563b601183614865565b915061564682615605565b602082019050919050565b6000602082019050818103600083015261566a8161562e565b9050919050565b7f53686f72743a2054503c656e7472793c534c0000000000000000000000000000600082015250565b60006156a7601283614865565b91506156b282615671565b602082019050919050565b600060208201905081810360008301526156d68161569a565b9050919050565b600060a0820190506156f260008301886142c0565b6156ff6020830187614343565b61570c6040830186614343565b6157196060830185614343565b6157266080830184614361565b9695505050505050565b7f526573756c74206f7574206f662072616e676500000000000000000000000000600082015250565b6000615766601383614865565b915061577182615730565b602082019050919050565b6000602082019050818103600083015261579581615759565b9050919050565b7f4e6f7420656e61626c6564000000000000000000000000000000000000000000600082015250565b60006157d2600b83614865565b91506157dd8261579c565b602082019050919050565b60006020820190508181036000830152615801816157c5565b9050919050565b7f416d6f756e7420746f6f206c6f77000000000000000000000000000000000000600082015250565b600061583e600e83614865565b915061584982615808565b602082019050919050565b6000602082019050818103600083015261586d81615831565b9050919050565b6000604082019050615889600083018561410c565b615896602083018461410c565b9392505050565b7f4e487b7100000000000000000000000000000000000000000000000000000000600052602160045260246000fd5b6158d581614136565b82525050565b600061ffff82169050919050565b6158f2816158db565b82525050565b61590181614352565b82525050565b61591081614075565b82525050565b600060ff82169050919050565b61592c81615916565b82525050565b600381106159435761594261589d565b5b50565b600081905061595482615932565b919050565b600061596482615946565b9050919050565b61597481615959565b82525050565b60006effffffffffffffffffffffffffffff82169050919050565b61599e8161597a565b82525050565b6159ad816141c6565b82525050565b6159bc816140da565b82525050565b6101e0820160008201516159d96000850182614643565b5060208201516159ec60208501826158cc565b5060408201516159ff60408501826158e9565b506060820151615a1260608501826158f8565b506080820151615a256080850182615907565b5060a0820151615a3860a0850182615907565b5060c0820151615a4b60c0850182615923565b5060e0820151615a5e60e085018261596b565b50610100820151615a73610100850182615995565b50610120820151615a886101208501826159a4565b50610140820151615a9d6101408501826159a4565b50610160820151615ab26101608501826159a4565b50610180820151615ac7610180850182615907565b506101a0820151615adc6101a08501826159b3565b506101c0820151615af16101c08501826158f8565b50505050565b6000819050919050565b6000615b1c615b17615b1284615af7565b614246565b6158db565b9050919050565b615b2c81615b01565b82525050565b600061022082019050615b4860008301866159c2565b615b566101e0830185615b23565b615b6461020083018461410c565b94935050505056fea2646970667358221220b7b23152f7ef47c5002eb41d4644c3aa9cf16bbea54c8328323c4ec61f8b01e964736f6c63430008130033","linkReferences":{}},"methodIdentifiers":{"BASIS_POINTS()":"e1f1c4a7","COPY_WINDOW()":"42c9c421","EMERGENCY_DELAY()":"82944e2d","MAX_RESULT_PCT()":"c8541cf1","MIN_COLLATERAL()":"fa779648","acceptAdmin()":"0e18b681","activeSignalId()":"30cb5b4a","admin()":"f851a440","adminDeposit(uint256)":"08687794","autoCopy(address)":"8e1f4fcf","autoCopyUsers(uint256)":"d89052f5","cancelSignal(uint256)":"840f51f5","claimProceeds(uint256)":"783e9f71","closeSignal(uint256,int256)":"a1dd5752","closeTradeMarket(uint32,uint64)":"36ce736b","copyTrade(uint256,uint256)":"7ee7cf14","diamond()":"f0b7db4e","disableAutoCopy()":"a5eda181","emergencyWithdraw(uint256)":"5312ea8e","enableAutoCopy(uint256)":"31794a03","executeCopyFor(address,uint256)":"e6b8d04f","feePercent()":"7fd6f15c","getActiveSignalId()":"4cb96a92","getAutoCopyUserCount()":"cfb18916","getAutoCopyUsers()":"be55b9e5","getExpectedPayout(address,uint256)":"a5519036","getUserSignalIds(address)":"fc6fee9c","isAutoCopyUser(address)":"b9341b1c","nextTradeIndex()":"2e1b5124","paused()":"5c975abb","pendingAdmin()":"26782247","positions(address,uint256)":"c1be6677","postSignal(bool,uint64,uint64,uint64,uint24)":"99d8528e","setFeePercent(uint256)":"7ce3489b","setPaused(bool)":"16c38b3c","signalCore(uint256)":"7a88d0b5","signalCount()":"ae0041aa","signalMeta(uint256)":"80447e32","totalFeesCollected()":"60c6d8ae","transferAdmin(address)":"75829def","usdc()":"3e413bee","userSignalIds(address,uint256)":"a5534664","withdrawFees()":"476343ee"},"id":0}