{
  "_format": "hh-sol-artifact-1",
  "contractName": "SmartTradingGoldBot",
  "sourceName": "contracts/SmartTradingGoldBot.sol",
  "abi": [
    {
      "inputs": [
        {
          "internalType": "address",
          "name": "_usdcAddress",
          "type": "address"
        }
      ],
      "stateMutability": "nonpayable",
      "type": "constructor"
    },
    {
      "anonymous": false,
      "inputs": [
        {
          "indexed": true,
          "internalType": "address",
          "name": "user",
          "type": "address"
        },
        {
          "indexed": false,
          "internalType": "uint256",
          "name": "amount",
          "type": "uint256"
        }
      ],
      "name": "Deposited",
      "type": "event"
    },
    {
      "anonymous": false,
      "inputs": [
        {
          "indexed": false,
          "internalType": "uint256",
          "name": "amount",
          "type": "uint256"
        }
      ],
      "name": "OwnerDeposited",
      "type": "event"
    },
    {
      "anonymous": false,
      "inputs": [
        {
          "indexed": false,
          "internalType": "uint256",
          "name": "amount",
          "type": "uint256"
        }
      ],
      "name": "OwnerWithdrawn",
      "type": "event"
    },
    {
      "anonymous": false,
      "inputs": [
        {
          "indexed": true,
          "internalType": "address",
          "name": "user",
          "type": "address"
        },
        {
          "indexed": false,
          "internalType": "uint256",
          "name": "reward",
          "type": "uint256"
        }
      ],
      "name": "RewardClaimed",
      "type": "event"
    },
    {
      "anonymous": false,
      "inputs": [
        {
          "indexed": true,
          "internalType": "address",
          "name": "user",
          "type": "address"
        },
        {
          "indexed": false,
          "internalType": "uint256",
          "name": "amount",
          "type": "uint256"
        },
        {
          "indexed": false,
          "internalType": "uint256",
          "name": "reward",
          "type": "uint256"
        }
      ],
      "name": "Withdrawn",
      "type": "event"
    },
    {
      "inputs": [],
      "name": "DAILY_REWARD_RATE",
      "outputs": [
        {
          "internalType": "uint256",
          "name": "",
          "type": "uint256"
        }
      ],
      "stateMutability": "view",
      "type": "function"
    },
    {
      "inputs": [],
      "name": "SECONDS_PER_DAY",
      "outputs": [
        {
          "internalType": "uint256",
          "name": "",
          "type": "uint256"
        }
      ],
      "stateMutability": "view",
      "type": "function"
    },
    {
      "inputs": [],
      "name": "claimReward",
      "outputs": [],
      "stateMutability": "nonpayable",
      "type": "function"
    },
    {
      "inputs": [
        {
          "internalType": "uint256",
          "name": "_amount",
          "type": "uint256"
        }
      ],
      "name": "deposit",
      "outputs": [],
      "stateMutability": "nonpayable",
      "type": "function"
    },
    {
      "inputs": [
        {
          "internalType": "uint256",
          "name": "start",
          "type": "uint256"
        },
        {
          "internalType": "uint256",
          "name": "end",
          "type": "uint256"
        }
      ],
      "name": "getWeekdaySeconds",
      "outputs": [
        {
          "internalType": "uint256",
          "name": "",
          "type": "uint256"
        }
      ],
      "stateMutability": "pure",
      "type": "function"
    },
    {
      "inputs": [],
      "name": "owner",
      "outputs": [
        {
          "internalType": "address",
          "name": "",
          "type": "address"
        }
      ],
      "stateMutability": "view",
      "type": "function"
    },
    {
      "inputs": [
        {
          "internalType": "uint256",
          "name": "_amount",
          "type": "uint256"
        }
      ],
      "name": "ownerDeposit",
      "outputs": [],
      "stateMutability": "nonpayable",
      "type": "function"
    },
    {
      "inputs": [
        {
          "internalType": "uint256",
          "name": "_amount",
          "type": "uint256"
        }
      ],
      "name": "ownerWithdraw",
      "outputs": [],
      "stateMutability": "nonpayable",
      "type": "function"
    },
    {
      "inputs": [
        {
          "internalType": "address",
          "name": "_user",
          "type": "address"
        }
      ],
      "name": "pendingReward",
      "outputs": [
        {
          "internalType": "uint256",
          "name": "",
          "type": "uint256"
        }
      ],
      "stateMutability": "view",
      "type": "function"
    },
    {
      "inputs": [],
      "name": "usdcToken",
      "outputs": [
        {
          "internalType": "contract IERC20",
          "name": "",
          "type": "address"
        }
      ],
      "stateMutability": "view",
      "type": "function"
    },
    {
      "inputs": [
        {
          "internalType": "address",
          "name": "",
          "type": "address"
        }
      ],
      "name": "users",
      "outputs": [
        {
          "internalType": "uint256",
          "name": "depositedAmount",
          "type": "uint256"
        },
        {
          "internalType": "uint256",
          "name": "rewardDebt",
          "type": "uint256"
        },
        {
          "internalType": "uint256",
          "name": "lastActionTime",
          "type": "uint256"
        }
      ],
      "stateMutability": "view",
      "type": "function"
    },
    {
      "inputs": [
        {
          "internalType": "uint256",
          "name": "_amount",
          "type": "uint256"
        }
      ],
      "name": "withdraw",
      "outputs": [],
      "stateMutability": "nonpayable",
      "type": "function"
    }
  ],
  "bytecode": "0x608060405234801561001057600080fd5b50604051610f55380380610f5583398101604081905261002f91610062565b60008054336001600160a01b031991821617909155600180549091166001600160a01b0392909216919091179055610092565b60006020828403121561007457600080fd5b81516001600160a01b038116811461008b57600080fd5b9392505050565b610eb4806100a16000396000f3fe608060405234801561001057600080fd5b50600436106100b45760003560e01c80638da5cb5b116100715780638da5cb5b1461014f578063a87430ba14610162578063b6b55f25146101ab578063b88a802f146101be578063f40f0f52146101c6578063f9a88fc4146101d957600080fd5b8063076a3e2d146100b957806311eac855146100df578063141833dc1461010a5780632e1a7d4d1461011f57806333f707d11461013257806374f0314f14610145575b600080fd5b6100cc6100c7366004610cbd565b6101e1565b6040519081526020015b60405180910390f35b6001546100f2906001600160a01b031681565b6040516001600160a01b0390911681526020016100d6565b61011d610118366004610cdf565b6102fc565b005b61011d61012d366004610cdf565b61046c565b61011d610140366004610cdf565b6106bc565b6100cc6201518081565b6000546100f2906001600160a01b031681565b610190610170366004610cf8565b600260208190526000918252604090912080546001820154919092015483565b604080519384526020840192909252908201526060016100d6565b61011d6101b9366004610cdf565b61088e565b61011d6109f3565b6100cc6101d4366004610cf8565b610c31565b6100cc60c881565b60008282116101f2575060006102f6565b60006101fe8484610d3e565b9050600061020f62093a8083610d67565b905060006102208262069780610d7b565b905060006102318362093a80610d7b565b61023b9088610d92565b905060005b60078110156102ee57868210156102ee5760006102606201518084610d67565b61026b906001610d92565b6102789062015180610d7b565b9050878111156102855750865b600060076102966201518086610d67565b6102a1906004610d92565b6102ab9190610da5565b90506000811180156102bd5750600681105b156102d9576102cc8483610d3e565b6102d69086610d92565b94505b509150806102e681610db9565b915050610240565b509093505050505b92915050565b6000546001600160a01b0316331461035b5760405162461bcd60e51b815260206004820152601a60248201527f4e6f7420617574686f72697a65643a204f776e6572206f6e6c7900000000000060448201526064015b60405180910390fd5b6001546000546040516323b872dd60e01b81526001600160a01b039182166004820152306024820152604481018490529116906323b872dd906064016020604051808303816000875af11580156103b6573d6000803e3d6000fd5b505050506040513d601f19601f820116820180604052508101906103da9190610dd2565b6104355760405162461bcd60e51b815260206004820152602660248201527f55534443207472616e73666572206661696c65642e2044696420796f7520617060448201526570726f76653f60d01b6064820152608401610352565b6040518181527f2cf422f0db775a5196b0522ebb4163e406555111657596b21fdf60a425ef9f4b906020015b60405180910390a150565b33600090815260026020526040902080548211156104cc5760405162461bcd60e51b815260206004820152601e60248201527f496e73756666696369656e74206465706f73697465642062616c616e636500006044820152606401610352565b6000821161051c5760405162461bcd60e51b815260206004820152601d60248201527f416d6f756e74206d7573742062652067726561746572207468616e20300000006044820152606401610352565b600061052733610c31565b90508282600001600082825461053d9190610d3e565b909155505060006001830181905542600284015561055b8285610d92565b6001546040516370a0823160e01b815230600482015291925082916001600160a01b03909116906370a0823190602401602060405180830381865afa1580156105a8573d6000803e3d6000fd5b505050506040513d601f19601f820116820180604052508101906105cc9190610df4565b10156105ea5760405162461bcd60e51b815260040161035290610e0d565b60015460405163a9059cbb60e01b8152336004820152602481018390526001600160a01b039091169063a9059cbb906044016020604051808303816000875af115801561063b573d6000803e3d6000fd5b505050506040513d601f19601f8201168201806040525081019061065f9190610dd2565b61067b5760405162461bcd60e51b815260040161035290610e50565b604080518581526020810184905233917f92ccf450a286a957af52509bc1c9939d1a6a481783e142e41e2499f0bb66ebc6910160405180910390a250505050565b6000546001600160a01b031633146107165760405162461bcd60e51b815260206004820152601a60248201527f4e6f7420617574686f72697a65643a204f776e6572206f6e6c790000000000006044820152606401610352565b6001546040516370a0823160e01b815230600482015282916001600160a01b0316906370a0823190602401602060405180830381865afa15801561075e573d6000803e3d6000fd5b505050506040513d601f19601f820116820180604052508101906107829190610df4565b10156107c95760405162461bcd60e51b8152602060048201526016602482015275496e73756666696369656e74206c697175696469747960501b6044820152606401610352565b60015460005460405163a9059cbb60e01b81526001600160a01b0391821660048201526024810184905291169063a9059cbb906044016020604051808303816000875af115801561081e573d6000803e3d6000fd5b505050506040513d601f19601f820116820180604052508101906108429190610dd2565b61085e5760405162461bcd60e51b815260040161035290610e50565b6040518181527fe1ba612886c314bab269521f17316b07e06593a8fbe87c52802306c8c6f7786590602001610461565b600081116108de5760405162461bcd60e51b815260206004820152601d60248201527f416d6f756e74206d7573742062652067726561746572207468616e20300000006044820152606401610352565b336000908152600260205260409020805415610903576108fd33610c31565b60018201555b818160000160008282546109179190610d92565b90915550504260028201556001546040516323b872dd60e01b8152336004820152306024820152604481018490526001600160a01b03909116906323b872dd906064016020604051808303816000875af1158015610979573d6000803e3d6000fd5b505050506040513d601f19601f8201168201806040525081019061099d9190610dd2565b6109b95760405162461bcd60e51b815260040161035290610e50565b60405182815233907f2da466a7b24304f47e87fa2e1e5a81b9831ce54fec19055ce277ca2f39ba42c4906020015b60405180910390a25050565b33600090815260026020819052604090912090810154610a169062015180610d92565b421015610a785760405162461bcd60e51b815260206004820152602a60248201527f526577617264732063616e206f6e6c7920626520636c61696d656420657665726044820152697920323420686f75727360b01b6064820152608401610352565b6000610a8333610c31565b905060008111610ad55760405162461bcd60e51b815260206004820152601d60248201527f4e6f207265776172647320617661696c61626c6520746f20636c61696d0000006044820152606401610352565b6000600183810191909155426002840155546040516370a0823160e01b815230600482015282916001600160a01b0316906370a0823190602401602060405180830381865afa158015610b2c573d6000803e3d6000fd5b505050506040513d601f19601f82011682018060405250810190610b509190610df4565b1015610b6e5760405162461bcd60e51b815260040161035290610e0d565b60015460405163a9059cbb60e01b8152336004820152602481018390526001600160a01b039091169063a9059cbb906044016020604051808303816000875af1158015610bbf573d6000803e3d6000fd5b505050506040513d601f19601f82011682018060405250810190610be39190610dd2565b610bff5760405162461bcd60e51b815260040161035290610e50565b60405181815233907f106f923f993c2149d49b4255ff723acafa1f2d94393f561d3eda32ae348f7241906020016109e7565b6001600160a01b038116600090815260026020526040812080548203610c5b576001015492915050565b6000610c6b8260020154426101e1565b90506000610c7e62015180612710610d7b565b83548390610c8e9060c890610d7b565b610c989190610d7b565b610ca29190610d67565b9050808360010154610cb49190610d92565b95945050505050565b60008060408385031215610cd057600080fd5b50508035926020909101359150565b600060208284031215610cf157600080fd5b5035919050565b600060208284031215610d0a57600080fd5b81356001600160a01b0381168114610d2157600080fd5b9392505050565b634e487b7160e01b600052601160045260246000fd5b818103818111156102f6576102f6610d28565b634e487b7160e01b600052601260045260246000fd5b600082610d7657610d76610d51565b500490565b80820281158282048414176102f6576102f6610d28565b808201808211156102f6576102f6610d28565b600082610db457610db4610d51565b500690565b600060018201610dcb57610dcb610d28565b5060010190565b600060208284031215610de457600080fd5b81518015158114610d2157600080fd5b600060208284031215610e0657600080fd5b5051919050565b60208082526023908201527f436f6e74726163742068617320696e73756666696369656e74206c697175696460408201526269747960e81b606082015260800190565b6020808252601490820152731554d110c8151c985b9cd9995c8819985a5b195960621b60408201526060019056fea26469706673582212204945f316603a08e31026fe66e43674763291a6d2bb3929996ee0cd1f336512a064736f6c63430008130033",
  "linkReferences": {},
  "deployedLinkReferences": {}
}