{"contracts/GoldCopyTraderV2.sol":{"GoldCopyTraderV2":{"abi":[{"inputs":[{"internalType":"address","name":"_usdc","type":"address"},{"internalType":"address","name":"_diamond","type":"address"}],"stateMutability":"nonpayable","type":"constructor"},{"anonymous":false,"inputs":[{"indexed":false,"internalType":"uint256","name":"amount","type":"uint256"}],"name":"AdminDeposited","type":"event"},{"anonymous":false,"inputs":[{"indexed":true,"internalType":"address","name":"newAdmin","type":"address"}],"name":"AdminTransferStarted","type":"event"},{"anonymous":false,"inputs":[{"indexed":true,"internalType":"address","name":"oldAdmin","type":"address"},{"indexed":true,"internalType":"address","name":"newAdmin","type":"address"}],"name":"AdminTransferred","type":"event"},{"anonymous":false,"inputs":[{"indexed":false,"internalType":"uint256","name":"newFeePercent","type":"uint256"}],"name":"FeeUpdated","type":"event"},{"anonymous":false,"inputs":[{"indexed":false,"internalType":"uint256","name":"amount","type":"uint256"}],"name":"FeesWithdrawn","type":"event"},{"anonymous":false,"inputs":[{"indexed":false,"internalType":"bool","name":"isPaused","type":"bool"}],"name":"Paused","type":"event"},{"anonymous":false,"inputs":[{"indexed":true,"internalType":"uint256","name":"signalId","type":"uint256"},{"indexed":false,"internalType":"uint256","name":"totalDeposited","type":"uint256"},{"indexed":false,"internalType":"uint32","name":"gTradeIndex","type":"uint32"}],"name":"SignalOpened","type":"event"},{"anonymous":false,"inputs":[{"indexed":true,"internalType":"uint256","name":"signalId","type":"uint256"},{"indexed":false,"internalType":"bool","name":"long","type":"bool"},{"indexed":false,"internalType":"uint64","name":"entryPrice","type":"uint64"},{"indexed":false,"internalType":"uint64","name":"tp","type":"uint64"},{"indexed":false,"internalType":"uint64","name":"sl","type":"uint64"},{"indexed":false,"internalType":"uint24","name":"leverage","type":"uint24"}],"name":"SignalPosted","type":"event"},{"anonymous":false,"inputs":[{"indexed":true,"internalType":"uint256","name":"signalId","type":"uint256"},{"indexed":false,"internalType":"uint256","name":"totalDeposited","type":"uint256"},{"indexed":false,"internalType":"uint256","name":"totalReturned","type":"uint256"},{"indexed":false,"internalType":"int256","name":"resultPct","type":"int256"}],"name":"SignalSettled","type":"event"},{"anonymous":false,"inputs":[{"indexed":true,"internalType":"address","name":"user","type":"address"},{"indexed":true,"internalType":"uint256","name":"signalId","type":"uint256"},{"indexed":false,"internalType":"uint256","name":"payout","type":"uint256"},{"indexed":false,"internalType":"uint256","name":"fee","type":"uint256"}],"name":"UserClaimed","type":"event"},{"anonymous":false,"inputs":[{"indexed":true,"internalType":"address","name":"user","type":"address"},{"indexed":true,"internalType":"uint256","name":"signalId","type":"uint256"},{"indexed":false,"internalType":"uint256","name":"amount","type":"uint256"}],"name":"UserDeposited","type":"event"},{"anonymous":false,"inputs":[{"indexed":true,"internalType":"address","name":"user","type":"address"},{"indexed":true,"internalType":"uint256","name":"signalId","type":"uint256"},{"indexed":false,"internalType":"uint256","name":"amount","type":"uint256"}],"name":"UserWithdrawn","type":"event"},{"inputs":[],"name":"BASIS_POINTS","outputs":[{"internalType":"uint256","name":"","type":"uint256"}],"stateMutability":"view","type":"function"},{"inputs":[],"name":"COLLECTING_TIMEOUT","outputs":[{"internalType":"uint256","name":"","type":"uint256"}],"stateMutability":"view","type":"function"},{"inputs":[],"name":"EMERGENCY_DELAY","outputs":[{"internalType":"uint256","name":"","type":"uint256"}],"stateMutability":"view","type":"function"},{"inputs":[],"name":"MAX_DEPOSIT","outputs":[{"internalType":"uint256","name":"","type":"uint256"}],"stateMutability":"view","type":"function"},{"inputs":[],"name":"MAX_POOL","outputs":[{"internalType":"uint256","name":"","type":"uint256"}],"stateMutability":"view","type":"function"},{"inputs":[],"name":"MIN_DEPOSIT","outputs":[{"internalType":"uint256","name":"","type":"uint256"}],"stateMutability":"view","type":"function"},{"inputs":[],"name":"acceptAdmin","outputs":[],"stateMutability":"nonpayable","type":"function"},{"inputs":[],"name":"activeSignalId","outputs":[{"internalType":"uint256","name":"","type":"uint256"}],"stateMutability":"view","type":"function"},{"inputs":[],"name":"admin","outputs":[{"internalType":"address","name":"","type":"address"}],"stateMutability":"view","type":"function"},{"inputs":[{"internalType":"uint256","name":"_amount","type":"uint256"}],"name":"adminDeposit","outputs":[],"stateMutability":"nonpayable","type":"function"},{"inputs":[{"internalType":"uint256","name":"_amount","type":"uint256"}],"name":"adminWithdrawDeposit","outputs":[],"stateMutability":"nonpayable","type":"function"},{"inputs":[],"name":"cancelSignal","outputs":[],"stateMutability":"nonpayable","type":"function"},{"inputs":[{"internalType":"uint256","name":"_signalId","type":"uint256"}],"name":"claim","outputs":[],"stateMutability":"nonpayable","type":"function"},{"inputs":[{"internalType":"uint32","name":"_index","type":"uint32"},{"internalType":"uint64","name":"_expectedPrice","type":"uint64"}],"name":"closeTrade","outputs":[],"stateMutability":"nonpayable","type":"function"},{"inputs":[{"internalType":"uint256","name":"_amount","type":"uint256"}],"name":"deposit","outputs":[],"stateMutability":"nonpayable","type":"function"},{"inputs":[],"name":"diamond","outputs":[{"internalType":"contract IGNSMultiCollatDiamond","name":"","type":"address"}],"stateMutability":"view","type":"function"},{"inputs":[{"internalType":"uint256","name":"_signalId","type":"uint256"}],"name":"emergencyWithdraw","outputs":[],"stateMutability":"nonpayable","type":"function"},{"inputs":[],"name":"feePercent","outputs":[{"internalType":"uint256","name":"","type":"uint256"}],"stateMutability":"view","type":"function"},{"inputs":[],"name":"getActiveSignalId","outputs":[{"internalType":"uint256","name":"","type":"uint256"}],"stateMutability":"view","type":"function"},{"inputs":[{"internalType":"address","name":"_user","type":"address"},{"internalType":"uint256","name":"_id","type":"uint256"}],"name":"getExpectedPayout","outputs":[{"internalType":"uint256","name":"","type":"uint256"}],"stateMutability":"view","type":"function"},{"inputs":[{"internalType":"address","name":"_user","type":"address"}],"name":"getUserSignalIds","outputs":[{"internalType":"uint256[]","name":"","type":"uint256[]"}],"stateMutability":"view","type":"function"},{"inputs":[{"internalType":"uint32","name":"_gTradeIndex","type":"uint32"}],"name":"openTrade","outputs":[],"stateMutability":"nonpayable","type":"function"},{"inputs":[],"name":"paused","outputs":[{"internalType":"bool","name":"","type":"bool"}],"stateMutability":"view","type":"function"},{"inputs":[],"name":"pendingAdmin","outputs":[{"internalType":"address","name":"","type":"address"}],"stateMutability":"view","type":"function"},{"inputs":[{"internalType":"address","name":"","type":"address"},{"internalType":"uint256","name":"","type":"uint256"}],"name":"positions","outputs":[{"internalType":"uint256","name":"deposit","type":"uint256"},{"internalType":"bool","name":"claimed","type":"bool"}],"stateMutability":"view","type":"function"},{"inputs":[{"internalType":"bool","name":"_long","type":"bool"},{"internalType":"uint64","name":"_entry","type":"uint64"},{"internalType":"uint64","name":"_tp","type":"uint64"},{"internalType":"uint64","name":"_sl","type":"uint64"},{"internalType":"uint24","name":"_lev","type":"uint24"}],"name":"postSignal","outputs":[],"stateMutability":"nonpayable","type":"function"},{"inputs":[],"name":"reservedForSignals","outputs":[{"internalType":"uint256","name":"","type":"uint256"}],"stateMutability":"view","type":"function"},{"inputs":[{"internalType":"uint256","name":"_fee","type":"uint256"}],"name":"setFeePercent","outputs":[],"stateMutability":"nonpayable","type":"function"},{"inputs":[{"internalType":"bool","name":"_paused","type":"bool"}],"name":"setPaused","outputs":[],"stateMutability":"nonpayable","type":"function"},{"inputs":[{"internalType":"uint256","name":"_totalReturned","type":"uint256"}],"name":"settleSignal","outputs":[],"stateMutability":"nonpayable","type":"function"},{"inputs":[{"internalType":"uint256","name":"","type":"uint256"}],"name":"signalCore","outputs":[{"internalType":"bool","name":"long","type":"bool"},{"internalType":"enum GoldCopyTraderV2.SignalPhase","name":"phase","type":"uint8"},{"internalType":"uint64","name":"entryPrice","type":"uint64"},{"internalType":"uint64","name":"tp","type":"uint64"},{"internalType":"uint64","name":"sl","type":"uint64"},{"internalType":"uint24","name":"leverage","type":"uint24"},{"internalType":"uint256","name":"feeAtCreation","type":"uint256"},{"internalType":"uint32","name":"gTradeIndex","type":"uint32"}],"stateMutability":"view","type":"function"},{"inputs":[],"name":"signalCount","outputs":[{"internalType":"uint256","name":"","type":"uint256"}],"stateMutability":"view","type":"function"},{"inputs":[{"internalType":"uint256","name":"","type":"uint256"}],"name":"signalMeta","outputs":[{"internalType":"uint256","name":"timestamp","type":"uint256"},{"internalType":"uint256","name":"closedAt","type":"uint256"},{"internalType":"uint256","name":"totalDeposited","type":"uint256"},{"internalType":"uint256","name":"totalReturned","type":"uint256"},{"internalType":"uint256","name":"copierCount","type":"uint256"},{"internalType":"uint256","name":"originalDeposited","type":"uint256"},{"internalType":"uint256","name":"totalEmergencyWithdrawn","type":"uint256"},{"internalType":"uint256","name":"totalClaimed","type":"uint256"},{"internalType":"uint256","name":"balanceAtOpen","type":"uint256"}],"stateMutability":"view","type":"function"},{"inputs":[],"name":"totalAdminDeposited","outputs":[{"internalType":"uint256","name":"","type":"uint256"}],"stateMutability":"view","type":"function"},{"inputs":[],"name":"totalFeesCollected","outputs":[{"internalType":"uint256","name":"","type":"uint256"}],"stateMutability":"view","type":"function"},{"inputs":[{"internalType":"address","name":"_newAdmin","type":"address"}],"name":"transferAdmin","outputs":[],"stateMutability":"nonpayable","type":"function"},{"inputs":[],"name":"usdc","outputs":[{"internalType":"contract IERC20","name":"","type":"address"}],"stateMutability":"view","type":"function"},{"inputs":[{"internalType":"uint256","name":"_signalId","type":"uint256"}],"name":"userCancelExpiredSignal","outputs":[],"stateMutability":"nonpayable","type":"function"},{"inputs":[{"internalType":"address","name":"","type":"address"},{"internalType":"uint256","name":"","type":"uint256"}],"name":"userSignalIds","outputs":[{"internalType":"uint256","name":"","type":"uint256"}],"stateMutability":"view","type":"function"},{"inputs":[{"internalType":"uint256","name":"_signalId","type":"uint256"}],"name":"withdrawDeposit","outputs":[],"stateMutability":"nonpayable","type":"function"},{"inputs":[],"name":"withdrawFees","outputs":[],"stateMutability":"nonpayable","type":"function"}],"evm":{"bytecode":{"linkReferences":{},"object":"60c06040526107d06003553480156200001757600080fd5b5060405162003869380380620038698339810160408190526200003a9162000159565b6001600160a01b038216158015906200005b57506001600160a01b03811615155b620000985760405162461bcd60e51b81526020600482015260096024820152682d32b9379030b2323960b91b604482015260640160405180910390fd5b600080546001600160a01b0319163317905560016002556001600160a01b03828116608081905290821660a081905260405163095ea7b360e01b81526004810191909152600019602482015263095ea7b3906044016020604051808303816000875af11580156200010d573d6000803e3d6000fd5b505050506040513d601f19601f8201168201806040525081019062000133919062000191565b505050620001bc565b80516001600160a01b03811681146200015457600080fd5b919050565b600080604083850312156200016d57600080fd5b62000178836200013c565b915062000188602084016200013c565b90509250929050565b600060208284031215620001a457600080fd5b81518015158114620001b557600080fd5b9392505050565b60805160a051613625620002446000396000818161061701528181610ffb01526121f901526000818161033f01528181610750015281816109c101528181610eaf01528181611419015281816116f80152818161184d015281816119da01528181611ca701528181611d8f01528181611f1e015281816120360152612f6401526136256000f3fe608060405234801561001057600080fd5b50600436106102535760003560e01c806375829def11610146578063a5534664116100c3578063e1e158a511610087578063e1e158a5146105ff578063e1f1c4a714610609578063f0b7db4e14610612578063f23fae9314610639578063f851a44014610643578063fc6fee9c1461065657600080fd5b8063a55346641461057a578063ae0041aa1461058d578063b6b55f2514610596578063c1be6677146105a9578063dd5967c3146105f357600080fd5b806380447e321161010a57806380447e32146104a157806382944e2d14610541578063888bc3721461054b57806399d8528e14610554578063a55190361461056757600080fd5b806375829def146103e057806378739f47146103f35780637a88d0b5146103fb5780637ce3489b146104855780637fd6f15c1461049857600080fd5b8063379607f5116101d45780635312ea8e116101985780635312ea8e1461037a57806355e267ff1461038d5780635c975abb146103a057806360c6d8ae146103c45780636cca67a8146103cd57600080fd5b8063379607f5146103275780633e413bee1461033a578063476343ee14610361578063486834a3146103695780634cb96a921461037257600080fd5b806327dde56c1161021b57806327dde56c146102cb57806328d3bf0a146102de5780632c3c91c9146102f157806330cb5b4a1461030b57806333289a461461031457600080fd5b806308687794146102585780630e18b6811461026d57806315199c7f1461027557806316c38b3c14610288578063267822471461029b575b600080fd5b61026b61026636600461308e565b610676565b005b61026b610816565b61026b61028336600461308e565b6108c8565b61026b6102963660046130b8565b610c8e565b6001546102ae906001600160a01b031681565b6040516001600160a01b0390911681526020015b60405180910390f35b61026b6102d93660046130f5565b610d10565b61026b6102ec36600461308e565b6110bd565b6102fd64746a52880081565b6040519081526020016102c2565b6102fd60065481565b61026b61032236600461308e565b611253565b61026b61033536600461308e565b6114b6565b6102ae7f000000000000000000000000000000000000000000000000000000000000000081565b61026b6118ef565b6102fd60075481565b6006546102fd565b61026b61038836600461308e565b611a6d565b61026b61039b36600461308e565b611e2e565b6001546103b490600160a01b900460ff1681565b60405190151581526020016102c2565b6102fd60055481565b61026b6103db366004613127565b6120ca565b61026b6103ee366004613171565b612262565b61026b612318565b61047161040936600461308e565b60096020526000908152604090208054600182015460029092015460ff808316936101008404909116926001600160401b03620100008204811693600160501b8304821693600160901b84049092169262ffffff600160d01b90910416919063ffffffff1688565b6040516102c29897969594939291906131a2565b61026b61049336600461308e565b61248a565b6102fd60035481565b6104fd6104af36600461308e565b600a6020528060005260406000206000915090508060000154908060010154908060020154908060030154908060040154908060050154908060060154908060070154908060080154905089565b60408051998a5260208a0198909852968801959095526060870193909352608086019190915260a085015260c084015260e0830152610100820152610120016102c2565b6102fd62093a8081565b6102fd60085481565b61026b61056236600461320a565b612525565b6102fd61057536600461327d565b612a38565b6102fd61058836600461327d565b612ba4565b6102fd60045481565b61026b6105a436600461308e565b612bd5565b6105de6105b736600461327d565b600b6020908152600092835260408084209091529082529020805460019091015460ff1682565b604080519283529015156020830152016102c2565b6102fd640ba43b740081565b6102fd624c4b4081565b6102fd61271081565b6102ae7f000000000000000000000000000000000000000000000000000000000000000081565b6102fd6201518081565b6000546102ae906001600160a01b031681565b610669610664366004613171565b613022565b6040516102c291906132a7565b6000546001600160a01b031633146106a95760405162461bcd60e51b81526004016106a0906132eb565b60405180910390fd5b6002546002036106cb5760405162461bcd60e51b81526004016106a09061330e565b600280558061070a5760405162461bcd60e51b815260206004820152600b60248201526a16995c9bc8185b5bdd5b9d60aa1b60448201526064016106a0565b806008600082825461071c9190613347565b90915550506000546040516323b872dd60e01b81526001600160a01b039182166004820152306024820152604481018390527f0000000000000000000000000000000000000000000000000000000000000000909116906323b872dd906064016020604051808303816000875af115801561079b573d6000803e3d6000fd5b505050506040513d601f19601f820116820180604052508101906107bf919061335a565b6107db5760405162461bcd60e51b81526004016106a090613377565b6040518181527fb0daddc179952de74346a5e7759111c9edc9f99ca9204e97c889b85fb55b55c79060200160405180910390a1506001600255565b6001546001600160a01b031633146108645760405162461bcd60e51b81526020600482015260116024820152702737ba103832b73234b7339030b236b4b760791b60448201526064016106a0565b600154600080546040516001600160a01b0393841693909116917ff8ccb027dfcd135e000e9d45e6cc2d662578a8825d4c45b5e32e0adf67e79ec691a360018054600080546001600160a01b03199081166001600160a01b03841617909155169055565b6000546001600160a01b031633146108f25760405162461bcd60e51b81526004016106a0906132eb565b6000600654116109145760405162461bcd60e51b81526004016106a090613397565b6006546000908152600960209081526040808320600a90925290912060028254610100900460ff16600381111561094d5761094d61318c565b146109885760405162461bcd60e51b815260206004820152600b60248201526a4e6f742074726164696e6760a81b60448201526064016106a0565b60008160060154826005015461099e91906133c1565b6040516370a0823160e01b81523060048201529091506000906001600160a01b037f000000000000000000000000000000000000000000000000000000000000000016906370a0823190602401602060405180830381865afa158015610a08573d6000803e3d6000fd5b505050506040513d601f19601f82011682018060405250810190610a2c91906133d4565b905060008360050154846008015411610a46576000610a5a565b83600501548460080154610a5a91906133c1565b90506000818311610a6c576000610a85565b6006850154610a7b83856133c1565b610a859190613347565b905080871115610ad75760405162461bcd60e51b815260206004820152601860248201527f4d6f7265207468616e2074726164652072657475726e6564000000000000000060448201526064016106a0565b610ae28460036133ed565b871115610b235760405162461bcd60e51b815260206004820152600f60248201526e0a4cae6ead8e840e8dede40d0d2ced608b1b60448201526064016106a0565b86831015610b6a5760405162461bcd60e51b8152602060048201526014602482015273496e73756666696369656e742062616c616e636560601b60448201526064016106a0565b855461ff0019166103001786556003850187905542600186015560075484908111610bac578060076000828254610ba191906133c1565b90915550610bb29050565b60006007555b8760076000828254610bc49190613347565b9091555085905060008115610c3157818a10610c035781612710610be8828d6133c1565b610bf291906133ed565b610bfc9190613404565b9050610c31565b81612710610c118c836133c1565b610c1b91906133ed565b610c259190613404565b610c2e90613426565b90505b600680546000909155600289015460408051918252602082018d9052810183905281907fba18b330376d9405519e92aa6a1ebbc93aad8b9f68b95c8805c9e9d8e3a46cd09060600160405180910390a25050505050505050505050565b6000546001600160a01b03163314610cb85760405162461bcd60e51b81526004016106a0906132eb565b60018054821515600160a01b0260ff60a01b199091161790556040517f0e2fb031ee032dc02d8011dc50b816eb450cf856abd8261680dac74f72165bd290610d0590831515815260200190565b60405180910390a150565b6000546001600160a01b03163314610d3a5760405162461bcd60e51b81526004016106a0906132eb565b600060065411610d5c5760405162461bcd60e51b81526004016106a090613397565b6006546000908152600960209081526040808320600a90925290912060018254610100900460ff166003811115610d9557610d9561318c565b14610dd35760405162461bcd60e51b815260206004820152600e60248201526d4e6f7420636f6c6c656374696e6760901b60448201526064016106a0565b6000816002015411610e155760405162461bcd60e51b815260206004820152600b60248201526a4e6f206465706f7369747360a81b60448201526064016106a0565b60028101546001600160781b031015610e615760405162461bcd60e51b815260206004820152600e60248201526d506f6f6c20746f6f206c6172676560901b60448201526064016106a0565b815461020061ff00199091161782556002808301805463ffffffff861663ffffffff1990911617905581015460058201556040516370a0823160e01b81523060048201526001600160a01b037f000000000000000000000000000000000000000000000000000000000000000016906370a0823190602401602060405180830381865afa158015610ef6573d6000803e3d6000fd5b505050506040513d601f19601f82011682018060405250810190610f1a91906133d4565b6008820155600281015460078054600090610f36908490613347565b9091555050604080516101e081018252308152600060208201819052605a82840152845462ffffff600160d01b820416606084015260ff811615156080840152600160a0840152600360c084015260e0830182905260028501546001600160781b03166101008401526001600160401b036201000082048116610120850152600160501b82048116610140850152600160901b9091041661016083015261018082018190526101a082018190526101c082018190529151630b7f989f60e31b815290917f00000000000000000000000000000000000000000000000000000000000000006001600160a01b031691635bfcc4f89161103c9185916103e891600401613456565b600060405180830381600087803b15801561105657600080fd5b505af115801561106a573d6000803e3d6000fd5b505060065460028501546040805191825263ffffffff891660208301529193507fa677208bc5b8eaa0120e0169d8f9ea592d9bc704ef8cd4a3784d910fb4658f079250015b60405180910390a250505050565b60065481146111025760405162461bcd60e51b8152602060048201526011602482015270139bdd081858dd1a5d99481cda59db985b607a1b60448201526064016106a0565b6000818152600960209081526040808320600a90925290912060018254610100900460ff1660038111156111385761113861318c565b146111795760405162461bcd60e51b81526020600482015260116024820152704e6f7420696e20636f6c6c656374696e6760781b60448201526064016106a0565b8054611189906201518090613347565b42116111c55760405162461bcd60e51b815260206004820152600b60248201526a139bdd08195e1c1a5c995960aa1b60448201526064016106a0565b6002810180546005830155825461ff0019166103001783555460038201819055426001830155600780546000906111fd908490613347565b90915550506006805460009182905560028301546040805182815260208101929092528101929092529081907fba18b330376d9405519e92aa6a1ebbc93aad8b9f68b95c8805c9e9d8e3a46cd0906060016110af565b6002546002036112755760405162461bcd60e51b81526004016106a09061330e565b600280556000818152600960209081526040808320600a90925290912060018254610100900460ff1660038111156112af576112af61318c565b146112f35760405162461bcd60e51b8152602060048201526014602482015273151c98591948185b1c9958591e481bdc195b995960621b60448201526064016106a0565b336000908152600b602090815260408083208684529091529020805461132b5760405162461bcd60e51b81526004016106a09061359a565b600181015460ff16156113745760405162461bcd60e51b815260206004820152601160248201527020b63932b0b23c903bb4ba34323930bbb760791b60448201526064016106a0565b6001818101805460ff191690911790558054600080835560028401805483929061139f9084906133c1565b90915550506004830154156113c6576004830180549060006113c0836135bf565b91905055505b604051818152859033907f43389e74a5f67d287aa20ee5677bf6eaea427b4b436414723562a06c75debdc19060200160405180910390a360405163a9059cbb60e01b8152336004820152602481018290527f00000000000000000000000000000000000000000000000000000000000000006001600160a01b03169063a9059cbb906044016020604051808303816000875af115801561146a573d6000803e3d6000fd5b505050506040513d601f19601f8201168201806040525081019061148e919061335a565b6114aa5760405162461bcd60e51b81526004016106a090613377565b50506001600255505050565b6002546002036114d85760405162461bcd60e51b81526004016106a09061330e565b600280556000818152600960209081526040808320600a90925290912060038254610100900460ff1660038111156115125761151261318c565b1461154d5760405162461bcd60e51b815260206004820152600b60248201526a139bdd081cd95d1d1b195960aa1b60448201526064016106a0565b336000908152600b60209081526040808320868452909152902080546115855760405162461bcd60e51b81526004016106a09061359a565b600181015460ff16156115cc5760405162461bcd60e51b815260206004820152600f60248201526e105b1c9958591e4818db185a5b5959608a1b60448201526064016106a0565b6001818101805460ff19169091179055600682015460058301546000916115f2916133c1565b90506000811161162e5760405162461bcd60e51b8152602060048201526007602482015266139bc81c1bdbdb60ca1b60448201526064016106a0565b6000818360000154856003015461164591906133ed565b61164f9190613404565b90506000846007015485600301541161166957600061167d565b8460070154856003015461167d91906133c1565b90508082111561168b578091505b83546000908311156116c95784546000906116a690856133c1565b90506127108860010154826116bb91906133ed565b6116c59190613404565b9150505b60006116d582856133c1565b6040516370a0823160e01b81523060048201529091506000906001600160a01b037f000000000000000000000000000000000000000000000000000000000000000016906370a0823190602401602060405180830381865afa15801561173f573d6000803e3d6000fd5b505050506040513d601f19601f8201168201806040525081019061176391906133d4565b90508082111561177557809150600092505b82600560008282546117879190613347565b9091555061179790508383613347565b8860070160008282546117aa9190613347565b909155506117ba90508383613347565b600754106117e8576117cc8383613347565b600760008282546117dd91906133c1565b909155506117ee9050565b60006007555b60408051838152602081018590528b9133917f2a94bba74d07ed4238b20d39861968cc9e2cb42c6cba1fa45f0e897e128791c3910160405180910390a381156118de5760405163a9059cbb60e01b8152336004820152602481018390527f00000000000000000000000000000000000000000000000000000000000000006001600160a01b03169063a9059cbb906044016020604051808303816000875af115801561189e573d6000803e3d6000fd5b505050506040513d601f19601f820116820180604052508101906118c2919061335a565b6118de5760405162461bcd60e51b81526004016106a090613377565b505060016002555050505050505050565b6000546001600160a01b031633146119195760405162461bcd60e51b81526004016106a0906132eb565b60025460020361193b5760405162461bcd60e51b81526004016106a09061330e565b60028055600554806119795760405162461bcd60e51b81526020600482015260076024820152664e6f206665657360c81b60448201526064016106a0565b60006005556040518181527f9800e6f57aeb4360eaa72295a820a4293e1e66fbfcabcd8874ae141304a76deb9060200160405180910390a160005460405163a9059cbb60e01b81526001600160a01b039182166004820152602481018390527f00000000000000000000000000000000000000000000000000000000000000009091169063a9059cbb906044016020604051808303816000875af1158015611a25573d6000803e3d6000fd5b505050506040513d601f19601f82011682018060405250810190611a49919061335a565b611a655760405162461bcd60e51b81526004016106a090613377565b506001600255565b600254600203611a8f5760405162461bcd60e51b81526004016106a09061330e565b60028080556000828152600960209081526040808320600a90925290912090918254610100900460ff166003811115611aca57611aca61318c565b14611b085760405162461bcd60e51b815260206004820152600e60248201526d4e6f7420696e2074726164696e6760901b60448201526064016106a0565b8054611b189062093a8090613347565b4211611b525760405162461bcd60e51b8152602060048201526009602482015268546f6f206561726c7960b81b60448201526064016106a0565b336000908152600b6020908152604080832086845290915290208054611b8a5760405162461bcd60e51b81526004016106a09061359a565b600181015460ff1615611bd15760405162461bcd60e51b815260206004820152600f60248201526e105b1c9958591e4818db185a5b5959608a1b60448201526064016106a0565b6001818101805460ff191690911790558054600683018054829190600090611bfa908490613347565b9091555050600583015460068401541115611c4c5760405162461bcd60e51b8152602060048201526012602482015271456d657267656e6379206f766572666c6f7760701b60448201526064016106a0565b600483015415611c6e57600483018054906000611c68836135bf565b91905055505b8060075410611c8f578060076000828254611c8991906133c1565b90915550505b6040516370a0823160e01b81523060048201526000907f00000000000000000000000000000000000000000000000000000000000000006001600160a01b0316906370a0823190602401602060405180830381865afa158015611cf6573d6000803e3d6000fd5b505050506040513d601f19601f82011682018060405250810190611d1a91906133d4565b90506000818311611d2b5782611d2d565b815b6040805182815260006020820152919250889133917f2a94bba74d07ed4238b20d39861968cc9e2cb42c6cba1fa45f0e897e128791c3910160405180910390a38015611e205760405163a9059cbb60e01b8152336004820152602481018290527f00000000000000000000000000000000000000000000000000000000000000006001600160a01b03169063a9059cbb906044016020604051808303816000875af1158015611de0573d6000803e3d6000fd5b505050506040513d601f19601f82011682018060405250810190611e04919061335a565b611e205760405162461bcd60e51b81526004016106a090613377565b505060016002555050505050565b6000546001600160a01b03163314611e585760405162461bcd60e51b81526004016106a0906132eb565b600254600203611e7a5760405162461bcd60e51b81526004016106a09061330e565b6002805560065415611ebe5760405162461bcd60e51b815260206004820152600d60248201526c5369676e616c2061637469766560981b60448201526064016106a0565b600854811115611f065760405162461bcd60e51b8152602060048201526013602482015272135bdc99481d1a185b8819195c1bdcda5d1959606a1b60448201526064016106a0565b6040516370a0823160e01b81523060048201526000907f00000000000000000000000000000000000000000000000000000000000000006001600160a01b0316906370a0823190602401602060405180830381865afa158015611f6d573d6000803e3d6000fd5b505050506040513d601f19601f82011682018060405250810190611f9191906133d4565b905060055460075483611fa49190613347565b611fae9190613347565b811015611ff65760405162461bcd60e51b8152602060048201526016602482015275576f756c6420756e64657266756e6420636c61696d7360501b60448201526064016106a0565b816008600082825461200891906133c1565b909155505060005460405163a9059cbb60e01b81526001600160a01b039182166004820152602481018490527f00000000000000000000000000000000000000000000000000000000000000009091169063a9059cbb906044016020604051808303816000875af1158015612081573d6000803e3d6000fd5b505050506040513d601f19601f820116820180604052508101906120a5919061335a565b6120c15760405162461bcd60e51b81526004016106a090613377565b50506001600255565b6000546001600160a01b031633146120f45760405162461bcd60e51b81526004016106a0906132eb565b6000600654116121165760405162461bcd60e51b81526004016106a090613397565b600654600090815260096020526040902060028154610100900460ff1660038111156121445761214461318c565b1461217f5760405162461bcd60e51b815260206004820152600b60248201526a4e6f742074726164696e6760a81b60448201526064016106a0565b600281015463ffffffff8481169116146121cf5760405162461bcd60e51b81526020600482015260116024820152700aee4dedcce40e8e4c2c8ca40d2dcc8caf607b1b60448201526064016106a0565b6040516336ce736b60e01b815263ffffffff841660048201526001600160401b03831660248201527f00000000000000000000000000000000000000000000000000000000000000006001600160a01b0316906336ce736b90604401600060405180830381600087803b15801561224557600080fd5b505af1158015612259573d6000803e3d6000fd5b50505050505050565b6000546001600160a01b0316331461228c5760405162461bcd60e51b81526004016106a0906132eb565b6001600160a01b0381166122ce5760405162461bcd60e51b81526020600482015260096024820152682d32b9379030b2323960b91b60448201526064016106a0565b600180546001600160a01b0319166001600160a01b0383169081179091556040517f7e5a44b25c18c9c756d8bb0c33e9f77d9ab83dc254932c8a69436f23ab74f63490600090a250565b6000546001600160a01b031633146123425760405162461bcd60e51b81526004016106a0906132eb565b6000600654116123645760405162461bcd60e51b81526004016106a090613397565b6006546000908152600960209081526040808320600a90925290912060018254610100900460ff16600381111561239d5761239d61318c565b146123f45760405162461bcd60e51b815260206004820152602160248201527f43616e206f6e6c792063616e63656c20647572696e6720636f6c6c656374696f6044820152603760f91b60648201526084016106a0565b6002810180546005830155825461ff00191661030017835554600382018190554260018301556007805460009061242c908490613347565b90915550506006805460009182905560028301546040805182815260208101929092528101929092529081907fba18b330376d9405519e92aa6a1ebbc93aad8b9f68b95c8805c9e9d8e3a46cd09060600160405180910390a2505050565b6000546001600160a01b031633146124b45760405162461bcd60e51b81526004016106a0906132eb565b6107d08111156124f05760405162461bcd60e51b81526020600482015260076024820152664d61782032302560c81b60448201526064016106a0565b60038190556040518181527f8c4d35e54a3f2ef1134138fd8ea3daee6a3c89e10d2665996babdf70261e2c7690602001610d05565b6000546001600160a01b0316331461254f5760405162461bcd60e51b81526004016106a0906132eb565b600154600160a01b900460ff16156125925760405162461bcd60e51b815260206004820152600660248201526514185d5cd95960d21b60448201526064016106a0565b6107d08162ffffff16101580156125b157506203d0908162ffffff1611155b6125eb5760405162461bcd60e51b815260206004820152600b60248201526a098caec4064f05a646a60f60ab1b60448201526064016106a0565b6000846001600160401b031611801561260d57506000836001600160401b0316115b801561262257506000826001600160401b0316115b61265b5760405162461bcd60e51b815260206004820152600a6024820152694261642070726963657360b01b60448201526064016106a0565b600654156126ab5760405162461bcd60e51b815260206004820152601960248201527f436c6f736520616374697665207369676e616c2066697273740000000000000060448201526064016106a0565b841561272857836001600160401b0316836001600160401b03161180156126e35750836001600160401b0316826001600160401b0316105b6127235760405162461bcd60e51b8152602060048201526011602482015270131bdb99ce8815140f995b9d1c9e4f94d3607a1b60448201526064016106a0565b61279b565b836001600160401b0316836001600160401b031610801561275a5750836001600160401b0316826001600160401b0316115b61279b5760405162461bcd60e51b815260206004820152601260248201527114da1bdc9d0e8815140f195b9d1c9e4f14d360721b60448201526064016106a0565b600480549060006127ab836135d6565b90915550506040805161010080820183528715158252600160208084019182526001600160401b038981168587015288811660608601528716608085015262ffffff861660a08501526003805460c0860152600060e08601819052600454815260099092529490208351815490151560ff1982168117835592519495919493859361ff00191661ffff199092169190911791849081111561284e5761284e61318c565b0217905550604082810151825460608086015160808088015160a0808a015162ffffff16600160d01b0262ffffff60d01b196001600160401b03938416600160901b02166affffffffffffffffffffff60901b19958416600160501b0267ffffffffffffffff60501b199490991662010000029390931671ffffffffffffffffffffffffffffffff0000199097169690961796909617929092169190911792909217855560c08087015160018088019190915560e0978801516002978801805463ffffffff90921663ffffffff1990921691909117905585516101208101875242815260006020808301828152838a018381529684018381529784018381529884018381529584018381529b84018381526101008501848152600480548652600a909452938b90209451855590519484019490945594519882019890985593516003850155935183830155516005830155945160068083019190915591516007820155925160089093019290925591549081905590517fb3d05fed32daec5aa56697b6be763432a7921ad08804e3fd7be57f5ffd8e84db90612a29908890889088908890889094151585526001600160401b0393841660208601529183166040850152909116606083015262ffffff16608082015260a00190565b60405180910390a25050505050565b6000818152600960209081526040808320600a83528184206001600160a01b0387168552600b845282852086865290935290832080549192911580612a815750600181015460ff165b80612aa7575060038354610100900460ff166003811115612aa457612aa461318c565b14155b15612ab85760009350505050612b9e565b600082600601548360050154612ace91906133c1565b905080600003612ae5576000945050505050612b9e565b60008183600001548560030154612afc91906133ed565b612b069190613404565b905060008460070154856003015411612b20576000612b34565b84600701548560030154612b3491906133c1565b905080821115612b42578091505b8354821115612b96578354600090612b5a90846133c1565b90506000612710886001015483612b7191906133ed565b612b7b9190613404565b9050612b8781856133c1565b98505050505050505050612b9e565b509450505050505b92915050565b600c6020528160005260406000208181548110612bc057600080fd5b90600052602060002001600091509150505481565b600154600160a01b900460ff1615612c185760405162461bcd60e51b815260206004820152600660248201526514185d5cd95960d21b60448201526064016106a0565b600254600203612c3a5760405162461bcd60e51b81526004016106a09061330e565b60028055600654612c5d5760405162461bcd60e51b81526004016106a090613397565b6006546000908152600960209081526040808320600a90925290912060018254610100900460ff166003811115612c9657612c9661318c565b14612cdc5760405162461bcd60e51b81526020600482015260166024820152754e6f7420616363657074696e67206465706f7369747360501b60448201526064016106a0565b6000546001600160a01b03163303612d2f5760405162461bcd60e51b815260206004820152601660248201527510591b5a5b881d5cd94818591b5a5b91195c1bdcda5d60521b60448201526064016106a0565b624c4b40831015612d6f5760405162461bcd60e51b815260206004820152600a6024820152694d696e2035205553444360b01b60448201526064016106a0565b640ba43b7400831115612db55760405162461bcd60e51b815260206004820152600e60248201526d4d6178203530303030205553444360901b60448201526064016106a0565b64746a528800838260020154612dcb9190613347565b1115612e055760405162461bcd60e51b8152602060048201526009602482015268141bdbdb08199d5b1b60ba1b60448201526064016106a0565b336000908152600b60209081526040808320600654845290915290208054158015612e355750600181015460ff16155b612e755760405162461bcd60e51b8152602060048201526011602482015270105b1c9958591e4819195c1bdcda5d1959607a1b60448201526064016106a0565b6040805180820182528581526000602080830182815233808452600b83528584206006805486529084528685209551865591516001958601805460ff19169115159190911790558352600c8252938220935484549384018555938252812090910191909155600283018054869290612eee908490613347565b9091555050600482018054906000612f05836135d6565b909155505060065460405185815233907f9fa0303acb2d73e4e86bf54dd3fba8208feacfb4f5a79175dc1f36b674da0dbb9060200160405180910390a36040516323b872dd60e01b8152336004820152306024820152604481018590527f00000000000000000000000000000000000000000000000000000000000000006001600160a01b0316906323b872dd906064016020604051808303816000875af1158015612fb5573d6000803e3d6000fd5b505050506040513d601f19601f82011682018060405250810190612fd9919061335a565b6130175760405162461bcd60e51b815260206004820152600f60248201526e151c985b9cd9995c8819985a5b1959608a1b60448201526064016106a0565b505060016002555050565b6001600160a01b0381166000908152600c602090815260409182902080548351818402810184019094528084526060939283018282801561308257602002820191906000526020600020905b81548152602001906001019080831161306e575b50505050509050919050565b6000602082840312156130a057600080fd5b5035919050565b80151581146130b557600080fd5b50565b6000602082840312156130ca57600080fd5b81356130d5816130a7565b9392505050565b803563ffffffff811681146130f057600080fd5b919050565b60006020828403121561310757600080fd5b6130d5826130dc565b80356001600160401b03811681146130f057600080fd5b6000806040838503121561313a57600080fd5b613143836130dc565b915061315160208401613110565b90509250929050565b80356001600160a01b03811681146130f057600080fd5b60006020828403121561318357600080fd5b6130d58261315a565b634e487b7160e01b600052602160045260246000fd5b88151581526101008101600489106131bc576131bc61318c565b60208201989098526001600160401b039687166040820152948616606086015292909416608084015262ffffff1660a083015260c082019290925263ffffffff90911660e090910152919050565b600080600080600060a0868803121561322257600080fd5b853561322d816130a7565b945061323b60208701613110565b935061324960408701613110565b925061325760608701613110565b9150608086013562ffffff8116811461326f57600080fd5b809150509295509295909350565b6000806040838503121561329057600080fd5b6132998361315a565b946020939093013593505050565b6020808252825182820181905260009190848201906040850190845b818110156132df578351835292840192918401916001016132c3565b50909695505050505050565b6020808252600990820152682737ba1030b236b4b760b91b604082015260600190565b6020808252600990820152681499595b9d1c985b9d60ba1b604082015260600190565b634e487b7160e01b600052601160045260246000fd5b80820180821115612b9e57612b9e613331565b60006020828403121561336c57600080fd5b81516130d5816130a7565b60208082526006908201526511985a5b195960d21b604082015260600190565b60208082526010908201526f139bc81858dd1a5d99481cda59db985b60821b604082015260600190565b81810381811115612b9e57612b9e613331565b6000602082840312156133e657600080fd5b5051919050565b8082028115828204841417612b9e57612b9e613331565b60008261342157634e487b7160e01b600052601260045260246000fd5b500490565b6000600160ff1b820161343b5761343b613331565b5060000390565b600381106134525761345261318c565b9052565b83516001600160a01b031681526102208101602085015161347f602084018263ffffffff169052565b506040850151613495604084018261ffff169052565b5060608501516134ac606084018262ffffff169052565b5060808501516134c0608084018215159052565b5060a08501516134d460a084018215159052565b5060c08501516134e960c084018260ff169052565b5060e08501516134fc60e0840182613442565b50610100858101516001600160781b031690830152610120808601516001600160401b0390811691840191909152610140808701518216908401526101608087015190911690830152610180808601511515908301526101a0808601516001600160a01b03908116918401919091526101c09586015162ffffff169583019590955261ffff939093166101e082015292166102009092019190915290565b6020808252600b908201526a2737903837b9b4ba34b7b760a91b604082015260600190565b6000816135ce576135ce613331565b506000190190565b6000600182016135e8576135e8613331565b506001019056fea2646970667358221220b332274542a1dae8c86b721d83e673fc52aaa4538200896c5a84c1ec56dc694a64736f6c63430008130033","opcodes":"PUSH1 0xC0 PUSH1 0x40 MSTORE PUSH2 0x7D0 PUSH1 0x3 SSTORE CALLVALUE DUP1 ISZERO PUSH3 0x17 JUMPI PUSH1 0x0 DUP1 REVERT JUMPDEST POP PUSH1 0x40 MLOAD PUSH3 0x3869 CODESIZE SUB DUP1 PUSH3 0x3869 DUP4 CODECOPY DUP2 ADD PUSH1 0x40 DUP2 SWAP1 MSTORE PUSH3 0x3A SWAP2 PUSH3 0x159 JUMP JUMPDEST PUSH1 0x1 PUSH1 0x1 PUSH1 0xA0 SHL SUB DUP3 AND ISZERO DUP1 ISZERO SWAP1 PUSH3 0x5B JUMPI POP PUSH1 0x1 PUSH1 0x1 PUSH1 0xA0 SHL SUB DUP2 AND ISZERO ISZERO JUMPDEST PUSH3 0x98 JUMPI PUSH1 0x40 MLOAD PUSH3 0x461BCD PUSH1 0xE5 SHL DUP2 MSTORE PUSH1 0x20 PUSH1 0x4 DUP3 ADD MSTORE PUSH1 0x9 PUSH1 0x24 DUP3 ADD MSTORE PUSH9 0x2D32B9379030B23239 PUSH1 0xB9 SHL PUSH1 0x44 DUP3 ADD MSTORE PUSH1 0x64 ADD PUSH1 0x40 MLOAD DUP1 SWAP2 SUB SWAP1 REVERT JUMPDEST PUSH1 0x0 DUP1 SLOAD PUSH1 0x1 PUSH1 0x1 PUSH1 0xA0 SHL SUB NOT AND CALLER OR SWAP1 SSTORE PUSH1 0x1 PUSH1 0x2 SSTORE PUSH1 0x1 PUSH1 0x1 PUSH1 0xA0 SHL SUB DUP3 DUP2 AND PUSH1 0x80 DUP2 SWAP1 MSTORE SWAP1 DUP3 AND PUSH1 0xA0 DUP2 SWAP1 MSTORE PUSH1 0x40 MLOAD PUSH4 0x95EA7B3 PUSH1 0xE0 SHL DUP2 MSTORE PUSH1 0x4 DUP2 ADD SWAP2 SWAP1 SWAP2 MSTORE PUSH1 0x0 NOT PUSH1 0x24 DUP3 ADD MSTORE PUSH4 0x95EA7B3 SWAP1 PUSH1 0x44 ADD PUSH1 0x20 PUSH1 0x40 MLOAD DUP1 DUP4 SUB DUP2 PUSH1 0x0 DUP8 GAS CALL ISZERO DUP1 ISZERO PUSH3 0x10D JUMPI RETURNDATASIZE PUSH1 0x0 DUP1 RETURNDATACOPY RETURNDATASIZE PUSH1 0x0 REVERT JUMPDEST POP POP POP POP PUSH1 0x40 MLOAD RETURNDATASIZE PUSH1 0x1F NOT PUSH1 0x1F DUP3 ADD AND DUP3 ADD DUP1 PUSH1 0x40 MSTORE POP DUP2 ADD SWAP1 PUSH3 0x133 SWAP2 SWAP1 PUSH3 0x191 JUMP JUMPDEST POP POP POP PUSH3 0x1BC JUMP JUMPDEST DUP1 MLOAD PUSH1 0x1 PUSH1 0x1 PUSH1 0xA0 SHL SUB DUP2 AND DUP2 EQ PUSH3 0x154 JUMPI PUSH1 0x0 DUP1 REVERT JUMPDEST SWAP2 SWAP1 POP JUMP JUMPDEST PUSH1 0x0 DUP1 PUSH1 0x40 DUP4 DUP6 SUB SLT ISZERO PUSH3 0x16D JUMPI PUSH1 0x0 DUP1 REVERT JUMPDEST PUSH3 0x178 DUP4 PUSH3 0x13C JUMP JUMPDEST SWAP2 POP PUSH3 0x188 PUSH1 0x20 DUP5 ADD PUSH3 0x13C JUMP JUMPDEST SWAP1 POP SWAP3 POP SWAP3 SWAP1 POP JUMP JUMPDEST PUSH1 0x0 PUSH1 0x20 DUP3 DUP5 SUB SLT ISZERO PUSH3 0x1A4 JUMPI PUSH1 0x0 DUP1 REVERT JUMPDEST DUP2 MLOAD DUP1 ISZERO ISZERO DUP2 EQ PUSH3 0x1B5 JUMPI PUSH1 0x0 DUP1 REVERT JUMPDEST SWAP4 SWAP3 POP POP POP JUMP JUMPDEST PUSH1 0x80 MLOAD PUSH1 0xA0 MLOAD PUSH2 0x3625 PUSH3 0x244 PUSH1 0x0 CODECOPY PUSH1 0x0 DUP2 DUP2 PUSH2 0x617 ADD MSTORE DUP2 DUP2 PUSH2 0xFFB ADD MSTORE PUSH2 0x21F9 ADD MSTORE PUSH1 0x0 DUP2 DUP2 PUSH2 0x33F ADD MSTORE DUP2 DUP2 PUSH2 0x750 ADD MSTORE DUP2 DUP2 PUSH2 0x9C1 ADD MSTORE DUP2 DUP2 PUSH2 0xEAF ADD MSTORE DUP2 DUP2 PUSH2 0x1419 ADD MSTORE DUP2 DUP2 PUSH2 0x16F8 ADD MSTORE DUP2 DUP2 PUSH2 0x184D ADD MSTORE DUP2 DUP2 PUSH2 0x19DA ADD MSTORE DUP2 DUP2 PUSH2 0x1CA7 ADD MSTORE DUP2 DUP2 PUSH2 0x1D8F ADD MSTORE DUP2 DUP2 PUSH2 0x1F1E ADD MSTORE DUP2 DUP2 PUSH2 0x2036 ADD MSTORE PUSH2 0x2F64 ADD MSTORE PUSH2 0x3625 PUSH1 0x0 RETURN INVALID PUSH1 0x80 PUSH1 0x40 MSTORE CALLVALUE DUP1 ISZERO PUSH2 0x10 JUMPI PUSH1 0x0 DUP1 REVERT JUMPDEST POP PUSH1 0x4 CALLDATASIZE LT PUSH2 0x253 JUMPI PUSH1 0x0 CALLDATALOAD PUSH1 0xE0 SHR DUP1 PUSH4 0x75829DEF GT PUSH2 0x146 JUMPI DUP1 PUSH4 0xA5534664 GT PUSH2 0xC3 JUMPI DUP1 PUSH4 0xE1E158A5 GT PUSH2 0x87 JUMPI DUP1 PUSH4 0xE1E158A5 EQ PUSH2 0x5FF JUMPI DUP1 PUSH4 0xE1F1C4A7 EQ PUSH2 0x609 JUMPI DUP1 PUSH4 0xF0B7DB4E EQ PUSH2 0x612 JUMPI DUP1 PUSH4 0xF23FAE93 EQ PUSH2 0x639 JUMPI DUP1 PUSH4 0xF851A440 EQ PUSH2 0x643 JUMPI DUP1 PUSH4 0xFC6FEE9C EQ PUSH2 0x656 JUMPI PUSH1 0x0 DUP1 REVERT JUMPDEST DUP1 PUSH4 0xA5534664 EQ PUSH2 0x57A JUMPI DUP1 PUSH4 0xAE0041AA EQ PUSH2 0x58D JUMPI DUP1 PUSH4 0xB6B55F25 EQ PUSH2 0x596 JUMPI DUP1 PUSH4 0xC1BE6677 EQ PUSH2 0x5A9 JUMPI DUP1 PUSH4 0xDD5967C3 EQ PUSH2 0x5F3 JUMPI PUSH1 0x0 DUP1 REVERT JUMPDEST DUP1 PUSH4 0x80447E32 GT PUSH2 0x10A JUMPI DUP1 PUSH4 0x80447E32 EQ PUSH2 0x4A1 JUMPI DUP1 PUSH4 0x82944E2D EQ PUSH2 0x541 JUMPI DUP1 PUSH4 0x888BC372 EQ PUSH2 0x54B JUMPI DUP1 PUSH4 0x99D8528E EQ PUSH2 0x554 JUMPI DUP1 PUSH4 0xA5519036 EQ PUSH2 0x567 JUMPI PUSH1 0x0 DUP1 REVERT JUMPDEST DUP1 PUSH4 0x75829DEF EQ PUSH2 0x3E0 JUMPI DUP1 PUSH4 0x78739F47 EQ PUSH2 0x3F3 JUMPI DUP1 PUSH4 0x7A88D0B5 EQ PUSH2 0x3FB JUMPI DUP1 PUSH4 0x7CE3489B EQ PUSH2 0x485 JUMPI DUP1 PUSH4 0x7FD6F15C EQ PUSH2 0x498 JUMPI PUSH1 0x0 DUP1 REVERT JUMPDEST DUP1 PUSH4 0x379607F5 GT PUSH2 0x1D4 JUMPI DUP1 PUSH4 0x5312EA8E GT PUSH2 0x198 JUMPI DUP1 PUSH4 0x5312EA8E EQ PUSH2 0x37A JUMPI DUP1 PUSH4 0x55E267FF EQ PUSH2 0x38D JUMPI DUP1 PUSH4 0x5C975ABB EQ PUSH2 0x3A0 JUMPI DUP1 PUSH4 0x60C6D8AE EQ PUSH2 0x3C4 JUMPI DUP1 PUSH4 0x6CCA67A8 EQ PUSH2 0x3CD JUMPI PUSH1 0x0 DUP1 REVERT JUMPDEST DUP1 PUSH4 0x379607F5 EQ PUSH2 0x327 JUMPI DUP1 PUSH4 0x3E413BEE EQ PUSH2 0x33A JUMPI DUP1 PUSH4 0x476343EE EQ PUSH2 0x361 JUMPI DUP1 PUSH4 0x486834A3 EQ PUSH2 0x369 JUMPI DUP1 PUSH4 0x4CB96A92 EQ PUSH2 0x372 JUMPI PUSH1 0x0 DUP1 REVERT JUMPDEST DUP1 PUSH4 0x27DDE56C GT PUSH2 0x21B JUMPI DUP1 PUSH4 0x27DDE56C EQ PUSH2 0x2CB JUMPI DUP1 PUSH4 0x28D3BF0A EQ PUSH2 0x2DE JUMPI DUP1 PUSH4 0x2C3C91C9 EQ PUSH2 0x2F1 JUMPI DUP1 PUSH4 0x30CB5B4A EQ PUSH2 0x30B JUMPI DUP1 PUSH4 0x33289A46 EQ PUSH2 0x314 JUMPI PUSH1 0x0 DUP1 REVERT JUMPDEST DUP1 PUSH4 0x8687794 EQ PUSH2 0x258 JUMPI DUP1 PUSH4 0xE18B681 EQ PUSH2 0x26D JUMPI DUP1 PUSH4 0x15199C7F EQ PUSH2 0x275 JUMPI DUP1 PUSH4 0x16C38B3C EQ PUSH2 0x288 JUMPI DUP1 PUSH4 0x26782247 EQ PUSH2 0x29B JUMPI JUMPDEST PUSH1 0x0 DUP1 REVERT JUMPDEST PUSH2 0x26B PUSH2 0x266 CALLDATASIZE PUSH1 0x4 PUSH2 0x308E JUMP JUMPDEST PUSH2 0x676 JUMP JUMPDEST STOP JUMPDEST PUSH2 0x26B PUSH2 0x816 JUMP JUMPDEST PUSH2 0x26B PUSH2 0x283 CALLDATASIZE PUSH1 0x4 PUSH2 0x308E JUMP JUMPDEST PUSH2 0x8C8 JUMP JUMPDEST PUSH2 0x26B PUSH2 0x296 CALLDATASIZE PUSH1 0x4 PUSH2 0x30B8 JUMP JUMPDEST PUSH2 0xC8E JUMP JUMPDEST PUSH1 0x1 SLOAD PUSH2 0x2AE SWAP1 PUSH1 0x1 PUSH1 0x1 PUSH1 0xA0 SHL SUB AND DUP2 JUMP JUMPDEST PUSH1 0x40 MLOAD PUSH1 0x1 PUSH1 0x1 PUSH1 0xA0 SHL SUB SWAP1 SWAP2 AND DUP2 MSTORE PUSH1 0x20 ADD JUMPDEST PUSH1 0x40 MLOAD DUP1 SWAP2 SUB SWAP1 RETURN JUMPDEST PUSH2 0x26B PUSH2 0x2D9 CALLDATASIZE PUSH1 0x4 PUSH2 0x30F5 JUMP JUMPDEST PUSH2 0xD10 JUMP JUMPDEST PUSH2 0x26B PUSH2 0x2EC CALLDATASIZE PUSH1 0x4 PUSH2 0x308E JUMP JUMPDEST PUSH2 0x10BD JUMP JUMPDEST PUSH2 0x2FD PUSH5 0x746A528800 DUP2 JUMP JUMPDEST PUSH1 0x40 MLOAD SWAP1 DUP2 MSTORE PUSH1 0x20 ADD PUSH2 0x2C2 JUMP JUMPDEST PUSH2 0x2FD PUSH1 0x6 SLOAD DUP2 JUMP JUMPDEST PUSH2 0x26B PUSH2 0x322 CALLDATASIZE PUSH1 0x4 PUSH2 0x308E JUMP JUMPDEST PUSH2 0x1253 JUMP JUMPDEST PUSH2 0x26B PUSH2 0x335 CALLDATASIZE PUSH1 0x4 PUSH2 0x308E JUMP JUMPDEST PUSH2 0x14B6 JUMP JUMPDEST PUSH2 0x2AE PUSH32 0x0 DUP2 JUMP JUMPDEST PUSH2 0x26B PUSH2 0x18EF JUMP JUMPDEST PUSH2 0x2FD PUSH1 0x7 SLOAD DUP2 JUMP JUMPDEST PUSH1 0x6 SLOAD PUSH2 0x2FD JUMP JUMPDEST PUSH2 0x26B PUSH2 0x388 CALLDATASIZE PUSH1 0x4 PUSH2 0x308E JUMP JUMPDEST PUSH2 0x1A6D JUMP JUMPDEST PUSH2 0x26B PUSH2 0x39B CALLDATASIZE PUSH1 0x4 PUSH2 0x308E JUMP JUMPDEST PUSH2 0x1E2E JUMP JUMPDEST PUSH1 0x1 SLOAD PUSH2 0x3B4 SWAP1 PUSH1 0x1 PUSH1 0xA0 SHL SWAP1 DIV PUSH1 0xFF AND DUP2 JUMP JUMPDEST PUSH1 0x40 MLOAD SWAP1 ISZERO ISZERO DUP2 MSTORE PUSH1 0x20 ADD PUSH2 0x2C2 JUMP JUMPDEST PUSH2 0x2FD PUSH1 0x5 SLOAD DUP2 JUMP JUMPDEST PUSH2 0x26B PUSH2 0x3DB CALLDATASIZE PUSH1 0x4 PUSH2 0x3127 JUMP JUMPDEST PUSH2 0x20CA JUMP JUMPDEST PUSH2 0x26B PUSH2 0x3EE CALLDATASIZE PUSH1 0x4 PUSH2 0x3171 JUMP JUMPDEST PUSH2 0x2262 JUMP JUMPDEST PUSH2 0x26B PUSH2 0x2318 JUMP JUMPDEST PUSH2 0x471 PUSH2 0x409 CALLDATASIZE PUSH1 0x4 PUSH2 0x308E JUMP JUMPDEST PUSH1 0x9 PUSH1 0x20 MSTORE PUSH1 0x0 SWAP1 DUP2 MSTORE PUSH1 0x40 SWAP1 KECCAK256 DUP1 SLOAD PUSH1 0x1 DUP3 ADD SLOAD PUSH1 0x2 SWAP1 SWAP3 ADD SLOAD PUSH1 0xFF DUP1 DUP4 AND SWAP4 PUSH2 0x100 DUP5 DIV SWAP1 SWAP2 AND SWAP3 PUSH1 0x1 PUSH1 0x1 PUSH1 0x40 SHL SUB PUSH3 0x10000 DUP3 DIV DUP2 AND SWAP4 PUSH1 0x1 PUSH1 0x50 SHL DUP4 DIV DUP3 AND SWAP4 PUSH1 0x1 PUSH1 0x90 SHL DUP5 DIV SWAP1 SWAP3 AND SWAP3 PUSH3 0xFFFFFF PUSH1 0x1 PUSH1 0xD0 SHL SWAP1 SWAP2 DIV AND SWAP2 SWAP1 PUSH4 0xFFFFFFFF AND DUP9 JUMP JUMPDEST PUSH1 0x40 MLOAD PUSH2 0x2C2 SWAP9 SWAP8 SWAP7 SWAP6 SWAP5 SWAP4 SWAP3 SWAP2 SWAP1 PUSH2 0x31A2 JUMP JUMPDEST PUSH2 0x26B PUSH2 0x493 CALLDATASIZE PUSH1 0x4 PUSH2 0x308E JUMP JUMPDEST PUSH2 0x248A JUMP JUMPDEST PUSH2 0x2FD PUSH1 0x3 SLOAD DUP2 JUMP JUMPDEST PUSH2 0x4FD PUSH2 0x4AF CALLDATASIZE PUSH1 0x4 PUSH2 0x308E JUMP JUMPDEST PUSH1 0xA PUSH1 0x20 MSTORE DUP1 PUSH1 0x0 MSTORE PUSH1 0x40 PUSH1 0x0 KECCAK256 PUSH1 0x0 SWAP2 POP SWAP1 POP DUP1 PUSH1 0x0 ADD SLOAD SWAP1 DUP1 PUSH1 0x1 ADD SLOAD SWAP1 DUP1 PUSH1 0x2 ADD SLOAD SWAP1 DUP1 PUSH1 0x3 ADD SLOAD SWAP1 DUP1 PUSH1 0x4 ADD SLOAD SWAP1 DUP1 PUSH1 0x5 ADD SLOAD SWAP1 DUP1 PUSH1 0x6 ADD SLOAD SWAP1 DUP1 PUSH1 0x7 ADD SLOAD SWAP1 DUP1 PUSH1 0x8 ADD SLOAD SWAP1 POP DUP10 JUMP JUMPDEST PUSH1 0x40 DUP1 MLOAD SWAP10 DUP11 MSTORE PUSH1 0x20 DUP11 ADD SWAP9 SWAP1 SWAP9 MSTORE SWAP7 DUP9 ADD SWAP6 SWAP1 SWAP6 MSTORE PUSH1 0x60 DUP8 ADD SWAP4 SWAP1 SWAP4 MSTORE PUSH1 0x80 DUP7 ADD SWAP2 SWAP1 SWAP2 MSTORE PUSH1 0xA0 DUP6 ADD MSTORE PUSH1 0xC0 DUP5 ADD MSTORE PUSH1 0xE0 DUP4 ADD MSTORE PUSH2 0x100 DUP3 ADD MSTORE PUSH2 0x120 ADD PUSH2 0x2C2 JUMP JUMPDEST PUSH2 0x2FD PUSH3 0x93A80 DUP2 JUMP JUMPDEST PUSH2 0x2FD PUSH1 0x8 SLOAD DUP2 JUMP JUMPDEST PUSH2 0x26B PUSH2 0x562 CALLDATASIZE PUSH1 0x4 PUSH2 0x320A JUMP JUMPDEST PUSH2 0x2525 JUMP JUMPDEST PUSH2 0x2FD PUSH2 0x575 CALLDATASIZE PUSH1 0x4 PUSH2 0x327D JUMP JUMPDEST PUSH2 0x2A38 JUMP JUMPDEST PUSH2 0x2FD PUSH2 0x588 CALLDATASIZE PUSH1 0x4 PUSH2 0x327D JUMP JUMPDEST PUSH2 0x2BA4 JUMP JUMPDEST PUSH2 0x2FD PUSH1 0x4 SLOAD DUP2 JUMP JUMPDEST PUSH2 0x26B PUSH2 0x5A4 CALLDATASIZE PUSH1 0x4 PUSH2 0x308E JUMP JUMPDEST PUSH2 0x2BD5 JUMP JUMPDEST PUSH2 0x5DE PUSH2 0x5B7 CALLDATASIZE PUSH1 0x4 PUSH2 0x327D JUMP JUMPDEST PUSH1 0xB PUSH1 0x20 SWAP1 DUP2 MSTORE PUSH1 0x0 SWAP3 DUP4 MSTORE PUSH1 0x40 DUP1 DUP5 KECCAK256 SWAP1 SWAP2 MSTORE SWAP1 DUP3 MSTORE SWAP1 KECCAK256 DUP1 SLOAD PUSH1 0x1 SWAP1 SWAP2 ADD SLOAD PUSH1 0xFF AND DUP3 JUMP JUMPDEST PUSH1 0x40 DUP1 MLOAD SWAP3 DUP4 MSTORE SWAP1 ISZERO ISZERO PUSH1 0x20 DUP4 ADD MSTORE ADD PUSH2 0x2C2 JUMP JUMPDEST PUSH2 0x2FD PUSH5 0xBA43B7400 DUP2 JUMP JUMPDEST PUSH2 0x2FD PUSH3 0x4C4B40 DUP2 JUMP JUMPDEST PUSH2 0x2FD PUSH2 0x2710 DUP2 JUMP JUMPDEST PUSH2 0x2AE PUSH32 0x0 DUP2 JUMP JUMPDEST PUSH2 0x2FD PUSH3 0x15180 DUP2 JUMP JUMPDEST PUSH1 0x0 SLOAD PUSH2 0x2AE SWAP1 PUSH1 0x1 PUSH1 0x1 PUSH1 0xA0 SHL SUB AND DUP2 JUMP JUMPDEST PUSH2 0x669 PUSH2 0x664 CALLDATASIZE PUSH1 0x4 PUSH2 0x3171 JUMP JUMPDEST PUSH2 0x3022 JUMP JUMPDEST PUSH1 0x40 MLOAD PUSH2 0x2C2 SWAP2 SWAP1 PUSH2 0x32A7 JUMP JUMPDEST PUSH1 0x0 SLOAD PUSH1 0x1 PUSH1 0x1 PUSH1 0xA0 SHL SUB AND CALLER EQ PUSH2 0x6A9 JUMPI PUSH1 0x40 MLOAD PUSH3 0x461BCD PUSH1 0xE5 SHL DUP2 MSTORE PUSH1 0x4 ADD PUSH2 0x6A0 SWAP1 PUSH2 0x32EB JUMP JUMPDEST PUSH1 0x40 MLOAD DUP1 SWAP2 SUB SWAP1 REVERT JUMPDEST PUSH1 0x2 SLOAD PUSH1 0x2 SUB PUSH2 0x6CB JUMPI PUSH1 0x40 MLOAD PUSH3 0x461BCD PUSH1 0xE5 SHL DUP2 MSTORE PUSH1 0x4 ADD PUSH2 0x6A0 SWAP1 PUSH2 0x330E JUMP JUMPDEST PUSH1 0x2 DUP1 SSTORE DUP1 PUSH2 0x70A JUMPI PUSH1 0x40 MLOAD PUSH3 0x461BCD PUSH1 0xE5 SHL DUP2 MSTORE PUSH1 0x20 PUSH1 0x4 DUP3 ADD MSTORE PUSH1 0xB PUSH1 0x24 DUP3 ADD MSTORE PUSH11 0x16995C9BC8185B5BDD5B9D PUSH1 0xAA SHL PUSH1 0x44 DUP3 ADD MSTORE PUSH1 0x64 ADD PUSH2 0x6A0 JUMP JUMPDEST DUP1 PUSH1 0x8 PUSH1 0x0 DUP3 DUP3 SLOAD PUSH2 0x71C SWAP2 SWAP1 PUSH2 0x3347 JUMP JUMPDEST SWAP1 SWAP2 SSTORE POP POP PUSH1 0x0 SLOAD PUSH1 0x40 MLOAD PUSH4 0x23B872DD PUSH1 0xE0 SHL DUP2 MSTORE PUSH1 0x1 PUSH1 0x1 PUSH1 0xA0 SHL SUB SWAP2 DUP3 AND PUSH1 0x4 DUP3 ADD MSTORE ADDRESS PUSH1 0x24 DUP3 ADD MSTORE PUSH1 0x44 DUP2 ADD DUP4 SWAP1 MSTORE PUSH32 0x0 SWAP1 SWAP2 AND SWAP1 PUSH4 0x23B872DD SWAP1 PUSH1 0x64 ADD PUSH1 0x20 PUSH1 0x40 MLOAD DUP1 DUP4 SUB DUP2 PUSH1 0x0 DUP8 GAS CALL ISZERO DUP1 ISZERO PUSH2 0x79B JUMPI RETURNDATASIZE PUSH1 0x0 DUP1 RETURNDATACOPY RETURNDATASIZE PUSH1 0x0 REVERT JUMPDEST POP POP POP POP PUSH1 0x40 MLOAD RETURNDATASIZE PUSH1 0x1F NOT PUSH1 0x1F DUP3 ADD AND DUP3 ADD DUP1 PUSH1 0x40 MSTORE POP DUP2 ADD SWAP1 PUSH2 0x7BF SWAP2 SWAP1 PUSH2 0x335A JUMP JUMPDEST PUSH2 0x7DB JUMPI PUSH1 0x40 MLOAD PUSH3 0x461BCD PUSH1 0xE5 SHL DUP2 MSTORE PUSH1 0x4 ADD PUSH2 0x6A0 SWAP1 PUSH2 0x3377 JUMP JUMPDEST PUSH1 0x40 MLOAD DUP2 DUP2 MSTORE PUSH32 0xB0DADDC179952DE74346A5E7759111C9EDC9F99CA9204E97C889B85FB55B55C7 SWAP1 PUSH1 0x20 ADD PUSH1 0x40 MLOAD DUP1 SWAP2 SUB SWAP1 LOG1 POP PUSH1 0x1 PUSH1 0x2 SSTORE JUMP JUMPDEST PUSH1 0x1 SLOAD PUSH1 0x1 PUSH1 0x1 PUSH1 0xA0 SHL SUB AND CALLER EQ PUSH2 0x864 JUMPI PUSH1 0x40 MLOAD PUSH3 0x461BCD PUSH1 0xE5 SHL DUP2 MSTORE PUSH1 0x20 PUSH1 0x4 DUP3 ADD MSTORE PUSH1 0x11 PUSH1 0x24 DUP3 ADD MSTORE PUSH17 0x2737BA103832B73234B7339030B236B4B7 PUSH1 0x79 SHL PUSH1 0x44 DUP3 ADD MSTORE PUSH1 0x64 ADD PUSH2 0x6A0 JUMP JUMPDEST PUSH1 0x1 SLOAD PUSH1 0x0 DUP1 SLOAD PUSH1 0x40 MLOAD PUSH1 0x1 PUSH1 0x1 PUSH1 0xA0 SHL SUB SWAP4 DUP5 AND SWAP4 SWAP1 SWAP2 AND SWAP2 PUSH32 0xF8CCB027DFCD135E000E9D45E6CC2D662578A8825D4C45B5E32E0ADF67E79EC6 SWAP2 LOG3 PUSH1 0x1 DUP1 SLOAD PUSH1 0x0 DUP1 SLOAD PUSH1 0x1 PUSH1 0x1 PUSH1 0xA0 SHL SUB NOT SWAP1 DUP2 AND PUSH1 0x1 PUSH1 0x1 PUSH1 0xA0 SHL SUB DUP5 AND OR SWAP1 SWAP2 SSTORE AND SWAP1 SSTORE JUMP JUMPDEST PUSH1 0x0 SLOAD PUSH1 0x1 PUSH1 0x1 PUSH1 0xA0 SHL SUB AND CALLER EQ PUSH2 0x8F2 JUMPI PUSH1 0x40 MLOAD PUSH3 0x461BCD PUSH1 0xE5 SHL DUP2 MSTORE PUSH1 0x4 ADD PUSH2 0x6A0 SWAP1 PUSH2 0x32EB JUMP JUMPDEST PUSH1 0x0 PUSH1 0x6 SLOAD GT PUSH2 0x914 JUMPI PUSH1 0x40 MLOAD PUSH3 0x461BCD PUSH1 0xE5 SHL DUP2 MSTORE PUSH1 0x4 ADD PUSH2 0x6A0 SWAP1 PUSH2 0x3397 JUMP JUMPDEST PUSH1 0x6 SLOAD PUSH1 0x0 SWAP1 DUP2 MSTORE PUSH1 0x9 PUSH1 0x20 SWAP1 DUP2 MSTORE PUSH1 0x40 DUP1 DUP4 KECCAK256 PUSH1 0xA SWAP1 SWAP3 MSTORE SWAP1 SWAP2 KECCAK256 PUSH1 0x2 DUP3 SLOAD PUSH2 0x100 SWAP1 DIV PUSH1 0xFF AND PUSH1 0x3 DUP2 GT ISZERO PUSH2 0x94D JUMPI PUSH2 0x94D PUSH2 0x318C JUMP JUMPDEST EQ PUSH2 0x988 JUMPI PUSH1 0x40 MLOAD PUSH3 0x461BCD PUSH1 0xE5 SHL DUP2 MSTORE PUSH1 0x20 PUSH1 0x4 DUP3 ADD MSTORE PUSH1 0xB PUSH1 0x24 DUP3 ADD MSTORE PUSH11 0x4E6F742074726164696E67 PUSH1 0xA8 SHL PUSH1 0x44 DUP3 ADD MSTORE PUSH1 0x64 ADD PUSH2 0x6A0 JUMP JUMPDEST PUSH1 0x0 DUP2 PUSH1 0x6 ADD SLOAD DUP3 PUSH1 0x5 ADD SLOAD PUSH2 0x99E SWAP2 SWAP1 PUSH2 0x33C1 JUMP JUMPDEST PUSH1 0x40 MLOAD PUSH4 0x70A08231 PUSH1 0xE0 SHL DUP2 MSTORE ADDRESS PUSH1 0x4 DUP3 ADD MSTORE SWAP1 SWAP2 POP PUSH1 0x0 SWAP1 PUSH1 0x1 PUSH1 0x1 PUSH1 0xA0 SHL SUB PUSH32 0x0 AND SWAP1 PUSH4 0x70A08231 SWAP1 PUSH1 0x24 ADD PUSH1 0x20 PUSH1 0x40 MLOAD DUP1 DUP4 SUB DUP2 DUP7 GAS STATICCALL ISZERO DUP1 ISZERO PUSH2 0xA08 JUMPI RETURNDATASIZE PUSH1 0x0 DUP1 RETURNDATACOPY RETURNDATASIZE PUSH1 0x0 REVERT JUMPDEST POP POP POP POP PUSH1 0x40 MLOAD RETURNDATASIZE PUSH1 0x1F NOT PUSH1 0x1F DUP3 ADD AND DUP3 ADD DUP1 PUSH1 0x40 MSTORE POP DUP2 ADD SWAP1 PUSH2 0xA2C SWAP2 SWAP1 PUSH2 0x33D4 JUMP JUMPDEST SWAP1 POP PUSH1 0x0 DUP4 PUSH1 0x5 ADD SLOAD DUP5 PUSH1 0x8 ADD SLOAD GT PUSH2 0xA46 JUMPI PUSH1 0x0 PUSH2 0xA5A JUMP JUMPDEST DUP4 PUSH1 0x5 ADD SLOAD DUP5 PUSH1 0x8 ADD SLOAD PUSH2 0xA5A SWAP2 SWAP1 PUSH2 0x33C1 JUMP JUMPDEST SWAP1 POP PUSH1 0x0 DUP2 DUP4 GT PUSH2 0xA6C JUMPI PUSH1 0x0 PUSH2 0xA85 JUMP JUMPDEST PUSH1 0x6 DUP6 ADD SLOAD PUSH2 0xA7B DUP4 DUP6 PUSH2 0x33C1 JUMP JUMPDEST PUSH2 0xA85 SWAP2 SWAP1 PUSH2 0x3347 JUMP JUMPDEST SWAP1 POP DUP1 DUP8 GT ISZERO PUSH2 0xAD7 JUMPI PUSH1 0x40 MLOAD PUSH3 0x461BCD PUSH1 0xE5 SHL DUP2 MSTORE PUSH1 0x20 PUSH1 0x4 DUP3 ADD MSTORE PUSH1 0x18 PUSH1 0x24 DUP3 ADD MSTORE PUSH32 0x4D6F7265207468616E2074726164652072657475726E65640000000000000000 PUSH1 0x44 DUP3 ADD MSTORE PUSH1 0x64 ADD PUSH2 0x6A0 JUMP JUMPDEST PUSH2 0xAE2 DUP5 PUSH1 0x3 PUSH2 0x33ED JUMP JUMPDEST DUP8 GT ISZERO PUSH2 0xB23 JUMPI PUSH1 0x40 MLOAD PUSH3 0x461BCD PUSH1 0xE5 SHL DUP2 MSTORE PUSH1 0x20 PUSH1 0x4 DUP3 ADD MSTORE PUSH1 0xF PUSH1 0x24 DUP3 ADD MSTORE PUSH15 0xA4CAE6EAD8E840E8DEDE40D0D2CED PUSH1 0x8B SHL PUSH1 0x44 DUP3 ADD MSTORE PUSH1 0x64 ADD PUSH2 0x6A0 JUMP JUMPDEST DUP7 DUP4 LT ISZERO PUSH2 0xB6A JUMPI PUSH1 0x40 MLOAD PUSH3 0x461BCD PUSH1 0xE5 SHL DUP2 MSTORE PUSH1 0x20 PUSH1 0x4 DUP3 ADD MSTORE PUSH1 0x14 PUSH1 0x24 DUP3 ADD MSTORE PUSH20 0x496E73756666696369656E742062616C616E6365 PUSH1 0x60 SHL PUSH1 0x44 DUP3 ADD MSTORE PUSH1 0x64 ADD PUSH2 0x6A0 JUMP JUMPDEST DUP6 SLOAD PUSH2 0xFF00 NOT AND PUSH2 0x300 OR DUP7 SSTORE PUSH1 0x3 DUP6 ADD DUP8 SWAP1 SSTORE TIMESTAMP PUSH1 0x1 DUP7 ADD SSTORE PUSH1 0x7 SLOAD DUP5 SWAP1 DUP2 GT PUSH2 0xBAC JUMPI DUP1 PUSH1 0x7 PUSH1 0x0 DUP3 DUP3 SLOAD PUSH2 0xBA1 SWAP2 SWAP1 PUSH2 0x33C1 JUMP JUMPDEST SWAP1 SWAP2 SSTORE POP PUSH2 0xBB2 SWAP1 POP JUMP JUMPDEST PUSH1 0x0 PUSH1 0x7 SSTORE JUMPDEST DUP8 PUSH1 0x7 PUSH1 0x0 DUP3 DUP3 SLOAD PUSH2 0xBC4 SWAP2 SWAP1 PUSH2 0x3347 JUMP JUMPDEST SWAP1 SWAP2 SSTORE POP DUP6 SWAP1 POP PUSH1 0x0 DUP2 ISZERO PUSH2 0xC31 JUMPI DUP2 DUP11 LT PUSH2 0xC03 JUMPI DUP2 PUSH2 0x2710 PUSH2 0xBE8 DUP3 DUP14 PUSH2 0x33C1 JUMP JUMPDEST PUSH2 0xBF2 SWAP2 SWAP1 PUSH2 0x33ED JUMP JUMPDEST PUSH2 0xBFC SWAP2 SWAP1 PUSH2 0x3404 JUMP JUMPDEST SWAP1 POP PUSH2 0xC31 JUMP JUMPDEST DUP2 PUSH2 0x2710 PUSH2 0xC11 DUP13 DUP4 PUSH2 0x33C1 JUMP JUMPDEST PUSH2 0xC1B SWAP2 SWAP1 PUSH2 0x33ED JUMP JUMPDEST PUSH2 0xC25 SWAP2 SWAP1 PUSH2 0x3404 JUMP JUMPDEST PUSH2 0xC2E SWAP1 PUSH2 0x3426 JUMP JUMPDEST SWAP1 POP JUMPDEST PUSH1 0x6 DUP1 SLOAD PUSH1 0x0 SWAP1 SWAP2 SSTORE PUSH1 0x2 DUP10 ADD SLOAD PUSH1 0x40 DUP1 MLOAD SWAP2 DUP3 MSTORE PUSH1 0x20 DUP3 ADD DUP14 SWAP1 MSTORE DUP2 ADD DUP4 SWAP1 MSTORE DUP2 SWAP1 PUSH32 0xBA18B330376D9405519E92AA6A1EBBC93AAD8B9F68B95C8805C9E9D8E3A46CD0 SWAP1 PUSH1 0x60 ADD PUSH1 0x40 MLOAD DUP1 SWAP2 SUB SWAP1 LOG2 POP POP POP POP POP POP POP POP POP POP POP JUMP JUMPDEST PUSH1 0x0 SLOAD PUSH1 0x1 PUSH1 0x1 PUSH1 0xA0 SHL SUB AND CALLER EQ PUSH2 0xCB8 JUMPI PUSH1 0x40 MLOAD PUSH3 0x461BCD PUSH1 0xE5 SHL DUP2 MSTORE PUSH1 0x4 ADD PUSH2 0x6A0 SWAP1 PUSH2 0x32EB JUMP JUMPDEST PUSH1 0x1 DUP1 SLOAD DUP3 ISZERO ISZERO PUSH1 0x1 PUSH1 0xA0 SHL MUL PUSH1 0xFF PUSH1 0xA0 SHL NOT SWAP1 SWAP2 AND OR SWAP1 SSTORE PUSH1 0x40 MLOAD PUSH32 0xE2FB031EE032DC02D8011DC50B816EB450CF856ABD8261680DAC74F72165BD2 SWAP1 PUSH2 0xD05 SWAP1 DUP4 ISZERO ISZERO DUP2 MSTORE PUSH1 0x20 ADD SWAP1 JUMP JUMPDEST PUSH1 0x40 MLOAD DUP1 SWAP2 SUB SWAP1 LOG1 POP JUMP JUMPDEST PUSH1 0x0 SLOAD PUSH1 0x1 PUSH1 0x1 PUSH1 0xA0 SHL SUB AND CALLER EQ PUSH2 0xD3A JUMPI PUSH1 0x40 MLOAD PUSH3 0x461BCD PUSH1 0xE5 SHL DUP2 MSTORE PUSH1 0x4 ADD PUSH2 0x6A0 SWAP1 PUSH2 0x32EB JUMP JUMPDEST PUSH1 0x0 PUSH1 0x6 SLOAD GT PUSH2 0xD5C JUMPI PUSH1 0x40 MLOAD PUSH3 0x461BCD PUSH1 0xE5 SHL DUP2 MSTORE PUSH1 0x4 ADD PUSH2 0x6A0 SWAP1 PUSH2 0x3397 JUMP JUMPDEST PUSH1 0x6 SLOAD PUSH1 0x0 SWAP1 DUP2 MSTORE PUSH1 0x9 PUSH1 0x20 SWAP1 DUP2 MSTORE PUSH1 0x40 DUP1 DUP4 KECCAK256 PUSH1 0xA SWAP1 SWAP3 MSTORE SWAP1 SWAP2 KECCAK256 PUSH1 0x1 DUP3 SLOAD PUSH2 0x100 SWAP1 DIV PUSH1 0xFF AND PUSH1 0x3 DUP2 GT ISZERO PUSH2 0xD95 JUMPI PUSH2 0xD95 PUSH2 0x318C JUMP JUMPDEST EQ PUSH2 0xDD3 JUMPI PUSH1 0x40 MLOAD PUSH3 0x461BCD PUSH1 0xE5 SHL DUP2 MSTORE PUSH1 0x20 PUSH1 0x4 DUP3 ADD MSTORE PUSH1 0xE PUSH1 0x24 DUP3 ADD MSTORE PUSH14 0x4E6F7420636F6C6C656374696E67 PUSH1 0x90 SHL PUSH1 0x44 DUP3 ADD MSTORE PUSH1 0x64 ADD PUSH2 0x6A0 JUMP JUMPDEST PUSH1 0x0 DUP2 PUSH1 0x2 ADD SLOAD GT PUSH2 0xE15 JUMPI PUSH1 0x40 MLOAD PUSH3 0x461BCD PUSH1 0xE5 SHL DUP2 MSTORE PUSH1 0x20 PUSH1 0x4 DUP3 ADD MSTORE PUSH1 0xB PUSH1 0x24 DUP3 ADD MSTORE PUSH11 0x4E6F206465706F73697473 PUSH1 0xA8 SHL PUSH1 0x44 DUP3 ADD MSTORE PUSH1 0x64 ADD PUSH2 0x6A0 JUMP JUMPDEST PUSH1 0x2 DUP2 ADD SLOAD PUSH1 0x1 PUSH1 0x1 PUSH1 0x78 SHL SUB LT ISZERO PUSH2 0xE61 JUMPI PUSH1 0x40 MLOAD PUSH3 0x461BCD PUSH1 0xE5 SHL DUP2 MSTORE PUSH1 0x20 PUSH1 0x4 DUP3 ADD MSTORE PUSH1 0xE PUSH1 0x24 DUP3 ADD MSTORE PUSH14 0x506F6F6C20746F6F206C61726765 PUSH1 0x90 SHL PUSH1 0x44 DUP3 ADD MSTORE PUSH1 0x64 ADD PUSH2 0x6A0 JUMP JUMPDEST DUP2 SLOAD PUSH2 0x200 PUSH2 0xFF00 NOT SWAP1 SWAP2 AND OR DUP3 SSTORE PUSH1 0x2 DUP1 DUP4 ADD DUP1 SLOAD PUSH4 0xFFFFFFFF DUP7 AND PUSH4 0xFFFFFFFF NOT SWAP1 SWAP2 AND OR SWAP1 SSTORE DUP2 ADD SLOAD PUSH1 0x5 DUP3 ADD SSTORE PUSH1 0x40 MLOAD PUSH4 0x70A08231 PUSH1 0xE0 SHL DUP2 MSTORE ADDRESS PUSH1 0x4 DUP3 ADD MSTORE PUSH1 0x1 PUSH1 0x1 PUSH1 0xA0 SHL SUB PUSH32 0x0 AND SWAP1 PUSH4 0x70A08231 SWAP1 PUSH1 0x24 ADD PUSH1 0x20 PUSH1 0x40 MLOAD DUP1 DUP4 SUB DUP2 DUP7 GAS STATICCALL ISZERO DUP1 ISZERO PUSH2 0xEF6 JUMPI RETURNDATASIZE PUSH1 0x0 DUP1 RETURNDATACOPY RETURNDATASIZE PUSH1 0x0 REVERT JUMPDEST POP POP POP POP PUSH1 0x40 MLOAD RETURNDATASIZE PUSH1 0x1F NOT PUSH1 0x1F DUP3 ADD AND DUP3 ADD DUP1 PUSH1 0x40 MSTORE POP DUP2 ADD SWAP1 PUSH2 0xF1A SWAP2 SWAP1 PUSH2 0x33D4 JUMP JUMPDEST PUSH1 0x8 DUP3 ADD SSTORE PUSH1 0x2 DUP2 ADD SLOAD PUSH1 0x7 DUP1 SLOAD PUSH1 0x0 SWAP1 PUSH2 0xF36 SWAP1 DUP5 SWAP1 PUSH2 0x3347 JUMP JUMPDEST SWAP1 SWAP2 SSTORE POP POP PUSH1 0x40 DUP1 MLOAD PUSH2 0x1E0 DUP2 ADD DUP3 MSTORE ADDRESS DUP2 MSTORE PUSH1 0x0 PUSH1 0x20 DUP3 ADD DUP2 SWAP1 MSTORE PUSH1 0x5A DUP3 DUP5 ADD MSTORE DUP5 SLOAD PUSH3 0xFFFFFF PUSH1 0x1 PUSH1 0xD0 SHL DUP3 DIV AND PUSH1 0x60 DUP5 ADD MSTORE PUSH1 0xFF DUP2 AND ISZERO ISZERO PUSH1 0x80 DUP5 ADD MSTORE PUSH1 0x1 PUSH1 0xA0 DUP5 ADD MSTORE PUSH1 0x3 PUSH1 0xC0 DUP5 ADD MSTORE PUSH1 0xE0 DUP4 ADD DUP3 SWAP1 MSTORE PUSH1 0x2 DUP6 ADD SLOAD PUSH1 0x1 PUSH1 0x1 PUSH1 0x78 SHL SUB AND PUSH2 0x100 DUP5 ADD MSTORE PUSH1 0x1 PUSH1 0x1 PUSH1 0x40 SHL SUB PUSH3 0x10000 DUP3 DIV DUP2 AND PUSH2 0x120 DUP6 ADD MSTORE PUSH1 0x1 PUSH1 0x50 SHL DUP3 DIV DUP2 AND PUSH2 0x140 DUP6 ADD MSTORE PUSH1 0x1 PUSH1 0x90 SHL SWAP1 SWAP2 DIV AND PUSH2 0x160 DUP4 ADD MSTORE PUSH2 0x180 DUP3 ADD DUP2 SWAP1 MSTORE PUSH2 0x1A0 DUP3 ADD DUP2 SWAP1 MSTORE PUSH2 0x1C0 DUP3 ADD DUP2 SWAP1 MSTORE SWAP2 MLOAD PUSH4 0xB7F989F PUSH1 0xE3 SHL DUP2 MSTORE SWAP1 SWAP2 PUSH32 0x0 PUSH1 0x1 PUSH1 0x1 PUSH1 0xA0 SHL SUB AND SWAP2 PUSH4 0x5BFCC4F8 SWAP2 PUSH2 0x103C SWAP2 DUP6 SWAP2 PUSH2 0x3E8 SWAP2 PUSH1 0x4 ADD PUSH2 0x3456 JUMP JUMPDEST PUSH1 0x0 PUSH1 0x40 MLOAD DUP1 DUP4 SUB DUP2 PUSH1 0x0 DUP8 DUP1 EXTCODESIZE ISZERO DUP1 ISZERO PUSH2 0x1056 JUMPI PUSH1 0x0 DUP1 REVERT JUMPDEST POP GAS CALL ISZERO DUP1 ISZERO PUSH2 0x106A JUMPI RETURNDATASIZE PUSH1 0x0 DUP1 RETURNDATACOPY RETURNDATASIZE PUSH1 0x0 REVERT JUMPDEST POP POP PUSH1 0x6 SLOAD PUSH1 0x2 DUP6 ADD SLOAD PUSH1 0x40 DUP1 MLOAD SWAP2 DUP3 MSTORE PUSH4 0xFFFFFFFF DUP10 AND PUSH1 0x20 DUP4 ADD MSTORE SWAP2 SWAP4 POP PUSH32 0xA677208BC5B8EAA0120E0169D8F9EA592D9BC704EF8CD4A3784D910FB4658F07 SWAP3 POP ADD JUMPDEST PUSH1 0x40 MLOAD DUP1 SWAP2 SUB SWAP1 LOG2 POP POP POP POP JUMP JUMPDEST PUSH1 0x6 SLOAD DUP2 EQ PUSH2 0x1102 JUMPI PUSH1 0x40 MLOAD PUSH3 0x461BCD PUSH1 0xE5 SHL DUP2 MSTORE PUSH1 0x20 PUSH1 0x4 DUP3 ADD MSTORE PUSH1 0x11 PUSH1 0x24 DUP3 ADD MSTORE PUSH17 0x139BDD081858DD1A5D99481CDA59DB985B PUSH1 0x7A SHL PUSH1 0x44 DUP3 ADD MSTORE PUSH1 0x64 ADD PUSH2 0x6A0 JUMP JUMPDEST PUSH1 0x0 DUP2 DUP2 MSTORE PUSH1 0x9 PUSH1 0x20 SWAP1 DUP2 MSTORE PUSH1 0x40 DUP1 DUP4 KECCAK256 PUSH1 0xA SWAP1 SWAP3 MSTORE SWAP1 SWAP2 KECCAK256 PUSH1 0x1 DUP3 SLOAD PUSH2 0x100 SWAP1 DIV PUSH1 0xFF AND PUSH1 0x3 DUP2 GT ISZERO PUSH2 0x1138 JUMPI PUSH2 0x1138 PUSH2 0x318C JUMP JUMPDEST EQ PUSH2 0x1179 JUMPI PUSH1 0x40 MLOAD PUSH3 0x461BCD PUSH1 0xE5 SHL DUP2 MSTORE PUSH1 0x20 PUSH1 0x4 DUP3 ADD MSTORE PUSH1 0x11 PUSH1 0x24 DUP3 ADD MSTORE PUSH17 0x4E6F7420696E20636F6C6C656374696E67 PUSH1 0x78 SHL PUSH1 0x44 DUP3 ADD MSTORE PUSH1 0x64 ADD PUSH2 0x6A0 JUMP JUMPDEST DUP1 SLOAD PUSH2 0x1189 SWAP1 PUSH3 0x15180 SWAP1 PUSH2 0x3347 JUMP JUMPDEST TIMESTAMP GT PUSH2 0x11C5 JUMPI PUSH1 0x40 MLOAD PUSH3 0x461BCD PUSH1 0xE5 SHL DUP2 MSTORE PUSH1 0x20 PUSH1 0x4 DUP3 ADD MSTORE PUSH1 0xB PUSH1 0x24 DUP3 ADD MSTORE PUSH11 0x139BDD08195E1C1A5C9959 PUSH1 0xAA SHL PUSH1 0x44 DUP3 ADD MSTORE PUSH1 0x64 ADD PUSH2 0x6A0 JUMP JUMPDEST PUSH1 0x2 DUP2 ADD DUP1 SLOAD PUSH1 0x5 DUP4 ADD SSTORE DUP3 SLOAD PUSH2 0xFF00 NOT AND PUSH2 0x300 OR DUP4 SSTORE SLOAD PUSH1 0x3 DUP3 ADD DUP2 SWAP1 SSTORE TIMESTAMP PUSH1 0x1 DUP4 ADD SSTORE PUSH1 0x7 DUP1 SLOAD PUSH1 0x0 SWAP1 PUSH2 0x11FD SWAP1 DUP5 SWAP1 PUSH2 0x3347 JUMP JUMPDEST SWAP1 SWAP2 SSTORE POP POP PUSH1 0x6 DUP1 SLOAD PUSH1 0x0 SWAP2 DUP3 SWAP1 SSTORE PUSH1 0x2 DUP4 ADD SLOAD PUSH1 0x40 DUP1 MLOAD DUP3 DUP2 MSTORE PUSH1 0x20 DUP2 ADD SWAP3 SWAP1 SWAP3 MSTORE DUP2 ADD SWAP3 SWAP1 SWAP3 MSTORE SWAP1 DUP2 SWAP1 PUSH32 0xBA18B330376D9405519E92AA6A1EBBC93AAD8B9F68B95C8805C9E9D8E3A46CD0 SWAP1 PUSH1 0x60 ADD PUSH2 0x10AF JUMP JUMPDEST PUSH1 0x2 SLOAD PUSH1 0x2 SUB PUSH2 0x1275 JUMPI PUSH1 0x40 MLOAD PUSH3 0x461BCD PUSH1 0xE5 SHL DUP2 MSTORE PUSH1 0x4 ADD PUSH2 0x6A0 SWAP1 PUSH2 0x330E JUMP JUMPDEST PUSH1 0x2 DUP1 SSTORE PUSH1 0x0 DUP2 DUP2 MSTORE PUSH1 0x9 PUSH1 0x20 SWAP1 DUP2 MSTORE PUSH1 0x40 DUP1 DUP4 KECCAK256 PUSH1 0xA SWAP1 SWAP3 MSTORE SWAP1 SWAP2 KECCAK256 PUSH1 0x1 DUP3 SLOAD PUSH2 0x100 SWAP1 DIV PUSH1 0xFF AND PUSH1 0x3 DUP2 GT ISZERO PUSH2 0x12AF JUMPI PUSH2 0x12AF PUSH2 0x318C JUMP JUMPDEST EQ PUSH2 0x12F3 JUMPI PUSH1 0x40 MLOAD PUSH3 0x461BCD PUSH1 0xE5 SHL DUP2 MSTORE PUSH1 0x20 PUSH1 0x4 DUP3 ADD MSTORE PUSH1 0x14 PUSH1 0x24 DUP3 ADD MSTORE PUSH20 0x151C98591948185B1C9958591E481BDC195B9959 PUSH1 0x62 SHL PUSH1 0x44 DUP3 ADD MSTORE PUSH1 0x64 ADD PUSH2 0x6A0 JUMP JUMPDEST CALLER PUSH1 0x0 SWAP1 DUP2 MSTORE PUSH1 0xB PUSH1 0x20 SWAP1 DUP2 MSTORE PUSH1 0x40 DUP1 DUP4 KECCAK256 DUP7 DUP5 MSTORE SWAP1 SWAP2 MSTORE SWAP1 KECCAK256 DUP1 SLOAD PUSH2 0x132B JUMPI PUSH1 0x40 MLOAD PUSH3 0x461BCD PUSH1 0xE5 SHL DUP2 MSTORE PUSH1 0x4 ADD PUSH2 0x6A0 SWAP1 PUSH2 0x359A JUMP JUMPDEST PUSH1 0x1 DUP2 ADD SLOAD PUSH1 0xFF AND ISZERO PUSH2 0x1374 JUMPI PUSH1 0x40 MLOAD PUSH3 0x461BCD PUSH1 0xE5 SHL DUP2 MSTORE PUSH1 0x20 PUSH1 0x4 DUP3 ADD MSTORE PUSH1 0x11 PUSH1 0x24 DUP3 ADD MSTORE PUSH17 0x20B63932B0B23C903BB4BA34323930BBB7 PUSH1 0x79 SHL PUSH1 0x44 DUP3 ADD MSTORE PUSH1 0x64 ADD PUSH2 0x6A0 JUMP JUMPDEST PUSH1 0x1 DUP2 DUP2 ADD DUP1 SLOAD PUSH1 0xFF NOT AND SWAP1 SWAP2 OR SWAP1 SSTORE DUP1 SLOAD PUSH1 0x0 DUP1 DUP4 SSTORE PUSH1 0x2 DUP5 ADD DUP1 SLOAD DUP4 SWAP3 SWAP1 PUSH2 0x139F SWAP1 DUP5 SWAP1 PUSH2 0x33C1 JUMP JUMPDEST SWAP1 SWAP2 SSTORE POP POP PUSH1 0x4 DUP4 ADD SLOAD ISZERO PUSH2 0x13C6 JUMPI PUSH1 0x4 DUP4 ADD DUP1 SLOAD SWAP1 PUSH1 0x0 PUSH2 0x13C0 DUP4 PUSH2 0x35BF JUMP JUMPDEST SWAP2 SWAP1 POP SSTORE POP JUMPDEST PUSH1 0x40 MLOAD DUP2 DUP2 MSTORE DUP6 SWAP1 CALLER SWAP1 PUSH32 0x43389E74A5F67D287AA20EE5677BF6EAEA427B4B436414723562A06C75DEBDC1 SWAP1 PUSH1 0x20 ADD PUSH1 0x40 MLOAD DUP1 SWAP2 SUB SWAP1 LOG3 PUSH1 0x40 MLOAD PUSH4 0xA9059CBB PUSH1 0xE0 SHL DUP2 MSTORE CALLER PUSH1 0x4 DUP3 ADD MSTORE PUSH1 0x24 DUP2 ADD DUP3 SWAP1 MSTORE PUSH32 0x0 PUSH1 0x1 PUSH1 0x1 PUSH1 0xA0 SHL SUB AND SWAP1 PUSH4 0xA9059CBB SWAP1 PUSH1 0x44 ADD PUSH1 0x20 PUSH1 0x40 MLOAD DUP1 DUP4 SUB DUP2 PUSH1 0x0 DUP8 GAS CALL ISZERO DUP1 ISZERO PUSH2 0x146A JUMPI RETURNDATASIZE PUSH1 0x0 DUP1 RETURNDATACOPY RETURNDATASIZE PUSH1 0x0 REVERT JUMPDEST POP POP POP POP PUSH1 0x40 MLOAD RETURNDATASIZE PUSH1 0x1F NOT PUSH1 0x1F DUP3 ADD AND DUP3 ADD DUP1 PUSH1 0x40 MSTORE POP DUP2 ADD SWAP1 PUSH2 0x148E SWAP2 SWAP1 PUSH2 0x335A JUMP JUMPDEST PUSH2 0x14AA JUMPI PUSH1 0x40 MLOAD PUSH3 0x461BCD PUSH1 0xE5 SHL DUP2 MSTORE PUSH1 0x4 ADD PUSH2 0x6A0 SWAP1 PUSH2 0x3377 JUMP JUMPDEST POP POP PUSH1 0x1 PUSH1 0x2 SSTORE POP POP POP JUMP JUMPDEST PUSH1 0x2 SLOAD PUSH1 0x2 SUB PUSH2 0x14D8 JUMPI PUSH1 0x40 MLOAD PUSH3 0x461BCD PUSH1 0xE5 SHL DUP2 MSTORE PUSH1 0x4 ADD PUSH2 0x6A0 SWAP1 PUSH2 0x330E JUMP JUMPDEST PUSH1 0x2 DUP1 SSTORE PUSH1 0x0 DUP2 DUP2 MSTORE PUSH1 0x9 PUSH1 0x20 SWAP1 DUP2 MSTORE PUSH1 0x40 DUP1 DUP4 KECCAK256 PUSH1 0xA SWAP1 SWAP3 MSTORE SWAP1 SWAP2 KECCAK256 PUSH1 0x3 DUP3 SLOAD PUSH2 0x100 SWAP1 DIV PUSH1 0xFF AND PUSH1 0x3 DUP2 GT ISZERO PUSH2 0x1512 JUMPI PUSH2 0x1512 PUSH2 0x318C JUMP JUMPDEST EQ PUSH2 0x154D JUMPI PUSH1 0x40 MLOAD PUSH3 0x461BCD PUSH1 0xE5 SHL DUP2 MSTORE PUSH1 0x20 PUSH1 0x4 DUP3 ADD MSTORE PUSH1 0xB PUSH1 0x24 DUP3 ADD MSTORE PUSH11 0x139BDD081CD95D1D1B1959 PUSH1 0xAA SHL PUSH1 0x44 DUP3 ADD MSTORE PUSH1 0x64 ADD PUSH2 0x6A0 JUMP JUMPDEST CALLER PUSH1 0x0 SWAP1 DUP2 MSTORE PUSH1 0xB PUSH1 0x20 SWAP1 DUP2 MSTORE PUSH1 0x40 DUP1 DUP4 KECCAK256 DUP7 DUP5 MSTORE SWAP1 SWAP2 MSTORE SWAP1 KECCAK256 DUP1 SLOAD PUSH2 0x1585 JUMPI PUSH1 0x40 MLOAD PUSH3 0x461BCD PUSH1 0xE5 SHL DUP2 MSTORE PUSH1 0x4 ADD PUSH2 0x6A0 SWAP1 PUSH2 0x359A JUMP JUMPDEST PUSH1 0x1 DUP2 ADD SLOAD PUSH1 0xFF AND ISZERO PUSH2 0x15CC JUMPI PUSH1 0x40 MLOAD PUSH3 0x461BCD PUSH1 0xE5 SHL DUP2 MSTORE PUSH1 0x20 PUSH1 0x4 DUP3 ADD MSTORE PUSH1 0xF PUSH1 0x24 DUP3 ADD MSTORE PUSH15 0x105B1C9958591E4818DB185A5B5959 PUSH1 0x8A SHL PUSH1 0x44 DUP3 ADD MSTORE PUSH1 0x64 ADD PUSH2 0x6A0 JUMP JUMPDEST PUSH1 0x1 DUP2 DUP2 ADD DUP1 SLOAD PUSH1 0xFF NOT AND SWAP1 SWAP2 OR SWAP1 SSTORE PUSH1 0x6 DUP3 ADD SLOAD PUSH1 0x5 DUP4 ADD SLOAD PUSH1 0x0 SWAP2 PUSH2 0x15F2 SWAP2 PUSH2 0x33C1 JUMP JUMPDEST SWAP1 POP PUSH1 0x0 DUP2 GT PUSH2 0x162E JUMPI PUSH1 0x40 MLOAD PUSH3 0x461BCD PUSH1 0xE5 SHL DUP2 MSTORE PUSH1 0x20 PUSH1 0x4 DUP3 ADD MSTORE PUSH1 0x7 PUSH1 0x24 DUP3 ADD MSTORE PUSH7 0x139BC81C1BDBDB PUSH1 0xCA SHL PUSH1 0x44 DUP3 ADD MSTORE PUSH1 0x64 ADD PUSH2 0x6A0 JUMP JUMPDEST PUSH1 0x0 DUP2 DUP4 PUSH1 0x0 ADD SLOAD DUP6 PUSH1 0x3 ADD SLOAD PUSH2 0x1645 SWAP2 SWAP1 PUSH2 0x33ED JUMP JUMPDEST PUSH2 0x164F SWAP2 SWAP1 PUSH2 0x3404 JUMP JUMPDEST SWAP1 POP PUSH1 0x0 DUP5 PUSH1 0x7 ADD SLOAD DUP6 PUSH1 0x3 ADD SLOAD GT PUSH2 0x1669 JUMPI PUSH1 0x0 PUSH2 0x167D JUMP JUMPDEST DUP5 PUSH1 0x7 ADD SLOAD DUP6 PUSH1 0x3 ADD SLOAD PUSH2 0x167D SWAP2 SWAP1 PUSH2 0x33C1 JUMP JUMPDEST SWAP1 POP DUP1 DUP3 GT ISZERO PUSH2 0x168B JUMPI DUP1 SWAP2 POP JUMPDEST DUP4 SLOAD PUSH1 0x0 SWAP1 DUP4 GT ISZERO PUSH2 0x16C9 JUMPI DUP5 SLOAD PUSH1 0x0 SWAP1 PUSH2 0x16A6 SWAP1 DUP6 PUSH2 0x33C1 JUMP JUMPDEST SWAP1 POP PUSH2 0x2710 DUP9 PUSH1 0x1 ADD SLOAD DUP3 PUSH2 0x16BB SWAP2 SWAP1 PUSH2 0x33ED JUMP JUMPDEST PUSH2 0x16C5 SWAP2 SWAP1 PUSH2 0x3404 JUMP JUMPDEST SWAP2 POP POP JUMPDEST PUSH1 0x0 PUSH2 0x16D5 DUP3 DUP6 PUSH2 0x33C1 JUMP JUMPDEST PUSH1 0x40 MLOAD PUSH4 0x70A08231 PUSH1 0xE0 SHL DUP2 MSTORE ADDRESS PUSH1 0x4 DUP3 ADD MSTORE SWAP1 SWAP2 POP PUSH1 0x0 SWAP1 PUSH1 0x1 PUSH1 0x1 PUSH1 0xA0 SHL SUB PUSH32 0x0 AND SWAP1 PUSH4 0x70A08231 SWAP1 PUSH1 0x24 ADD PUSH1 0x20 PUSH1 0x40 MLOAD DUP1 DUP4 SUB DUP2 DUP7 GAS STATICCALL ISZERO DUP1 ISZERO PUSH2 0x173F JUMPI RETURNDATASIZE PUSH1 0x0 DUP1 RETURNDATACOPY RETURNDATASIZE PUSH1 0x0 REVERT JUMPDEST POP POP POP POP PUSH1 0x40 MLOAD RETURNDATASIZE PUSH1 0x1F NOT PUSH1 0x1F DUP3 ADD AND DUP3 ADD DUP1 PUSH1 0x40 MSTORE POP DUP2 ADD SWAP1 PUSH2 0x1763 SWAP2 SWAP1 PUSH2 0x33D4 JUMP JUMPDEST SWAP1 POP DUP1 DUP3 GT ISZERO PUSH2 0x1775 JUMPI DUP1 SWAP2 POP PUSH1 0x0 SWAP3 POP JUMPDEST DUP3 PUSH1 0x5 PUSH1 0x0 DUP3 DUP3 SLOAD PUSH2 0x1787 SWAP2 SWAP1 PUSH2 0x3347 JUMP JUMPDEST SWAP1 SWAP2 SSTORE POP PUSH2 0x1797 SWAP1 POP DUP4 DUP4 PUSH2 0x3347 JUMP JUMPDEST DUP9 PUSH1 0x7 ADD PUSH1 0x0 DUP3 DUP3 SLOAD PUSH2 0x17AA SWAP2 SWAP1 PUSH2 0x3347 JUMP JUMPDEST SWAP1 SWAP2 SSTORE POP PUSH2 0x17BA SWAP1 POP DUP4 DUP4 PUSH2 0x3347 JUMP JUMPDEST PUSH1 0x7 SLOAD LT PUSH2 0x17E8 JUMPI PUSH2 0x17CC DUP4 DUP4 PUSH2 0x3347 JUMP JUMPDEST PUSH1 0x7 PUSH1 0x0 DUP3 DUP3 SLOAD PUSH2 0x17DD SWAP2 SWAP1 PUSH2 0x33C1 JUMP JUMPDEST SWAP1 SWAP2 SSTORE POP PUSH2 0x17EE SWAP1 POP JUMP JUMPDEST PUSH1 0x0 PUSH1 0x7 SSTORE JUMPDEST PUSH1 0x40 DUP1 MLOAD DUP4 DUP2 MSTORE PUSH1 0x20 DUP2 ADD DUP6 SWAP1 MSTORE DUP12 SWAP2 CALLER SWAP2 PUSH32 0x2A94BBA74D07ED4238B20D39861968CC9E2CB42C6CBA1FA45F0E897E128791C3 SWAP2 ADD PUSH1 0x40 MLOAD DUP1 SWAP2 SUB SWAP1 LOG3 DUP2 ISZERO PUSH2 0x18DE JUMPI PUSH1 0x40 MLOAD PUSH4 0xA9059CBB PUSH1 0xE0 SHL DUP2 MSTORE CALLER PUSH1 0x4 DUP3 ADD MSTORE PUSH1 0x24 DUP2 ADD DUP4 SWAP1 MSTORE PUSH32 0x0 PUSH1 0x1 PUSH1 0x1 PUSH1 0xA0 SHL SUB AND SWAP1 PUSH4 0xA9059CBB SWAP1 PUSH1 0x44 ADD PUSH1 0x20 PUSH1 0x40 MLOAD DUP1 DUP4 SUB DUP2 PUSH1 0x0 DUP8 GAS CALL ISZERO DUP1 ISZERO PUSH2 0x189E JUMPI RETURNDATASIZE PUSH1 0x0 DUP1 RETURNDATACOPY RETURNDATASIZE PUSH1 0x0 REVERT JUMPDEST POP POP POP POP PUSH1 0x40 MLOAD RETURNDATASIZE PUSH1 0x1F NOT PUSH1 0x1F DUP3 ADD AND DUP3 ADD DUP1 PUSH1 0x40 MSTORE POP DUP2 ADD SWAP1 PUSH2 0x18C2 SWAP2 SWAP1 PUSH2 0x335A JUMP JUMPDEST PUSH2 0x18DE JUMPI PUSH1 0x40 MLOAD PUSH3 0x461BCD PUSH1 0xE5 SHL DUP2 MSTORE PUSH1 0x4 ADD PUSH2 0x6A0 SWAP1 PUSH2 0x3377 JUMP JUMPDEST POP POP PUSH1 0x1 PUSH1 0x2 SSTORE POP POP POP POP POP POP POP POP JUMP JUMPDEST PUSH1 0x0 SLOAD PUSH1 0x1 PUSH1 0x1 PUSH1 0xA0 SHL SUB AND CALLER EQ PUSH2 0x1919 JUMPI PUSH1 0x40 MLOAD PUSH3 0x461BCD PUSH1 0xE5 SHL DUP2 MSTORE PUSH1 0x4 ADD PUSH2 0x6A0 SWAP1 PUSH2 0x32EB JUMP JUMPDEST PUSH1 0x2 SLOAD PUSH1 0x2 SUB PUSH2 0x193B JUMPI PUSH1 0x40 MLOAD PUSH3 0x461BCD PUSH1 0xE5 SHL DUP2 MSTORE PUSH1 0x4 ADD PUSH2 0x6A0 SWAP1 PUSH2 0x330E JUMP JUMPDEST PUSH1 0x2 DUP1 SSTORE PUSH1 0x5 SLOAD DUP1 PUSH2 0x1979 JUMPI PUSH1 0x40 MLOAD PUSH3 0x461BCD PUSH1 0xE5 SHL DUP2 MSTORE PUSH1 0x20 PUSH1 0x4 DUP3 ADD MSTORE PUSH1 0x7 PUSH1 0x24 DUP3 ADD MSTORE PUSH7 0x4E6F2066656573 PUSH1 0xC8 SHL PUSH1 0x44 DUP3 ADD MSTORE PUSH1 0x64 ADD PUSH2 0x6A0 JUMP JUMPDEST PUSH1 0x0 PUSH1 0x5 SSTORE PUSH1 0x40 MLOAD DUP2 DUP2 MSTORE PUSH32 0x9800E6F57AEB4360EAA72295A820A4293E1E66FBFCABCD8874AE141304A76DEB SWAP1 PUSH1 0x20 ADD PUSH1 0x40 MLOAD DUP1 SWAP2 SUB SWAP1 LOG1 PUSH1 0x0 SLOAD PUSH1 0x40 MLOAD PUSH4 0xA9059CBB PUSH1 0xE0 SHL DUP2 MSTORE PUSH1 0x1 PUSH1 0x1 PUSH1 0xA0 SHL SUB SWAP2 DUP3 AND PUSH1 0x4 DUP3 ADD MSTORE PUSH1 0x24 DUP2 ADD DUP4 SWAP1 MSTORE PUSH32 0x0 SWAP1 SWAP2 AND SWAP1 PUSH4 0xA9059CBB SWAP1 PUSH1 0x44 ADD PUSH1 0x20 PUSH1 0x40 MLOAD DUP1 DUP4 SUB DUP2 PUSH1 0x0 DUP8 GAS CALL ISZERO DUP1 ISZERO PUSH2 0x1A25 JUMPI RETURNDATASIZE PUSH1 0x0 DUP1 RETURNDATACOPY RETURNDATASIZE PUSH1 0x0 REVERT JUMPDEST POP POP POP POP PUSH1 0x40 MLOAD RETURNDATASIZE PUSH1 0x1F NOT PUSH1 0x1F DUP3 ADD AND DUP3 ADD DUP1 PUSH1 0x40 MSTORE POP DUP2 ADD SWAP1 PUSH2 0x1A49 SWAP2 SWAP1 PUSH2 0x335A JUMP JUMPDEST PUSH2 0x1A65 JUMPI PUSH1 0x40 MLOAD PUSH3 0x461BCD PUSH1 0xE5 SHL DUP2 MSTORE PUSH1 0x4 ADD PUSH2 0x6A0 SWAP1 PUSH2 0x3377 JUMP JUMPDEST POP PUSH1 0x1 PUSH1 0x2 SSTORE JUMP JUMPDEST PUSH1 0x2 SLOAD PUSH1 0x2 SUB PUSH2 0x1A8F JUMPI PUSH1 0x40 MLOAD PUSH3 0x461BCD PUSH1 0xE5 SHL DUP2 MSTORE PUSH1 0x4 ADD PUSH2 0x6A0 SWAP1 PUSH2 0x330E JUMP JUMPDEST PUSH1 0x2 DUP1 DUP1 SSTORE PUSH1 0x0 DUP3 DUP2 MSTORE PUSH1 0x9 PUSH1 0x20 SWAP1 DUP2 MSTORE PUSH1 0x40 DUP1 DUP4 KECCAK256 PUSH1 0xA SWAP1 SWAP3 MSTORE SWAP1 SWAP2 KECCAK256 SWAP1 SWAP2 DUP3 SLOAD PUSH2 0x100 SWAP1 DIV PUSH1 0xFF AND PUSH1 0x3 DUP2 GT ISZERO PUSH2 0x1ACA JUMPI PUSH2 0x1ACA PUSH2 0x318C JUMP JUMPDEST EQ PUSH2 0x1B08 JUMPI PUSH1 0x40 MLOAD PUSH3 0x461BCD PUSH1 0xE5 SHL DUP2 MSTORE PUSH1 0x20 PUSH1 0x4 DUP3 ADD MSTORE PUSH1 0xE PUSH1 0x24 DUP3 ADD MSTORE PUSH14 0x4E6F7420696E2074726164696E67 PUSH1 0x90 SHL PUSH1 0x44 DUP3 ADD MSTORE PUSH1 0x64 ADD PUSH2 0x6A0 JUMP JUMPDEST DUP1 SLOAD PUSH2 0x1B18 SWAP1 PUSH3 0x93A80 SWAP1 PUSH2 0x3347 JUMP JUMPDEST TIMESTAMP GT PUSH2 0x1B52 JUMPI PUSH1 0x40 MLOAD PUSH3 0x461BCD PUSH1 0xE5 SHL DUP2 MSTORE PUSH1 0x20 PUSH1 0x4 DUP3 ADD MSTORE PUSH1 0x9 PUSH1 0x24 DUP3 ADD MSTORE PUSH9 0x546F6F206561726C79 PUSH1 0xB8 SHL PUSH1 0x44 DUP3 ADD MSTORE PUSH1 0x64 ADD PUSH2 0x6A0 JUMP JUMPDEST CALLER PUSH1 0x0 SWAP1 DUP2 MSTORE PUSH1 0xB PUSH1 0x20 SWAP1 DUP2 MSTORE PUSH1 0x40 DUP1 DUP4 KECCAK256 DUP7 DUP5 MSTORE SWAP1 SWAP2 MSTORE SWAP1 KECCAK256 DUP1 SLOAD PUSH2 0x1B8A JUMPI PUSH1 0x40 MLOAD PUSH3 0x461BCD PUSH1 0xE5 SHL DUP2 MSTORE PUSH1 0x4 ADD PUSH2 0x6A0 SWAP1 PUSH2 0x359A JUMP JUMPDEST PUSH1 0x1 DUP2 ADD SLOAD PUSH1 0xFF AND ISZERO PUSH2 0x1BD1 JUMPI PUSH1 0x40 MLOAD PUSH3 0x461BCD PUSH1 0xE5 SHL DUP2 MSTORE PUSH1 0x20 PUSH1 0x4 DUP3 ADD MSTORE PUSH1 0xF PUSH1 0x24 DUP3 ADD MSTORE PUSH15 0x105B1C9958591E4818DB185A5B5959 PUSH1 0x8A SHL PUSH1 0x44 DUP3 ADD MSTORE PUSH1 0x64 ADD PUSH2 0x6A0 JUMP JUMPDEST PUSH1 0x1 DUP2 DUP2 ADD DUP1 SLOAD PUSH1 0xFF NOT AND SWAP1 SWAP2 OR SWAP1 SSTORE DUP1 SLOAD PUSH1 0x6 DUP4 ADD DUP1 SLOAD DUP3 SWAP2 SWAP1 PUSH1 0x0 SWAP1 PUSH2 0x1BFA SWAP1 DUP5 SWAP1 PUSH2 0x3347 JUMP JUMPDEST SWAP1 SWAP2 SSTORE POP POP PUSH1 0x5 DUP4 ADD SLOAD PUSH1 0x6 DUP5 ADD SLOAD GT ISZERO PUSH2 0x1C4C JUMPI PUSH1 0x40 MLOAD PUSH3 0x461BCD PUSH1 0xE5 SHL DUP2 MSTORE PUSH1 0x20 PUSH1 0x4 DUP3 ADD MSTORE PUSH1 0x12 PUSH1 0x24 DUP3 ADD MSTORE PUSH18 0x456D657267656E6379206F766572666C6F77 PUSH1 0x70 SHL PUSH1 0x44 DUP3 ADD MSTORE PUSH1 0x64 ADD PUSH2 0x6A0 JUMP JUMPDEST PUSH1 0x4 DUP4 ADD SLOAD ISZERO PUSH2 0x1C6E JUMPI PUSH1 0x4 DUP4 ADD DUP1 SLOAD SWAP1 PUSH1 0x0 PUSH2 0x1C68 DUP4 PUSH2 0x35BF JUMP JUMPDEST SWAP2 SWAP1 POP SSTORE POP JUMPDEST DUP1 PUSH1 0x7 SLOAD LT PUSH2 0x1C8F JUMPI DUP1 PUSH1 0x7 PUSH1 0x0 DUP3 DUP3 SLOAD PUSH2 0x1C89 SWAP2 SWAP1 PUSH2 0x33C1 JUMP JUMPDEST SWAP1 SWAP2 SSTORE POP POP JUMPDEST PUSH1 0x40 MLOAD PUSH4 0x70A08231 PUSH1 0xE0 SHL DUP2 MSTORE ADDRESS PUSH1 0x4 DUP3 ADD MSTORE PUSH1 0x0 SWAP1 PUSH32 0x0 PUSH1 0x1 PUSH1 0x1 PUSH1 0xA0 SHL SUB AND SWAP1 PUSH4 0x70A08231 SWAP1 PUSH1 0x24 ADD PUSH1 0x20 PUSH1 0x40 MLOAD DUP1 DUP4 SUB DUP2 DUP7 GAS STATICCALL ISZERO DUP1 ISZERO PUSH2 0x1CF6 JUMPI RETURNDATASIZE PUSH1 0x0 DUP1 RETURNDATACOPY RETURNDATASIZE PUSH1 0x0 REVERT JUMPDEST POP POP POP POP PUSH1 0x40 MLOAD RETURNDATASIZE PUSH1 0x1F NOT PUSH1 0x1F DUP3 ADD AND DUP3 ADD DUP1 PUSH1 0x40 MSTORE POP DUP2 ADD SWAP1 PUSH2 0x1D1A SWAP2 SWAP1 PUSH2 0x33D4 JUMP JUMPDEST SWAP1 POP PUSH1 0x0 DUP2 DUP4 GT PUSH2 0x1D2B JUMPI DUP3 PUSH2 0x1D2D JUMP JUMPDEST DUP2 JUMPDEST PUSH1 0x40 DUP1 MLOAD DUP3 DUP2 MSTORE PUSH1 0x0 PUSH1 0x20 DUP3 ADD MSTORE SWAP2 SWAP3 POP DUP9 SWAP2 CALLER SWAP2 PUSH32 0x2A94BBA74D07ED4238B20D39861968CC9E2CB42C6CBA1FA45F0E897E128791C3 SWAP2 ADD PUSH1 0x40 MLOAD DUP1 SWAP2 SUB SWAP1 LOG3 DUP1 ISZERO PUSH2 0x1E20 JUMPI PUSH1 0x40 MLOAD PUSH4 0xA9059CBB PUSH1 0xE0 SHL DUP2 MSTORE CALLER PUSH1 0x4 DUP3 ADD MSTORE PUSH1 0x24 DUP2 ADD DUP3 SWAP1 MSTORE PUSH32 0x0 PUSH1 0x1 PUSH1 0x1 PUSH1 0xA0 SHL SUB AND SWAP1 PUSH4 0xA9059CBB SWAP1 PUSH1 0x44 ADD PUSH1 0x20 PUSH1 0x40 MLOAD DUP1 DUP4 SUB DUP2 PUSH1 0x0 DUP8 GAS CALL ISZERO DUP1 ISZERO PUSH2 0x1DE0 JUMPI RETURNDATASIZE PUSH1 0x0 DUP1 RETURNDATACOPY RETURNDATASIZE PUSH1 0x0 REVERT JUMPDEST POP POP POP POP PUSH1 0x40 MLOAD RETURNDATASIZE PUSH1 0x1F NOT PUSH1 0x1F DUP3 ADD AND DUP3 ADD DUP1 PUSH1 0x40 MSTORE POP DUP2 ADD SWAP1 PUSH2 0x1E04 SWAP2 SWAP1 PUSH2 0x335A JUMP JUMPDEST PUSH2 0x1E20 JUMPI PUSH1 0x40 MLOAD PUSH3 0x461BCD PUSH1 0xE5 SHL DUP2 MSTORE PUSH1 0x4 ADD PUSH2 0x6A0 SWAP1 PUSH2 0x3377 JUMP JUMPDEST POP POP PUSH1 0x1 PUSH1 0x2 SSTORE POP POP POP POP POP JUMP JUMPDEST PUSH1 0x0 SLOAD PUSH1 0x1 PUSH1 0x1 PUSH1 0xA0 SHL SUB AND CALLER EQ PUSH2 0x1E58 JUMPI PUSH1 0x40 MLOAD PUSH3 0x461BCD PUSH1 0xE5 SHL DUP2 MSTORE PUSH1 0x4 ADD PUSH2 0x6A0 SWAP1 PUSH2 0x32EB JUMP JUMPDEST PUSH1 0x2 SLOAD PUSH1 0x2 SUB PUSH2 0x1E7A JUMPI PUSH1 0x40 MLOAD PUSH3 0x461BCD PUSH1 0xE5 SHL DUP2 MSTORE PUSH1 0x4 ADD PUSH2 0x6A0 SWAP1 PUSH2 0x330E JUMP JUMPDEST PUSH1 0x2 DUP1 SSTORE PUSH1 0x6 SLOAD ISZERO PUSH2 0x1EBE JUMPI PUSH1 0x40 MLOAD PUSH3 0x461BCD PUSH1 0xE5 SHL DUP2 MSTORE PUSH1 0x20 PUSH1 0x4 DUP3 ADD MSTORE PUSH1 0xD PUSH1 0x24 DUP3 ADD MSTORE PUSH13 0x5369676E616C20616374697665 PUSH1 0x98 SHL PUSH1 0x44 DUP3 ADD MSTORE PUSH1 0x64 ADD PUSH2 0x6A0 JUMP JUMPDEST PUSH1 0x8 SLOAD DUP2 GT ISZERO PUSH2 0x1F06 JUMPI PUSH1 0x40 MLOAD PUSH3 0x461BCD PUSH1 0xE5 SHL DUP2 MSTORE PUSH1 0x20 PUSH1 0x4 DUP3 ADD MSTORE PUSH1 0x13 PUSH1 0x24 DUP3 ADD MSTORE PUSH19 0x135BDC99481D1A185B8819195C1BDCDA5D1959 PUSH1 0x6A SHL PUSH1 0x44 DUP3 ADD MSTORE PUSH1 0x64 ADD PUSH2 0x6A0 JUMP JUMPDEST PUSH1 0x40 MLOAD PUSH4 0x70A08231 PUSH1 0xE0 SHL DUP2 MSTORE ADDRESS PUSH1 0x4 DUP3 ADD MSTORE PUSH1 0x0 SWAP1 PUSH32 0x0 PUSH1 0x1 PUSH1 0x1 PUSH1 0xA0 SHL SUB AND SWAP1 PUSH4 0x70A08231 SWAP1 PUSH1 0x24 ADD PUSH1 0x20 PUSH1 0x40 MLOAD DUP1 DUP4 SUB DUP2 DUP7 GAS STATICCALL ISZERO DUP1 ISZERO PUSH2 0x1F6D JUMPI RETURNDATASIZE PUSH1 0x0 DUP1 RETURNDATACOPY RETURNDATASIZE PUSH1 0x0 REVERT JUMPDEST POP POP POP POP PUSH1 0x40 MLOAD RETURNDATASIZE PUSH1 0x1F NOT PUSH1 0x1F DUP3 ADD AND DUP3 ADD DUP1 PUSH1 0x40 MSTORE POP DUP2 ADD SWAP1 PUSH2 0x1F91 SWAP2 SWAP1 PUSH2 0x33D4 JUMP JUMPDEST SWAP1 POP PUSH1 0x5 SLOAD PUSH1 0x7 SLOAD DUP4 PUSH2 0x1FA4 SWAP2 SWAP1 PUSH2 0x3347 JUMP JUMPDEST PUSH2 0x1FAE SWAP2 SWAP1 PUSH2 0x3347 JUMP JUMPDEST DUP2 LT ISZERO PUSH2 0x1FF6 JUMPI PUSH1 0x40 MLOAD PUSH3 0x461BCD PUSH1 0xE5 SHL DUP2 MSTORE PUSH1 0x20 PUSH1 0x4 DUP3 ADD MSTORE PUSH1 0x16 PUSH1 0x24 DUP3 ADD MSTORE PUSH22 0x576F756C6420756E64657266756E6420636C61696D73 PUSH1 0x50 SHL PUSH1 0x44 DUP3 ADD MSTORE PUSH1 0x64 ADD PUSH2 0x6A0 JUMP JUMPDEST DUP2 PUSH1 0x8 PUSH1 0x0 DUP3 DUP3 SLOAD PUSH2 0x2008 SWAP2 SWAP1 PUSH2 0x33C1 JUMP JUMPDEST SWAP1 SWAP2 SSTORE POP POP PUSH1 0x0 SLOAD PUSH1 0x40 MLOAD PUSH4 0xA9059CBB PUSH1 0xE0 SHL DUP2 MSTORE PUSH1 0x1 PUSH1 0x1 PUSH1 0xA0 SHL SUB SWAP2 DUP3 AND PUSH1 0x4 DUP3 ADD MSTORE PUSH1 0x24 DUP2 ADD DUP5 SWAP1 MSTORE PUSH32 0x0 SWAP1 SWAP2 AND SWAP1 PUSH4 0xA9059CBB SWAP1 PUSH1 0x44 ADD PUSH1 0x20 PUSH1 0x40 MLOAD DUP1 DUP4 SUB DUP2 PUSH1 0x0 DUP8 GAS CALL ISZERO DUP1 ISZERO PUSH2 0x2081 JUMPI RETURNDATASIZE PUSH1 0x0 DUP1 RETURNDATACOPY RETURNDATASIZE PUSH1 0x0 REVERT JUMPDEST POP POP POP POP PUSH1 0x40 MLOAD RETURNDATASIZE PUSH1 0x1F NOT PUSH1 0x1F DUP3 ADD AND DUP3 ADD DUP1 PUSH1 0x40 MSTORE POP DUP2 ADD SWAP1 PUSH2 0x20A5 SWAP2 SWAP1 PUSH2 0x335A JUMP JUMPDEST PUSH2 0x20C1 JUMPI PUSH1 0x40 MLOAD PUSH3 0x461BCD PUSH1 0xE5 SHL DUP2 MSTORE PUSH1 0x4 ADD PUSH2 0x6A0 SWAP1 PUSH2 0x3377 JUMP JUMPDEST POP POP PUSH1 0x1 PUSH1 0x2 SSTORE JUMP JUMPDEST PUSH1 0x0 SLOAD PUSH1 0x1 PUSH1 0x1 PUSH1 0xA0 SHL SUB AND CALLER EQ PUSH2 0x20F4 JUMPI PUSH1 0x40 MLOAD PUSH3 0x461BCD PUSH1 0xE5 SHL DUP2 MSTORE PUSH1 0x4 ADD PUSH2 0x6A0 SWAP1 PUSH2 0x32EB JUMP JUMPDEST PUSH1 0x0 PUSH1 0x6 SLOAD GT PUSH2 0x2116 JUMPI PUSH1 0x40 MLOAD PUSH3 0x461BCD PUSH1 0xE5 SHL DUP2 MSTORE PUSH1 0x4 ADD PUSH2 0x6A0 SWAP1 PUSH2 0x3397 JUMP JUMPDEST PUSH1 0x6 SLOAD PUSH1 0x0 SWAP1 DUP2 MSTORE PUSH1 0x9 PUSH1 0x20 MSTORE PUSH1 0x40 SWAP1 KECCAK256 PUSH1 0x2 DUP2 SLOAD PUSH2 0x100 SWAP1 DIV PUSH1 0xFF AND PUSH1 0x3 DUP2 GT ISZERO PUSH2 0x2144 JUMPI PUSH2 0x2144 PUSH2 0x318C JUMP JUMPDEST EQ PUSH2 0x217F JUMPI PUSH1 0x40 MLOAD PUSH3 0x461BCD PUSH1 0xE5 SHL DUP2 MSTORE PUSH1 0x20 PUSH1 0x4 DUP3 ADD MSTORE PUSH1 0xB PUSH1 0x24 DUP3 ADD MSTORE PUSH11 0x4E6F742074726164696E67 PUSH1 0xA8 SHL PUSH1 0x44 DUP3 ADD MSTORE PUSH1 0x64 ADD PUSH2 0x6A0 JUMP JUMPDEST PUSH1 0x2 DUP2 ADD SLOAD PUSH4 0xFFFFFFFF DUP5 DUP2 AND SWAP2 AND EQ PUSH2 0x21CF JUMPI PUSH1 0x40 MLOAD PUSH3 0x461BCD PUSH1 0xE5 SHL DUP2 MSTORE PUSH1 0x20 PUSH1 0x4 DUP3 ADD MSTORE PUSH1 0x11 PUSH1 0x24 DUP3 ADD MSTORE PUSH17 0xAEE4DEDCCE40E8E4C2C8CA40D2DCC8CAF PUSH1 0x7B SHL PUSH1 0x44 DUP3 ADD MSTORE PUSH1 0x64 ADD PUSH2 0x6A0 JUMP JUMPDEST PUSH1 0x40 MLOAD PUSH4 0x36CE736B PUSH1 0xE0 SHL DUP2 MSTORE PUSH4 0xFFFFFFFF DUP5 AND PUSH1 0x4 DUP3 ADD MSTORE PUSH1 0x1 PUSH1 0x1 PUSH1 0x40 SHL SUB DUP4 AND PUSH1 0x24 DUP3 ADD MSTORE PUSH32 0x0 PUSH1 0x1 PUSH1 0x1 PUSH1 0xA0 SHL SUB AND SWAP1 PUSH4 0x36CE736B SWAP1 PUSH1 0x44 ADD PUSH1 0x0 PUSH1 0x40 MLOAD DUP1 DUP4 SUB DUP2 PUSH1 0x0 DUP8 DUP1 EXTCODESIZE ISZERO DUP1 ISZERO PUSH2 0x2245 JUMPI PUSH1 0x0 DUP1 REVERT JUMPDEST POP GAS CALL ISZERO DUP1 ISZERO PUSH2 0x2259 JUMPI RETURNDATASIZE PUSH1 0x0 DUP1 RETURNDATACOPY RETURNDATASIZE PUSH1 0x0 REVERT JUMPDEST POP POP POP POP POP POP POP JUMP JUMPDEST PUSH1 0x0 SLOAD PUSH1 0x1 PUSH1 0x1 PUSH1 0xA0 SHL SUB AND CALLER EQ PUSH2 0x228C JUMPI PUSH1 0x40 MLOAD PUSH3 0x461BCD PUSH1 0xE5 SHL DUP2 MSTORE PUSH1 0x4 ADD PUSH2 0x6A0 SWAP1 PUSH2 0x32EB JUMP JUMPDEST PUSH1 0x1 PUSH1 0x1 PUSH1 0xA0 SHL SUB DUP2 AND PUSH2 0x22CE JUMPI PUSH1 0x40 MLOAD PUSH3 0x461BCD PUSH1 0xE5 SHL DUP2 MSTORE PUSH1 0x20 PUSH1 0x4 DUP3 ADD MSTORE PUSH1 0x9 PUSH1 0x24 DUP3 ADD MSTORE PUSH9 0x2D32B9379030B23239 PUSH1 0xB9 SHL PUSH1 0x44 DUP3 ADD MSTORE PUSH1 0x64 ADD PUSH2 0x6A0 JUMP JUMPDEST PUSH1 0x1 DUP1 SLOAD PUSH1 0x1 PUSH1 0x1 PUSH1 0xA0 SHL SUB NOT AND PUSH1 0x1 PUSH1 0x1 PUSH1 0xA0 SHL SUB DUP4 AND SWAP1 DUP2 OR SWAP1 SWAP2 SSTORE PUSH1 0x40 MLOAD PUSH32 0x7E5A44B25C18C9C756D8BB0C33E9F77D9AB83DC254932C8A69436F23AB74F634 SWAP1 PUSH1 0x0 SWAP1 LOG2 POP JUMP JUMPDEST PUSH1 0x0 SLOAD PUSH1 0x1 PUSH1 0x1 PUSH1 0xA0 SHL SUB AND CALLER EQ PUSH2 0x2342 JUMPI PUSH1 0x40 MLOAD PUSH3 0x461BCD PUSH1 0xE5 SHL DUP2 MSTORE PUSH1 0x4 ADD PUSH2 0x6A0 SWAP1 PUSH2 0x32EB JUMP JUMPDEST PUSH1 0x0 PUSH1 0x6 SLOAD GT PUSH2 0x2364 JUMPI PUSH1 0x40 MLOAD PUSH3 0x461BCD PUSH1 0xE5 SHL DUP2 MSTORE PUSH1 0x4 ADD PUSH2 0x6A0 SWAP1 PUSH2 0x3397 JUMP JUMPDEST PUSH1 0x6 SLOAD PUSH1 0x0 SWAP1 DUP2 MSTORE PUSH1 0x9 PUSH1 0x20 SWAP1 DUP2 MSTORE PUSH1 0x40 DUP1 DUP4 KECCAK256 PUSH1 0xA SWAP1 SWAP3 MSTORE SWAP1 SWAP2 KECCAK256 PUSH1 0x1 DUP3 SLOAD PUSH2 0x100 SWAP1 DIV PUSH1 0xFF AND PUSH1 0x3 DUP2 GT ISZERO PUSH2 0x239D JUMPI PUSH2 0x239D PUSH2 0x318C JUMP JUMPDEST EQ PUSH2 0x23F4 JUMPI PUSH1 0x40 MLOAD PUSH3 0x461BCD PUSH1 0xE5 SHL DUP2 MSTORE PUSH1 0x20 PUSH1 0x4 DUP3 ADD MSTORE PUSH1 0x21 PUSH1 0x24 DUP3 ADD MSTORE PUSH32 0x43616E206F6E6C792063616E63656C20647572696E6720636F6C6C656374696F PUSH1 0x44 DUP3 ADD MSTORE PUSH1 0x37 PUSH1 0xF9 SHL PUSH1 0x64 DUP3 ADD MSTORE PUSH1 0x84 ADD PUSH2 0x6A0 JUMP JUMPDEST PUSH1 0x2 DUP2 ADD DUP1 SLOAD PUSH1 0x5 DUP4 ADD SSTORE DUP3 SLOAD PUSH2 0xFF00 NOT AND PUSH2 0x300 OR DUP4 SSTORE SLOAD PUSH1 0x3 DUP3 ADD DUP2 SWAP1 SSTORE TIMESTAMP PUSH1 0x1 DUP4 ADD SSTORE PUSH1 0x7 DUP1 SLOAD PUSH1 0x0 SWAP1 PUSH2 0x242C SWAP1 DUP5 SWAP1 PUSH2 0x3347 JUMP JUMPDEST SWAP1 SWAP2 SSTORE POP POP PUSH1 0x6 DUP1 SLOAD PUSH1 0x0 SWAP2 DUP3 SWAP1 SSTORE PUSH1 0x2 DUP4 ADD SLOAD PUSH1 0x40 DUP1 MLOAD DUP3 DUP2 MSTORE PUSH1 0x20 DUP2 ADD SWAP3 SWAP1 SWAP3 MSTORE DUP2 ADD SWAP3 SWAP1 SWAP3 MSTORE SWAP1 DUP2 SWAP1 PUSH32 0xBA18B330376D9405519E92AA6A1EBBC93AAD8B9F68B95C8805C9E9D8E3A46CD0 SWAP1 PUSH1 0x60 ADD PUSH1 0x40 MLOAD DUP1 SWAP2 SUB SWAP1 LOG2 POP POP POP JUMP JUMPDEST PUSH1 0x0 SLOAD PUSH1 0x1 PUSH1 0x1 PUSH1 0xA0 SHL SUB AND CALLER EQ PUSH2 0x24B4 JUMPI PUSH1 0x40 MLOAD PUSH3 0x461BCD PUSH1 0xE5 SHL DUP2 MSTORE PUSH1 0x4 ADD PUSH2 0x6A0 SWAP1 PUSH2 0x32EB JUMP JUMPDEST PUSH2 0x7D0 DUP2 GT ISZERO PUSH2 0x24F0 JUMPI PUSH1 0x40 MLOAD PUSH3 0x461BCD PUSH1 0xE5 SHL DUP2 MSTORE PUSH1 0x20 PUSH1 0x4 DUP3 ADD MSTORE PUSH1 0x7 PUSH1 0x24 DUP3 ADD MSTORE PUSH7 0x4D617820323025 PUSH1 0xC8 SHL PUSH1 0x44 DUP3 ADD MSTORE PUSH1 0x64 ADD PUSH2 0x6A0 JUMP JUMPDEST PUSH1 0x3 DUP2 SWAP1 SSTORE PUSH1 0x40 MLOAD DUP2 DUP2 MSTORE PUSH32 0x8C4D35E54A3F2EF1134138FD8EA3DAEE6A3C89E10D2665996BABDF70261E2C76 SWAP1 PUSH1 0x20 ADD PUSH2 0xD05 JUMP JUMPDEST PUSH1 0x0 SLOAD PUSH1 0x1 PUSH1 0x1 PUSH1 0xA0 SHL SUB AND CALLER EQ PUSH2 0x254F JUMPI PUSH1 0x40 MLOAD PUSH3 0x461BCD PUSH1 0xE5 SHL DUP2 MSTORE PUSH1 0x4 ADD PUSH2 0x6A0 SWAP1 PUSH2 0x32EB JUMP JUMPDEST PUSH1 0x1 SLOAD PUSH1 0x1 PUSH1 0xA0 SHL SWAP1 DIV PUSH1 0xFF AND ISZERO PUSH2 0x2592 JUMPI PUSH1 0x40 MLOAD PUSH3 0x461BCD PUSH1 0xE5 SHL DUP2 MSTORE PUSH1 0x20 PUSH1 0x4 DUP3 ADD MSTORE PUSH1 0x6 PUSH1 0x24 DUP3 ADD MSTORE PUSH6 0x14185D5CD959 PUSH1 0xD2 SHL PUSH1 0x44 DUP3 ADD MSTORE PUSH1 0x64 ADD PUSH2 0x6A0 JUMP JUMPDEST PUSH2 0x7D0 DUP2 PUSH3 0xFFFFFF AND LT ISZERO DUP1 ISZERO PUSH2 0x25B1 JUMPI POP PUSH3 0x3D090 DUP2 PUSH3 0xFFFFFF AND GT ISZERO JUMPDEST PUSH2 0x25EB JUMPI PUSH1 0x40 MLOAD PUSH3 0x461BCD PUSH1 0xE5 SHL DUP2 MSTORE PUSH1 0x20 PUSH1 0x4 DUP3 ADD MSTORE PUSH1 0xB PUSH1 0x24 DUP3 ADD MSTORE PUSH11 0x98CAEC4064F05A646A60F PUSH1 0xAB SHL PUSH1 0x44 DUP3 ADD MSTORE PUSH1 0x64 ADD PUSH2 0x6A0 JUMP JUMPDEST PUSH1 0x0 DUP5 PUSH1 0x1 PUSH1 0x1 PUSH1 0x40 SHL SUB AND GT DUP1 ISZERO PUSH2 0x260D JUMPI POP PUSH1 0x0 DUP4 PUSH1 0x1 PUSH1 0x1 PUSH1 0x40 SHL SUB AND GT JUMPDEST DUP1 ISZERO PUSH2 0x2622 JUMPI POP PUSH1 0x0 DUP3 PUSH1 0x1 PUSH1 0x1 PUSH1 0x40 SHL SUB AND GT JUMPDEST PUSH2 0x265B JUMPI PUSH1 0x40 MLOAD PUSH3 0x461BCD PUSH1 0xE5 SHL DUP2 MSTORE PUSH1 0x20 PUSH1 0x4 DUP3 ADD MSTORE PUSH1 0xA PUSH1 0x24 DUP3 ADD MSTORE PUSH10 0x42616420707269636573 PUSH1 0xB0 SHL PUSH1 0x44 DUP3 ADD MSTORE PUSH1 0x64 ADD PUSH2 0x6A0 JUMP JUMPDEST PUSH1 0x6 SLOAD ISZERO PUSH2 0x26AB JUMPI PUSH1 0x40 MLOAD PUSH3 0x461BCD PUSH1 0xE5 SHL DUP2 MSTORE PUSH1 0x20 PUSH1 0x4 DUP3 ADD MSTORE PUSH1 0x19 PUSH1 0x24 DUP3 ADD MSTORE PUSH32 0x436C6F736520616374697665207369676E616C20666972737400000000000000 PUSH1 0x44 DUP3 ADD MSTORE PUSH1 0x64 ADD PUSH2 0x6A0 JUMP JUMPDEST DUP5 ISZERO PUSH2 0x2728 JUMPI DUP4 PUSH1 0x1 PUSH1 0x1 PUSH1 0x40 SHL SUB AND DUP4 PUSH1 0x1 PUSH1 0x1 PUSH1 0x40 SHL SUB AND GT DUP1 ISZERO PUSH2 0x26E3 JUMPI POP DUP4 PUSH1 0x1 PUSH1 0x1 PUSH1 0x40 SHL SUB AND DUP3 PUSH1 0x1 PUSH1 0x1 PUSH1 0x40 SHL SUB AND LT JUMPDEST PUSH2 0x2723 JUMPI PUSH1 0x40 MLOAD PUSH3 0x461BCD PUSH1 0xE5 SHL DUP2 MSTORE PUSH1 0x20 PUSH1 0x4 DUP3 ADD MSTORE PUSH1 0x11 PUSH1 0x24 DUP3 ADD MSTORE PUSH17 0x131BDB99CE8815140F995B9D1C9E4F94D3 PUSH1 0x7A SHL PUSH1 0x44 DUP3 ADD MSTORE PUSH1 0x64 ADD PUSH2 0x6A0 JUMP JUMPDEST PUSH2 0x279B JUMP JUMPDEST DUP4 PUSH1 0x1 PUSH1 0x1 PUSH1 0x40 SHL SUB AND DUP4 PUSH1 0x1 PUSH1 0x1 PUSH1 0x40 SHL SUB AND LT DUP1 ISZERO PUSH2 0x275A JUMPI POP DUP4 PUSH1 0x1 PUSH1 0x1 PUSH1 0x40 SHL SUB AND DUP3 PUSH1 0x1 PUSH1 0x1 PUSH1 0x40 SHL SUB AND GT JUMPDEST PUSH2 0x279B JUMPI PUSH1 0x40 MLOAD PUSH3 0x461BCD PUSH1 0xE5 SHL DUP2 MSTORE PUSH1 0x20 PUSH1 0x4 DUP3 ADD MSTORE PUSH1 0x12 PUSH1 0x24 DUP3 ADD MSTORE PUSH18 0x14DA1BDC9D0E8815140F195B9D1C9E4F14D3 PUSH1 0x72 SHL PUSH1 0x44 DUP3 ADD MSTORE PUSH1 0x64 ADD PUSH2 0x6A0 JUMP JUMPDEST PUSH1 0x4 DUP1 SLOAD SWAP1 PUSH1 0x0 PUSH2 0x27AB DUP4 PUSH2 0x35D6 JUMP JUMPDEST SWAP1 SWAP2 SSTORE POP POP PUSH1 0x40 DUP1 MLOAD PUSH2 0x100 DUP1 DUP3 ADD DUP4 MSTORE DUP8 ISZERO ISZERO DUP3 MSTORE PUSH1 0x1 PUSH1 0x20 DUP1 DUP5 ADD SWAP2 DUP3 MSTORE PUSH1 0x1 PUSH1 0x1 PUSH1 0x40 SHL SUB DUP10 DUP2 AND DUP6 DUP8 ADD MSTORE DUP9 DUP2 AND PUSH1 0x60 DUP7 ADD MSTORE DUP8 AND PUSH1 0x80 DUP6 ADD MSTORE PUSH3 0xFFFFFF DUP7 AND PUSH1 0xA0 DUP6 ADD MSTORE PUSH1 0x3 DUP1 SLOAD PUSH1 0xC0 DUP7 ADD MSTORE PUSH1 0x0 PUSH1 0xE0 DUP7 ADD DUP2 SWAP1 MSTORE PUSH1 0x4 SLOAD DUP2 MSTORE PUSH1 0x9 SWAP1 SWAP3 MSTORE SWAP5 SWAP1 KECCAK256 DUP4 MLOAD DUP2 SLOAD SWAP1 ISZERO ISZERO PUSH1 0xFF NOT DUP3 AND DUP2 OR DUP4 SSTORE SWAP3 MLOAD SWAP5 SWAP6 SWAP2 SWAP5 SWAP4 DUP6 SWAP4 PUSH2 0xFF00 NOT AND PUSH2 0xFFFF NOT SWAP1 SWAP3 AND SWAP2 SWAP1 SWAP2 OR SWAP2 DUP5 SWAP1 DUP2 GT ISZERO PUSH2 0x284E JUMPI PUSH2 0x284E PUSH2 0x318C JUMP JUMPDEST MUL OR SWAP1 SSTORE POP PUSH1 0x40 DUP3 DUP2 ADD MLOAD DUP3 SLOAD PUSH1 0x60 DUP1 DUP7 ADD MLOAD PUSH1 0x80 DUP1 DUP9 ADD MLOAD PUSH1 0xA0 DUP1 DUP11 ADD MLOAD PUSH3 0xFFFFFF AND PUSH1 0x1 PUSH1 0xD0 SHL MUL PUSH3 0xFFFFFF PUSH1 0xD0 SHL NOT PUSH1 0x1 PUSH1 0x1 PUSH1 0x40 SHL SUB SWAP4 DUP5 AND PUSH1 0x1 PUSH1 0x90 SHL MUL AND PUSH11 0xFFFFFFFFFFFFFFFFFFFFFF PUSH1 0x90 SHL NOT SWAP6 DUP5 AND PUSH1 0x1 PUSH1 0x50 SHL MUL PUSH8 0xFFFFFFFFFFFFFFFF PUSH1 0x50 SHL NOT SWAP5 SWAP1 SWAP10 AND PUSH3 0x10000 MUL SWAP4 SWAP1 SWAP4 AND PUSH18 0xFFFFFFFFFFFFFFFFFFFFFFFFFFFFFFFF0000 NOT SWAP1 SWAP8 AND SWAP7 SWAP1 SWAP7 OR SWAP7 SWAP1 SWAP7 OR SWAP3 SWAP1 SWAP3 AND SWAP2 SWAP1 SWAP2 OR SWAP3 SWAP1 SWAP3 OR DUP6 SSTORE PUSH1 0xC0 DUP1 DUP8 ADD MLOAD PUSH1 0x1 DUP1 DUP9 ADD SWAP2 SWAP1 SWAP2 SSTORE PUSH1 0xE0 SWAP8 DUP9 ADD MLOAD PUSH1 0x2 SWAP8 DUP9 ADD DUP1 SLOAD PUSH4 0xFFFFFFFF SWAP1 SWAP3 AND PUSH4 0xFFFFFFFF NOT SWAP1 SWAP3 AND SWAP2 SWAP1 SWAP2 OR SWAP1 SSTORE DUP6 MLOAD PUSH2 0x120 DUP2 ADD DUP8 MSTORE TIMESTAMP DUP2 MSTORE PUSH1 0x0 PUSH1 0x20 DUP1 DUP4 ADD DUP3 DUP2 MSTORE DUP4 DUP11 ADD DUP4 DUP2 MSTORE SWAP7 DUP5 ADD DUP4 DUP2 MSTORE SWAP8 DUP5 ADD DUP4 DUP2 MSTORE SWAP9 DUP5 ADD DUP4 DUP2 MSTORE SWAP6 DUP5 ADD DUP4 DUP2 MSTORE SWAP12 DUP5 ADD DUP4 DUP2 MSTORE PUSH2 0x100 DUP6 ADD DUP5 DUP2 MSTORE PUSH1 0x4 DUP1 SLOAD DUP7 MSTORE PUSH1 0xA SWAP1 SWAP5 MSTORE SWAP4 DUP12 SWAP1 KECCAK256 SWAP5 MLOAD DUP6 SSTORE SWAP1 MLOAD SWAP5 DUP5 ADD SWAP5 SWAP1 SWAP5 SSTORE SWAP5 MLOAD SWAP9 DUP3 ADD SWAP9 SWAP1 SWAP9 SSTORE SWAP4 MLOAD PUSH1 0x3 DUP6 ADD SSTORE SWAP4 MLOAD DUP4 DUP4 ADD SSTORE MLOAD PUSH1 0x5 DUP4 ADD SSTORE SWAP5 MLOAD PUSH1 0x6 DUP1 DUP4 ADD SWAP2 SWAP1 SWAP2 SSTORE SWAP2 MLOAD PUSH1 0x7 DUP3 ADD SSTORE SWAP3 MLOAD PUSH1 0x8 SWAP1 SWAP4 ADD SWAP3 SWAP1 SWAP3 SSTORE SWAP2 SLOAD SWAP1 DUP2 SWAP1 SSTORE SWAP1 MLOAD PUSH32 0xB3D05FED32DAEC5AA56697B6BE763432A7921AD08804E3FD7BE57F5FFD8E84DB SWAP1 PUSH2 0x2A29 SWAP1 DUP9 SWAP1 DUP9 SWAP1 DUP9 SWAP1 DUP9 SWAP1 DUP9 SWAP1 SWAP5 ISZERO ISZERO DUP6 MSTORE PUSH1 0x1 PUSH1 0x1 PUSH1 0x40 SHL SUB SWAP4 DUP5 AND PUSH1 0x20 DUP7 ADD MSTORE SWAP2 DUP4 AND PUSH1 0x40 DUP6 ADD MSTORE SWAP1 SWAP2 AND PUSH1 0x60 DUP4 ADD MSTORE PUSH3 0xFFFFFF AND PUSH1 0x80 DUP3 ADD MSTORE PUSH1 0xA0 ADD SWAP1 JUMP JUMPDEST PUSH1 0x40 MLOAD DUP1 SWAP2 SUB SWAP1 LOG2 POP POP POP POP POP JUMP JUMPDEST PUSH1 0x0 DUP2 DUP2 MSTORE PUSH1 0x9 PUSH1 0x20 SWAP1 DUP2 MSTORE PUSH1 0x40 DUP1 DUP4 KECCAK256 PUSH1 0xA DUP4 MSTORE DUP2 DUP5 KECCAK256 PUSH1 0x1 PUSH1 0x1 PUSH1 0xA0 SHL SUB DUP8 AND DUP6 MSTORE PUSH1 0xB DUP5 MSTORE DUP3 DUP6 KECCAK256 DUP7 DUP7 MSTORE SWAP1 SWAP4 MSTORE SWAP1 DUP4 KECCAK256 DUP1 SLOAD SWAP2 SWAP3 SWAP2 ISZERO DUP1 PUSH2 0x2A81 JUMPI POP PUSH1 0x1 DUP2 ADD SLOAD PUSH1 0xFF AND JUMPDEST DUP1 PUSH2 0x2AA7 JUMPI POP PUSH1 0x3 DUP4 SLOAD PUSH2 0x100 SWAP1 DIV PUSH1 0xFF AND PUSH1 0x3 DUP2 GT ISZERO PUSH2 0x2AA4 JUMPI PUSH2 0x2AA4 PUSH2 0x318C JUMP JUMPDEST EQ ISZERO JUMPDEST ISZERO PUSH2 0x2AB8 JUMPI PUSH1 0x0 SWAP4 POP POP POP POP PUSH2 0x2B9E JUMP JUMPDEST PUSH1 0x0 DUP3 PUSH1 0x6 ADD SLOAD DUP4 PUSH1 0x5 ADD SLOAD PUSH2 0x2ACE SWAP2 SWAP1 PUSH2 0x33C1 JUMP JUMPDEST SWAP1 POP DUP1 PUSH1 0x0 SUB PUSH2 0x2AE5 JUMPI PUSH1 0x0 SWAP5 POP POP POP POP POP PUSH2 0x2B9E JUMP JUMPDEST PUSH1 0x0 DUP2 DUP4 PUSH1 0x0 ADD SLOAD DUP6 PUSH1 0x3 ADD SLOAD PUSH2 0x2AFC SWAP2 SWAP1 PUSH2 0x33ED JUMP JUMPDEST PUSH2 0x2B06 SWAP2 SWAP1 PUSH2 0x3404 JUMP JUMPDEST SWAP1 POP PUSH1 0x0 DUP5 PUSH1 0x7 ADD SLOAD DUP6 PUSH1 0x3 ADD SLOAD GT PUSH2 0x2B20 JUMPI PUSH1 0x0 PUSH2 0x2B34 JUMP JUMPDEST DUP5 PUSH1 0x7 ADD SLOAD DUP6 PUSH1 0x3 ADD SLOAD PUSH2 0x2B34 SWAP2 SWAP1 PUSH2 0x33C1 JUMP JUMPDEST SWAP1 POP DUP1 DUP3 GT ISZERO PUSH2 0x2B42 JUMPI DUP1 SWAP2 POP JUMPDEST DUP4 SLOAD DUP3 GT ISZERO PUSH2 0x2B96 JUMPI DUP4 SLOAD PUSH1 0x0 SWAP1 PUSH2 0x2B5A SWAP1 DUP5 PUSH2 0x33C1 JUMP JUMPDEST SWAP1 POP PUSH1 0x0 PUSH2 0x2710 DUP9 PUSH1 0x1 ADD SLOAD DUP4 PUSH2 0x2B71 SWAP2 SWAP1 PUSH2 0x33ED JUMP JUMPDEST PUSH2 0x2B7B SWAP2 SWAP1 PUSH2 0x3404 JUMP JUMPDEST SWAP1 POP PUSH2 0x2B87 DUP2 DUP6 PUSH2 0x33C1 JUMP JUMPDEST SWAP9 POP POP POP POP POP POP POP POP POP PUSH2 0x2B9E JUMP JUMPDEST POP SWAP5 POP POP POP POP POP JUMPDEST SWAP3 SWAP2 POP POP JUMP JUMPDEST PUSH1 0xC PUSH1 0x20 MSTORE DUP2 PUSH1 0x0 MSTORE PUSH1 0x40 PUSH1 0x0 KECCAK256 DUP2 DUP2 SLOAD DUP2 LT PUSH2 0x2BC0 JUMPI PUSH1 0x0 DUP1 REVERT JUMPDEST SWAP1 PUSH1 0x0 MSTORE PUSH1 0x20 PUSH1 0x0 KECCAK256 ADD PUSH1 0x0 SWAP2 POP SWAP2 POP POP SLOAD DUP2 JUMP JUMPDEST PUSH1 0x1 SLOAD PUSH1 0x1 PUSH1 0xA0 SHL SWAP1 DIV PUSH1 0xFF AND ISZERO PUSH2 0x2C18 JUMPI PUSH1 0x40 MLOAD PUSH3 0x461BCD PUSH1 0xE5 SHL DUP2 MSTORE PUSH1 0x20 PUSH1 0x4 DUP3 ADD MSTORE PUSH1 0x6 PUSH1 0x24 DUP3 ADD MSTORE PUSH6 0x14185D5CD959 PUSH1 0xD2 SHL PUSH1 0x44 DUP3 ADD MSTORE PUSH1 0x64 ADD PUSH2 0x6A0 JUMP JUMPDEST PUSH1 0x2 SLOAD PUSH1 0x2 SUB PUSH2 0x2C3A JUMPI PUSH1 0x40 MLOAD PUSH3 0x461BCD PUSH1 0xE5 SHL DUP2 MSTORE PUSH1 0x4 ADD PUSH2 0x6A0 SWAP1 PUSH2 0x330E JUMP JUMPDEST PUSH1 0x2 DUP1 SSTORE PUSH1 0x6 SLOAD PUSH2 0x2C5D JUMPI PUSH1 0x40 MLOAD PUSH3 0x461BCD PUSH1 0xE5 SHL DUP2 MSTORE PUSH1 0x4 ADD PUSH2 0x6A0 SWAP1 PUSH2 0x3397 JUMP JUMPDEST PUSH1 0x6 SLOAD PUSH1 0x0 SWAP1 DUP2 MSTORE PUSH1 0x9 PUSH1 0x20 SWAP1 DUP2 MSTORE PUSH1 0x40 DUP1 DUP4 KECCAK256 PUSH1 0xA SWAP1 SWAP3 MSTORE SWAP1 SWAP2 KECCAK256 PUSH1 0x1 DUP3 SLOAD PUSH2 0x100 SWAP1 DIV PUSH1 0xFF AND PUSH1 0x3 DUP2 GT ISZERO PUSH2 0x2C96 JUMPI PUSH2 0x2C96 PUSH2 0x318C JUMP JUMPDEST EQ PUSH2 0x2CDC JUMPI PUSH1 0x40 MLOAD PUSH3 0x461BCD PUSH1 0xE5 SHL DUP2 MSTORE PUSH1 0x20 PUSH1 0x4 DUP3 ADD MSTORE PUSH1 0x16 PUSH1 0x24 DUP3 ADD MSTORE PUSH22 0x4E6F7420616363657074696E67206465706F73697473 PUSH1 0x50 SHL PUSH1 0x44 DUP3 ADD MSTORE PUSH1 0x64 ADD PUSH2 0x6A0 JUMP JUMPDEST PUSH1 0x0 SLOAD PUSH1 0x1 PUSH1 0x1 PUSH1 0xA0 SHL SUB AND CALLER SUB PUSH2 0x2D2F JUMPI PUSH1 0x40 MLOAD PUSH3 0x461BCD PUSH1 0xE5 SHL DUP2 MSTORE PUSH1 0x20 PUSH1 0x4 DUP3 ADD MSTORE PUSH1 0x16 PUSH1 0x24 DUP3 ADD MSTORE PUSH22 0x10591B5A5B881D5CD94818591B5A5B91195C1BDCDA5D PUSH1 0x52 SHL PUSH1 0x44 DUP3 ADD MSTORE PUSH1 0x64 ADD PUSH2 0x6A0 JUMP JUMPDEST PUSH3 0x4C4B40 DUP4 LT ISZERO PUSH2 0x2D6F JUMPI PUSH1 0x40 MLOAD PUSH3 0x461BCD PUSH1 0xE5 SHL DUP2 MSTORE PUSH1 0x20 PUSH1 0x4 DUP3 ADD MSTORE PUSH1 0xA PUSH1 0x24 DUP3 ADD MSTORE PUSH10 0x4D696E20352055534443 PUSH1 0xB0 SHL PUSH1 0x44 DUP3 ADD MSTORE PUSH1 0x64 ADD PUSH2 0x6A0 JUMP JUMPDEST PUSH5 0xBA43B7400 DUP4 GT ISZERO PUSH2 0x2DB5 JUMPI PUSH1 0x40 MLOAD PUSH3 0x461BCD PUSH1 0xE5 SHL DUP2 MSTORE PUSH1 0x20 PUSH1 0x4 DUP3 ADD MSTORE PUSH1 0xE PUSH1 0x24 DUP3 ADD MSTORE PUSH14 0x4D61782035303030302055534443 PUSH1 0x90 SHL PUSH1 0x44 DUP3 ADD MSTORE PUSH1 0x64 ADD PUSH2 0x6A0 JUMP JUMPDEST PUSH5 0x746A528800 DUP4 DUP3 PUSH1 0x2 ADD SLOAD PUSH2 0x2DCB SWAP2 SWAP1 PUSH2 0x3347 JUMP JUMPDEST GT ISZERO PUSH2 0x2E05 JUMPI PUSH1 0x40 MLOAD PUSH3 0x461BCD PUSH1 0xE5 SHL DUP2 MSTORE PUSH1 0x20 PUSH1 0x4 DUP3 ADD MSTORE PUSH1 0x9 PUSH1 0x24 DUP3 ADD MSTORE PUSH9 0x141BDBDB08199D5B1B PUSH1 0xBA SHL PUSH1 0x44 DUP3 ADD MSTORE PUSH1 0x64 ADD PUSH2 0x6A0 JUMP JUMPDEST CALLER PUSH1 0x0 SWAP1 DUP2 MSTORE PUSH1 0xB PUSH1 0x20 SWAP1 DUP2 MSTORE PUSH1 0x40 DUP1 DUP4 KECCAK256 PUSH1 0x6 SLOAD DUP5 MSTORE SWAP1 SWAP2 MSTORE SWAP1 KECCAK256 DUP1 SLOAD ISZERO DUP1 ISZERO PUSH2 0x2E35 JUMPI POP PUSH1 0x1 DUP2 ADD SLOAD PUSH1 0xFF AND ISZERO JUMPDEST PUSH2 0x2E75 JUMPI PUSH1 0x40 MLOAD PUSH3 0x461BCD PUSH1 0xE5 SHL DUP2 MSTORE PUSH1 0x20 PUSH1 0x4 DUP3 ADD MSTORE PUSH1 0x11 PUSH1 0x24 DUP3 ADD MSTORE PUSH17 0x105B1C9958591E4819195C1BDCDA5D1959 PUSH1 0x7A SHL PUSH1 0x44 DUP3 ADD MSTORE PUSH1 0x64 ADD PUSH2 0x6A0 JUMP JUMPDEST PUSH1 0x40 DUP1 MLOAD DUP1 DUP3 ADD DUP3 MSTORE DUP6 DUP2 MSTORE PUSH1 0x0 PUSH1 0x20 DUP1 DUP4 ADD DUP3 DUP2 MSTORE CALLER DUP1 DUP5 MSTORE PUSH1 0xB DUP4 MSTORE DUP6 DUP5 KECCAK256 PUSH1 0x6 DUP1 SLOAD DUP7 MSTORE SWAP1 DUP5 MSTORE DUP7 DUP6 KECCAK256 SWAP6 MLOAD DUP7 SSTORE SWAP2 MLOAD PUSH1 0x1 SWAP6 DUP7 ADD DUP1 SLOAD PUSH1 0xFF NOT AND SWAP2 ISZERO ISZERO SWAP2 SWAP1 SWAP2 OR SWAP1 SSTORE DUP4 MSTORE PUSH1 0xC DUP3 MSTORE SWAP4 DUP3 KECCAK256 SWAP4 SLOAD DUP5 SLOAD SWAP4 DUP5 ADD DUP6 SSTORE SWAP4 DUP3 MSTORE DUP2 KECCAK256 SWAP1 SWAP2 ADD SWAP2 SWAP1 SWAP2 SSTORE PUSH1 0x2 DUP4 ADD DUP1 SLOAD DUP7 SWAP3 SWAP1 PUSH2 0x2EEE SWAP1 DUP5 SWAP1 PUSH2 0x3347 JUMP JUMPDEST SWAP1 SWAP2 SSTORE POP POP PUSH1 0x4 DUP3 ADD DUP1 SLOAD SWAP1 PUSH1 0x0 PUSH2 0x2F05 DUP4 PUSH2 0x35D6 JUMP JUMPDEST SWAP1 SWAP2 SSTORE POP POP PUSH1 0x6 SLOAD PUSH1 0x40 MLOAD DUP6 DUP2 MSTORE CALLER SWAP1 PUSH32 0x9FA0303ACB2D73E4E86BF54DD3FBA8208FEACFB4F5A79175DC1F36B674DA0DBB SWAP1 PUSH1 0x20 ADD PUSH1 0x40 MLOAD DUP1 SWAP2 SUB SWAP1 LOG3 PUSH1 0x40 MLOAD PUSH4 0x23B872DD PUSH1 0xE0 SHL DUP2 MSTORE CALLER PUSH1 0x4 DUP3 ADD MSTORE ADDRESS PUSH1 0x24 DUP3 ADD MSTORE PUSH1 0x44 DUP2 ADD DUP6 SWAP1 MSTORE PUSH32 0x0 PUSH1 0x1 PUSH1 0x1 PUSH1 0xA0 SHL SUB AND SWAP1 PUSH4 0x23B872DD SWAP1 PUSH1 0x64 ADD PUSH1 0x20 PUSH1 0x40 MLOAD DUP1 DUP4 SUB DUP2 PUSH1 0x0 DUP8 GAS CALL ISZERO DUP1 ISZERO PUSH2 0x2FB5 JUMPI RETURNDATASIZE PUSH1 0x0 DUP1 RETURNDATACOPY RETURNDATASIZE PUSH1 0x0 REVERT JUMPDEST POP POP POP POP PUSH1 0x40 MLOAD RETURNDATASIZE PUSH1 0x1F NOT PUSH1 0x1F DUP3 ADD AND DUP3 ADD DUP1 PUSH1 0x40 MSTORE POP DUP2 ADD SWAP1 PUSH2 0x2FD9 SWAP2 SWAP1 PUSH2 0x335A JUMP JUMPDEST PUSH2 0x3017 JUMPI PUSH1 0x40 MLOAD PUSH3 0x461BCD PUSH1 0xE5 SHL DUP2 MSTORE PUSH1 0x20 PUSH1 0x4 DUP3 ADD MSTORE PUSH1 0xF PUSH1 0x24 DUP3 ADD MSTORE PUSH15 0x151C985B9CD9995C8819985A5B1959 PUSH1 0x8A SHL PUSH1 0x44 DUP3 ADD MSTORE PUSH1 0x64 ADD PUSH2 0x6A0 JUMP JUMPDEST POP POP PUSH1 0x1 PUSH1 0x2 SSTORE POP POP JUMP JUMPDEST PUSH1 0x1 PUSH1 0x1 PUSH1 0xA0 SHL SUB DUP2 AND PUSH1 0x0 SWAP1 DUP2 MSTORE PUSH1 0xC PUSH1 0x20 SWAP1 DUP2 MSTORE PUSH1 0x40 SWAP2 DUP3 SWAP1 KECCAK256 DUP1 SLOAD DUP4 MLOAD DUP2 DUP5 MUL DUP2 ADD DUP5 ADD SWAP1 SWAP5 MSTORE DUP1 DUP5 MSTORE PUSH1 0x60 SWAP4 SWAP3 DUP4 ADD DUP3 DUP3 DUP1 ISZERO PUSH2 0x3082 JUMPI PUSH1 0x20 MUL DUP3 ADD SWAP2 SWAP1 PUSH1 0x0 MSTORE PUSH1 0x20 PUSH1 0x0 KECCAK256 SWAP1 JUMPDEST DUP2 SLOAD DUP2 MSTORE PUSH1 0x20 ADD SWAP1 PUSH1 0x1 ADD SWAP1 DUP1 DUP4 GT PUSH2 0x306E JUMPI JUMPDEST POP POP POP POP POP SWAP1 POP SWAP2 SWAP1 POP JUMP JUMPDEST PUSH1 0x0 PUSH1 0x20 DUP3 DUP5 SUB SLT ISZERO PUSH2 0x30A0 JUMPI PUSH1 0x0 DUP1 REVERT JUMPDEST POP CALLDATALOAD SWAP2 SWAP1 POP JUMP JUMPDEST DUP1 ISZERO ISZERO DUP2 EQ PUSH2 0x30B5 JUMPI PUSH1 0x0 DUP1 REVERT JUMPDEST POP JUMP JUMPDEST PUSH1 0x0 PUSH1 0x20 DUP3 DUP5 SUB SLT ISZERO PUSH2 0x30CA JUMPI PUSH1 0x0 DUP1 REVERT JUMPDEST DUP2 CALLDATALOAD PUSH2 0x30D5 DUP2 PUSH2 0x30A7 JUMP JUMPDEST SWAP4 SWAP3 POP POP POP JUMP JUMPDEST DUP1 CALLDATALOAD PUSH4 0xFFFFFFFF DUP2 AND DUP2 EQ PUSH2 0x30F0 JUMPI PUSH1 0x0 DUP1 REVERT JUMPDEST SWAP2 SWAP1 POP JUMP JUMPDEST PUSH1 0x0 PUSH1 0x20 DUP3 DUP5 SUB SLT ISZERO PUSH2 0x3107 JUMPI PUSH1 0x0 DUP1 REVERT JUMPDEST PUSH2 0x30D5 DUP3 PUSH2 0x30DC JUMP JUMPDEST DUP1 CALLDATALOAD PUSH1 0x1 PUSH1 0x1 PUSH1 0x40 SHL SUB DUP2 AND DUP2 EQ PUSH2 0x30F0 JUMPI PUSH1 0x0 DUP1 REVERT JUMPDEST PUSH1 0x0 DUP1 PUSH1 0x40 DUP4 DUP6 SUB SLT ISZERO PUSH2 0x313A JUMPI PUSH1 0x0 DUP1 REVERT JUMPDEST PUSH2 0x3143 DUP4 PUSH2 0x30DC JUMP JUMPDEST SWAP2 POP PUSH2 0x3151 PUSH1 0x20 DUP5 ADD PUSH2 0x3110 JUMP JUMPDEST SWAP1 POP SWAP3 POP SWAP3 SWAP1 POP JUMP JUMPDEST DUP1 CALLDATALOAD PUSH1 0x1 PUSH1 0x1 PUSH1 0xA0 SHL SUB DUP2 AND DUP2 EQ PUSH2 0x30F0 JUMPI PUSH1 0x0 DUP1 REVERT JUMPDEST PUSH1 0x0 PUSH1 0x20 DUP3 DUP5 SUB SLT ISZERO PUSH2 0x3183 JUMPI PUSH1 0x0 DUP1 REVERT JUMPDEST PUSH2 0x30D5 DUP3 PUSH2 0x315A JUMP JUMPDEST PUSH4 0x4E487B71 PUSH1 0xE0 SHL PUSH1 0x0 MSTORE PUSH1 0x21 PUSH1 0x4 MSTORE PUSH1 0x24 PUSH1 0x0 REVERT JUMPDEST DUP9 ISZERO ISZERO DUP2 MSTORE PUSH2 0x100 DUP2 ADD PUSH1 0x4 DUP10 LT PUSH2 0x31BC JUMPI PUSH2 0x31BC PUSH2 0x318C JUMP JUMPDEST PUSH1 0x20 DUP3 ADD SWAP9 SWAP1 SWAP9 MSTORE PUSH1 0x1 PUSH1 0x1 PUSH1 0x40 SHL SUB SWAP7 DUP8 AND PUSH1 0x40 DUP3 ADD MSTORE SWAP5 DUP7 AND PUSH1 0x60 DUP7 ADD MSTORE SWAP3 SWAP1 SWAP5 AND PUSH1 0x80 DUP5 ADD MSTORE PUSH3 0xFFFFFF AND PUSH1 0xA0 DUP4 ADD MSTORE PUSH1 0xC0 DUP3 ADD SWAP3 SWAP1 SWAP3 MSTORE PUSH4 0xFFFFFFFF SWAP1 SWAP2 AND PUSH1 0xE0 SWAP1 SWAP2 ADD MSTORE SWAP2 SWAP1 POP JUMP JUMPDEST PUSH1 0x0 DUP1 PUSH1 0x0 DUP1 PUSH1 0x0 PUSH1 0xA0 DUP7 DUP9 SUB SLT ISZERO PUSH2 0x3222 JUMPI PUSH1 0x0 DUP1 REVERT JUMPDEST DUP6 CALLDATALOAD PUSH2 0x322D DUP2 PUSH2 0x30A7 JUMP JUMPDEST SWAP5 POP PUSH2 0x323B PUSH1 0x20 DUP8 ADD PUSH2 0x3110 JUMP JUMPDEST SWAP4 POP PUSH2 0x3249 PUSH1 0x40 DUP8 ADD PUSH2 0x3110 JUMP JUMPDEST SWAP3 POP PUSH2 0x3257 PUSH1 0x60 DUP8 ADD PUSH2 0x3110 JUMP JUMPDEST SWAP2 POP PUSH1 0x80 DUP7 ADD CALLDATALOAD PUSH3 0xFFFFFF DUP2 AND DUP2 EQ PUSH2 0x326F JUMPI PUSH1 0x0 DUP1 REVERT JUMPDEST DUP1 SWAP2 POP POP SWAP3 SWAP6 POP SWAP3 SWAP6 SWAP1 SWAP4 POP JUMP JUMPDEST PUSH1 0x0 DUP1 PUSH1 0x40 DUP4 DUP6 SUB SLT ISZERO PUSH2 0x3290 JUMPI PUSH1 0x0 DUP1 REVERT JUMPDEST PUSH2 0x3299 DUP4 PUSH2 0x315A JUMP JUMPDEST SWAP5 PUSH1 0x20 SWAP4 SWAP1 SWAP4 ADD CALLDATALOAD SWAP4 POP POP POP JUMP JUMPDEST PUSH1 0x20 DUP1 DUP3 MSTORE DUP3 MLOAD DUP3 DUP3 ADD DUP2 SWAP1 MSTORE PUSH1 0x0 SWAP2 SWAP1 DUP5 DUP3 ADD SWAP1 PUSH1 0x40 DUP6 ADD SWAP1 DUP5 JUMPDEST DUP2 DUP2 LT ISZERO PUSH2 0x32DF JUMPI DUP4 MLOAD DUP4 MSTORE SWAP3 DUP5 ADD SWAP3 SWAP2 DUP5 ADD SWAP2 PUSH1 0x1 ADD PUSH2 0x32C3 JUMP JUMPDEST POP SWAP1 SWAP7 SWAP6 POP POP POP POP POP POP JUMP JUMPDEST PUSH1 0x20 DUP1 DUP3 MSTORE PUSH1 0x9 SWAP1 DUP3 ADD MSTORE PUSH9 0x2737BA1030B236B4B7 PUSH1 0xB9 SHL PUSH1 0x40 DUP3 ADD MSTORE PUSH1 0x60 ADD SWAP1 JUMP JUMPDEST PUSH1 0x20 DUP1 DUP3 MSTORE PUSH1 0x9 SWAP1 DUP3 ADD MSTORE PUSH9 0x1499595B9D1C985B9D PUSH1 0xBA SHL PUSH1 0x40 DUP3 ADD MSTORE PUSH1 0x60 ADD SWAP1 JUMP JUMPDEST PUSH4 0x4E487B71 PUSH1 0xE0 SHL PUSH1 0x0 MSTORE PUSH1 0x11 PUSH1 0x4 MSTORE PUSH1 0x24 PUSH1 0x0 REVERT JUMPDEST DUP1 DUP3 ADD DUP1 DUP3 GT ISZERO PUSH2 0x2B9E JUMPI PUSH2 0x2B9E PUSH2 0x3331 JUMP JUMPDEST PUSH1 0x0 PUSH1 0x20 DUP3 DUP5 SUB SLT ISZERO PUSH2 0x336C JUMPI PUSH1 0x0 DUP1 REVERT JUMPDEST DUP2 MLOAD PUSH2 0x30D5 DUP2 PUSH2 0x30A7 JUMP JUMPDEST PUSH1 0x20 DUP1 DUP3 MSTORE PUSH1 0x6 SWAP1 DUP3 ADD MSTORE PUSH6 0x11985A5B1959 PUSH1 0xD2 SHL PUSH1 0x40 DUP3 ADD MSTORE PUSH1 0x60 ADD SWAP1 JUMP JUMPDEST PUSH1 0x20 DUP1 DUP3 MSTORE PUSH1 0x10 SWAP1 DUP3 ADD MSTORE PUSH16 0x139BC81858DD1A5D99481CDA59DB985B PUSH1 0x82 SHL PUSH1 0x40 DUP3 ADD MSTORE PUSH1 0x60 ADD SWAP1 JUMP JUMPDEST DUP2 DUP2 SUB DUP2 DUP2 GT ISZERO PUSH2 0x2B9E JUMPI PUSH2 0x2B9E PUSH2 0x3331 JUMP JUMPDEST PUSH1 0x0 PUSH1 0x20 DUP3 DUP5 SUB SLT ISZERO PUSH2 0x33E6 JUMPI PUSH1 0x0 DUP1 REVERT JUMPDEST POP MLOAD SWAP2 SWAP1 POP JUMP JUMPDEST DUP1 DUP3 MUL DUP2 ISZERO DUP3 DUP3 DIV DUP5 EQ OR PUSH2 0x2B9E JUMPI PUSH2 0x2B9E PUSH2 0x3331 JUMP JUMPDEST PUSH1 0x0 DUP3 PUSH2 0x3421 JUMPI PUSH4 0x4E487B71 PUSH1 0xE0 SHL PUSH1 0x0 MSTORE PUSH1 0x12 PUSH1 0x4 MSTORE PUSH1 0x24 PUSH1 0x0 REVERT JUMPDEST POP DIV SWAP1 JUMP JUMPDEST PUSH1 0x0 PUSH1 0x1 PUSH1 0xFF SHL DUP3 ADD PUSH2 0x343B JUMPI PUSH2 0x343B PUSH2 0x3331 JUMP JUMPDEST POP PUSH1 0x0 SUB SWAP1 JUMP JUMPDEST PUSH1 0x3 DUP2 LT PUSH2 0x3452 JUMPI PUSH2 0x3452 PUSH2 0x318C JUMP JUMPDEST SWAP1 MSTORE JUMP JUMPDEST DUP4 MLOAD PUSH1 0x1 PUSH1 0x1 PUSH1 0xA0 SHL SUB AND DUP2 MSTORE PUSH2 0x220 DUP2 ADD PUSH1 0x20 DUP6 ADD MLOAD PUSH2 0x347F PUSH1 0x20 DUP5 ADD DUP3 PUSH4 0xFFFFFFFF AND SWAP1 MSTORE JUMP JUMPDEST POP PUSH1 0x40 DUP6 ADD MLOAD PUSH2 0x3495 PUSH1 0x40 DUP5 ADD DUP3 PUSH2 0xFFFF AND SWAP1 MSTORE JUMP JUMPDEST POP PUSH1 0x60 DUP6 ADD MLOAD PUSH2 0x34AC PUSH1 0x60 DUP5 ADD DUP3 PUSH3 0xFFFFFF AND SWAP1 MSTORE JUMP JUMPDEST POP PUSH1 0x80 DUP6 ADD MLOAD PUSH2 0x34C0 PUSH1 0x80 DUP5 ADD DUP3 ISZERO ISZERO SWAP1 MSTORE JUMP JUMPDEST POP PUSH1 0xA0 DUP6 ADD MLOAD PUSH2 0x34D4 PUSH1 0xA0 DUP5 ADD DUP3 ISZERO ISZERO SWAP1 MSTORE JUMP JUMPDEST POP PUSH1 0xC0 DUP6 ADD MLOAD PUSH2 0x34E9 PUSH1 0xC0 DUP5 ADD DUP3 PUSH1 0xFF AND SWAP1 MSTORE JUMP JUMPDEST POP PUSH1 0xE0 DUP6 ADD MLOAD PUSH2 0x34FC PUSH1 0xE0 DUP5 ADD DUP3 PUSH2 0x3442 JUMP JUMPDEST POP PUSH2 0x100 DUP6 DUP2 ADD MLOAD PUSH1 0x1 PUSH1 0x1 PUSH1 0x78 SHL SUB AND SWAP1 DUP4 ADD MSTORE PUSH2 0x120 DUP1 DUP7 ADD MLOAD PUSH1 0x1 PUSH1 0x1 PUSH1 0x40 SHL SUB SWAP1 DUP2 AND SWAP2 DUP5 ADD SWAP2 SWAP1 SWAP2 MSTORE PUSH2 0x140 DUP1 DUP8 ADD MLOAD DUP3 AND SWAP1 DUP5 ADD MSTORE PUSH2 0x160 DUP1 DUP8 ADD MLOAD SWAP1 SWAP2 AND SWAP1 DUP4 ADD MSTORE PUSH2 0x180 DUP1 DUP7 ADD MLOAD ISZERO ISZERO SWAP1 DUP4 ADD MSTORE PUSH2 0x1A0 DUP1 DUP7 ADD MLOAD PUSH1 0x1 PUSH1 0x1 PUSH1 0xA0 SHL SUB SWAP1 DUP2 AND SWAP2 DUP5 ADD SWAP2 SWAP1 SWAP2 MSTORE PUSH2 0x1C0 SWAP6 DUP7 ADD MLOAD PUSH3 0xFFFFFF AND SWAP6 DUP4 ADD SWAP6 SWAP1 SWAP6 MSTORE PUSH2 0xFFFF SWAP4 SWAP1 SWAP4 AND PUSH2 0x1E0 DUP3 ADD MSTORE SWAP3 AND PUSH2 0x200 SWAP1 SWAP3 ADD SWAP2 SWAP1 SWAP2 MSTORE SWAP1 JUMP JUMPDEST PUSH1 0x20 DUP1 DUP3 MSTORE PUSH1 0xB SWAP1 DUP3 ADD MSTORE PUSH11 0x2737903837B9B4BA34B7B7 PUSH1 0xA9 SHL PUSH1 0x40 DUP3 ADD MSTORE PUSH1 0x60 ADD SWAP1 JUMP JUMPDEST PUSH1 0x0 DUP2 PUSH2 0x35CE JUMPI PUSH2 0x35CE PUSH2 0x3331 JUMP JUMPDEST POP PUSH1 0x0 NOT ADD SWAP1 JUMP JUMPDEST PUSH1 0x0 PUSH1 0x1 DUP3 ADD PUSH2 0x35E8 JUMPI PUSH2 0x35E8 PUSH2 0x3331 JUMP JUMPDEST POP PUSH1 0x1 ADD SWAP1 JUMP INVALID LOG2 PUSH5 0x6970667358 0x22 SLT KECCAK256 0xB3 ORIGIN 0x27 GASLIMIT TIMESTAMP LOG1 0xDA 0xE8 0xC8 PUSH12 0x721D83E673FC52AAA4538200 DUP10 PUSH13 0x5A84C1EC56DC694A64736F6C63 NUMBER STOP ADDMOD SGT STOP CALLER "},"methodIdentifiers":{"BASIS_POINTS()":"e1f1c4a7","COLLECTING_TIMEOUT()":"f23fae93","EMERGENCY_DELAY()":"82944e2d","MAX_DEPOSIT()":"dd5967c3","MAX_POOL()":"2c3c91c9","MIN_DEPOSIT()":"e1e158a5","acceptAdmin()":"0e18b681","activeSignalId()":"30cb5b4a","admin()":"f851a440","adminDeposit(uint256)":"08687794","adminWithdrawDeposit(uint256)":"55e267ff","cancelSignal()":"78739f47","claim(uint256)":"379607f5","closeTrade(uint32,uint64)":"6cca67a8","deposit(uint256)":"b6b55f25","diamond()":"f0b7db4e","emergencyWithdraw(uint256)":"5312ea8e","feePercent()":"7fd6f15c","getActiveSignalId()":"4cb96a92","getExpectedPayout(address,uint256)":"a5519036","getUserSignalIds(address)":"fc6fee9c","openTrade(uint32)":"27dde56c","paused()":"5c975abb","pendingAdmin()":"26782247","positions(address,uint256)":"c1be6677","postSignal(bool,uint64,uint64,uint64,uint24)":"99d8528e","reservedForSignals()":"486834a3","setFeePercent(uint256)":"7ce3489b","setPaused(bool)":"16c38b3c","settleSignal(uint256)":"15199c7f","signalCore(uint256)":"7a88d0b5","signalCount()":"ae0041aa","signalMeta(uint256)":"80447e32","totalAdminDeposited()":"888bc372","totalFeesCollected()":"60c6d8ae","transferAdmin(address)":"75829def","usdc()":"3e413bee","userCancelExpiredSignal(uint256)":"28d3bf0a","userSignalIds(address,uint256)":"a5534664","withdrawDeposit(uint256)":"33289a46","withdrawFees()":"476343ee"}}}}}