{"contracts/mocks/MockDiamond.sol":{"MockDiamond":{"abi":[{"inputs":[{"internalType":"uint32","name":"","type":"uint32"},{"internalType":"uint64","name":"","type":"uint64"}],"name":"closeTradeMarket","outputs":[],"stateMutability":"pure","type":"function"},{"inputs":[],"name":"getTradeCount","outputs":[{"internalType":"uint256","name":"","type":"uint256"}],"stateMutability":"view","type":"function"},{"inputs":[{"components":[{"internalType":"address","name":"user","type":"address"},{"internalType":"uint32","name":"index","type":"uint32"},{"internalType":"uint16","name":"pairIndex","type":"uint16"},{"internalType":"uint24","name":"leverage","type":"uint24"},{"internalType":"bool","name":"long","type":"bool"},{"internalType":"bool","name":"isOpen","type":"bool"},{"internalType":"uint8","name":"collateralIndex","type":"uint8"},{"internalType":"enum IGNSMultiCollatDiamond.TradeType","name":"tradeType","type":"uint8"},{"internalType":"uint120","name":"collateralAmount","type":"uint120"},{"internalType":"uint64","name":"openPrice","type":"uint64"},{"internalType":"uint64","name":"tp","type":"uint64"},{"internalType":"uint64","name":"sl","type":"uint64"},{"internalType":"bool","name":"isCounterTrade","type":"bool"},{"internalType":"uint160","name":"positionSizeToken","type":"uint160"},{"internalType":"uint24","name":"__placeholder","type":"uint24"}],"internalType":"struct IGNSMultiCollatDiamond.Trade","name":"trade","type":"tuple"},{"internalType":"uint16","name":"","type":"uint16"},{"internalType":"address","name":"","type":"address"}],"name":"openTrade","outputs":[],"stateMutability":"nonpayable","type":"function"},{"inputs":[{"internalType":"bool","name":"_revert","type":"bool"}],"name":"setShouldRevert","outputs":[],"stateMutability":"nonpayable","type":"function"},{"inputs":[],"name":"shouldRevert","outputs":[{"internalType":"bool","name":"","type":"bool"}],"stateMutability":"view","type":"function"},{"inputs":[{"internalType":"uint256","name":"","type":"uint256"}],"name":"trades","outputs":[{"internalType":"address","name":"user","type":"address"},{"internalType":"uint16","name":"pairIndex","type":"uint16"},{"internalType":"uint24","name":"leverage","type":"uint24"},{"internalType":"bool","name":"long","type":"bool"},{"internalType":"uint120","name":"collateralAmount","type":"uint120"},{"internalType":"uint64","name":"openPrice","type":"uint64"}],"stateMutability":"view","type":"function"}],"evm":{"bytecode":{"linkReferences":{},"object":"608060405234801561001057600080fd5b50610580806100206000396000f3fe608060405234801561001057600080fd5b50600436106100625760003560e01c80631e6c598e1461006757806336ce736b146100d75780635bfcc4f8146100eb5780636813d787146100fe578063a3031b771461011f578063d3072d8214610130575b600080fd5b61007a610075366004610396565b61014d565b604080516001600160a01b03909716875261ffff909516602087015262ffffff90931693850193909352151560608401526001600160781b03909116608083015267ffffffffffffffff1660a082015260c0015b60405180910390f35b6100e96100e53660046103cc565b5050565b005b6100e96100f9366004610433565b6101c5565b6100e961010c366004610482565b6001805460ff1916911515919091179055565b6000546040519081526020016100ce565b60015461013d9060ff1681565b60405190151581526020016100ce565b6000818154811061015d57600080fd5b6000918252602090912060029091020180546001909101546001600160a01b0382169250600160a01b820461ffff1691600160b01b810462ffffff1691600160c81b90910460ff16906001600160781b03811690600160781b900467ffffffffffffffff1686565b60015460ff161561021c5760405162461bcd60e51b815260206004820152601a60248201527f4d6f636b4469616d6f6e643a20666f7263656420726576657274000000000000604482015260640160405180910390fd5b6040805160c081019091526000908061023860208701876104ab565b6001600160a01b0316815260200161025660608701604088016104c6565b61ffff16815260200161026f60808701606088016104e1565b62ffffff16815260200161028960a0870160808801610482565b151581526020016102a261012087016101008801610506565b6001600160781b031681526020016102c26101408701610120880161052f565b67ffffffffffffffff90811690915282546001818101855560009485526020948590208451600290930201805495850151604086015160608701511515600160c81b0260ff60c81b1962ffffff909216600160b01b029190911663ffffffff60b01b1961ffff909316600160a01b026001600160b01b03199099166001600160a01b039096169590951797909717169290921794909417815560808301519301805460a090930151909116600160781b026001600160b81b03199092166001600160781b0390931692909217179055505050565b6000602082840312156103a857600080fd5b5035919050565b803567ffffffffffffffff811681146103c757600080fd5b919050565b600080604083850312156103df57600080fd5b823563ffffffff811681146103f357600080fd5b9150610401602084016103af565b90509250929050565b803561ffff811681146103c757600080fd5b80356001600160a01b03811681146103c757600080fd5b600080600083850361022081121561044a57600080fd5b6101e08082121561045a57600080fd5b85945061046881870161040a565b93505050610479610200850161041c565b90509250925092565b60006020828403121561049457600080fd5b813580151581146104a457600080fd5b9392505050565b6000602082840312156104bd57600080fd5b6104a48261041c565b6000602082840312156104d857600080fd5b6104a48261040a565b6000602082840312156104f357600080fd5b813562ffffff811681146104a457600080fd5b60006020828403121561051857600080fd5b81356001600160781b03811681146104a457600080fd5b60006020828403121561054157600080fd5b6104a4826103af56fea2646970667358221220012840a8fe8c6d62480a778aeb8236fd9423887213af67009fda322a00a1352a64736f6c63430008130033","opcodes":"PUSH1 0x80 PUSH1 0x40 MSTORE CALLVALUE DUP1 ISZERO PUSH2 0x10 JUMPI PUSH1 0x0 DUP1 REVERT JUMPDEST POP PUSH2 0x580 DUP1 PUSH2 0x20 PUSH1 0x0 CODECOPY PUSH1 0x0 RETURN INVALID PUSH1 0x80 PUSH1 0x40 MSTORE CALLVALUE DUP1 ISZERO PUSH2 0x10 JUMPI PUSH1 0x0 DUP1 REVERT JUMPDEST POP PUSH1 0x4 CALLDATASIZE LT PUSH2 0x62 JUMPI PUSH1 0x0 CALLDATALOAD PUSH1 0xE0 SHR DUP1 PUSH4 0x1E6C598E EQ PUSH2 0x67 JUMPI DUP1 PUSH4 0x36CE736B EQ PUSH2 0xD7 JUMPI DUP1 PUSH4 0x5BFCC4F8 EQ PUSH2 0xEB JUMPI DUP1 PUSH4 0x6813D787 EQ PUSH2 0xFE JUMPI DUP1 PUSH4 0xA3031B77 EQ PUSH2 0x11F JUMPI DUP1 PUSH4 0xD3072D82 EQ PUSH2 0x130 JUMPI JUMPDEST PUSH1 0x0 DUP1 REVERT JUMPDEST PUSH2 0x7A PUSH2 0x75 CALLDATASIZE PUSH1 0x4 PUSH2 0x396 JUMP JUMPDEST PUSH2 0x14D JUMP JUMPDEST PUSH1 0x40 DUP1 MLOAD PUSH1 0x1 PUSH1 0x1 PUSH1 0xA0 SHL SUB SWAP1 SWAP8 AND DUP8 MSTORE PUSH2 0xFFFF SWAP1 SWAP6 AND PUSH1 0x20 DUP8 ADD MSTORE PUSH3 0xFFFFFF SWAP1 SWAP4 AND SWAP4 DUP6 ADD SWAP4 SWAP1 SWAP4 MSTORE ISZERO ISZERO PUSH1 0x60 DUP5 ADD MSTORE PUSH1 0x1 PUSH1 0x1 PUSH1 0x78 SHL SUB SWAP1 SWAP2 AND PUSH1 0x80 DUP4 ADD MSTORE PUSH8 0xFFFFFFFFFFFFFFFF AND PUSH1 0xA0 DUP3 ADD MSTORE PUSH1 0xC0 ADD JUMPDEST PUSH1 0x40 MLOAD DUP1 SWAP2 SUB SWAP1 RETURN JUMPDEST PUSH2 0xE9 PUSH2 0xE5 CALLDATASIZE PUSH1 0x4 PUSH2 0x3CC JUMP JUMPDEST POP POP JUMP JUMPDEST STOP JUMPDEST PUSH2 0xE9 PUSH2 0xF9 CALLDATASIZE PUSH1 0x4 PUSH2 0x433 JUMP JUMPDEST PUSH2 0x1C5 JUMP JUMPDEST PUSH2 0xE9 PUSH2 0x10C CALLDATASIZE PUSH1 0x4 PUSH2 0x482 JUMP JUMPDEST PUSH1 0x1 DUP1 SLOAD PUSH1 0xFF NOT AND SWAP2 ISZERO ISZERO SWAP2 SWAP1 SWAP2 OR SWAP1 SSTORE JUMP JUMPDEST PUSH1 0x0 SLOAD PUSH1 0x40 MLOAD SWAP1 DUP2 MSTORE PUSH1 0x20 ADD PUSH2 0xCE JUMP JUMPDEST PUSH1 0x1 SLOAD PUSH2 0x13D SWAP1 PUSH1 0xFF AND DUP2 JUMP JUMPDEST PUSH1 0x40 MLOAD SWAP1 ISZERO ISZERO DUP2 MSTORE PUSH1 0x20 ADD PUSH2 0xCE JUMP JUMPDEST PUSH1 0x0 DUP2 DUP2 SLOAD DUP2 LT PUSH2 0x15D JUMPI PUSH1 0x0 DUP1 REVERT JUMPDEST PUSH1 0x0 SWAP2 DUP3 MSTORE PUSH1 0x20 SWAP1 SWAP2 KECCAK256 PUSH1 0x2 SWAP1 SWAP2 MUL ADD DUP1 SLOAD PUSH1 0x1 SWAP1 SWAP2 ADD SLOAD PUSH1 0x1 PUSH1 0x1 PUSH1 0xA0 SHL SUB DUP3 AND SWAP3 POP PUSH1 0x1 PUSH1 0xA0 SHL DUP3 DIV PUSH2 0xFFFF AND SWAP2 PUSH1 0x1 PUSH1 0xB0 SHL DUP2 DIV PUSH3 0xFFFFFF AND SWAP2 PUSH1 0x1 PUSH1 0xC8 SHL SWAP1 SWAP2 DIV PUSH1 0xFF AND SWAP1 PUSH1 0x1 PUSH1 0x1 PUSH1 0x78 SHL SUB DUP2 AND SWAP1 PUSH1 0x1 PUSH1 0x78 SHL SWAP1 DIV PUSH8 0xFFFFFFFFFFFFFFFF AND DUP7 JUMP JUMPDEST PUSH1 0x1 SLOAD PUSH1 0xFF AND ISZERO PUSH2 0x21C JUMPI PUSH1 0x40 MLOAD PUSH3 0x461BCD PUSH1 0xE5 SHL DUP2 MSTORE PUSH1 0x20 PUSH1 0x4 DUP3 ADD MSTORE PUSH1 0x1A PUSH1 0x24 DUP3 ADD MSTORE PUSH32 0x4D6F636B4469616D6F6E643A20666F7263656420726576657274000000000000 PUSH1 0x44 DUP3 ADD MSTORE PUSH1 0x64 ADD PUSH1 0x40 MLOAD DUP1 SWAP2 SUB SWAP1 REVERT JUMPDEST PUSH1 0x40 DUP1 MLOAD PUSH1 0xC0 DUP2 ADD SWAP1 SWAP2 MSTORE PUSH1 0x0 SWAP1 DUP1 PUSH2 0x238 PUSH1 0x20 DUP8 ADD DUP8 PUSH2 0x4AB JUMP JUMPDEST PUSH1 0x1 PUSH1 0x1 PUSH1 0xA0 SHL SUB AND DUP2 MSTORE PUSH1 0x20 ADD PUSH2 0x256 PUSH1 0x60 DUP8 ADD PUSH1 0x40 DUP9 ADD PUSH2 0x4C6 JUMP JUMPDEST PUSH2 0xFFFF AND DUP2 MSTORE PUSH1 0x20 ADD PUSH2 0x26F PUSH1 0x80 DUP8 ADD PUSH1 0x60 DUP9 ADD PUSH2 0x4E1 JUMP JUMPDEST PUSH3 0xFFFFFF AND DUP2 MSTORE PUSH1 0x20 ADD PUSH2 0x289 PUSH1 0xA0 DUP8 ADD PUSH1 0x80 DUP9 ADD PUSH2 0x482 JUMP JUMPDEST ISZERO ISZERO DUP2 MSTORE PUSH1 0x20 ADD PUSH2 0x2A2 PUSH2 0x120 DUP8 ADD PUSH2 0x100 DUP9 ADD PUSH2 0x506 JUMP JUMPDEST PUSH1 0x1 PUSH1 0x1 PUSH1 0x78 SHL SUB AND DUP2 MSTORE PUSH1 0x20 ADD PUSH2 0x2C2 PUSH2 0x140 DUP8 ADD PUSH2 0x120 DUP9 ADD PUSH2 0x52F JUMP JUMPDEST PUSH8 0xFFFFFFFFFFFFFFFF SWAP1 DUP2 AND SWAP1 SWAP2 MSTORE DUP3 SLOAD PUSH1 0x1 DUP2 DUP2 ADD DUP6 SSTORE PUSH1 0x0 SWAP5 DUP6 MSTORE PUSH1 0x20 SWAP5 DUP6 SWAP1 KECCAK256 DUP5 MLOAD PUSH1 0x2 SWAP1 SWAP4 MUL ADD DUP1 SLOAD SWAP6 DUP6 ADD MLOAD PUSH1 0x40 DUP7 ADD MLOAD PUSH1 0x60 DUP8 ADD MLOAD ISZERO ISZERO PUSH1 0x1 PUSH1 0xC8 SHL MUL PUSH1 0xFF PUSH1 0xC8 SHL NOT PUSH3 0xFFFFFF SWAP1 SWAP3 AND PUSH1 0x1 PUSH1 0xB0 SHL MUL SWAP2 SWAP1 SWAP2 AND PUSH4 0xFFFFFFFF PUSH1 0xB0 SHL NOT PUSH2 0xFFFF SWAP1 SWAP4 AND PUSH1 0x1 PUSH1 0xA0 SHL MUL PUSH1 0x1 PUSH1 0x1 PUSH1 0xB0 SHL SUB NOT SWAP1 SWAP10 AND PUSH1 0x1 PUSH1 0x1 PUSH1 0xA0 SHL SUB SWAP1 SWAP7 AND SWAP6 SWAP1 SWAP6 OR SWAP8 SWAP1 SWAP8 OR AND SWAP3 SWAP1 SWAP3 OR SWAP5 SWAP1 SWAP5 OR DUP2 SSTORE PUSH1 0x80 DUP4 ADD MLOAD SWAP4 ADD DUP1 SLOAD PUSH1 0xA0 SWAP1 SWAP4 ADD MLOAD SWAP1 SWAP2 AND PUSH1 0x1 PUSH1 0x78 SHL MUL PUSH1 0x1 PUSH1 0x1 PUSH1 0xB8 SHL SUB NOT SWAP1 SWAP3 AND PUSH1 0x1 PUSH1 0x1 PUSH1 0x78 SHL SUB SWAP1 SWAP4 AND SWAP3 SWAP1 SWAP3 OR OR SWAP1 SSTORE POP POP POP JUMP JUMPDEST PUSH1 0x0 PUSH1 0x20 DUP3 DUP5 SUB SLT ISZERO PUSH2 0x3A8 JUMPI PUSH1 0x0 DUP1 REVERT JUMPDEST POP CALLDATALOAD SWAP2 SWAP1 POP JUMP JUMPDEST DUP1 CALLDATALOAD PUSH8 0xFFFFFFFFFFFFFFFF DUP2 AND DUP2 EQ PUSH2 0x3C7 JUMPI PUSH1 0x0 DUP1 REVERT JUMPDEST SWAP2 SWAP1 POP JUMP JUMPDEST PUSH1 0x0 DUP1 PUSH1 0x40 DUP4 DUP6 SUB SLT ISZERO PUSH2 0x3DF JUMPI PUSH1 0x0 DUP1 REVERT JUMPDEST DUP3 CALLDATALOAD PUSH4 0xFFFFFFFF DUP2 AND DUP2 EQ PUSH2 0x3F3 JUMPI PUSH1 0x0 DUP1 REVERT JUMPDEST SWAP2 POP PUSH2 0x401 PUSH1 0x20 DUP5 ADD PUSH2 0x3AF JUMP JUMPDEST SWAP1 POP SWAP3 POP SWAP3 SWAP1 POP JUMP JUMPDEST DUP1 CALLDATALOAD PUSH2 0xFFFF DUP2 AND DUP2 EQ PUSH2 0x3C7 JUMPI PUSH1 0x0 DUP1 REVERT JUMPDEST DUP1 CALLDATALOAD PUSH1 0x1 PUSH1 0x1 PUSH1 0xA0 SHL SUB DUP2 AND DUP2 EQ PUSH2 0x3C7 JUMPI PUSH1 0x0 DUP1 REVERT JUMPDEST PUSH1 0x0 DUP1 PUSH1 0x0 DUP4 DUP6 SUB PUSH2 0x220 DUP2 SLT ISZERO PUSH2 0x44A JUMPI PUSH1 0x0 DUP1 REVERT JUMPDEST PUSH2 0x1E0 DUP1 DUP3 SLT ISZERO PUSH2 0x45A JUMPI PUSH1 0x0 DUP1 REVERT JUMPDEST DUP6 SWAP5 POP PUSH2 0x468 DUP2 DUP8 ADD PUSH2 0x40A JUMP JUMPDEST SWAP4 POP POP POP PUSH2 0x479 PUSH2 0x200 DUP6 ADD PUSH2 0x41C JUMP JUMPDEST SWAP1 POP SWAP3 POP SWAP3 POP SWAP3 JUMP JUMPDEST PUSH1 0x0 PUSH1 0x20 DUP3 DUP5 SUB SLT ISZERO PUSH2 0x494 JUMPI PUSH1 0x0 DUP1 REVERT JUMPDEST DUP2 CALLDATALOAD DUP1 ISZERO ISZERO DUP2 EQ PUSH2 0x4A4 JUMPI PUSH1 0x0 DUP1 REVERT JUMPDEST SWAP4 SWAP3 POP POP POP JUMP JUMPDEST PUSH1 0x0 PUSH1 0x20 DUP3 DUP5 SUB SLT ISZERO PUSH2 0x4BD JUMPI PUSH1 0x0 DUP1 REVERT JUMPDEST PUSH2 0x4A4 DUP3 PUSH2 0x41C JUMP JUMPDEST PUSH1 0x0 PUSH1 0x20 DUP3 DUP5 SUB SLT ISZERO PUSH2 0x4D8 JUMPI PUSH1 0x0 DUP1 REVERT JUMPDEST PUSH2 0x4A4 DUP3 PUSH2 0x40A JUMP JUMPDEST PUSH1 0x0 PUSH1 0x20 DUP3 DUP5 SUB SLT ISZERO PUSH2 0x4F3 JUMPI PUSH1 0x0 DUP1 REVERT JUMPDEST DUP2 CALLDATALOAD PUSH3 0xFFFFFF DUP2 AND DUP2 EQ PUSH2 0x4A4 JUMPI PUSH1 0x0 DUP1 REVERT JUMPDEST PUSH1 0x0 PUSH1 0x20 DUP3 DUP5 SUB SLT ISZERO PUSH2 0x518 JUMPI PUSH1 0x0 DUP1 REVERT JUMPDEST DUP2 CALLDATALOAD PUSH1 0x1 PUSH1 0x1 PUSH1 0x78 SHL SUB DUP2 AND DUP2 EQ PUSH2 0x4A4 JUMPI PUSH1 0x0 DUP1 REVERT JUMPDEST PUSH1 0x0 PUSH1 0x20 DUP3 DUP5 SUB SLT ISZERO PUSH2 0x541 JUMPI PUSH1 0x0 DUP1 REVERT JUMPDEST PUSH2 0x4A4 DUP3 PUSH2 0x3AF JUMP INVALID LOG2 PUSH5 0x6970667358 0x22 SLT KECCAK256 ADD 0x28 BLOCKHASH 0xA8 INVALID DUP13 PUSH14 0x62480A778AEB8236FD9423887213 0xAF PUSH8 0x9FDA322A00A135 0x2A PUSH5 0x736F6C6343 STOP ADDMOD SGT STOP CALLER "},"methodIdentifiers":{"closeTradeMarket(uint32,uint64)":"36ce736b","getTradeCount()":"a3031b77","openTrade((address,uint32,uint16,uint24,bool,bool,uint8,uint8,uint120,uint64,uint64,uint64,bool,uint160,uint24),uint16,address)":"5bfcc4f8","setShouldRevert(bool)":"6813d787","shouldRevert()":"d3072d82","trades(uint256)":"1e6c598e"}}}}}