{"contracts/GoldCopyTrader.sol":{"GoldCopyTrader":{"abi":[{"inputs":[{"internalType":"address","name":"_usdc","type":"address"},{"internalType":"address","name":"_diamond","type":"address"}],"stateMutability":"nonpayable","type":"constructor"},{"anonymous":false,"inputs":[{"indexed":false,"internalType":"uint256","name":"amount","type":"uint256"}],"name":"AdminDeposited","type":"event"},{"anonymous":false,"inputs":[{"indexed":true,"internalType":"address","name":"newAdmin","type":"address"}],"name":"AdminTransferStarted","type":"event"},{"anonymous":false,"inputs":[{"indexed":true,"internalType":"address","name":"oldAdmin","type":"address"},{"indexed":true,"internalType":"address","name":"newAdmin","type":"address"}],"name":"AdminTransferred","type":"event"},{"anonymous":false,"inputs":[{"indexed":true,"internalType":"address","name":"user","type":"address"},{"indexed":true,"internalType":"uint256","name":"signalId","type":"uint256"},{"indexed":false,"internalType":"uint256","name":"amount","type":"uint256"}],"name":"AutoCopied","type":"event"},{"anonymous":false,"inputs":[{"indexed":true,"internalType":"address","name":"user","type":"address"}],"name":"AutoCopyDisabled","type":"event"},{"anonymous":false,"inputs":[{"indexed":true,"internalType":"address","name":"user","type":"address"},{"indexed":false,"internalType":"uint256","name":"amount","type":"uint256"}],"name":"AutoCopyEnabled","type":"event"},{"anonymous":false,"inputs":[{"indexed":false,"internalType":"uint256","name":"newFeePercent","type":"uint256"}],"name":"FeeUpdated","type":"event"},{"anonymous":false,"inputs":[{"indexed":false,"internalType":"uint256","name":"amount","type":"uint256"}],"name":"FeesWithdrawn","type":"event"},{"anonymous":false,"inputs":[{"indexed":false,"internalType":"bool","name":"isPaused","type":"bool"}],"name":"Paused","type":"event"},{"anonymous":false,"inputs":[{"indexed":true,"internalType":"address","name":"user","type":"address"},{"indexed":true,"internalType":"uint256","name":"signalId","type":"uint256"},{"indexed":false,"internalType":"uint256","name":"payout","type":"uint256"},{"indexed":false,"internalType":"uint256","name":"fee","type":"uint256"}],"name":"ProceedsClaimed","type":"event"},{"anonymous":false,"inputs":[{"indexed":true,"internalType":"uint256","name":"signalId","type":"uint256"},{"indexed":false,"internalType":"int256","name":"resultPct","type":"int256"}],"name":"SignalClosed","type":"event"},{"anonymous":false,"inputs":[{"indexed":true,"internalType":"uint256","name":"signalId","type":"uint256"},{"indexed":false,"internalType":"bool","name":"long","type":"bool"},{"indexed":false,"internalType":"uint64","name":"entryPrice","type":"uint64"},{"indexed":false,"internalType":"uint64","name":"tp","type":"uint64"},{"indexed":false,"internalType":"uint64","name":"sl","type":"uint64"},{"indexed":false,"internalType":"uint24","name":"leverage","type":"uint24"}],"name":"SignalPosted","type":"event"},{"anonymous":false,"inputs":[{"indexed":true,"internalType":"address","name":"user","type":"address"},{"indexed":true,"internalType":"uint256","name":"signalId","type":"uint256"},{"indexed":false,"internalType":"uint256","name":"amount","type":"uint256"}],"name":"TradeCopied","type":"event"},{"inputs":[],"name":"BASIS_POINTS","outputs":[{"internalType":"uint256","name":"","type":"uint256"}],"stateMutability":"view","type":"function"},{"inputs":[],"name":"COPY_WINDOW","outputs":[{"internalType":"uint256","name":"","type":"uint256"}],"stateMutability":"view","type":"function"},{"inputs":[],"name":"EMERGENCY_DELAY","outputs":[{"internalType":"uint256","name":"","type":"uint256"}],"stateMutability":"view","type":"function"},{"inputs":[],"name":"MAX_RESULT_PCT","outputs":[{"internalType":"int256","name":"","type":"int256"}],"stateMutability":"view","type":"function"},{"inputs":[],"name":"MIN_COLLATERAL","outputs":[{"internalType":"uint256","name":"","type":"uint256"}],"stateMutability":"view","type":"function"},{"inputs":[],"name":"acceptAdmin","outputs":[],"stateMutability":"nonpayable","type":"function"},{"inputs":[],"name":"activeSignalId","outputs":[{"internalType":"uint256","name":"","type":"uint256"}],"stateMutability":"view","type":"function"},{"inputs":[],"name":"admin","outputs":[{"internalType":"address","name":"","type":"address"}],"stateMutability":"view","type":"function"},{"inputs":[{"internalType":"uint256","name":"_amount","type":"uint256"}],"name":"adminDeposit","outputs":[],"stateMutability":"nonpayable","type":"function"},{"inputs":[{"internalType":"address","name":"","type":"address"}],"name":"autoCopy","outputs":[{"internalType":"uint256","name":"amount","type":"uint256"},{"internalType":"bool","name":"enabled","type":"bool"}],"stateMutability":"view","type":"function"},{"inputs":[{"internalType":"uint256","name":"","type":"uint256"}],"name":"autoCopyUsers","outputs":[{"internalType":"address","name":"","type":"address"}],"stateMutability":"view","type":"function"},{"inputs":[{"internalType":"uint256","name":"_id","type":"uint256"}],"name":"cancelSignal","outputs":[],"stateMutability":"nonpayable","type":"function"},{"inputs":[{"internalType":"uint256","name":"_id","type":"uint256"}],"name":"claimProceeds","outputs":[],"stateMutability":"nonpayable","type":"function"},{"inputs":[{"internalType":"uint256","name":"_id","type":"uint256"},{"internalType":"int256","name":"_result","type":"int256"}],"name":"closeSignal","outputs":[],"stateMutability":"nonpayable","type":"function"},{"inputs":[{"internalType":"uint32","name":"_index","type":"uint32"},{"internalType":"uint64","name":"_expectedPrice","type":"uint64"}],"name":"closeTradeMarket","outputs":[],"stateMutability":"nonpayable","type":"function"},{"inputs":[{"internalType":"uint256","name":"_id","type":"uint256"},{"internalType":"uint256","name":"_amount","type":"uint256"}],"name":"copyTrade","outputs":[],"stateMutability":"nonpayable","type":"function"},{"inputs":[],"name":"diamond","outputs":[{"internalType":"contract IGNSMultiCollatDiamond","name":"","type":"address"}],"stateMutability":"view","type":"function"},{"inputs":[],"name":"disableAutoCopy","outputs":[],"stateMutability":"nonpayable","type":"function"},{"inputs":[{"internalType":"uint256","name":"_id","type":"uint256"}],"name":"emergencyWithdraw","outputs":[],"stateMutability":"nonpayable","type":"function"},{"inputs":[{"internalType":"uint256","name":"_amountPerTrade","type":"uint256"}],"name":"enableAutoCopy","outputs":[],"stateMutability":"nonpayable","type":"function"},{"inputs":[{"internalType":"address","name":"_user","type":"address"},{"internalType":"uint256","name":"_signalId","type":"uint256"}],"name":"executeCopyFor","outputs":[],"stateMutability":"nonpayable","type":"function"},{"inputs":[],"name":"feePercent","outputs":[{"internalType":"uint256","name":"","type":"uint256"}],"stateMutability":"view","type":"function"},{"inputs":[],"name":"getActiveSignalId","outputs":[{"internalType":"uint256","name":"","type":"uint256"}],"stateMutability":"view","type":"function"},{"inputs":[],"name":"getAutoCopyUserCount","outputs":[{"internalType":"uint256","name":"","type":"uint256"}],"stateMutability":"view","type":"function"},{"inputs":[],"name":"getAutoCopyUsers","outputs":[{"internalType":"address[]","name":"","type":"address[]"}],"stateMutability":"view","type":"function"},{"inputs":[{"internalType":"address","name":"_user","type":"address"},{"internalType":"uint256","name":"_id","type":"uint256"}],"name":"getExpectedPayout","outputs":[{"internalType":"uint256","name":"","type":"uint256"}],"stateMutability":"view","type":"function"},{"inputs":[{"internalType":"address","name":"_user","type":"address"}],"name":"getUserSignalIds","outputs":[{"internalType":"uint256[]","name":"","type":"uint256[]"}],"stateMutability":"view","type":"function"},{"inputs":[{"internalType":"address","name":"","type":"address"}],"name":"isAutoCopyUser","outputs":[{"internalType":"bool","name":"","type":"bool"}],"stateMutability":"view","type":"function"},{"inputs":[],"name":"nextTradeIndex","outputs":[{"internalType":"uint32","name":"","type":"uint32"}],"stateMutability":"view","type":"function"},{"inputs":[],"name":"paused","outputs":[{"internalType":"bool","name":"","type":"bool"}],"stateMutability":"view","type":"function"},{"inputs":[],"name":"pendingAdmin","outputs":[{"internalType":"address","name":"","type":"address"}],"stateMutability":"view","type":"function"},{"inputs":[{"internalType":"address","name":"","type":"address"},{"internalType":"uint256","name":"","type":"uint256"}],"name":"positions","outputs":[{"internalType":"uint256","name":"collateral","type":"uint256"},{"internalType":"uint32","name":"gTradeIndex","type":"uint32"},{"internalType":"bool","name":"claimed","type":"bool"}],"stateMutability":"view","type":"function"},{"inputs":[{"internalType":"bool","name":"_long","type":"bool"},{"internalType":"uint64","name":"_entry","type":"uint64"},{"internalType":"uint64","name":"_tp","type":"uint64"},{"internalType":"uint64","name":"_sl","type":"uint64"},{"internalType":"uint24","name":"_lev","type":"uint24"}],"name":"postSignal","outputs":[],"stateMutability":"nonpayable","type":"function"},{"inputs":[{"internalType":"uint256","name":"_fee","type":"uint256"}],"name":"setFeePercent","outputs":[],"stateMutability":"nonpayable","type":"function"},{"inputs":[{"internalType":"bool","name":"_paused","type":"bool"}],"name":"setPaused","outputs":[],"stateMutability":"nonpayable","type":"function"},{"inputs":[{"internalType":"uint256","name":"","type":"uint256"}],"name":"signalCore","outputs":[{"internalType":"bool","name":"long","type":"bool"},{"internalType":"bool","name":"active","type":"bool"},{"internalType":"bool","name":"closed","type":"bool"},{"internalType":"uint64","name":"entryPrice","type":"uint64"},{"internalType":"uint64","name":"tp","type":"uint64"},{"internalType":"uint64","name":"sl","type":"uint64"},{"internalType":"uint24","name":"leverage","type":"uint24"},{"internalType":"int256","name":"resultPct","type":"int256"},{"internalType":"uint256","name":"feeAtCreation","type":"uint256"}],"stateMutability":"view","type":"function"},{"inputs":[],"name":"signalCount","outputs":[{"internalType":"uint256","name":"","type":"uint256"}],"stateMutability":"view","type":"function"},{"inputs":[{"internalType":"uint256","name":"","type":"uint256"}],"name":"signalMeta","outputs":[{"internalType":"uint256","name":"timestamp","type":"uint256"},{"internalType":"uint256","name":"closedAt","type":"uint256"},{"internalType":"uint256","name":"totalCopied","type":"uint256"},{"internalType":"uint256","name":"copierCount","type":"uint256"}],"stateMutability":"view","type":"function"},{"inputs":[],"name":"totalFeesCollected","outputs":[{"internalType":"uint256","name":"","type":"uint256"}],"stateMutability":"view","type":"function"},{"inputs":[{"internalType":"address","name":"_newAdmin","type":"address"}],"name":"transferAdmin","outputs":[],"stateMutability":"nonpayable","type":"function"},{"inputs":[],"name":"usdc","outputs":[{"internalType":"contract IERC20","name":"","type":"address"}],"stateMutability":"view","type":"function"},{"inputs":[{"internalType":"address","name":"","type":"address"},{"internalType":"uint256","name":"","type":"uint256"}],"name":"userSignalIds","outputs":[{"internalType":"uint256","name":"","type":"uint256"}],"stateMutability":"view","type":"function"},{"inputs":[],"name":"withdrawFees","outputs":[],"stateMutability":"nonpayable","type":"function"}],"evm":{"bytecode":{"linkReferences":{},"object":"60c06040526107d06003553480156200001757600080fd5b5060405162003470380380620034708339810160408190526200003a9162000198565b6001600160a01b038216158015906200005b57506001600160a01b03811615155b620000995760405162461bcd60e51b81526020600482015260096024820152682d32b9379030b2323960b91b60448201526064015b60405180910390fd5b600080546001600160a01b0319163317905560016002556001600160a01b03828116608081905290821660a081905260405163095ea7b360e01b81526004810191909152600019602482015263095ea7b3906044016020604051808303816000875af11580156200010e573d6000803e3d6000fd5b505050506040513d601f19601f82011682018060405250810190620001349190620001d0565b620001735760405162461bcd60e51b815260206004820152600e60248201526d105c1c1c9bdd994819985a5b195960921b604482015260640162000090565b5050620001fb565b80516001600160a01b03811681146200019357600080fd5b919050565b60008060408385031215620001ac57600080fd5b620001b7836200017b565b9150620001c7602084016200017b565b90509250929050565b600060208284031215620001e357600080fd5b81518015158114620001f457600080fd5b9392505050565b60805160a0516131fb62000275600039600081816106ce01528181610b700152612c1c015260008181610335015281816107b501528181610c9001528181610ee601528181610fe7015281816113c0015281816114c1015281816118d50152818161268e0152818161273601526129e301526131fb6000f3fe608060405234801561001057600080fd5b50600436106102695760003560e01c806380447e3211610151578063be55b9e5116100c3578063e1f1c4a711610087578063e1f1c4a7146106ad578063e6b8d04f146106b6578063f0b7db4e146106c9578063f851a440146106f0578063fa77964814610703578063fc6fee9c1461070d57600080fd5b8063be55b9e51461060d578063c1be667714610622578063c8541cf114610689578063cfb1891614610692578063d89052f51461069a57600080fd5b8063a1dd575211610115578063a1dd5752146105a0578063a5519036146105b3578063a5534664146105c6578063a5eda181146105d9578063ae0041aa146105e1578063b9341b1c146105ea57600080fd5b806380447e32146104dc57806382944e2d14610531578063840f51f51461053b5780638e1f4fcf1461054e57806399d8528e1461058d57600080fd5b8063476343ee116101ea57806375829def116101ae57806375829def146103b0578063783e9f71146103c35780637a88d0b5146103d65780637ce3489b146104ad5780637ee7cf14146104c05780637fd6f15c146104d357600080fd5b8063476343ee146103605780634cb96a92146103685780635312ea8e146103705780635c975abb1461038357806360c6d8ae146103a757600080fd5b806330cb5b4a1161023157806330cb5b4a146102f357806331794a031461030a57806336ce736b1461031d5780633e413bee1461033057806342c9c4211461035757600080fd5b8063086877941461026e5780630e18b6811461028357806316c38b3c1461028b578063267822471461029e5780632e1b5124146102ce575b600080fd5b61028161027c366004612c94565b61072d565b005b61028161087c565b610281610299366004612cbe565b61092e565b6001546102b1906001600160a01b031681565b6040516001600160a01b0390911681526020015b60405180910390f35b6006546102de9063ffffffff1681565b60405163ffffffff90911681526020016102c5565b6102fc60075481565b6040519081526020016102c5565b610281610318366004612c94565b6109b0565b61028161032b366004612cfe565b610b1c565b6102b17f000000000000000000000000000000000000000000000000000000000000000081565b6102fc610e1081565b610281610bd8565b6007546102fc565b61028161037e366004612c94565b610d4b565b60015461039790600160a01b900460ff1681565b60405190151581526020016102c5565b6102fc60055481565b6102816103be366004612d53565b611086565b6102816103d1366004612c94565b61113c565b6104516103e4366004612c94565b60086020526000908152604090208054600182015460029092015460ff80831693610100840482169362010000810490921692630100000083046001600160401b0390811693600160581b8104821693600160981b820490921692600160d81b90910462ffffff16919089565b604080519915158a5297151560208a0152951515968801969096526001600160401b039384166060880152918316608087015290911660a085015262ffffff1660c084015260e0830191909152610100820152610120016102c5565b6102816104bb366004612c94565b611561565b6102816104ce366004612d6e565b6115fc565b6102fc60035481565b6105116104ea366004612c94565b60096020526000908152604090208054600182015460028301546003909301549192909184565b6040805194855260208501939093529183015260608201526080016102c5565b6102fc62093a8081565b610281610549366004612c94565b61199e565b61057861055c366004612d53565b600c602052600090815260409020805460019091015460ff1682565b604080519283529015156020830152016102c5565b61028161059b366004612d90565b611ade565b6102816105ae366004612d6e565b611fda565b6102fc6105c1366004612e03565b612178565b6102fc6105d4366004612e03565b6122f8565b610281612329565b6102fc60045481565b6103976105f8366004612d53565b600d6020526000908152604090205460ff1681565b6106156123bb565b6040516102c59190612e2d565b610667610630366004612e03565b600a6020908152600092835260408084209091529082529020805460019091015463ffffffff811690640100000000900460ff1683565b6040805193845263ffffffff90921660208401521515908201526060016102c5565b6102fc61138881565b600e546102fc565b6102b16106a8366004612c94565b61241d565b6102fc61271081565b6102816106c4366004612e03565b612447565b6102b17f000000000000000000000000000000000000000000000000000000000000000081565b6000546102b1906001600160a01b031681565b6102fc624c4b4081565b61072061071b366004612d53565b612aa9565b6040516102c59190612e7a565b6000546001600160a01b031633146107605760405162461bcd60e51b815260040161075790612eb2565b60405180910390fd5b6002546002036107825760405162461bcd60e51b815260040161075790612ed5565b600280556000546040516323b872dd60e01b81526001600160a01b039182166004820152306024820152604481018390527f0000000000000000000000000000000000000000000000000000000000000000909116906323b872dd906064016020604051808303816000875af1158015610800573d6000803e3d6000fd5b505050506040513d601f19601f820116820180604052508101906108249190612ef8565b6108405760405162461bcd60e51b815260040161075790612f15565b6040518181527fb0daddc179952de74346a5e7759111c9edc9f99ca9204e97c889b85fb55b55c7906020015b60405180910390a1506001600255565b6001546001600160a01b031633146108ca5760405162461bcd60e51b81526020600482015260116024820152702737ba103832b73234b7339030b236b4b760791b6044820152606401610757565b600154600080546040516001600160a01b0393841693909116917ff8ccb027dfcd135e000e9d45e6cc2d662578a8825d4c45b5e32e0adf67e79ec691a360018054600080546001600160a01b03199081166001600160a01b03841617909155169055565b6000546001600160a01b031633146109585760405162461bcd60e51b815260040161075790612eb2565b60018054821515600160a01b0260ff60a01b199091161790556040517f0e2fb031ee032dc02d8011dc50b816eb450cf856abd8261680dac74f72165bd2906109a590831515815260200190565b60405180910390a150565b624c4b408110156109f05760405162461bcd60e51b815260206004820152600a6024820152694d696e2035205553444360b01b6044820152606401610757565b6001600160781b03811115610a3a5760405162461bcd60e51b815260206004820152601060248201526f416d6f756e7420746f6f206c6172676560801b6044820152606401610757565b336000908152600d602052604090205460ff16610aac57600e805460018181019092557fbb7b4a454dc3493923482f07822329ed19e8244eff582cc204f8554c3620c3fd0180546001600160a01b031916339081179091556000908152600d60205260409020805460ff191690911790555b60408051808201825282815260016020808301828152336000818152600c845286902094518555905193909201805460ff19169315159390931790925591518381527f5bccc6c4e703e8efb2f9943a5958ab7ee60a3820c301ab1d6009b6549aa75e8e910160405180910390a250565b6000546001600160a01b03163314610b465760405162461bcd60e51b815260040161075790612eb2565b6040516336ce736b60e01b815263ffffffff831660048201526001600160401b03821660248201527f00000000000000000000000000000000000000000000000000000000000000006001600160a01b0316906336ce736b90604401600060405180830381600087803b158015610bbc57600080fd5b505af1158015610bd0573d6000803e3d6000fd5b505050505050565b6000546001600160a01b03163314610c025760405162461bcd60e51b815260040161075790612eb2565b600254600203610c245760405162461bcd60e51b815260040161075790612ed5565b6002805560055480610c625760405162461bcd60e51b81526020600482015260076024820152664e6f206665657360c81b6044820152606401610757565b600060058190555460405163a9059cbb60e01b81526001600160a01b039182166004820152602481018390527f00000000000000000000000000000000000000000000000000000000000000009091169063a9059cbb906044016020604051808303816000875af1158015610cdb573d6000803e3d6000fd5b505050506040513d601f19601f82011682018060405250810190610cff9190612ef8565b610d1b5760405162461bcd60e51b815260040161075790612f15565b6040518181527f9800e6f57aeb4360eaa72295a820a4293e1e66fbfcabcd8874ae141304a76deb9060200161086c565b600254600203610d6d5760405162461bcd60e51b815260040161075790612ed5565b6002805560008181526008602052604090208054610100900460ff168015610d9d5750805462010000900460ff16155b610db95760405162461bcd60e51b815260040161075790612f35565b600082815260096020526040902054610dd69062093a8090612f6f565b4211610e105760405162461bcd60e51b8152602060048201526009602482015268546f6f206561726c7960b81b6044820152606401610757565b336000908152600a6020908152604080832085845290915290208054610e665760405162461bcd60e51b815260206004820152600b60248201526a2737903837b9b4ba34b7b760a91b6044820152606401610757565b6001810154640100000000900460ff1615610ead5760405162461bcd60e51b815260206004820152600760248201526610db185a5b595960ca1b6044820152606401610757565b60018101805464ff00000000191664010000000017905580546040516370a0823160e01b81523060048201526000906001600160a01b037f000000000000000000000000000000000000000000000000000000000000000016906370a0823190602401602060405180830381865afa158015610f2d573d6000803e3d6000fd5b505050506040513d601f19601f82011682018060405250810190610f519190612f82565b905060006005548211610f65576000610f72565b600554610f729083612f9b565b90506000818411610f835783610f85565b815b6040805182815260006020820152919250889133917fe6eaa9e244e3ac7b66d442524b15004802abd126e7ffd91eec5703890df31053910160405180910390a380156110785760405163a9059cbb60e01b8152336004820152602481018290527f00000000000000000000000000000000000000000000000000000000000000006001600160a01b03169063a9059cbb906044016020604051808303816000875af1158015611038573d6000803e3d6000fd5b505050506040513d601f19601f8201168201806040525081019061105c9190612ef8565b6110785760405162461bcd60e51b815260040161075790612f15565b505060016002555050505050565b6000546001600160a01b031633146110b05760405162461bcd60e51b815260040161075790612eb2565b6001600160a01b0381166110f25760405162461bcd60e51b81526020600482015260096024820152682d32b9379030b2323960b91b6044820152606401610757565b600180546001600160a01b0319166001600160a01b0383169081179091556040517f7e5a44b25c18c9c756d8bb0c33e9f77d9ab83dc254932c8a69436f23ab74f63490600090a250565b60025460020361115e5760405162461bcd60e51b815260040161075790612ed5565b600280556000818152600860205260409020805462010000900460ff166111b45760405162461bcd60e51b815260206004820152600a602482015269139bdd0818db1bdcd95960b21b6044820152606401610757565b336000908152600a602090815260408083208584529091529020805461120a5760405162461bcd60e51b815260206004820152600b60248201526a2737903837b9b4ba34b7b760a91b6044820152606401610757565b6001810154640100000000900460ff16156112515760405162461bcd60e51b815260206004820152600760248201526610db185a5b595960ca1b6044820152606401610757565b6001818101805464ff000000001916640100000000179055815490830154600090819081136113385784546001860154600091600160d81b900462ffffff169061129b9086612fae565b6112a59190612fae565b90506112b361271080612fae565b6112bf906103e8612fae565b60028701546112ce9083612fae565b6112d89190612fc5565b915060006112ea6127106103e8612fae565b6112f49083612fc5565b905080831115611302578092505b82600560008282546113149190612f6f565b909155508390506113258287612f6f565b61132f9190612f9b565b935050506113a8565b60006113486127106103e8612fae565b86546001880154600160d81b90910462ffffff169061136690612fe7565b6113709087612fae565b61137a9190612fae565b6113849190612fc5565b90508381101561139d576113988185612f9b565b6113a0565b60005b925060009150505b6040516370a0823160e01b81523060048201526000907f00000000000000000000000000000000000000000000000000000000000000006001600160a01b0316906370a0823190602401602060405180830381865afa15801561140f573d6000803e3d6000fd5b505050506040513d601f19601f820116820180604052508101906114339190612f82565b905060006005548211611447576000611454565b6005546114549083612f9b565b905080841115611462578093505b6040805185815260208101859052899133917fe6eaa9e244e3ac7b66d442524b15004802abd126e7ffd91eec5703890df31053910160405180910390a383156115525760405163a9059cbb60e01b8152336004820152602481018590527f00000000000000000000000000000000000000000000000000000000000000006001600160a01b03169063a9059cbb906044016020604051808303816000875af1158015611512573d6000803e3d6000fd5b505050506040513d601f19601f820116820180604052508101906115369190612ef8565b6115525760405162461bcd60e51b815260040161075790612f15565b50506001600255505050505050565b6000546001600160a01b0316331461158b5760405162461bcd60e51b815260040161075790612eb2565b6107d08111156115c75760405162461bcd60e51b81526020600482015260076024820152664d61782032302560c81b6044820152606401610757565b60038190556040518181527f8c4d35e54a3f2ef1134138fd8ea3daee6a3c89e10d2665996babdf70261e2c76906020016109a5565b600154600160a01b900460ff16156116265760405162461bcd60e51b815260040161075790613003565b6002546002036116485760405162461bcd60e51b815260040161075790612ed5565b6002805560008281526008602052604090208054610100900460ff1680156116785750805462010000900460ff16155b6116945760405162461bcd60e51b815260040161075790612f35565b6000838152600960205260409020546116b090610e1090612f6f565b4211156116f45760405162461bcd60e51b815260206004820152601260248201527110dbdc1e481dda5b991bddc818db1bdcd95960721b6044820152606401610757565b624c4b408210156117345760405162461bcd60e51b815260206004820152600a6024820152694d696e2035205553444360b01b6044820152606401610757565b336000908152600a602090815260408083208684529091529020541561178d5760405162461bcd60e51b815260206004820152600e60248201526d105b1c9958591e4818dbdc1a595960921b6044820152606401610757565b6006805463ffffffff1690819060006117a583613023565b825463ffffffff9182166101009390930a928302928202191691909117909155604080516060810182528681528483166020808301918252600083850181815233808352600a84528683208d8452845286832095518655935160019586018054925115156401000000000264ffffffffff19909316919098161717909555908452600b815282842080549283018155845280842090910188905587835260099052812060028101805491935086929091611860908490612f6f565b909155505060038101805490600061187783613046565b9091555050604051848152859033907f0781b72d927fc2fcfd2be33c7fbfa6c56aaf0a10406aee7bb7538f0e522bf0bc9060200160405180910390a36040516323b872dd60e01b8152336004820152306024820152604481018590527f00000000000000000000000000000000000000000000000000000000000000006001600160a01b0316906323b872dd906064016020604051808303816000875af1158015611926573d6000803e3d6000fd5b505050506040513d601f19601f8201168201806040525081019061194a9190612ef8565b6119885760405162461bcd60e51b815260206004820152600f60248201526e151c985b9cd9995c8819985a5b1959608a1b6044820152606401610757565b6119928385612b15565b50506001600255505050565b6000546001600160a01b031633146119c85760405162461bcd60e51b815260040161075790612eb2565b6007548114611a0d5760405162461bcd60e51b8152602060048201526011602482015270139bdd081858dd1a5d99481cda59db985b607a1b6044820152606401610757565b60008181526008602052604090208054610100900460ff168015611a395750805462010000900460ff16155b611a6f5760405162461bcd60e51b8152602060048201526007602482015266125b9d985b1a5960ca1b6044820152606401610757565b805462ffff0019166201000017815560006001808301829055838252600960205260408083204292019190915560078290555183917f40277e9171139c6aea3baad573ce3b0f843e17979f9b03706fe89b0ebea1cbff91611ad291815260200190565b60405180910390a25050565b6000546001600160a01b03163314611b085760405162461bcd60e51b815260040161075790612eb2565b600154600160a01b900460ff1615611b325760405162461bcd60e51b815260040161075790613003565b6107d08162ffffff1610158015611b5157506203d0908162ffffff1611155b611b8b5760405162461bcd60e51b815260206004820152600b60248201526a098caec4064f05a646a60f60ab1b6044820152606401610757565b6000846001600160401b0316118015611bad57506000836001600160401b0316115b8015611bc257506000826001600160401b0316115b611bfb5760405162461bcd60e51b815260206004820152600a6024820152694261642070726963657360b01b6044820152606401610757565b60075415611c4b5760405162461bcd60e51b815260206004820152601960248201527f436c6f736520616374697665207369676e616c206669727374000000000000006044820152606401610757565b8415611cc857836001600160401b0316836001600160401b0316118015611c835750836001600160401b0316826001600160401b0316105b611cc35760405162461bcd60e51b8152602060048201526011602482015270131bdb99ce8815140f995b9d1c9e4f94d3607a1b6044820152606401610757565b611d3b565b836001600160401b0316836001600160401b0316108015611cfa5750836001600160401b0316826001600160401b0316115b611d3b5760405162461bcd60e51b815260206004820152601260248201527114da1bdc9d0e8815140f195b9d1c9e4f14d360721b6044820152606401610757565b60048054906000611d4b83613046565b91905055506040518061012001604052808615158152602001600115158152602001600015158152602001856001600160401b03168152602001846001600160401b03168152602001836001600160401b031681526020018262ffffff1681526020016000815260200160035481525060086000600454815260200190815260200160002060008201518160000160006101000a81548160ff02191690831515021790555060208201518160000160016101000a81548160ff02191690831515021790555060408201518160000160026101000a81548160ff02191690831515021790555060608201518160000160036101000a8154816001600160401b0302191690836001600160401b03160217905550608082015181600001600b6101000a8154816001600160401b0302191690836001600160401b0316021790555060a08201518160000160136101000a8154816001600160401b0302191690836001600160401b0316021790555060c082015181600001601b6101000a81548162ffffff021916908362ffffff16021790555060e082015181600101556101008201518160020155905050604051806080016040528042815260200160008152602001600081526020016000815250600960006004548152602001908152602001600020600082015181600001556020820151816001015560408201518160020155606082015181600301559050506004546007819055506004547fb3d05fed32daec5aa56697b6be763432a7921ad08804e3fd7be57f5ffd8e84db8686868686604051611fcb95949392919094151585526001600160401b0393841660208601529183166040850152909116606083015262ffffff16608082015260a00190565b60405180910390a25050505050565b6000546001600160a01b031633146120045760405162461bcd60e51b815260040161075790612eb2565b60075482146120495760405162461bcd60e51b8152602060048201526011602482015270139bdd081858dd1a5d99481cda59db985b607a1b6044820152606401610757565b612054611388612fe7565b811215801561206557506113888113155b6120a75760405162461bcd60e51b8152602060048201526013602482015272526573756c74206f7574206f662072616e676560681b6044820152606401610757565b60008281526008602052604090208054610100900460ff1680156120d35750805462010000900460ff16155b6121095760405162461bcd60e51b8152602060048201526007602482015266125b9d985b1a5960ca1b6044820152606401610757565b805462ffff001916620100001781556001808201839055600084815260096020526040808220429301929092556007555183907f40277e9171139c6aea3baad573ce3b0f843e17979f9b03706fe89b0ebea1cbff9061216b9085815260200190565b60405180910390a2505050565b60008181526008602090815260408083206001600160a01b0386168452600a83528184208585529092528220548015806121ba5750815462010000900460ff16155b156121ca576000925050506122f2565b60008260010154126122815781546001830154600091600160d81b900462ffffff16906121f79084612fae565b6122019190612fae565b9050600061221161271080612fae565b61221d906103e8612fae565b600285015461222c9084612fae565b6122369190612fc5565b905060006122486127106103e8612fae565b6122529084612fc5565b905080821115612260578091505b8161226b8286612f6f565b6122759190612f9b565b955050505050506122f2565b60006122916127106103e8612fae565b83546001850154600160d81b90910462ffffff16906122af90612fe7565b6122b99085612fae565b6122c39190612fae565b6122cd9190612fc5565b90508181106122e257600093505050506122f2565b6122ec8183612f9b565b93505050505b92915050565b600b602052816000526040600020818154811061231457600080fd5b90600052602060002001600091509150505481565b336000908152600c602052604090206001015460ff166123795760405162461bcd60e51b815260206004820152600b60248201526a139bdd08195b98589b195960aa1b6044820152606401610757565b336000818152600c6020526040808220600101805460ff19169055517fc3f8909f4265c5b63d7d761bd8e16f650147eafd2ba56de2cea36f4080fcbba39190a2565b6060600e80548060200260200160405190810160405280929190818152602001828054801561241357602002820191906000526020600020905b81546001600160a01b031681526001909101906020018083116123f5575b5050505050905090565b600e818154811061242d57600080fd5b6000918252602090912001546001600160a01b0316905081565b6000546001600160a01b031633146124715760405162461bcd60e51b815260040161075790612eb2565b600154600160a01b900460ff161561249b5760405162461bcd60e51b815260040161075790613003565b6002546002036124bd5760405162461bcd60e51b815260040161075790612ed5565b600280556001600160a01b0382166000908152600c60205260409020600181015460ff1661251b5760405162461bcd60e51b815260206004820152600b60248201526a139bdd08195b98589b195960aa1b6044820152606401610757565b8054624c4b4011156125605760405162461bcd60e51b815260206004820152600e60248201526d416d6f756e7420746f6f206c6f7760901b6044820152606401610757565b60008281526008602052604090208054610100900460ff16801561258c5750805462010000900460ff16155b6125a85760405162461bcd60e51b815260040161075790612f35565b6000838152600960205260409020546125c490610e1090612f6f565b4211156126085760405162461bcd60e51b815260206004820152601260248201527110dbdc1e481dda5b991bddc818db1bdcd95960721b6044820152606401610757565b6001600160a01b0384166000908152600a602090815260408083208684529091529020541561266a5760405162461bcd60e51b815260206004820152600e60248201526d105b1c9958591e4818dbdc1a595960921b6044820152606401610757565b81546040516370a0823160e01b81526001600160a01b0386811660048301526000917f0000000000000000000000000000000000000000000000000000000000000000909116906370a0823190602401602060405180830381865afa1580156126d7573d6000803e3d6000fd5b505050506040513d601f19601f820116820180604052508101906126fb9190612f82565b90508181101561270e5750505050612aa0565b604051636eb1769f60e11b81526001600160a01b0387811660048301523060248301526000917f00000000000000000000000000000000000000000000000000000000000000009091169063dd62ed3e90604401602060405180830381865afa15801561277f573d6000803e3d6000fd5b505050506040513d601f19601f820116820180604052508101906127a39190612f82565b9050828110156127b7575050505050612aa0565b6006805463ffffffff1690819060006127cf83613023565b91906101000a81548163ffffffff021916908363ffffffff1602179055505060405180606001604052808581526020018263ffffffff16815260200160001515815250600a60008a6001600160a01b03166001600160a01b0316815260200190815260200160002060008981526020019081526020016000206000820151816000015560208201518160010160006101000a81548163ffffffff021916908363ffffffff16021790555060408201518160010160046101000a81548160ff021916908315150217905550905050600b6000896001600160a01b03166001600160a01b031681526020019081526020016000208790806001815401808255809150506001900390600052602060002001600090919091909150556000600960008981526020019081526020016000209050848160020160008282546129139190612f6f565b909155505060038101805490600061292a83613046565b919050555087896001600160a01b03167f50970995f776987bcfd0053b1488bc9823f1c134be16465d2a4d8a6701ecaa828760405161296b91815260200190565b60405180910390a387896001600160a01b03167f0781b72d927fc2fcfd2be33c7fbfa6c56aaf0a10406aee7bb7538f0e522bf0bc876040516129af91815260200190565b60405180910390a36040516323b872dd60e01b81526001600160a01b038a81166004830152306024830152604482018790527f000000000000000000000000000000000000000000000000000000000000000016906323b872dd906064016020604051808303816000875af1158015612a2c573d6000803e3d6000fd5b505050506040513d601f19601f82011682018060405250810190612a509190612ef8565b612a8e5760405162461bcd60e51b815260206004820152600f60248201526e151c985b9cd9995c8819985a5b1959608a1b6044820152606401610757565b612a988686612b15565b505050505050505b50506001600255565b6001600160a01b0381166000908152600b6020908152604091829020805483518184028101840190945280845260609392830182828015612b0957602002820191906000526020600020905b815481526020019060010190808311612af5575b50505050509050919050565b6001600160781b03811115612b5f5760405162461bcd60e51b815260206004820152601060248201526f416d6f756e7420746f6f206c6172676560801b6044820152606401610757565b604080516101e081018252308152600060208201819052605a82840152845462ffffff600160d81b820416606084015260ff811615156080840152600160a0840152600360c084015260e083018290526001600160781b0385166101008401526001600160401b03630100000082048116610120850152600160581b82048116610140850152600160981b9091041661016083015261018082018190526101a082018190526101c082018190529151630b7f989f60e31b815290917f00000000000000000000000000000000000000000000000000000000000000006001600160a01b031691635bfcc4f891612c5d9185916103e891600401613081565b600060405180830381600087803b158015612c7757600080fd5b505af1158015612c8b573d6000803e3d6000fd5b50505050505050565b600060208284031215612ca657600080fd5b5035919050565b8015158114612cbb57600080fd5b50565b600060208284031215612cd057600080fd5b8135612cdb81612cad565b9392505050565b80356001600160401b0381168114612cf957600080fd5b919050565b60008060408385031215612d1157600080fd5b823563ffffffff81168114612d2557600080fd5b9150612d3360208401612ce2565b90509250929050565b80356001600160a01b0381168114612cf957600080fd5b600060208284031215612d6557600080fd5b612cdb82612d3c565b60008060408385031215612d8157600080fd5b50508035926020909101359150565b600080600080600060a08688031215612da857600080fd5b8535612db381612cad565b9450612dc160208701612ce2565b9350612dcf60408701612ce2565b9250612ddd60608701612ce2565b9150608086013562ffffff81168114612df557600080fd5b809150509295509295909350565b60008060408385031215612e1657600080fd5b612e1f83612d3c565b946020939093013593505050565b6020808252825182820181905260009190848201906040850190845b81811015612e6e5783516001600160a01b031683529284019291840191600101612e49565b50909695505050505050565b6020808252825182820181905260009190848201906040850190845b81811015612e6e57835183529284019291840191600101612e96565b6020808252600990820152682737ba1030b236b4b760b91b604082015260600190565b6020808252600990820152681499595b9d1c985b9d60ba1b604082015260600190565b600060208284031215612f0a57600080fd5b8151612cdb81612cad565b60208082526006908201526511985a5b195960d21b604082015260600190565b6020808252600a90820152694e6f742061637469766560b01b604082015260600190565b634e487b7160e01b600052601160045260246000fd5b808201808211156122f2576122f2612f59565b600060208284031215612f9457600080fd5b5051919050565b818103818111156122f2576122f2612f59565b80820281158282048414176122f2576122f2612f59565b600082612fe257634e487b7160e01b600052601260045260246000fd5b500490565b6000600160ff1b8201612ffc57612ffc612f59565b5060000390565b60208082526006908201526514185d5cd95960d21b604082015260600190565b600063ffffffff80831681810361303c5761303c612f59565b6001019392505050565b60006001820161305857613058612f59565b5060010190565b6003811061307d57634e487b7160e01b600052602160045260246000fd5b9052565b83516001600160a01b03168152610220810160208501516130aa602084018263ffffffff169052565b5060408501516130c0604084018261ffff169052565b5060608501516130d7606084018262ffffff169052565b5060808501516130eb608084018215159052565b5060a08501516130ff60a084018215159052565b5060c085015161311460c084018260ff169052565b5060e085015161312760e084018261305f565b50610100858101516001600160781b031690830152610120808601516001600160401b0390811691840191909152610140808701518216908401526101608087015190911690830152610180808601511515908301526101a0808601516001600160a01b03908116918401919091526101c09586015162ffffff169583019590955261ffff939093166101e08201529216610200909201919091529056fea264697066735822122010246d670d34c87adefe70e79ed3fea75c60bd92d3e7bf2508ffd622aa2b880264736f6c63430008130033","opcodes":"PUSH1 0xC0 PUSH1 0x40 MSTORE PUSH2 0x7D0 PUSH1 0x3 SSTORE CALLVALUE DUP1 ISZERO PUSH3 0x17 JUMPI PUSH1 0x0 DUP1 REVERT JUMPDEST POP PUSH1 0x40 MLOAD PUSH3 0x3470 CODESIZE SUB DUP1 PUSH3 0x3470 DUP4 CODECOPY DUP2 ADD PUSH1 0x40 DUP2 SWAP1 MSTORE PUSH3 0x3A SWAP2 PUSH3 0x198 JUMP JUMPDEST PUSH1 0x1 PUSH1 0x1 PUSH1 0xA0 SHL SUB DUP3 AND ISZERO DUP1 ISZERO SWAP1 PUSH3 0x5B JUMPI POP PUSH1 0x1 PUSH1 0x1 PUSH1 0xA0 SHL SUB DUP2 AND ISZERO ISZERO JUMPDEST PUSH3 0x99 JUMPI PUSH1 0x40 MLOAD PUSH3 0x461BCD PUSH1 0xE5 SHL DUP2 MSTORE PUSH1 0x20 PUSH1 0x4 DUP3 ADD MSTORE PUSH1 0x9 PUSH1 0x24 DUP3 ADD MSTORE PUSH9 0x2D32B9379030B23239 PUSH1 0xB9 SHL PUSH1 0x44 DUP3 ADD MSTORE PUSH1 0x64 ADD JUMPDEST PUSH1 0x40 MLOAD DUP1 SWAP2 SUB SWAP1 REVERT JUMPDEST PUSH1 0x0 DUP1 SLOAD PUSH1 0x1 PUSH1 0x1 PUSH1 0xA0 SHL SUB NOT AND CALLER OR SWAP1 SSTORE PUSH1 0x1 PUSH1 0x2 SSTORE PUSH1 0x1 PUSH1 0x1 PUSH1 0xA0 SHL SUB DUP3 DUP2 AND PUSH1 0x80 DUP2 SWAP1 MSTORE SWAP1 DUP3 AND PUSH1 0xA0 DUP2 SWAP1 MSTORE PUSH1 0x40 MLOAD PUSH4 0x95EA7B3 PUSH1 0xE0 SHL DUP2 MSTORE PUSH1 0x4 DUP2 ADD SWAP2 SWAP1 SWAP2 MSTORE PUSH1 0x0 NOT PUSH1 0x24 DUP3 ADD MSTORE PUSH4 0x95EA7B3 SWAP1 PUSH1 0x44 ADD PUSH1 0x20 PUSH1 0x40 MLOAD DUP1 DUP4 SUB DUP2 PUSH1 0x0 DUP8 GAS CALL ISZERO DUP1 ISZERO PUSH3 0x10E JUMPI RETURNDATASIZE PUSH1 0x0 DUP1 RETURNDATACOPY RETURNDATASIZE PUSH1 0x0 REVERT JUMPDEST POP POP POP POP PUSH1 0x40 MLOAD RETURNDATASIZE PUSH1 0x1F NOT PUSH1 0x1F DUP3 ADD AND DUP3 ADD DUP1 PUSH1 0x40 MSTORE POP DUP2 ADD SWAP1 PUSH3 0x134 SWAP2 SWAP1 PUSH3 0x1D0 JUMP JUMPDEST PUSH3 0x173 JUMPI PUSH1 0x40 MLOAD PUSH3 0x461BCD PUSH1 0xE5 SHL DUP2 MSTORE PUSH1 0x20 PUSH1 0x4 DUP3 ADD MSTORE PUSH1 0xE PUSH1 0x24 DUP3 ADD MSTORE PUSH14 0x105C1C1C9BDD994819985A5B1959 PUSH1 0x92 SHL PUSH1 0x44 DUP3 ADD MSTORE PUSH1 0x64 ADD PUSH3 0x90 JUMP JUMPDEST POP POP PUSH3 0x1FB JUMP JUMPDEST DUP1 MLOAD PUSH1 0x1 PUSH1 0x1 PUSH1 0xA0 SHL SUB DUP2 AND DUP2 EQ PUSH3 0x193 JUMPI PUSH1 0x0 DUP1 REVERT JUMPDEST SWAP2 SWAP1 POP JUMP JUMPDEST PUSH1 0x0 DUP1 PUSH1 0x40 DUP4 DUP6 SUB SLT ISZERO PUSH3 0x1AC JUMPI PUSH1 0x0 DUP1 REVERT JUMPDEST PUSH3 0x1B7 DUP4 PUSH3 0x17B JUMP JUMPDEST SWAP2 POP PUSH3 0x1C7 PUSH1 0x20 DUP5 ADD PUSH3 0x17B JUMP JUMPDEST SWAP1 POP SWAP3 POP SWAP3 SWAP1 POP JUMP JUMPDEST PUSH1 0x0 PUSH1 0x20 DUP3 DUP5 SUB SLT ISZERO PUSH3 0x1E3 JUMPI PUSH1 0x0 DUP1 REVERT JUMPDEST DUP2 MLOAD DUP1 ISZERO ISZERO DUP2 EQ PUSH3 0x1F4 JUMPI PUSH1 0x0 DUP1 REVERT JUMPDEST SWAP4 SWAP3 POP POP POP JUMP JUMPDEST PUSH1 0x80 MLOAD PUSH1 0xA0 MLOAD PUSH2 0x31FB PUSH3 0x275 PUSH1 0x0 CODECOPY PUSH1 0x0 DUP2 DUP2 PUSH2 0x6CE ADD MSTORE DUP2 DUP2 PUSH2 0xB70 ADD MSTORE PUSH2 0x2C1C ADD MSTORE PUSH1 0x0 DUP2 DUP2 PUSH2 0x335 ADD MSTORE DUP2 DUP2 PUSH2 0x7B5 ADD MSTORE DUP2 DUP2 PUSH2 0xC90 ADD MSTORE DUP2 DUP2 PUSH2 0xEE6 ADD MSTORE DUP2 DUP2 PUSH2 0xFE7 ADD MSTORE DUP2 DUP2 PUSH2 0x13C0 ADD MSTORE DUP2 DUP2 PUSH2 0x14C1 ADD MSTORE DUP2 DUP2 PUSH2 0x18D5 ADD MSTORE DUP2 DUP2 PUSH2 0x268E ADD MSTORE DUP2 DUP2 PUSH2 0x2736 ADD MSTORE PUSH2 0x29E3 ADD MSTORE PUSH2 0x31FB PUSH1 0x0 RETURN INVALID PUSH1 0x80 PUSH1 0x40 MSTORE CALLVALUE DUP1 ISZERO PUSH2 0x10 JUMPI PUSH1 0x0 DUP1 REVERT JUMPDEST POP PUSH1 0x4 CALLDATASIZE LT PUSH2 0x269 JUMPI PUSH1 0x0 CALLDATALOAD PUSH1 0xE0 SHR DUP1 PUSH4 0x80447E32 GT PUSH2 0x151 JUMPI DUP1 PUSH4 0xBE55B9E5 GT PUSH2 0xC3 JUMPI DUP1 PUSH4 0xE1F1C4A7 GT PUSH2 0x87 JUMPI DUP1 PUSH4 0xE1F1C4A7 EQ PUSH2 0x6AD JUMPI DUP1 PUSH4 0xE6B8D04F EQ PUSH2 0x6B6 JUMPI DUP1 PUSH4 0xF0B7DB4E EQ PUSH2 0x6C9 JUMPI DUP1 PUSH4 0xF851A440 EQ PUSH2 0x6F0 JUMPI DUP1 PUSH4 0xFA779648 EQ PUSH2 0x703 JUMPI DUP1 PUSH4 0xFC6FEE9C EQ PUSH2 0x70D JUMPI PUSH1 0x0 DUP1 REVERT JUMPDEST DUP1 PUSH4 0xBE55B9E5 EQ PUSH2 0x60D JUMPI DUP1 PUSH4 0xC1BE6677 EQ PUSH2 0x622 JUMPI DUP1 PUSH4 0xC8541CF1 EQ PUSH2 0x689 JUMPI DUP1 PUSH4 0xCFB18916 EQ PUSH2 0x692 JUMPI DUP1 PUSH4 0xD89052F5 EQ PUSH2 0x69A JUMPI PUSH1 0x0 DUP1 REVERT JUMPDEST DUP1 PUSH4 0xA1DD5752 GT PUSH2 0x115 JUMPI DUP1 PUSH4 0xA1DD5752 EQ PUSH2 0x5A0 JUMPI DUP1 PUSH4 0xA5519036 EQ PUSH2 0x5B3 JUMPI DUP1 PUSH4 0xA5534664 EQ PUSH2 0x5C6 JUMPI DUP1 PUSH4 0xA5EDA181 EQ PUSH2 0x5D9 JUMPI DUP1 PUSH4 0xAE0041AA EQ PUSH2 0x5E1 JUMPI DUP1 PUSH4 0xB9341B1C EQ PUSH2 0x5EA JUMPI PUSH1 0x0 DUP1 REVERT JUMPDEST DUP1 PUSH4 0x80447E32 EQ PUSH2 0x4DC JUMPI DUP1 PUSH4 0x82944E2D EQ PUSH2 0x531 JUMPI DUP1 PUSH4 0x840F51F5 EQ PUSH2 0x53B JUMPI DUP1 PUSH4 0x8E1F4FCF EQ PUSH2 0x54E JUMPI DUP1 PUSH4 0x99D8528E EQ PUSH2 0x58D JUMPI PUSH1 0x0 DUP1 REVERT JUMPDEST DUP1 PUSH4 0x476343EE GT PUSH2 0x1EA JUMPI DUP1 PUSH4 0x75829DEF GT PUSH2 0x1AE JUMPI DUP1 PUSH4 0x75829DEF EQ PUSH2 0x3B0 JUMPI DUP1 PUSH4 0x783E9F71 EQ PUSH2 0x3C3 JUMPI DUP1 PUSH4 0x7A88D0B5 EQ PUSH2 0x3D6 JUMPI DUP1 PUSH4 0x7CE3489B EQ PUSH2 0x4AD JUMPI DUP1 PUSH4 0x7EE7CF14 EQ PUSH2 0x4C0 JUMPI DUP1 PUSH4 0x7FD6F15C EQ PUSH2 0x4D3 JUMPI PUSH1 0x0 DUP1 REVERT JUMPDEST DUP1 PUSH4 0x476343EE EQ PUSH2 0x360 JUMPI DUP1 PUSH4 0x4CB96A92 EQ PUSH2 0x368 JUMPI DUP1 PUSH4 0x5312EA8E EQ PUSH2 0x370 JUMPI DUP1 PUSH4 0x5C975ABB EQ PUSH2 0x383 JUMPI DUP1 PUSH4 0x60C6D8AE EQ PUSH2 0x3A7 JUMPI PUSH1 0x0 DUP1 REVERT JUMPDEST DUP1 PUSH4 0x30CB5B4A GT PUSH2 0x231 JUMPI DUP1 PUSH4 0x30CB5B4A EQ PUSH2 0x2F3 JUMPI DUP1 PUSH4 0x31794A03 EQ PUSH2 0x30A JUMPI DUP1 PUSH4 0x36CE736B EQ PUSH2 0x31D JUMPI DUP1 PUSH4 0x3E413BEE EQ PUSH2 0x330 JUMPI DUP1 PUSH4 0x42C9C421 EQ PUSH2 0x357 JUMPI PUSH1 0x0 DUP1 REVERT JUMPDEST DUP1 PUSH4 0x8687794 EQ PUSH2 0x26E JUMPI DUP1 PUSH4 0xE18B681 EQ PUSH2 0x283 JUMPI DUP1 PUSH4 0x16C38B3C EQ PUSH2 0x28B JUMPI DUP1 PUSH4 0x26782247 EQ PUSH2 0x29E JUMPI DUP1 PUSH4 0x2E1B5124 EQ PUSH2 0x2CE JUMPI JUMPDEST PUSH1 0x0 DUP1 REVERT JUMPDEST PUSH2 0x281 PUSH2 0x27C CALLDATASIZE PUSH1 0x4 PUSH2 0x2C94 JUMP JUMPDEST PUSH2 0x72D JUMP JUMPDEST STOP JUMPDEST PUSH2 0x281 PUSH2 0x87C JUMP JUMPDEST PUSH2 0x281 PUSH2 0x299 CALLDATASIZE PUSH1 0x4 PUSH2 0x2CBE JUMP JUMPDEST PUSH2 0x92E JUMP JUMPDEST PUSH1 0x1 SLOAD PUSH2 0x2B1 SWAP1 PUSH1 0x1 PUSH1 0x1 PUSH1 0xA0 SHL SUB AND DUP2 JUMP JUMPDEST PUSH1 0x40 MLOAD PUSH1 0x1 PUSH1 0x1 PUSH1 0xA0 SHL SUB SWAP1 SWAP2 AND DUP2 MSTORE PUSH1 0x20 ADD JUMPDEST PUSH1 0x40 MLOAD DUP1 SWAP2 SUB SWAP1 RETURN JUMPDEST PUSH1 0x6 SLOAD PUSH2 0x2DE SWAP1 PUSH4 0xFFFFFFFF AND DUP2 JUMP JUMPDEST PUSH1 0x40 MLOAD PUSH4 0xFFFFFFFF SWAP1 SWAP2 AND DUP2 MSTORE PUSH1 0x20 ADD PUSH2 0x2C5 JUMP JUMPDEST PUSH2 0x2FC PUSH1 0x7 SLOAD DUP2 JUMP JUMPDEST PUSH1 0x40 MLOAD SWAP1 DUP2 MSTORE PUSH1 0x20 ADD PUSH2 0x2C5 JUMP JUMPDEST PUSH2 0x281 PUSH2 0x318 CALLDATASIZE PUSH1 0x4 PUSH2 0x2C94 JUMP JUMPDEST PUSH2 0x9B0 JUMP JUMPDEST PUSH2 0x281 PUSH2 0x32B CALLDATASIZE PUSH1 0x4 PUSH2 0x2CFE JUMP JUMPDEST PUSH2 0xB1C JUMP JUMPDEST PUSH2 0x2B1 PUSH32 0x0 DUP2 JUMP JUMPDEST PUSH2 0x2FC PUSH2 0xE10 DUP2 JUMP JUMPDEST PUSH2 0x281 PUSH2 0xBD8 JUMP JUMPDEST PUSH1 0x7 SLOAD PUSH2 0x2FC JUMP JUMPDEST PUSH2 0x281 PUSH2 0x37E CALLDATASIZE PUSH1 0x4 PUSH2 0x2C94 JUMP JUMPDEST PUSH2 0xD4B JUMP JUMPDEST PUSH1 0x1 SLOAD PUSH2 0x397 SWAP1 PUSH1 0x1 PUSH1 0xA0 SHL SWAP1 DIV PUSH1 0xFF AND DUP2 JUMP JUMPDEST PUSH1 0x40 MLOAD SWAP1 ISZERO ISZERO DUP2 MSTORE PUSH1 0x20 ADD PUSH2 0x2C5 JUMP JUMPDEST PUSH2 0x2FC PUSH1 0x5 SLOAD DUP2 JUMP JUMPDEST PUSH2 0x281 PUSH2 0x3BE CALLDATASIZE PUSH1 0x4 PUSH2 0x2D53 JUMP JUMPDEST PUSH2 0x1086 JUMP JUMPDEST PUSH2 0x281 PUSH2 0x3D1 CALLDATASIZE PUSH1 0x4 PUSH2 0x2C94 JUMP JUMPDEST PUSH2 0x113C JUMP JUMPDEST PUSH2 0x451 PUSH2 0x3E4 CALLDATASIZE PUSH1 0x4 PUSH2 0x2C94 JUMP JUMPDEST PUSH1 0x8 PUSH1 0x20 MSTORE PUSH1 0x0 SWAP1 DUP2 MSTORE PUSH1 0x40 SWAP1 KECCAK256 DUP1 SLOAD PUSH1 0x1 DUP3 ADD SLOAD PUSH1 0x2 SWAP1 SWAP3 ADD SLOAD PUSH1 0xFF DUP1 DUP4 AND SWAP4 PUSH2 0x100 DUP5 DIV DUP3 AND SWAP4 PUSH3 0x10000 DUP2 DIV SWAP1 SWAP3 AND SWAP3 PUSH4 0x1000000 DUP4 DIV PUSH1 0x1 PUSH1 0x1 PUSH1 0x40 SHL SUB SWAP1 DUP2 AND SWAP4 PUSH1 0x1 PUSH1 0x58 SHL DUP2 DIV DUP3 AND SWAP4 PUSH1 0x1 PUSH1 0x98 SHL DUP3 DIV SWAP1 SWAP3 AND SWAP3 PUSH1 0x1 PUSH1 0xD8 SHL SWAP1 SWAP2 DIV PUSH3 0xFFFFFF AND SWAP2 SWAP1 DUP10 JUMP JUMPDEST PUSH1 0x40 DUP1 MLOAD SWAP10 ISZERO ISZERO DUP11 MSTORE SWAP8 ISZERO ISZERO PUSH1 0x20 DUP11 ADD MSTORE SWAP6 ISZERO ISZERO SWAP7 DUP9 ADD SWAP7 SWAP1 SWAP7 MSTORE PUSH1 0x1 PUSH1 0x1 PUSH1 0x40 SHL SUB SWAP4 DUP5 AND PUSH1 0x60 DUP9 ADD MSTORE SWAP2 DUP4 AND PUSH1 0x80 DUP8 ADD MSTORE SWAP1 SWAP2 AND PUSH1 0xA0 DUP6 ADD MSTORE PUSH3 0xFFFFFF AND PUSH1 0xC0 DUP5 ADD MSTORE PUSH1 0xE0 DUP4 ADD SWAP2 SWAP1 SWAP2 MSTORE PUSH2 0x100 DUP3 ADD MSTORE PUSH2 0x120 ADD PUSH2 0x2C5 JUMP JUMPDEST PUSH2 0x281 PUSH2 0x4BB CALLDATASIZE PUSH1 0x4 PUSH2 0x2C94 JUMP JUMPDEST PUSH2 0x1561 JUMP JUMPDEST PUSH2 0x281 PUSH2 0x4CE CALLDATASIZE PUSH1 0x4 PUSH2 0x2D6E JUMP JUMPDEST PUSH2 0x15FC JUMP JUMPDEST PUSH2 0x2FC PUSH1 0x3 SLOAD DUP2 JUMP JUMPDEST PUSH2 0x511 PUSH2 0x4EA CALLDATASIZE PUSH1 0x4 PUSH2 0x2C94 JUMP JUMPDEST PUSH1 0x9 PUSH1 0x20 MSTORE PUSH1 0x0 SWAP1 DUP2 MSTORE PUSH1 0x40 SWAP1 KECCAK256 DUP1 SLOAD PUSH1 0x1 DUP3 ADD SLOAD PUSH1 0x2 DUP4 ADD SLOAD PUSH1 0x3 SWAP1 SWAP4 ADD SLOAD SWAP2 SWAP3 SWAP1 SWAP2 DUP5 JUMP JUMPDEST PUSH1 0x40 DUP1 MLOAD SWAP5 DUP6 MSTORE PUSH1 0x20 DUP6 ADD SWAP4 SWAP1 SWAP4 MSTORE SWAP2 DUP4 ADD MSTORE PUSH1 0x60 DUP3 ADD MSTORE PUSH1 0x80 ADD PUSH2 0x2C5 JUMP JUMPDEST PUSH2 0x2FC PUSH3 0x93A80 DUP2 JUMP JUMPDEST PUSH2 0x281 PUSH2 0x549 CALLDATASIZE PUSH1 0x4 PUSH2 0x2C94 JUMP JUMPDEST PUSH2 0x199E JUMP JUMPDEST PUSH2 0x578 PUSH2 0x55C CALLDATASIZE PUSH1 0x4 PUSH2 0x2D53 JUMP JUMPDEST PUSH1 0xC PUSH1 0x20 MSTORE PUSH1 0x0 SWAP1 DUP2 MSTORE PUSH1 0x40 SWAP1 KECCAK256 DUP1 SLOAD PUSH1 0x1 SWAP1 SWAP2 ADD SLOAD PUSH1 0xFF AND DUP3 JUMP JUMPDEST PUSH1 0x40 DUP1 MLOAD SWAP3 DUP4 MSTORE SWAP1 ISZERO ISZERO PUSH1 0x20 DUP4 ADD MSTORE ADD PUSH2 0x2C5 JUMP JUMPDEST PUSH2 0x281 PUSH2 0x59B CALLDATASIZE PUSH1 0x4 PUSH2 0x2D90 JUMP JUMPDEST PUSH2 0x1ADE JUMP JUMPDEST PUSH2 0x281 PUSH2 0x5AE CALLDATASIZE PUSH1 0x4 PUSH2 0x2D6E JUMP JUMPDEST PUSH2 0x1FDA JUMP JUMPDEST PUSH2 0x2FC PUSH2 0x5C1 CALLDATASIZE PUSH1 0x4 PUSH2 0x2E03 JUMP JUMPDEST PUSH2 0x2178 JUMP JUMPDEST PUSH2 0x2FC PUSH2 0x5D4 CALLDATASIZE PUSH1 0x4 PUSH2 0x2E03 JUMP JUMPDEST PUSH2 0x22F8 JUMP JUMPDEST PUSH2 0x281 PUSH2 0x2329 JUMP JUMPDEST PUSH2 0x2FC PUSH1 0x4 SLOAD DUP2 JUMP JUMPDEST PUSH2 0x397 PUSH2 0x5F8 CALLDATASIZE PUSH1 0x4 PUSH2 0x2D53 JUMP JUMPDEST PUSH1 0xD PUSH1 0x20 MSTORE PUSH1 0x0 SWAP1 DUP2 MSTORE PUSH1 0x40 SWAP1 KECCAK256 SLOAD PUSH1 0xFF AND DUP2 JUMP JUMPDEST PUSH2 0x615 PUSH2 0x23BB JUMP JUMPDEST PUSH1 0x40 MLOAD PUSH2 0x2C5 SWAP2 SWAP1 PUSH2 0x2E2D JUMP JUMPDEST PUSH2 0x667 PUSH2 0x630 CALLDATASIZE PUSH1 0x4 PUSH2 0x2E03 JUMP JUMPDEST PUSH1 0xA PUSH1 0x20 SWAP1 DUP2 MSTORE PUSH1 0x0 SWAP3 DUP4 MSTORE PUSH1 0x40 DUP1 DUP5 KECCAK256 SWAP1 SWAP2 MSTORE SWAP1 DUP3 MSTORE SWAP1 KECCAK256 DUP1 SLOAD PUSH1 0x1 SWAP1 SWAP2 ADD SLOAD PUSH4 0xFFFFFFFF DUP2 AND SWAP1 PUSH5 0x100000000 SWAP1 DIV PUSH1 0xFF AND DUP4 JUMP JUMPDEST PUSH1 0x40 DUP1 MLOAD SWAP4 DUP5 MSTORE PUSH4 0xFFFFFFFF SWAP1 SWAP3 AND PUSH1 0x20 DUP5 ADD MSTORE ISZERO ISZERO SWAP1 DUP3 ADD MSTORE PUSH1 0x60 ADD PUSH2 0x2C5 JUMP JUMPDEST PUSH2 0x2FC PUSH2 0x1388 DUP2 JUMP JUMPDEST PUSH1 0xE SLOAD PUSH2 0x2FC JUMP JUMPDEST PUSH2 0x2B1 PUSH2 0x6A8 CALLDATASIZE PUSH1 0x4 PUSH2 0x2C94 JUMP JUMPDEST PUSH2 0x241D JUMP JUMPDEST PUSH2 0x2FC PUSH2 0x2710 DUP2 JUMP JUMPDEST PUSH2 0x281 PUSH2 0x6C4 CALLDATASIZE PUSH1 0x4 PUSH2 0x2E03 JUMP JUMPDEST PUSH2 0x2447 JUMP JUMPDEST PUSH2 0x2B1 PUSH32 0x0 DUP2 JUMP JUMPDEST PUSH1 0x0 SLOAD PUSH2 0x2B1 SWAP1 PUSH1 0x1 PUSH1 0x1 PUSH1 0xA0 SHL SUB AND DUP2 JUMP JUMPDEST PUSH2 0x2FC PUSH3 0x4C4B40 DUP2 JUMP JUMPDEST PUSH2 0x720 PUSH2 0x71B CALLDATASIZE PUSH1 0x4 PUSH2 0x2D53 JUMP JUMPDEST PUSH2 0x2AA9 JUMP JUMPDEST PUSH1 0x40 MLOAD PUSH2 0x2C5 SWAP2 SWAP1 PUSH2 0x2E7A JUMP JUMPDEST PUSH1 0x0 SLOAD PUSH1 0x1 PUSH1 0x1 PUSH1 0xA0 SHL SUB AND CALLER EQ PUSH2 0x760 JUMPI PUSH1 0x40 MLOAD PUSH3 0x461BCD PUSH1 0xE5 SHL DUP2 MSTORE PUSH1 0x4 ADD PUSH2 0x757 SWAP1 PUSH2 0x2EB2 JUMP JUMPDEST PUSH1 0x40 MLOAD DUP1 SWAP2 SUB SWAP1 REVERT JUMPDEST PUSH1 0x2 SLOAD PUSH1 0x2 SUB PUSH2 0x782 JUMPI PUSH1 0x40 MLOAD PUSH3 0x461BCD PUSH1 0xE5 SHL DUP2 MSTORE PUSH1 0x4 ADD PUSH2 0x757 SWAP1 PUSH2 0x2ED5 JUMP JUMPDEST PUSH1 0x2 DUP1 SSTORE PUSH1 0x0 SLOAD PUSH1 0x40 MLOAD PUSH4 0x23B872DD PUSH1 0xE0 SHL DUP2 MSTORE PUSH1 0x1 PUSH1 0x1 PUSH1 0xA0 SHL SUB SWAP2 DUP3 AND PUSH1 0x4 DUP3 ADD MSTORE ADDRESS PUSH1 0x24 DUP3 ADD MSTORE PUSH1 0x44 DUP2 ADD DUP4 SWAP1 MSTORE PUSH32 0x0 SWAP1 SWAP2 AND SWAP1 PUSH4 0x23B872DD SWAP1 PUSH1 0x64 ADD PUSH1 0x20 PUSH1 0x40 MLOAD DUP1 DUP4 SUB DUP2 PUSH1 0x0 DUP8 GAS CALL ISZERO DUP1 ISZERO PUSH2 0x800 JUMPI RETURNDATASIZE PUSH1 0x0 DUP1 RETURNDATACOPY RETURNDATASIZE PUSH1 0x0 REVERT JUMPDEST POP POP POP POP PUSH1 0x40 MLOAD RETURNDATASIZE PUSH1 0x1F NOT PUSH1 0x1F DUP3 ADD AND DUP3 ADD DUP1 PUSH1 0x40 MSTORE POP DUP2 ADD SWAP1 PUSH2 0x824 SWAP2 SWAP1 PUSH2 0x2EF8 JUMP JUMPDEST PUSH2 0x840 JUMPI PUSH1 0x40 MLOAD PUSH3 0x461BCD PUSH1 0xE5 SHL DUP2 MSTORE PUSH1 0x4 ADD PUSH2 0x757 SWAP1 PUSH2 0x2F15 JUMP JUMPDEST PUSH1 0x40 MLOAD DUP2 DUP2 MSTORE PUSH32 0xB0DADDC179952DE74346A5E7759111C9EDC9F99CA9204E97C889B85FB55B55C7 SWAP1 PUSH1 0x20 ADD JUMPDEST PUSH1 0x40 MLOAD DUP1 SWAP2 SUB SWAP1 LOG1 POP PUSH1 0x1 PUSH1 0x2 SSTORE JUMP JUMPDEST PUSH1 0x1 SLOAD PUSH1 0x1 PUSH1 0x1 PUSH1 0xA0 SHL SUB AND CALLER EQ PUSH2 0x8CA JUMPI PUSH1 0x40 MLOAD PUSH3 0x461BCD PUSH1 0xE5 SHL DUP2 MSTORE PUSH1 0x20 PUSH1 0x4 DUP3 ADD MSTORE PUSH1 0x11 PUSH1 0x24 DUP3 ADD MSTORE PUSH17 0x2737BA103832B73234B7339030B236B4B7 PUSH1 0x79 SHL PUSH1 0x44 DUP3 ADD MSTORE PUSH1 0x64 ADD PUSH2 0x757 JUMP JUMPDEST PUSH1 0x1 SLOAD PUSH1 0x0 DUP1 SLOAD PUSH1 0x40 MLOAD PUSH1 0x1 PUSH1 0x1 PUSH1 0xA0 SHL SUB SWAP4 DUP5 AND SWAP4 SWAP1 SWAP2 AND SWAP2 PUSH32 0xF8CCB027DFCD135E000E9D45E6CC2D662578A8825D4C45B5E32E0ADF67E79EC6 SWAP2 LOG3 PUSH1 0x1 DUP1 SLOAD PUSH1 0x0 DUP1 SLOAD PUSH1 0x1 PUSH1 0x1 PUSH1 0xA0 SHL SUB NOT SWAP1 DUP2 AND PUSH1 0x1 PUSH1 0x1 PUSH1 0xA0 SHL SUB DUP5 AND OR SWAP1 SWAP2 SSTORE AND SWAP1 SSTORE JUMP JUMPDEST PUSH1 0x0 SLOAD PUSH1 0x1 PUSH1 0x1 PUSH1 0xA0 SHL SUB AND CALLER EQ PUSH2 0x958 JUMPI PUSH1 0x40 MLOAD PUSH3 0x461BCD PUSH1 0xE5 SHL DUP2 MSTORE PUSH1 0x4 ADD PUSH2 0x757 SWAP1 PUSH2 0x2EB2 JUMP JUMPDEST PUSH1 0x1 DUP1 SLOAD DUP3 ISZERO ISZERO PUSH1 0x1 PUSH1 0xA0 SHL MUL PUSH1 0xFF PUSH1 0xA0 SHL NOT SWAP1 SWAP2 AND OR SWAP1 SSTORE PUSH1 0x40 MLOAD PUSH32 0xE2FB031EE032DC02D8011DC50B816EB450CF856ABD8261680DAC74F72165BD2 SWAP1 PUSH2 0x9A5 SWAP1 DUP4 ISZERO ISZERO DUP2 MSTORE PUSH1 0x20 ADD SWAP1 JUMP JUMPDEST PUSH1 0x40 MLOAD DUP1 SWAP2 SUB SWAP1 LOG1 POP JUMP JUMPDEST PUSH3 0x4C4B40 DUP2 LT ISZERO PUSH2 0x9F0 JUMPI PUSH1 0x40 MLOAD PUSH3 0x461BCD PUSH1 0xE5 SHL DUP2 MSTORE PUSH1 0x20 PUSH1 0x4 DUP3 ADD MSTORE PUSH1 0xA PUSH1 0x24 DUP3 ADD MSTORE PUSH10 0x4D696E20352055534443 PUSH1 0xB0 SHL PUSH1 0x44 DUP3 ADD MSTORE PUSH1 0x64 ADD PUSH2 0x757 JUMP JUMPDEST PUSH1 0x1 PUSH1 0x1 PUSH1 0x78 SHL SUB DUP2 GT ISZERO PUSH2 0xA3A JUMPI PUSH1 0x40 MLOAD PUSH3 0x461BCD PUSH1 0xE5 SHL DUP2 MSTORE PUSH1 0x20 PUSH1 0x4 DUP3 ADD MSTORE PUSH1 0x10 PUSH1 0x24 DUP3 ADD MSTORE PUSH16 0x416D6F756E7420746F6F206C61726765 PUSH1 0x80 SHL PUSH1 0x44 DUP3 ADD MSTORE PUSH1 0x64 ADD PUSH2 0x757 JUMP JUMPDEST CALLER PUSH1 0x0 SWAP1 DUP2 MSTORE PUSH1 0xD PUSH1 0x20 MSTORE PUSH1 0x40 SWAP1 KECCAK256 SLOAD PUSH1 0xFF AND PUSH2 0xAAC JUMPI PUSH1 0xE DUP1 SLOAD PUSH1 0x1 DUP2 DUP2 ADD SWAP1 SWAP3 SSTORE PUSH32 0xBB7B4A454DC3493923482F07822329ED19E8244EFF582CC204F8554C3620C3FD ADD DUP1 SLOAD PUSH1 0x1 PUSH1 0x1 PUSH1 0xA0 SHL SUB NOT AND CALLER SWAP1 DUP2 OR SWAP1 SWAP2 SSTORE PUSH1 0x0 SWAP1 DUP2 MSTORE PUSH1 0xD PUSH1 0x20 MSTORE PUSH1 0x40 SWAP1 KECCAK256 DUP1 SLOAD PUSH1 0xFF NOT AND SWAP1 SWAP2 OR SWAP1 SSTORE JUMPDEST PUSH1 0x40 DUP1 MLOAD DUP1 DUP3 ADD DUP3 MSTORE DUP3 DUP2 MSTORE PUSH1 0x1 PUSH1 0x20 DUP1 DUP4 ADD DUP3 DUP2 MSTORE CALLER PUSH1 0x0 DUP2 DUP2 MSTORE PUSH1 0xC DUP5 MSTORE DUP7 SWAP1 KECCAK256 SWAP5 MLOAD DUP6 SSTORE SWAP1 MLOAD SWAP4 SWAP1 SWAP3 ADD DUP1 SLOAD PUSH1 0xFF NOT AND SWAP4 ISZERO ISZERO SWAP4 SWAP1 SWAP4 OR SWAP1 SWAP3 SSTORE SWAP2 MLOAD DUP4 DUP2 MSTORE PUSH32 0x5BCCC6C4E703E8EFB2F9943A5958AB7EE60A3820C301AB1D6009B6549AA75E8E SWAP2 ADD PUSH1 0x40 MLOAD DUP1 SWAP2 SUB SWAP1 LOG2 POP JUMP JUMPDEST PUSH1 0x0 SLOAD PUSH1 0x1 PUSH1 0x1 PUSH1 0xA0 SHL SUB AND CALLER EQ PUSH2 0xB46 JUMPI PUSH1 0x40 MLOAD PUSH3 0x461BCD PUSH1 0xE5 SHL DUP2 MSTORE PUSH1 0x4 ADD PUSH2 0x757 SWAP1 PUSH2 0x2EB2 JUMP JUMPDEST PUSH1 0x40 MLOAD PUSH4 0x36CE736B PUSH1 0xE0 SHL DUP2 MSTORE PUSH4 0xFFFFFFFF DUP4 AND PUSH1 0x4 DUP3 ADD MSTORE PUSH1 0x1 PUSH1 0x1 PUSH1 0x40 SHL SUB DUP3 AND PUSH1 0x24 DUP3 ADD MSTORE PUSH32 0x0 PUSH1 0x1 PUSH1 0x1 PUSH1 0xA0 SHL SUB AND SWAP1 PUSH4 0x36CE736B SWAP1 PUSH1 0x44 ADD PUSH1 0x0 PUSH1 0x40 MLOAD DUP1 DUP4 SUB DUP2 PUSH1 0x0 DUP8 DUP1 EXTCODESIZE ISZERO DUP1 ISZERO PUSH2 0xBBC JUMPI PUSH1 0x0 DUP1 REVERT JUMPDEST POP GAS CALL ISZERO DUP1 ISZERO PUSH2 0xBD0 JUMPI RETURNDATASIZE PUSH1 0x0 DUP1 RETURNDATACOPY RETURNDATASIZE PUSH1 0x0 REVERT JUMPDEST POP POP POP POP POP POP JUMP JUMPDEST PUSH1 0x0 SLOAD PUSH1 0x1 PUSH1 0x1 PUSH1 0xA0 SHL SUB AND CALLER EQ PUSH2 0xC02 JUMPI PUSH1 0x40 MLOAD PUSH3 0x461BCD PUSH1 0xE5 SHL DUP2 MSTORE PUSH1 0x4 ADD PUSH2 0x757 SWAP1 PUSH2 0x2EB2 JUMP JUMPDEST PUSH1 0x2 SLOAD PUSH1 0x2 SUB PUSH2 0xC24 JUMPI PUSH1 0x40 MLOAD PUSH3 0x461BCD PUSH1 0xE5 SHL DUP2 MSTORE PUSH1 0x4 ADD PUSH2 0x757 SWAP1 PUSH2 0x2ED5 JUMP JUMPDEST PUSH1 0x2 DUP1 SSTORE PUSH1 0x5 SLOAD DUP1 PUSH2 0xC62 JUMPI PUSH1 0x40 MLOAD PUSH3 0x461BCD PUSH1 0xE5 SHL DUP2 MSTORE PUSH1 0x20 PUSH1 0x4 DUP3 ADD MSTORE PUSH1 0x7 PUSH1 0x24 DUP3 ADD MSTORE PUSH7 0x4E6F2066656573 PUSH1 0xC8 SHL PUSH1 0x44 DUP3 ADD MSTORE PUSH1 0x64 ADD PUSH2 0x757 JUMP JUMPDEST PUSH1 0x0 PUSH1 0x5 DUP2 SWAP1 SSTORE SLOAD PUSH1 0x40 MLOAD PUSH4 0xA9059CBB PUSH1 0xE0 SHL DUP2 MSTORE PUSH1 0x1 PUSH1 0x1 PUSH1 0xA0 SHL SUB SWAP2 DUP3 AND PUSH1 0x4 DUP3 ADD MSTORE PUSH1 0x24 DUP2 ADD DUP4 SWAP1 MSTORE PUSH32 0x0 SWAP1 SWAP2 AND SWAP1 PUSH4 0xA9059CBB SWAP1 PUSH1 0x44 ADD PUSH1 0x20 PUSH1 0x40 MLOAD DUP1 DUP4 SUB DUP2 PUSH1 0x0 DUP8 GAS CALL ISZERO DUP1 ISZERO PUSH2 0xCDB JUMPI RETURNDATASIZE PUSH1 0x0 DUP1 RETURNDATACOPY RETURNDATASIZE PUSH1 0x0 REVERT JUMPDEST POP POP POP POP PUSH1 0x40 MLOAD RETURNDATASIZE PUSH1 0x1F NOT PUSH1 0x1F DUP3 ADD AND DUP3 ADD DUP1 PUSH1 0x40 MSTORE POP DUP2 ADD SWAP1 PUSH2 0xCFF SWAP2 SWAP1 PUSH2 0x2EF8 JUMP JUMPDEST PUSH2 0xD1B JUMPI PUSH1 0x40 MLOAD PUSH3 0x461BCD PUSH1 0xE5 SHL DUP2 MSTORE PUSH1 0x4 ADD PUSH2 0x757 SWAP1 PUSH2 0x2F15 JUMP JUMPDEST PUSH1 0x40 MLOAD DUP2 DUP2 MSTORE PUSH32 0x9800E6F57AEB4360EAA72295A820A4293E1E66FBFCABCD8874AE141304A76DEB SWAP1 PUSH1 0x20 ADD PUSH2 0x86C JUMP JUMPDEST PUSH1 0x2 SLOAD PUSH1 0x2 SUB PUSH2 0xD6D JUMPI PUSH1 0x40 MLOAD PUSH3 0x461BCD PUSH1 0xE5 SHL DUP2 MSTORE PUSH1 0x4 ADD PUSH2 0x757 SWAP1 PUSH2 0x2ED5 JUMP JUMPDEST PUSH1 0x2 DUP1 SSTORE PUSH1 0x0 DUP2 DUP2 MSTORE PUSH1 0x8 PUSH1 0x20 MSTORE PUSH1 0x40 SWAP1 KECCAK256 DUP1 SLOAD PUSH2 0x100 SWAP1 DIV PUSH1 0xFF AND DUP1 ISZERO PUSH2 0xD9D JUMPI POP DUP1 SLOAD PUSH3 0x10000 SWAP1 DIV PUSH1 0xFF AND ISZERO JUMPDEST PUSH2 0xDB9 JUMPI PUSH1 0x40 MLOAD PUSH3 0x461BCD PUSH1 0xE5 SHL DUP2 MSTORE PUSH1 0x4 ADD PUSH2 0x757 SWAP1 PUSH2 0x2F35 JUMP JUMPDEST PUSH1 0x0 DUP3 DUP2 MSTORE PUSH1 0x9 PUSH1 0x20 MSTORE PUSH1 0x40 SWAP1 KECCAK256 SLOAD PUSH2 0xDD6 SWAP1 PUSH3 0x93A80 SWAP1 PUSH2 0x2F6F JUMP JUMPDEST TIMESTAMP GT PUSH2 0xE10 JUMPI PUSH1 0x40 MLOAD PUSH3 0x461BCD PUSH1 0xE5 SHL DUP2 MSTORE PUSH1 0x20 PUSH1 0x4 DUP3 ADD MSTORE PUSH1 0x9 PUSH1 0x24 DUP3 ADD MSTORE PUSH9 0x546F6F206561726C79 PUSH1 0xB8 SHL PUSH1 0x44 DUP3 ADD MSTORE PUSH1 0x64 ADD PUSH2 0x757 JUMP JUMPDEST CALLER PUSH1 0x0 SWAP1 DUP2 MSTORE PUSH1 0xA PUSH1 0x20 SWAP1 DUP2 MSTORE PUSH1 0x40 DUP1 DUP4 KECCAK256 DUP6 DUP5 MSTORE SWAP1 SWAP2 MSTORE SWAP1 KECCAK256 DUP1 SLOAD PUSH2 0xE66 JUMPI PUSH1 0x40 MLOAD PUSH3 0x461BCD PUSH1 0xE5 SHL DUP2 MSTORE PUSH1 0x20 PUSH1 0x4 DUP3 ADD MSTORE PUSH1 0xB PUSH1 0x24 DUP3 ADD MSTORE PUSH11 0x2737903837B9B4BA34B7B7 PUSH1 0xA9 SHL PUSH1 0x44 DUP3 ADD MSTORE PUSH1 0x64 ADD PUSH2 0x757 JUMP JUMPDEST PUSH1 0x1 DUP2 ADD SLOAD PUSH5 0x100000000 SWAP1 DIV PUSH1 0xFF AND ISZERO PUSH2 0xEAD JUMPI PUSH1 0x40 MLOAD PUSH3 0x461BCD PUSH1 0xE5 SHL DUP2 MSTORE PUSH1 0x20 PUSH1 0x4 DUP3 ADD MSTORE PUSH1 0x7 PUSH1 0x24 DUP3 ADD MSTORE PUSH7 0x10DB185A5B5959 PUSH1 0xCA SHL PUSH1 0x44 DUP3 ADD MSTORE PUSH1 0x64 ADD PUSH2 0x757 JUMP JUMPDEST PUSH1 0x1 DUP2 ADD DUP1 SLOAD PUSH5 0xFF00000000 NOT AND PUSH5 0x100000000 OR SWAP1 SSTORE DUP1 SLOAD PUSH1 0x40 MLOAD PUSH4 0x70A08231 PUSH1 0xE0 SHL DUP2 MSTORE ADDRESS PUSH1 0x4 DUP3 ADD MSTORE PUSH1 0x0 SWAP1 PUSH1 0x1 PUSH1 0x1 PUSH1 0xA0 SHL SUB PUSH32 0x0 AND SWAP1 PUSH4 0x70A08231 SWAP1 PUSH1 0x24 ADD PUSH1 0x20 PUSH1 0x40 MLOAD DUP1 DUP4 SUB DUP2 DUP7 GAS STATICCALL ISZERO DUP1 ISZERO PUSH2 0xF2D JUMPI RETURNDATASIZE PUSH1 0x0 DUP1 RETURNDATACOPY RETURNDATASIZE PUSH1 0x0 REVERT JUMPDEST POP POP POP POP PUSH1 0x40 MLOAD RETURNDATASIZE PUSH1 0x1F NOT PUSH1 0x1F DUP3 ADD AND DUP3 ADD DUP1 PUSH1 0x40 MSTORE POP DUP2 ADD SWAP1 PUSH2 0xF51 SWAP2 SWAP1 PUSH2 0x2F82 JUMP JUMPDEST SWAP1 POP PUSH1 0x0 PUSH1 0x5 SLOAD DUP3 GT PUSH2 0xF65 JUMPI PUSH1 0x0 PUSH2 0xF72 JUMP JUMPDEST PUSH1 0x5 SLOAD PUSH2 0xF72 SWAP1 DUP4 PUSH2 0x2F9B JUMP JUMPDEST SWAP1 POP PUSH1 0x0 DUP2 DUP5 GT PUSH2 0xF83 JUMPI DUP4 PUSH2 0xF85 JUMP JUMPDEST DUP2 JUMPDEST PUSH1 0x40 DUP1 MLOAD DUP3 DUP2 MSTORE PUSH1 0x0 PUSH1 0x20 DUP3 ADD MSTORE SWAP2 SWAP3 POP DUP9 SWAP2 CALLER SWAP2 PUSH32 0xE6EAA9E244E3AC7B66D442524B15004802ABD126E7FFD91EEC5703890DF31053 SWAP2 ADD PUSH1 0x40 MLOAD DUP1 SWAP2 SUB SWAP1 LOG3 DUP1 ISZERO PUSH2 0x1078 JUMPI PUSH1 0x40 MLOAD PUSH4 0xA9059CBB PUSH1 0xE0 SHL DUP2 MSTORE CALLER PUSH1 0x4 DUP3 ADD MSTORE PUSH1 0x24 DUP2 ADD DUP3 SWAP1 MSTORE PUSH32 0x0 PUSH1 0x1 PUSH1 0x1 PUSH1 0xA0 SHL SUB AND SWAP1 PUSH4 0xA9059CBB SWAP1 PUSH1 0x44 ADD PUSH1 0x20 PUSH1 0x40 MLOAD DUP1 DUP4 SUB DUP2 PUSH1 0x0 DUP8 GAS CALL ISZERO DUP1 ISZERO PUSH2 0x1038 JUMPI RETURNDATASIZE PUSH1 0x0 DUP1 RETURNDATACOPY RETURNDATASIZE PUSH1 0x0 REVERT JUMPDEST POP POP POP POP PUSH1 0x40 MLOAD RETURNDATASIZE PUSH1 0x1F NOT PUSH1 0x1F DUP3 ADD AND DUP3 ADD DUP1 PUSH1 0x40 MSTORE POP DUP2 ADD SWAP1 PUSH2 0x105C SWAP2 SWAP1 PUSH2 0x2EF8 JUMP JUMPDEST PUSH2 0x1078 JUMPI PUSH1 0x40 MLOAD PUSH3 0x461BCD PUSH1 0xE5 SHL DUP2 MSTORE PUSH1 0x4 ADD PUSH2 0x757 SWAP1 PUSH2 0x2F15 JUMP JUMPDEST POP POP PUSH1 0x1 PUSH1 0x2 SSTORE POP POP POP POP POP JUMP JUMPDEST PUSH1 0x0 SLOAD PUSH1 0x1 PUSH1 0x1 PUSH1 0xA0 SHL SUB AND CALLER EQ PUSH2 0x10B0 JUMPI PUSH1 0x40 MLOAD PUSH3 0x461BCD PUSH1 0xE5 SHL DUP2 MSTORE PUSH1 0x4 ADD PUSH2 0x757 SWAP1 PUSH2 0x2EB2 JUMP JUMPDEST PUSH1 0x1 PUSH1 0x1 PUSH1 0xA0 SHL SUB DUP2 AND PUSH2 0x10F2 JUMPI PUSH1 0x40 MLOAD PUSH3 0x461BCD PUSH1 0xE5 SHL DUP2 MSTORE PUSH1 0x20 PUSH1 0x4 DUP3 ADD MSTORE PUSH1 0x9 PUSH1 0x24 DUP3 ADD MSTORE PUSH9 0x2D32B9379030B23239 PUSH1 0xB9 SHL PUSH1 0x44 DUP3 ADD MSTORE PUSH1 0x64 ADD PUSH2 0x757 JUMP JUMPDEST PUSH1 0x1 DUP1 SLOAD PUSH1 0x1 PUSH1 0x1 PUSH1 0xA0 SHL SUB NOT AND PUSH1 0x1 PUSH1 0x1 PUSH1 0xA0 SHL SUB DUP4 AND SWAP1 DUP2 OR SWAP1 SWAP2 SSTORE PUSH1 0x40 MLOAD PUSH32 0x7E5A44B25C18C9C756D8BB0C33E9F77D9AB83DC254932C8A69436F23AB74F634 SWAP1 PUSH1 0x0 SWAP1 LOG2 POP JUMP JUMPDEST PUSH1 0x2 SLOAD PUSH1 0x2 SUB PUSH2 0x115E JUMPI PUSH1 0x40 MLOAD PUSH3 0x461BCD PUSH1 0xE5 SHL DUP2 MSTORE PUSH1 0x4 ADD PUSH2 0x757 SWAP1 PUSH2 0x2ED5 JUMP JUMPDEST PUSH1 0x2 DUP1 SSTORE PUSH1 0x0 DUP2 DUP2 MSTORE PUSH1 0x8 PUSH1 0x20 MSTORE PUSH1 0x40 SWAP1 KECCAK256 DUP1 SLOAD PUSH3 0x10000 SWAP1 DIV PUSH1 0xFF AND PUSH2 0x11B4 JUMPI PUSH1 0x40 MLOAD PUSH3 0x461BCD PUSH1 0xE5 SHL DUP2 MSTORE PUSH1 0x20 PUSH1 0x4 DUP3 ADD MSTORE PUSH1 0xA PUSH1 0x24 DUP3 ADD MSTORE PUSH10 0x139BDD0818DB1BDCD959 PUSH1 0xB2 SHL PUSH1 0x44 DUP3 ADD MSTORE PUSH1 0x64 ADD PUSH2 0x757 JUMP JUMPDEST CALLER PUSH1 0x0 SWAP1 DUP2 MSTORE PUSH1 0xA PUSH1 0x20 SWAP1 DUP2 MSTORE PUSH1 0x40 DUP1 DUP4 KECCAK256 DUP6 DUP5 MSTORE SWAP1 SWAP2 MSTORE SWAP1 KECCAK256 DUP1 SLOAD PUSH2 0x120A JUMPI PUSH1 0x40 MLOAD PUSH3 0x461BCD PUSH1 0xE5 SHL DUP2 MSTORE PUSH1 0x20 PUSH1 0x4 DUP3 ADD MSTORE PUSH1 0xB PUSH1 0x24 DUP3 ADD MSTORE PUSH11 0x2737903837B9B4BA34B7B7 PUSH1 0xA9 SHL PUSH1 0x44 DUP3 ADD MSTORE PUSH1 0x64 ADD PUSH2 0x757 JUMP JUMPDEST PUSH1 0x1 DUP2 ADD SLOAD PUSH5 0x100000000 SWAP1 DIV PUSH1 0xFF AND ISZERO PUSH2 0x1251 JUMPI PUSH1 0x40 MLOAD PUSH3 0x461BCD PUSH1 0xE5 SHL DUP2 MSTORE PUSH1 0x20 PUSH1 0x4 DUP3 ADD MSTORE PUSH1 0x7 PUSH1 0x24 DUP3 ADD MSTORE PUSH7 0x10DB185A5B5959 PUSH1 0xCA SHL PUSH1 0x44 DUP3 ADD MSTORE PUSH1 0x64 ADD PUSH2 0x757 JUMP JUMPDEST PUSH1 0x1 DUP2 DUP2 ADD DUP1 SLOAD PUSH5 0xFF00000000 NOT AND PUSH5 0x100000000 OR SWAP1 SSTORE DUP2 SLOAD SWAP1 DUP4 ADD SLOAD PUSH1 0x0 SWAP1 DUP2 SWAP1 DUP2 SGT PUSH2 0x1338 JUMPI DUP5 SLOAD PUSH1 0x1 DUP7 ADD SLOAD PUSH1 0x0 SWAP2 PUSH1 0x1 PUSH1 0xD8 SHL SWAP1 DIV PUSH3 0xFFFFFF AND SWAP1 PUSH2 0x129B SWAP1 DUP7 PUSH2 0x2FAE JUMP JUMPDEST PUSH2 0x12A5 SWAP2 SWAP1 PUSH2 0x2FAE JUMP JUMPDEST SWAP1 POP PUSH2 0x12B3 PUSH2 0x2710 DUP1 PUSH2 0x2FAE JUMP JUMPDEST PUSH2 0x12BF SWAP1 PUSH2 0x3E8 PUSH2 0x2FAE JUMP JUMPDEST PUSH1 0x2 DUP8 ADD SLOAD PUSH2 0x12CE SWAP1 DUP4 PUSH2 0x2FAE JUMP JUMPDEST PUSH2 0x12D8 SWAP2 SWAP1 PUSH2 0x2FC5 JUMP JUMPDEST SWAP2 POP PUSH1 0x0 PUSH2 0x12EA PUSH2 0x2710 PUSH2 0x3E8 PUSH2 0x2FAE JUMP JUMPDEST PUSH2 0x12F4 SWAP1 DUP4 PUSH2 0x2FC5 JUMP JUMPDEST SWAP1 POP DUP1 DUP4 GT ISZERO PUSH2 0x1302 JUMPI DUP1 SWAP3 POP JUMPDEST DUP3 PUSH1 0x5 PUSH1 0x0 DUP3 DUP3 SLOAD PUSH2 0x1314 SWAP2 SWAP1 PUSH2 0x2F6F JUMP JUMPDEST SWAP1 SWAP2 SSTORE POP DUP4 SWAP1 POP PUSH2 0x1325 DUP3 DUP8 PUSH2 0x2F6F JUMP JUMPDEST PUSH2 0x132F SWAP2 SWAP1 PUSH2 0x2F9B JUMP JUMPDEST SWAP4 POP POP POP PUSH2 0x13A8 JUMP JUMPDEST PUSH1 0x0 PUSH2 0x1348 PUSH2 0x2710 PUSH2 0x3E8 PUSH2 0x2FAE JUMP JUMPDEST DUP7 SLOAD PUSH1 0x1 DUP9 ADD SLOAD PUSH1 0x1 PUSH1 0xD8 SHL SWAP1 SWAP2 DIV PUSH3 0xFFFFFF AND SWAP1 PUSH2 0x1366 SWAP1 PUSH2 0x2FE7 JUMP JUMPDEST PUSH2 0x1370 SWAP1 DUP8 PUSH2 0x2FAE JUMP JUMPDEST PUSH2 0x137A SWAP2 SWAP1 PUSH2 0x2FAE JUMP JUMPDEST PUSH2 0x1384 SWAP2 SWAP1 PUSH2 0x2FC5 JUMP JUMPDEST SWAP1 POP DUP4 DUP2 LT ISZERO PUSH2 0x139D JUMPI PUSH2 0x1398 DUP2 DUP6 PUSH2 0x2F9B JUMP JUMPDEST PUSH2 0x13A0 JUMP JUMPDEST PUSH1 0x0 JUMPDEST SWAP3 POP PUSH1 0x0 SWAP2 POP POP JUMPDEST PUSH1 0x40 MLOAD PUSH4 0x70A08231 PUSH1 0xE0 SHL DUP2 MSTORE ADDRESS PUSH1 0x4 DUP3 ADD MSTORE PUSH1 0x0 SWAP1 PUSH32 0x0 PUSH1 0x1 PUSH1 0x1 PUSH1 0xA0 SHL SUB AND SWAP1 PUSH4 0x70A08231 SWAP1 PUSH1 0x24 ADD PUSH1 0x20 PUSH1 0x40 MLOAD DUP1 DUP4 SUB DUP2 DUP7 GAS STATICCALL ISZERO DUP1 ISZERO PUSH2 0x140F JUMPI RETURNDATASIZE PUSH1 0x0 DUP1 RETURNDATACOPY RETURNDATASIZE PUSH1 0x0 REVERT JUMPDEST POP POP POP POP PUSH1 0x40 MLOAD RETURNDATASIZE PUSH1 0x1F NOT PUSH1 0x1F DUP3 ADD AND DUP3 ADD DUP1 PUSH1 0x40 MSTORE POP DUP2 ADD SWAP1 PUSH2 0x1433 SWAP2 SWAP1 PUSH2 0x2F82 JUMP JUMPDEST SWAP1 POP PUSH1 0x0 PUSH1 0x5 SLOAD DUP3 GT PUSH2 0x1447 JUMPI PUSH1 0x0 PUSH2 0x1454 JUMP JUMPDEST PUSH1 0x5 SLOAD PUSH2 0x1454 SWAP1 DUP4 PUSH2 0x2F9B JUMP JUMPDEST SWAP1 POP DUP1 DUP5 GT ISZERO PUSH2 0x1462 JUMPI DUP1 SWAP4 POP JUMPDEST PUSH1 0x40 DUP1 MLOAD DUP6 DUP2 MSTORE PUSH1 0x20 DUP2 ADD DUP6 SWAP1 MSTORE DUP10 SWAP2 CALLER SWAP2 PUSH32 0xE6EAA9E244E3AC7B66D442524B15004802ABD126E7FFD91EEC5703890DF31053 SWAP2 ADD PUSH1 0x40 MLOAD DUP1 SWAP2 SUB SWAP1 LOG3 DUP4 ISZERO PUSH2 0x1552 JUMPI PUSH1 0x40 MLOAD PUSH4 0xA9059CBB PUSH1 0xE0 SHL DUP2 MSTORE CALLER PUSH1 0x4 DUP3 ADD MSTORE PUSH1 0x24 DUP2 ADD DUP6 SWAP1 MSTORE PUSH32 0x0 PUSH1 0x1 PUSH1 0x1 PUSH1 0xA0 SHL SUB AND SWAP1 PUSH4 0xA9059CBB SWAP1 PUSH1 0x44 ADD PUSH1 0x20 PUSH1 0x40 MLOAD DUP1 DUP4 SUB DUP2 PUSH1 0x0 DUP8 GAS CALL ISZERO DUP1 ISZERO PUSH2 0x1512 JUMPI RETURNDATASIZE PUSH1 0x0 DUP1 RETURNDATACOPY RETURNDATASIZE PUSH1 0x0 REVERT JUMPDEST POP POP POP POP PUSH1 0x40 MLOAD RETURNDATASIZE PUSH1 0x1F NOT PUSH1 0x1F DUP3 ADD AND DUP3 ADD DUP1 PUSH1 0x40 MSTORE POP DUP2 ADD SWAP1 PUSH2 0x1536 SWAP2 SWAP1 PUSH2 0x2EF8 JUMP JUMPDEST PUSH2 0x1552 JUMPI PUSH1 0x40 MLOAD PUSH3 0x461BCD PUSH1 0xE5 SHL DUP2 MSTORE PUSH1 0x4 ADD PUSH2 0x757 SWAP1 PUSH2 0x2F15 JUMP JUMPDEST POP POP PUSH1 0x1 PUSH1 0x2 SSTORE POP POP POP POP POP POP JUMP JUMPDEST PUSH1 0x0 SLOAD PUSH1 0x1 PUSH1 0x1 PUSH1 0xA0 SHL SUB AND CALLER EQ PUSH2 0x158B JUMPI PUSH1 0x40 MLOAD PUSH3 0x461BCD PUSH1 0xE5 SHL DUP2 MSTORE PUSH1 0x4 ADD PUSH2 0x757 SWAP1 PUSH2 0x2EB2 JUMP JUMPDEST PUSH2 0x7D0 DUP2 GT ISZERO PUSH2 0x15C7 JUMPI PUSH1 0x40 MLOAD PUSH3 0x461BCD PUSH1 0xE5 SHL DUP2 MSTORE PUSH1 0x20 PUSH1 0x4 DUP3 ADD MSTORE PUSH1 0x7 PUSH1 0x24 DUP3 ADD MSTORE PUSH7 0x4D617820323025 PUSH1 0xC8 SHL PUSH1 0x44 DUP3 ADD MSTORE PUSH1 0x64 ADD PUSH2 0x757 JUMP JUMPDEST PUSH1 0x3 DUP2 SWAP1 SSTORE PUSH1 0x40 MLOAD DUP2 DUP2 MSTORE PUSH32 0x8C4D35E54A3F2EF1134138FD8EA3DAEE6A3C89E10D2665996BABDF70261E2C76 SWAP1 PUSH1 0x20 ADD PUSH2 0x9A5 JUMP JUMPDEST PUSH1 0x1 SLOAD PUSH1 0x1 PUSH1 0xA0 SHL SWAP1 DIV PUSH1 0xFF AND ISZERO PUSH2 0x1626 JUMPI PUSH1 0x40 MLOAD PUSH3 0x461BCD PUSH1 0xE5 SHL DUP2 MSTORE PUSH1 0x4 ADD PUSH2 0x757 SWAP1 PUSH2 0x3003 JUMP JUMPDEST PUSH1 0x2 SLOAD PUSH1 0x2 SUB PUSH2 0x1648 JUMPI PUSH1 0x40 MLOAD PUSH3 0x461BCD PUSH1 0xE5 SHL DUP2 MSTORE PUSH1 0x4 ADD PUSH2 0x757 SWAP1 PUSH2 0x2ED5 JUMP JUMPDEST PUSH1 0x2 DUP1 SSTORE PUSH1 0x0 DUP3 DUP2 MSTORE PUSH1 0x8 PUSH1 0x20 MSTORE PUSH1 0x40 SWAP1 KECCAK256 DUP1 SLOAD PUSH2 0x100 SWAP1 DIV PUSH1 0xFF AND DUP1 ISZERO PUSH2 0x1678 JUMPI POP DUP1 SLOAD PUSH3 0x10000 SWAP1 DIV PUSH1 0xFF AND ISZERO JUMPDEST PUSH2 0x1694 JUMPI PUSH1 0x40 MLOAD PUSH3 0x461BCD PUSH1 0xE5 SHL DUP2 MSTORE PUSH1 0x4 ADD PUSH2 0x757 SWAP1 PUSH2 0x2F35 JUMP JUMPDEST PUSH1 0x0 DUP4 DUP2 MSTORE PUSH1 0x9 PUSH1 0x20 MSTORE PUSH1 0x40 SWAP1 KECCAK256 SLOAD PUSH2 0x16B0 SWAP1 PUSH2 0xE10 SWAP1 PUSH2 0x2F6F JUMP JUMPDEST TIMESTAMP GT ISZERO PUSH2 0x16F4 JUMPI PUSH1 0x40 MLOAD PUSH3 0x461BCD PUSH1 0xE5 SHL DUP2 MSTORE PUSH1 0x20 PUSH1 0x4 DUP3 ADD MSTORE PUSH1 0x12 PUSH1 0x24 DUP3 ADD MSTORE PUSH18 0x10DBDC1E481DDA5B991BDDC818DB1BDCD959 PUSH1 0x72 SHL PUSH1 0x44 DUP3 ADD MSTORE PUSH1 0x64 ADD PUSH2 0x757 JUMP JUMPDEST PUSH3 0x4C4B40 DUP3 LT ISZERO PUSH2 0x1734 JUMPI PUSH1 0x40 MLOAD PUSH3 0x461BCD PUSH1 0xE5 SHL DUP2 MSTORE PUSH1 0x20 PUSH1 0x4 DUP3 ADD MSTORE PUSH1 0xA PUSH1 0x24 DUP3 ADD MSTORE PUSH10 0x4D696E20352055534443 PUSH1 0xB0 SHL PUSH1 0x44 DUP3 ADD MSTORE PUSH1 0x64 ADD PUSH2 0x757 JUMP JUMPDEST CALLER PUSH1 0x0 SWAP1 DUP2 MSTORE PUSH1 0xA PUSH1 0x20 SWAP1 DUP2 MSTORE PUSH1 0x40 DUP1 DUP4 KECCAK256 DUP7 DUP5 MSTORE SWAP1 SWAP2 MSTORE SWAP1 KECCAK256 SLOAD ISZERO PUSH2 0x178D JUMPI PUSH1 0x40 MLOAD PUSH3 0x461BCD PUSH1 0xE5 SHL DUP2 MSTORE PUSH1 0x20 PUSH1 0x4 DUP3 ADD MSTORE PUSH1 0xE PUSH1 0x24 DUP3 ADD MSTORE PUSH14 0x105B1C9958591E4818DBDC1A5959 PUSH1 0x92 SHL PUSH1 0x44 DUP3 ADD MSTORE PUSH1 0x64 ADD PUSH2 0x757 JUMP JUMPDEST PUSH1 0x6 DUP1 SLOAD PUSH4 0xFFFFFFFF AND SWAP1 DUP2 SWAP1 PUSH1 0x0 PUSH2 0x17A5 DUP4 PUSH2 0x3023 JUMP JUMPDEST DUP3 SLOAD PUSH4 0xFFFFFFFF SWAP2 DUP3 AND PUSH2 0x100 SWAP4 SWAP1 SWAP4 EXP SWAP3 DUP4 MUL SWAP3 DUP3 MUL NOT AND SWAP2 SWAP1 SWAP2 OR SWAP1 SWAP2 SSTORE PUSH1 0x40 DUP1 MLOAD PUSH1 0x60 DUP2 ADD DUP3 MSTORE DUP7 DUP2 MSTORE DUP5 DUP4 AND PUSH1 0x20 DUP1 DUP4 ADD SWAP2 DUP3 MSTORE PUSH1 0x0 DUP4 DUP6 ADD DUP2 DUP2 MSTORE CALLER DUP1 DUP4 MSTORE PUSH1 0xA DUP5 MSTORE DUP7 DUP4 KECCAK256 DUP14 DUP5 MSTORE DUP5 MSTORE DUP7 DUP4 KECCAK256 SWAP6 MLOAD DUP7 SSTORE SWAP4 MLOAD PUSH1 0x1 SWAP6 DUP7 ADD DUP1 SLOAD SWAP3 MLOAD ISZERO ISZERO PUSH5 0x100000000 MUL PUSH5 0xFFFFFFFFFF NOT SWAP1 SWAP4 AND SWAP2 SWAP1 SWAP9 AND OR OR SWAP1 SWAP6 SSTORE SWAP1 DUP5 MSTORE PUSH1 0xB DUP2 MSTORE DUP3 DUP5 KECCAK256 DUP1 SLOAD SWAP3 DUP4 ADD DUP2 SSTORE DUP5 MSTORE DUP1 DUP5 KECCAK256 SWAP1 SWAP2 ADD DUP9 SWAP1 SSTORE DUP8 DUP4 MSTORE PUSH1 0x9 SWAP1 MSTORE DUP2 KECCAK256 PUSH1 0x2 DUP2 ADD DUP1 SLOAD SWAP2 SWAP4 POP DUP7 SWAP3 SWAP1 SWAP2 PUSH2 0x1860 SWAP1 DUP5 SWAP1 PUSH2 0x2F6F JUMP JUMPDEST SWAP1 SWAP2 SSTORE POP POP PUSH1 0x3 DUP2 ADD DUP1 SLOAD SWAP1 PUSH1 0x0 PUSH2 0x1877 DUP4 PUSH2 0x3046 JUMP JUMPDEST SWAP1 SWAP2 SSTORE POP POP PUSH1 0x40 MLOAD DUP5 DUP2 MSTORE DUP6 SWAP1 CALLER SWAP1 PUSH32 0x781B72D927FC2FCFD2BE33C7FBFA6C56AAF0A10406AEE7BB7538F0E522BF0BC SWAP1 PUSH1 0x20 ADD PUSH1 0x40 MLOAD DUP1 SWAP2 SUB SWAP1 LOG3 PUSH1 0x40 MLOAD PUSH4 0x23B872DD PUSH1 0xE0 SHL DUP2 MSTORE CALLER PUSH1 0x4 DUP3 ADD MSTORE ADDRESS PUSH1 0x24 DUP3 ADD MSTORE PUSH1 0x44 DUP2 ADD DUP6 SWAP1 MSTORE PUSH32 0x0 PUSH1 0x1 PUSH1 0x1 PUSH1 0xA0 SHL SUB AND SWAP1 PUSH4 0x23B872DD SWAP1 PUSH1 0x64 ADD PUSH1 0x20 PUSH1 0x40 MLOAD DUP1 DUP4 SUB DUP2 PUSH1 0x0 DUP8 GAS CALL ISZERO DUP1 ISZERO PUSH2 0x1926 JUMPI RETURNDATASIZE PUSH1 0x0 DUP1 RETURNDATACOPY RETURNDATASIZE PUSH1 0x0 REVERT JUMPDEST POP POP POP POP PUSH1 0x40 MLOAD RETURNDATASIZE PUSH1 0x1F NOT PUSH1 0x1F DUP3 ADD AND DUP3 ADD DUP1 PUSH1 0x40 MSTORE POP DUP2 ADD SWAP1 PUSH2 0x194A SWAP2 SWAP1 PUSH2 0x2EF8 JUMP JUMPDEST PUSH2 0x1988 JUMPI PUSH1 0x40 MLOAD PUSH3 0x461BCD PUSH1 0xE5 SHL DUP2 MSTORE PUSH1 0x20 PUSH1 0x4 DUP3 ADD MSTORE PUSH1 0xF PUSH1 0x24 DUP3 ADD MSTORE PUSH15 0x151C985B9CD9995C8819985A5B1959 PUSH1 0x8A SHL PUSH1 0x44 DUP3 ADD MSTORE PUSH1 0x64 ADD PUSH2 0x757 JUMP JUMPDEST PUSH2 0x1992 DUP4 DUP6 PUSH2 0x2B15 JUMP JUMPDEST POP POP PUSH1 0x1 PUSH1 0x2 SSTORE POP POP POP JUMP JUMPDEST PUSH1 0x0 SLOAD PUSH1 0x1 PUSH1 0x1 PUSH1 0xA0 SHL SUB AND CALLER EQ PUSH2 0x19C8 JUMPI PUSH1 0x40 MLOAD PUSH3 0x461BCD PUSH1 0xE5 SHL DUP2 MSTORE PUSH1 0x4 ADD PUSH2 0x757 SWAP1 PUSH2 0x2EB2 JUMP JUMPDEST PUSH1 0x7 SLOAD DUP2 EQ PUSH2 0x1A0D JUMPI PUSH1 0x40 MLOAD PUSH3 0x461BCD PUSH1 0xE5 SHL DUP2 MSTORE PUSH1 0x20 PUSH1 0x4 DUP3 ADD MSTORE PUSH1 0x11 PUSH1 0x24 DUP3 ADD MSTORE PUSH17 0x139BDD081858DD1A5D99481CDA59DB985B PUSH1 0x7A SHL PUSH1 0x44 DUP3 ADD MSTORE PUSH1 0x64 ADD PUSH2 0x757 JUMP JUMPDEST PUSH1 0x0 DUP2 DUP2 MSTORE PUSH1 0x8 PUSH1 0x20 MSTORE PUSH1 0x40 SWAP1 KECCAK256 DUP1 SLOAD PUSH2 0x100 SWAP1 DIV PUSH1 0xFF AND DUP1 ISZERO PUSH2 0x1A39 JUMPI POP DUP1 SLOAD PUSH3 0x10000 SWAP1 DIV PUSH1 0xFF AND ISZERO JUMPDEST PUSH2 0x1A6F JUMPI PUSH1 0x40 MLOAD PUSH3 0x461BCD PUSH1 0xE5 SHL DUP2 MSTORE PUSH1 0x20 PUSH1 0x4 DUP3 ADD MSTORE PUSH1 0x7 PUSH1 0x24 DUP3 ADD MSTORE PUSH7 0x125B9D985B1A59 PUSH1 0xCA SHL PUSH1 0x44 DUP3 ADD MSTORE PUSH1 0x64 ADD PUSH2 0x757 JUMP JUMPDEST DUP1 SLOAD PUSH3 0xFFFF00 NOT AND PUSH3 0x10000 OR DUP2 SSTORE PUSH1 0x0 PUSH1 0x1 DUP1 DUP4 ADD DUP3 SWAP1 SSTORE DUP4 DUP3 MSTORE PUSH1 0x9 PUSH1 0x20 MSTORE PUSH1 0x40 DUP1 DUP4 KECCAK256 TIMESTAMP SWAP3 ADD SWAP2 SWAP1 SWAP2 SSTORE PUSH1 0x7 DUP3 SWAP1 SSTORE MLOAD DUP4 SWAP2 PUSH32 0x40277E9171139C6AEA3BAAD573CE3B0F843E17979F9B03706FE89B0EBEA1CBFF SWAP2 PUSH2 0x1AD2 SWAP2 DUP2 MSTORE PUSH1 0x20 ADD SWAP1 JUMP JUMPDEST PUSH1 0x40 MLOAD DUP1 SWAP2 SUB SWAP1 LOG2 POP POP JUMP JUMPDEST PUSH1 0x0 SLOAD PUSH1 0x1 PUSH1 0x1 PUSH1 0xA0 SHL SUB AND CALLER EQ PUSH2 0x1B08 JUMPI PUSH1 0x40 MLOAD PUSH3 0x461BCD PUSH1 0xE5 SHL DUP2 MSTORE PUSH1 0x4 ADD PUSH2 0x757 SWAP1 PUSH2 0x2EB2 JUMP JUMPDEST PUSH1 0x1 SLOAD PUSH1 0x1 PUSH1 0xA0 SHL SWAP1 DIV PUSH1 0xFF AND ISZERO PUSH2 0x1B32 JUMPI PUSH1 0x40 MLOAD PUSH3 0x461BCD PUSH1 0xE5 SHL DUP2 MSTORE PUSH1 0x4 ADD PUSH2 0x757 SWAP1 PUSH2 0x3003 JUMP JUMPDEST PUSH2 0x7D0 DUP2 PUSH3 0xFFFFFF AND LT ISZERO DUP1 ISZERO PUSH2 0x1B51 JUMPI POP PUSH3 0x3D090 DUP2 PUSH3 0xFFFFFF AND GT ISZERO JUMPDEST PUSH2 0x1B8B JUMPI PUSH1 0x40 MLOAD PUSH3 0x461BCD PUSH1 0xE5 SHL DUP2 MSTORE PUSH1 0x20 PUSH1 0x4 DUP3 ADD MSTORE PUSH1 0xB PUSH1 0x24 DUP3 ADD MSTORE PUSH11 0x98CAEC4064F05A646A60F PUSH1 0xAB SHL PUSH1 0x44 DUP3 ADD MSTORE PUSH1 0x64 ADD PUSH2 0x757 JUMP JUMPDEST PUSH1 0x0 DUP5 PUSH1 0x1 PUSH1 0x1 PUSH1 0x40 SHL SUB AND GT DUP1 ISZERO PUSH2 0x1BAD JUMPI POP PUSH1 0x0 DUP4 PUSH1 0x1 PUSH1 0x1 PUSH1 0x40 SHL SUB AND GT JUMPDEST DUP1 ISZERO PUSH2 0x1BC2 JUMPI POP PUSH1 0x0 DUP3 PUSH1 0x1 PUSH1 0x1 PUSH1 0x40 SHL SUB AND GT JUMPDEST PUSH2 0x1BFB JUMPI PUSH1 0x40 MLOAD PUSH3 0x461BCD PUSH1 0xE5 SHL DUP2 MSTORE PUSH1 0x20 PUSH1 0x4 DUP3 ADD MSTORE PUSH1 0xA PUSH1 0x24 DUP3 ADD MSTORE PUSH10 0x42616420707269636573 PUSH1 0xB0 SHL PUSH1 0x44 DUP3 ADD MSTORE PUSH1 0x64 ADD PUSH2 0x757 JUMP JUMPDEST PUSH1 0x7 SLOAD ISZERO PUSH2 0x1C4B JUMPI PUSH1 0x40 MLOAD PUSH3 0x461BCD PUSH1 0xE5 SHL DUP2 MSTORE PUSH1 0x20 PUSH1 0x4 DUP3 ADD MSTORE PUSH1 0x19 PUSH1 0x24 DUP3 ADD MSTORE PUSH32 0x436C6F736520616374697665207369676E616C20666972737400000000000000 PUSH1 0x44 DUP3 ADD MSTORE PUSH1 0x64 ADD PUSH2 0x757 JUMP JUMPDEST DUP5 ISZERO PUSH2 0x1CC8 JUMPI DUP4 PUSH1 0x1 PUSH1 0x1 PUSH1 0x40 SHL SUB AND DUP4 PUSH1 0x1 PUSH1 0x1 PUSH1 0x40 SHL SUB AND GT DUP1 ISZERO PUSH2 0x1C83 JUMPI POP DUP4 PUSH1 0x1 PUSH1 0x1 PUSH1 0x40 SHL SUB AND DUP3 PUSH1 0x1 PUSH1 0x1 PUSH1 0x40 SHL SUB AND LT JUMPDEST PUSH2 0x1CC3 JUMPI PUSH1 0x40 MLOAD PUSH3 0x461BCD PUSH1 0xE5 SHL DUP2 MSTORE PUSH1 0x20 PUSH1 0x4 DUP3 ADD MSTORE PUSH1 0x11 PUSH1 0x24 DUP3 ADD MSTORE PUSH17 0x131BDB99CE8815140F995B9D1C9E4F94D3 PUSH1 0x7A SHL PUSH1 0x44 DUP3 ADD MSTORE PUSH1 0x64 ADD PUSH2 0x757 JUMP JUMPDEST PUSH2 0x1D3B JUMP JUMPDEST DUP4 PUSH1 0x1 PUSH1 0x1 PUSH1 0x40 SHL SUB AND DUP4 PUSH1 0x1 PUSH1 0x1 PUSH1 0x40 SHL SUB AND LT DUP1 ISZERO PUSH2 0x1CFA JUMPI POP DUP4 PUSH1 0x1 PUSH1 0x1 PUSH1 0x40 SHL SUB AND DUP3 PUSH1 0x1 PUSH1 0x1 PUSH1 0x40 SHL SUB AND GT JUMPDEST PUSH2 0x1D3B JUMPI PUSH1 0x40 MLOAD PUSH3 0x461BCD PUSH1 0xE5 SHL DUP2 MSTORE PUSH1 0x20 PUSH1 0x4 DUP3 ADD MSTORE PUSH1 0x12 PUSH1 0x24 DUP3 ADD MSTORE PUSH18 0x14DA1BDC9D0E8815140F195B9D1C9E4F14D3 PUSH1 0x72 SHL PUSH1 0x44 DUP3 ADD MSTORE PUSH1 0x64 ADD PUSH2 0x757 JUMP JUMPDEST PUSH1 0x4 DUP1 SLOAD SWAP1 PUSH1 0x0 PUSH2 0x1D4B DUP4 PUSH2 0x3046 JUMP JUMPDEST SWAP2 SWAP1 POP SSTORE POP PUSH1 0x40 MLOAD DUP1 PUSH2 0x120 ADD PUSH1 0x40 MSTORE DUP1 DUP7 ISZERO ISZERO DUP2 MSTORE PUSH1 0x20 ADD PUSH1 0x1 ISZERO ISZERO DUP2 MSTORE PUSH1 0x20 ADD PUSH1 0x0 ISZERO ISZERO DUP2 MSTORE PUSH1 0x20 ADD DUP6 PUSH1 0x1 PUSH1 0x1 PUSH1 0x40 SHL SUB AND DUP2 MSTORE PUSH1 0x20 ADD DUP5 PUSH1 0x1 PUSH1 0x1 PUSH1 0x40 SHL SUB AND DUP2 MSTORE PUSH1 0x20 ADD DUP4 PUSH1 0x1 PUSH1 0x1 PUSH1 0x40 SHL SUB AND DUP2 MSTORE PUSH1 0x20 ADD DUP3 PUSH3 0xFFFFFF AND DUP2 MSTORE PUSH1 0x20 ADD PUSH1 0x0 DUP2 MSTORE PUSH1 0x20 ADD PUSH1 0x3 SLOAD DUP2 MSTORE POP PUSH1 0x8 PUSH1 0x0 PUSH1 0x4 SLOAD DUP2 MSTORE PUSH1 0x20 ADD SWAP1 DUP2 MSTORE PUSH1 0x20 ADD PUSH1 0x0 KECCAK256 PUSH1 0x0 DUP3 ADD MLOAD DUP2 PUSH1 0x0 ADD PUSH1 0x0 PUSH2 0x100 EXP DUP2 SLOAD DUP2 PUSH1 0xFF MUL NOT AND SWAP1 DUP4 ISZERO ISZERO MUL OR SWAP1 SSTORE POP PUSH1 0x20 DUP3 ADD MLOAD DUP2 PUSH1 0x0 ADD PUSH1 0x1 PUSH2 0x100 EXP DUP2 SLOAD DUP2 PUSH1 0xFF MUL NOT AND SWAP1 DUP4 ISZERO ISZERO MUL OR SWAP1 SSTORE POP PUSH1 0x40 DUP3 ADD MLOAD DUP2 PUSH1 0x0 ADD PUSH1 0x2 PUSH2 0x100 EXP DUP2 SLOAD DUP2 PUSH1 0xFF MUL NOT AND SWAP1 DUP4 ISZERO ISZERO MUL OR SWAP1 SSTORE POP PUSH1 0x60 DUP3 ADD MLOAD DUP2 PUSH1 0x0 ADD PUSH1 0x3 PUSH2 0x100 EXP DUP2 SLOAD DUP2 PUSH1 0x1 PUSH1 0x1 PUSH1 0x40 SHL SUB MUL NOT AND SWAP1 DUP4 PUSH1 0x1 PUSH1 0x1 PUSH1 0x40 SHL SUB AND MUL OR SWAP1 SSTORE POP PUSH1 0x80 DUP3 ADD MLOAD DUP2 PUSH1 0x0 ADD PUSH1 0xB PUSH2 0x100 EXP DUP2 SLOAD DUP2 PUSH1 0x1 PUSH1 0x1 PUSH1 0x40 SHL SUB MUL NOT AND SWAP1 DUP4 PUSH1 0x1 PUSH1 0x1 PUSH1 0x40 SHL SUB AND MUL OR SWAP1 SSTORE POP PUSH1 0xA0 DUP3 ADD MLOAD DUP2 PUSH1 0x0 ADD PUSH1 0x13 PUSH2 0x100 EXP DUP2 SLOAD DUP2 PUSH1 0x1 PUSH1 0x1 PUSH1 0x40 SHL SUB MUL NOT AND SWAP1 DUP4 PUSH1 0x1 PUSH1 0x1 PUSH1 0x40 SHL SUB AND MUL OR SWAP1 SSTORE POP PUSH1 0xC0 DUP3 ADD MLOAD DUP2 PUSH1 0x0 ADD PUSH1 0x1B PUSH2 0x100 EXP DUP2 SLOAD DUP2 PUSH3 0xFFFFFF MUL NOT AND SWAP1 DUP4 PUSH3 0xFFFFFF AND MUL OR SWAP1 SSTORE POP PUSH1 0xE0 DUP3 ADD MLOAD DUP2 PUSH1 0x1 ADD SSTORE PUSH2 0x100 DUP3 ADD MLOAD DUP2 PUSH1 0x2 ADD SSTORE SWAP1 POP POP PUSH1 0x40 MLOAD DUP1 PUSH1 0x80 ADD PUSH1 0x40 MSTORE DUP1 TIMESTAMP DUP2 MSTORE PUSH1 0x20 ADD PUSH1 0x0 DUP2 MSTORE PUSH1 0x20 ADD PUSH1 0x0 DUP2 MSTORE PUSH1 0x20 ADD PUSH1 0x0 DUP2 MSTORE POP PUSH1 0x9 PUSH1 0x0 PUSH1 0x4 SLOAD DUP2 MSTORE PUSH1 0x20 ADD SWAP1 DUP2 MSTORE PUSH1 0x20 ADD PUSH1 0x0 KECCAK256 PUSH1 0x0 DUP3 ADD MLOAD DUP2 PUSH1 0x0 ADD SSTORE PUSH1 0x20 DUP3 ADD MLOAD DUP2 PUSH1 0x1 ADD SSTORE PUSH1 0x40 DUP3 ADD MLOAD DUP2 PUSH1 0x2 ADD SSTORE PUSH1 0x60 DUP3 ADD MLOAD DUP2 PUSH1 0x3 ADD SSTORE SWAP1 POP POP PUSH1 0x4 SLOAD PUSH1 0x7 DUP2 SWAP1 SSTORE POP PUSH1 0x4 SLOAD PUSH32 0xB3D05FED32DAEC5AA56697B6BE763432A7921AD08804E3FD7BE57F5FFD8E84DB DUP7 DUP7 DUP7 DUP7 DUP7 PUSH1 0x40 MLOAD PUSH2 0x1FCB SWAP6 SWAP5 SWAP4 SWAP3 SWAP2 SWAP1 SWAP5 ISZERO ISZERO DUP6 MSTORE PUSH1 0x1 PUSH1 0x1 PUSH1 0x40 SHL SUB SWAP4 DUP5 AND PUSH1 0x20 DUP7 ADD MSTORE SWAP2 DUP4 AND PUSH1 0x40 DUP6 ADD MSTORE SWAP1 SWAP2 AND PUSH1 0x60 DUP4 ADD MSTORE PUSH3 0xFFFFFF AND PUSH1 0x80 DUP3 ADD MSTORE PUSH1 0xA0 ADD SWAP1 JUMP JUMPDEST PUSH1 0x40 MLOAD DUP1 SWAP2 SUB SWAP1 LOG2 POP POP POP POP POP JUMP JUMPDEST PUSH1 0x0 SLOAD PUSH1 0x1 PUSH1 0x1 PUSH1 0xA0 SHL SUB AND CALLER EQ PUSH2 0x2004 JUMPI PUSH1 0x40 MLOAD PUSH3 0x461BCD PUSH1 0xE5 SHL DUP2 MSTORE PUSH1 0x4 ADD PUSH2 0x757 SWAP1 PUSH2 0x2EB2 JUMP JUMPDEST PUSH1 0x7 SLOAD DUP3 EQ PUSH2 0x2049 JUMPI PUSH1 0x40 MLOAD PUSH3 0x461BCD PUSH1 0xE5 SHL DUP2 MSTORE PUSH1 0x20 PUSH1 0x4 DUP3 ADD MSTORE PUSH1 0x11 PUSH1 0x24 DUP3 ADD MSTORE PUSH17 0x139BDD081858DD1A5D99481CDA59DB985B PUSH1 0x7A SHL PUSH1 0x44 DUP3 ADD MSTORE PUSH1 0x64 ADD PUSH2 0x757 JUMP JUMPDEST PUSH2 0x2054 PUSH2 0x1388 PUSH2 0x2FE7 JUMP JUMPDEST DUP2 SLT ISZERO DUP1 ISZERO PUSH2 0x2065 JUMPI POP PUSH2 0x1388 DUP2 SGT ISZERO JUMPDEST PUSH2 0x20A7 JUMPI PUSH1 0x40 MLOAD PUSH3 0x461BCD PUSH1 0xE5 SHL DUP2 MSTORE PUSH1 0x20 PUSH1 0x4 DUP3 ADD MSTORE PUSH1 0x13 PUSH1 0x24 DUP3 ADD MSTORE PUSH19 0x526573756C74206F7574206F662072616E6765 PUSH1 0x68 SHL PUSH1 0x44 DUP3 ADD MSTORE PUSH1 0x64 ADD PUSH2 0x757 JUMP JUMPDEST PUSH1 0x0 DUP3 DUP2 MSTORE PUSH1 0x8 PUSH1 0x20 MSTORE PUSH1 0x40 SWAP1 KECCAK256 DUP1 SLOAD PUSH2 0x100 SWAP1 DIV PUSH1 0xFF AND DUP1 ISZERO PUSH2 0x20D3 JUMPI POP DUP1 SLOAD PUSH3 0x10000 SWAP1 DIV PUSH1 0xFF AND ISZERO JUMPDEST PUSH2 0x2109 JUMPI PUSH1 0x40 MLOAD PUSH3 0x461BCD PUSH1 0xE5 SHL DUP2 MSTORE PUSH1 0x20 PUSH1 0x4 DUP3 ADD MSTORE PUSH1 0x7 PUSH1 0x24 DUP3 ADD MSTORE PUSH7 0x125B9D985B1A59 PUSH1 0xCA SHL PUSH1 0x44 DUP3 ADD MSTORE PUSH1 0x64 ADD PUSH2 0x757 JUMP JUMPDEST DUP1 SLOAD PUSH3 0xFFFF00 NOT AND PUSH3 0x10000 OR DUP2 SSTORE PUSH1 0x1 DUP1 DUP3 ADD DUP4 SWAP1 SSTORE PUSH1 0x0 DUP5 DUP2 MSTORE PUSH1 0x9 PUSH1 0x20 MSTORE PUSH1 0x40 DUP1 DUP3 KECCAK256 TIMESTAMP SWAP4 ADD SWAP3 SWAP1 SWAP3 SSTORE PUSH1 0x7 SSTORE MLOAD DUP4 SWAP1 PUSH32 0x40277E9171139C6AEA3BAAD573CE3B0F843E17979F9B03706FE89B0EBEA1CBFF SWAP1 PUSH2 0x216B SWAP1 DUP6 DUP2 MSTORE PUSH1 0x20 ADD SWAP1 JUMP JUMPDEST PUSH1 0x40 MLOAD DUP1 SWAP2 SUB SWAP1 LOG2 POP POP POP JUMP JUMPDEST PUSH1 0x0 DUP2 DUP2 MSTORE PUSH1 0x8 PUSH1 0x20 SWAP1 DUP2 MSTORE PUSH1 0x40 DUP1 DUP4 KECCAK256 PUSH1 0x1 PUSH1 0x1 PUSH1 0xA0 SHL SUB DUP7 AND DUP5 MSTORE PUSH1 0xA DUP4 MSTORE DUP2 DUP5 KECCAK256 DUP6 DUP6 MSTORE SWAP1 SWAP3 MSTORE DUP3 KECCAK256 SLOAD DUP1 ISZERO DUP1 PUSH2 0x21BA JUMPI POP DUP2 SLOAD PUSH3 0x10000 SWAP1 DIV PUSH1 0xFF AND ISZERO JUMPDEST ISZERO PUSH2 0x21CA JUMPI PUSH1 0x0 SWAP3 POP POP POP PUSH2 0x22F2 JUMP JUMPDEST PUSH1 0x0 DUP3 PUSH1 0x1 ADD SLOAD SLT PUSH2 0x2281 JUMPI DUP2 SLOAD PUSH1 0x1 DUP4 ADD SLOAD PUSH1 0x0 SWAP2 PUSH1 0x1 PUSH1 0xD8 SHL SWAP1 DIV PUSH3 0xFFFFFF AND SWAP1 PUSH2 0x21F7 SWAP1 DUP5 PUSH2 0x2FAE JUMP JUMPDEST PUSH2 0x2201 SWAP2 SWAP1 PUSH2 0x2FAE JUMP JUMPDEST SWAP1 POP PUSH1 0x0 PUSH2 0x2211 PUSH2 0x2710 DUP1 PUSH2 0x2FAE JUMP JUMPDEST PUSH2 0x221D SWAP1 PUSH2 0x3E8 PUSH2 0x2FAE JUMP JUMPDEST PUSH1 0x2 DUP6 ADD SLOAD PUSH2 0x222C SWAP1 DUP5 PUSH2 0x2FAE JUMP JUMPDEST PUSH2 0x2236 SWAP2 SWAP1 PUSH2 0x2FC5 JUMP JUMPDEST SWAP1 POP PUSH1 0x0 PUSH2 0x2248 PUSH2 0x2710 PUSH2 0x3E8 PUSH2 0x2FAE JUMP JUMPDEST PUSH2 0x2252 SWAP1 DUP5 PUSH2 0x2FC5 JUMP JUMPDEST SWAP1 POP DUP1 DUP3 GT ISZERO PUSH2 0x2260 JUMPI DUP1 SWAP2 POP JUMPDEST DUP2 PUSH2 0x226B DUP3 DUP7 PUSH2 0x2F6F JUMP JUMPDEST PUSH2 0x2275 SWAP2 SWAP1 PUSH2 0x2F9B JUMP JUMPDEST SWAP6 POP POP POP POP POP POP PUSH2 0x22F2 JUMP JUMPDEST PUSH1 0x0 PUSH2 0x2291 PUSH2 0x2710 PUSH2 0x3E8 PUSH2 0x2FAE JUMP JUMPDEST DUP4 SLOAD PUSH1 0x1 DUP6 ADD SLOAD PUSH1 0x1 PUSH1 0xD8 SHL SWAP1 SWAP2 DIV PUSH3 0xFFFFFF AND SWAP1 PUSH2 0x22AF SWAP1 PUSH2 0x2FE7 JUMP JUMPDEST PUSH2 0x22B9 SWAP1 DUP6 PUSH2 0x2FAE JUMP JUMPDEST PUSH2 0x22C3 SWAP2 SWAP1 PUSH2 0x2FAE JUMP JUMPDEST PUSH2 0x22CD SWAP2 SWAP1 PUSH2 0x2FC5 JUMP JUMPDEST SWAP1 POP DUP2 DUP2 LT PUSH2 0x22E2 JUMPI PUSH1 0x0 SWAP4 POP POP POP POP PUSH2 0x22F2 JUMP JUMPDEST PUSH2 0x22EC DUP2 DUP4 PUSH2 0x2F9B JUMP JUMPDEST SWAP4 POP POP POP POP JUMPDEST SWAP3 SWAP2 POP POP JUMP JUMPDEST PUSH1 0xB PUSH1 0x20 MSTORE DUP2 PUSH1 0x0 MSTORE PUSH1 0x40 PUSH1 0x0 KECCAK256 DUP2 DUP2 SLOAD DUP2 LT PUSH2 0x2314 JUMPI PUSH1 0x0 DUP1 REVERT JUMPDEST SWAP1 PUSH1 0x0 MSTORE PUSH1 0x20 PUSH1 0x0 KECCAK256 ADD PUSH1 0x0 SWAP2 POP SWAP2 POP POP SLOAD DUP2 JUMP JUMPDEST CALLER PUSH1 0x0 SWAP1 DUP2 MSTORE PUSH1 0xC PUSH1 0x20 MSTORE PUSH1 0x40 SWAP1 KECCAK256 PUSH1 0x1 ADD SLOAD PUSH1 0xFF AND PUSH2 0x2379 JUMPI PUSH1 0x40 MLOAD PUSH3 0x461BCD PUSH1 0xE5 SHL DUP2 MSTORE PUSH1 0x20 PUSH1 0x4 DUP3 ADD MSTORE PUSH1 0xB PUSH1 0x24 DUP3 ADD MSTORE PUSH11 0x139BDD08195B98589B1959 PUSH1 0xAA SHL PUSH1 0x44 DUP3 ADD MSTORE PUSH1 0x64 ADD PUSH2 0x757 JUMP JUMPDEST CALLER PUSH1 0x0 DUP2 DUP2 MSTORE PUSH1 0xC PUSH1 0x20 MSTORE PUSH1 0x40 DUP1 DUP3 KECCAK256 PUSH1 0x1 ADD DUP1 SLOAD PUSH1 0xFF NOT AND SWAP1 SSTORE MLOAD PUSH32 0xC3F8909F4265C5B63D7D761BD8E16F650147EAFD2BA56DE2CEA36F4080FCBBA3 SWAP2 SWAP1 LOG2 JUMP JUMPDEST PUSH1 0x60 PUSH1 0xE DUP1 SLOAD DUP1 PUSH1 0x20 MUL PUSH1 0x20 ADD PUSH1 0x40 MLOAD SWAP1 DUP2 ADD PUSH1 0x40 MSTORE DUP1 SWAP3 SWAP2 SWAP1 DUP2 DUP2 MSTORE PUSH1 0x20 ADD DUP3 DUP1 SLOAD DUP1 ISZERO PUSH2 0x2413 JUMPI PUSH1 0x20 MUL DUP3 ADD SWAP2 SWAP1 PUSH1 0x0 MSTORE PUSH1 0x20 PUSH1 0x0 KECCAK256 SWAP1 JUMPDEST DUP2 SLOAD PUSH1 0x1 PUSH1 0x1 PUSH1 0xA0 SHL SUB AND DUP2 MSTORE PUSH1 0x1 SWAP1 SWAP2 ADD SWAP1 PUSH1 0x20 ADD DUP1 DUP4 GT PUSH2 0x23F5 JUMPI JUMPDEST POP POP POP POP POP SWAP1 POP SWAP1 JUMP JUMPDEST PUSH1 0xE DUP2 DUP2 SLOAD DUP2 LT PUSH2 0x242D JUMPI PUSH1 0x0 DUP1 REVERT JUMPDEST PUSH1 0x0 SWAP2 DUP3 MSTORE PUSH1 0x20 SWAP1 SWAP2 KECCAK256 ADD SLOAD PUSH1 0x1 PUSH1 0x1 PUSH1 0xA0 SHL SUB AND SWAP1 POP DUP2 JUMP JUMPDEST PUSH1 0x0 SLOAD PUSH1 0x1 PUSH1 0x1 PUSH1 0xA0 SHL SUB AND CALLER EQ PUSH2 0x2471 JUMPI PUSH1 0x40 MLOAD PUSH3 0x461BCD PUSH1 0xE5 SHL DUP2 MSTORE PUSH1 0x4 ADD PUSH2 0x757 SWAP1 PUSH2 0x2EB2 JUMP JUMPDEST PUSH1 0x1 SLOAD PUSH1 0x1 PUSH1 0xA0 SHL SWAP1 DIV PUSH1 0xFF AND ISZERO PUSH2 0x249B JUMPI PUSH1 0x40 MLOAD PUSH3 0x461BCD PUSH1 0xE5 SHL DUP2 MSTORE PUSH1 0x4 ADD PUSH2 0x757 SWAP1 PUSH2 0x3003 JUMP JUMPDEST PUSH1 0x2 SLOAD PUSH1 0x2 SUB PUSH2 0x24BD JUMPI PUSH1 0x40 MLOAD PUSH3 0x461BCD PUSH1 0xE5 SHL DUP2 MSTORE PUSH1 0x4 ADD PUSH2 0x757 SWAP1 PUSH2 0x2ED5 JUMP JUMPDEST PUSH1 0x2 DUP1 SSTORE PUSH1 0x1 PUSH1 0x1 PUSH1 0xA0 SHL SUB DUP3 AND PUSH1 0x0 SWAP1 DUP2 MSTORE PUSH1 0xC PUSH1 0x20 MSTORE PUSH1 0x40 SWAP1 KECCAK256 PUSH1 0x1 DUP2 ADD SLOAD PUSH1 0xFF AND PUSH2 0x251B JUMPI PUSH1 0x40 MLOAD PUSH3 0x461BCD PUSH1 0xE5 SHL DUP2 MSTORE PUSH1 0x20 PUSH1 0x4 DUP3 ADD MSTORE PUSH1 0xB PUSH1 0x24 DUP3 ADD MSTORE PUSH11 0x139BDD08195B98589B1959 PUSH1 0xAA SHL PUSH1 0x44 DUP3 ADD MSTORE PUSH1 0x64 ADD PUSH2 0x757 JUMP JUMPDEST DUP1 SLOAD PUSH3 0x4C4B40 GT ISZERO PUSH2 0x2560 JUMPI PUSH1 0x40 MLOAD PUSH3 0x461BCD PUSH1 0xE5 SHL DUP2 MSTORE PUSH1 0x20 PUSH1 0x4 DUP3 ADD MSTORE PUSH1 0xE PUSH1 0x24 DUP3 ADD MSTORE PUSH14 0x416D6F756E7420746F6F206C6F77 PUSH1 0x90 SHL PUSH1 0x44 DUP3 ADD MSTORE PUSH1 0x64 ADD PUSH2 0x757 JUMP JUMPDEST PUSH1 0x0 DUP3 DUP2 MSTORE PUSH1 0x8 PUSH1 0x20 MSTORE PUSH1 0x40 SWAP1 KECCAK256 DUP1 SLOAD PUSH2 0x100 SWAP1 DIV PUSH1 0xFF AND DUP1 ISZERO PUSH2 0x258C JUMPI POP DUP1 SLOAD PUSH3 0x10000 SWAP1 DIV PUSH1 0xFF AND ISZERO JUMPDEST PUSH2 0x25A8 JUMPI PUSH1 0x40 MLOAD PUSH3 0x461BCD PUSH1 0xE5 SHL DUP2 MSTORE PUSH1 0x4 ADD PUSH2 0x757 SWAP1 PUSH2 0x2F35 JUMP JUMPDEST PUSH1 0x0 DUP4 DUP2 MSTORE PUSH1 0x9 PUSH1 0x20 MSTORE PUSH1 0x40 SWAP1 KECCAK256 SLOAD PUSH2 0x25C4 SWAP1 PUSH2 0xE10 SWAP1 PUSH2 0x2F6F JUMP JUMPDEST TIMESTAMP GT ISZERO PUSH2 0x2608 JUMPI PUSH1 0x40 MLOAD PUSH3 0x461BCD PUSH1 0xE5 SHL DUP2 MSTORE PUSH1 0x20 PUSH1 0x4 DUP3 ADD MSTORE PUSH1 0x12 PUSH1 0x24 DUP3 ADD MSTORE PUSH18 0x10DBDC1E481DDA5B991BDDC818DB1BDCD959 PUSH1 0x72 SHL PUSH1 0x44 DUP3 ADD MSTORE PUSH1 0x64 ADD PUSH2 0x757 JUMP JUMPDEST PUSH1 0x1 PUSH1 0x1 PUSH1 0xA0 SHL SUB DUP5 AND PUSH1 0x0 SWAP1 DUP2 MSTORE PUSH1 0xA PUSH1 0x20 SWAP1 DUP2 MSTORE PUSH1 0x40 DUP1 DUP4 KECCAK256 DUP7 DUP5 MSTORE SWAP1 SWAP2 MSTORE SWAP1 KECCAK256 SLOAD ISZERO PUSH2 0x266A JUMPI PUSH1 0x40 MLOAD PUSH3 0x461BCD PUSH1 0xE5 SHL DUP2 MSTORE PUSH1 0x20 PUSH1 0x4 DUP3 ADD MSTORE PUSH1 0xE PUSH1 0x24 DUP3 ADD MSTORE PUSH14 0x105B1C9958591E4818DBDC1A5959 PUSH1 0x92 SHL PUSH1 0x44 DUP3 ADD MSTORE PUSH1 0x64 ADD PUSH2 0x757 JUMP JUMPDEST DUP2 SLOAD PUSH1 0x40 MLOAD PUSH4 0x70A08231 PUSH1 0xE0 SHL DUP2 MSTORE PUSH1 0x1 PUSH1 0x1 PUSH1 0xA0 SHL SUB DUP7 DUP2 AND PUSH1 0x4 DUP4 ADD MSTORE PUSH1 0x0 SWAP2 PUSH32 0x0 SWAP1 SWAP2 AND SWAP1 PUSH4 0x70A08231 SWAP1 PUSH1 0x24 ADD PUSH1 0x20 PUSH1 0x40 MLOAD DUP1 DUP4 SUB DUP2 DUP7 GAS STATICCALL ISZERO DUP1 ISZERO PUSH2 0x26D7 JUMPI RETURNDATASIZE PUSH1 0x0 DUP1 RETURNDATACOPY RETURNDATASIZE PUSH1 0x0 REVERT JUMPDEST POP POP POP POP PUSH1 0x40 MLOAD RETURNDATASIZE PUSH1 0x1F NOT PUSH1 0x1F DUP3 ADD AND DUP3 ADD DUP1 PUSH1 0x40 MSTORE POP DUP2 ADD SWAP1 PUSH2 0x26FB SWAP2 SWAP1 PUSH2 0x2F82 JUMP JUMPDEST SWAP1 POP DUP2 DUP2 LT ISZERO PUSH2 0x270E JUMPI POP POP POP POP PUSH2 0x2AA0 JUMP JUMPDEST PUSH1 0x40 MLOAD PUSH4 0x6EB1769F PUSH1 0xE1 SHL DUP2 MSTORE PUSH1 0x1 PUSH1 0x1 PUSH1 0xA0 SHL SUB DUP8 DUP2 AND PUSH1 0x4 DUP4 ADD MSTORE ADDRESS PUSH1 0x24 DUP4 ADD MSTORE PUSH1 0x0 SWAP2 PUSH32 0x0 SWAP1 SWAP2 AND SWAP1 PUSH4 0xDD62ED3E SWAP1 PUSH1 0x44 ADD PUSH1 0x20 PUSH1 0x40 MLOAD DUP1 DUP4 SUB DUP2 DUP7 GAS STATICCALL ISZERO DUP1 ISZERO PUSH2 0x277F JUMPI RETURNDATASIZE PUSH1 0x0 DUP1 RETURNDATACOPY RETURNDATASIZE PUSH1 0x0 REVERT JUMPDEST POP POP POP POP PUSH1 0x40 MLOAD RETURNDATASIZE PUSH1 0x1F NOT PUSH1 0x1F DUP3 ADD AND DUP3 ADD DUP1 PUSH1 0x40 MSTORE POP DUP2 ADD SWAP1 PUSH2 0x27A3 SWAP2 SWAP1 PUSH2 0x2F82 JUMP JUMPDEST SWAP1 POP DUP3 DUP2 LT ISZERO PUSH2 0x27B7 JUMPI POP POP POP POP POP PUSH2 0x2AA0 JUMP JUMPDEST PUSH1 0x6 DUP1 SLOAD PUSH4 0xFFFFFFFF AND SWAP1 DUP2 SWAP1 PUSH1 0x0 PUSH2 0x27CF DUP4 PUSH2 0x3023 JUMP JUMPDEST SWAP2 SWAP1 PUSH2 0x100 EXP DUP2 SLOAD DUP2 PUSH4 0xFFFFFFFF MUL NOT AND SWAP1 DUP4 PUSH4 0xFFFFFFFF AND MUL OR SWAP1 SSTORE POP POP PUSH1 0x40 MLOAD DUP1 PUSH1 0x60 ADD PUSH1 0x40 MSTORE DUP1 DUP6 DUP2 MSTORE PUSH1 0x20 ADD DUP3 PUSH4 0xFFFFFFFF AND DUP2 MSTORE PUSH1 0x20 ADD PUSH1 0x0 ISZERO ISZERO DUP2 MSTORE POP PUSH1 0xA PUSH1 0x0 DUP11 PUSH1 0x1 PUSH1 0x1 PUSH1 0xA0 SHL SUB AND PUSH1 0x1 PUSH1 0x1 PUSH1 0xA0 SHL SUB AND DUP2 MSTORE PUSH1 0x20 ADD SWAP1 DUP2 MSTORE PUSH1 0x20 ADD PUSH1 0x0 KECCAK256 PUSH1 0x0 DUP10 DUP2 MSTORE PUSH1 0x20 ADD SWAP1 DUP2 MSTORE PUSH1 0x20 ADD PUSH1 0x0 KECCAK256 PUSH1 0x0 DUP3 ADD MLOAD DUP2 PUSH1 0x0 ADD SSTORE PUSH1 0x20 DUP3 ADD MLOAD DUP2 PUSH1 0x1 ADD PUSH1 0x0 PUSH2 0x100 EXP DUP2 SLOAD DUP2 PUSH4 0xFFFFFFFF MUL NOT AND SWAP1 DUP4 PUSH4 0xFFFFFFFF AND MUL OR SWAP1 SSTORE POP PUSH1 0x40 DUP3 ADD MLOAD DUP2 PUSH1 0x1 ADD PUSH1 0x4 PUSH2 0x100 EXP DUP2 SLOAD DUP2 PUSH1 0xFF MUL NOT AND SWAP1 DUP4 ISZERO ISZERO MUL OR SWAP1 SSTORE POP SWAP1 POP POP PUSH1 0xB PUSH1 0x0 DUP10 PUSH1 0x1 PUSH1 0x1 PUSH1 0xA0 SHL SUB AND PUSH1 0x1 PUSH1 0x1 PUSH1 0xA0 SHL SUB AND DUP2 MSTORE PUSH1 0x20 ADD SWAP1 DUP2 MSTORE PUSH1 0x20 ADD PUSH1 0x0 KECCAK256 DUP8 SWAP1 DUP1 PUSH1 0x1 DUP2 SLOAD ADD DUP1 DUP3 SSTORE DUP1 SWAP2 POP POP PUSH1 0x1 SWAP1 SUB SWAP1 PUSH1 0x0 MSTORE PUSH1 0x20 PUSH1 0x0 KECCAK256 ADD PUSH1 0x0 SWAP1 SWAP2 SWAP1 SWAP2 SWAP1 SWAP2 POP SSTORE PUSH1 0x0 PUSH1 0x9 PUSH1 0x0 DUP10 DUP2 MSTORE PUSH1 0x20 ADD SWAP1 DUP2 MSTORE PUSH1 0x20 ADD PUSH1 0x0 KECCAK256 SWAP1 POP DUP5 DUP2 PUSH1 0x2 ADD PUSH1 0x0 DUP3 DUP3 SLOAD PUSH2 0x2913 SWAP2 SWAP1 PUSH2 0x2F6F JUMP JUMPDEST SWAP1 SWAP2 SSTORE POP POP PUSH1 0x3 DUP2 ADD DUP1 SLOAD SWAP1 PUSH1 0x0 PUSH2 0x292A DUP4 PUSH2 0x3046 JUMP JUMPDEST SWAP2 SWAP1 POP SSTORE POP DUP8 DUP10 PUSH1 0x1 PUSH1 0x1 PUSH1 0xA0 SHL SUB AND PUSH32 0x50970995F776987BCFD0053B1488BC9823F1C134BE16465D2A4D8A6701ECAA82 DUP8 PUSH1 0x40 MLOAD PUSH2 0x296B SWAP2 DUP2 MSTORE PUSH1 0x20 ADD SWAP1 JUMP JUMPDEST PUSH1 0x40 MLOAD DUP1 SWAP2 SUB SWAP1 LOG3 DUP8 DUP10 PUSH1 0x1 PUSH1 0x1 PUSH1 0xA0 SHL SUB AND PUSH32 0x781B72D927FC2FCFD2BE33C7FBFA6C56AAF0A10406AEE7BB7538F0E522BF0BC DUP8 PUSH1 0x40 MLOAD PUSH2 0x29AF SWAP2 DUP2 MSTORE PUSH1 0x20 ADD SWAP1 JUMP JUMPDEST PUSH1 0x40 MLOAD DUP1 SWAP2 SUB SWAP1 LOG3 PUSH1 0x40 MLOAD PUSH4 0x23B872DD PUSH1 0xE0 SHL DUP2 MSTORE PUSH1 0x1 PUSH1 0x1 PUSH1 0xA0 SHL SUB DUP11 DUP2 AND PUSH1 0x4 DUP4 ADD MSTORE ADDRESS PUSH1 0x24 DUP4 ADD MSTORE PUSH1 0x44 DUP3 ADD DUP8 SWAP1 MSTORE PUSH32 0x0 AND SWAP1 PUSH4 0x23B872DD SWAP1 PUSH1 0x64 ADD PUSH1 0x20 PUSH1 0x40 MLOAD DUP1 DUP4 SUB DUP2 PUSH1 0x0 DUP8 GAS CALL ISZERO DUP1 ISZERO PUSH2 0x2A2C JUMPI RETURNDATASIZE PUSH1 0x0 DUP1 RETURNDATACOPY RETURNDATASIZE PUSH1 0x0 REVERT JUMPDEST POP POP POP POP PUSH1 0x40 MLOAD RETURNDATASIZE PUSH1 0x1F NOT PUSH1 0x1F DUP3 ADD AND DUP3 ADD DUP1 PUSH1 0x40 MSTORE POP DUP2 ADD SWAP1 PUSH2 0x2A50 SWAP2 SWAP1 PUSH2 0x2EF8 JUMP JUMPDEST PUSH2 0x2A8E JUMPI PUSH1 0x40 MLOAD PUSH3 0x461BCD PUSH1 0xE5 SHL DUP2 MSTORE PUSH1 0x20 PUSH1 0x4 DUP3 ADD MSTORE PUSH1 0xF PUSH1 0x24 DUP3 ADD MSTORE PUSH15 0x151C985B9CD9995C8819985A5B1959 PUSH1 0x8A SHL PUSH1 0x44 DUP3 ADD MSTORE PUSH1 0x64 ADD PUSH2 0x757 JUMP JUMPDEST PUSH2 0x2A98 DUP7 DUP7 PUSH2 0x2B15 JUMP JUMPDEST POP POP POP POP POP POP POP JUMPDEST POP POP PUSH1 0x1 PUSH1 0x2 SSTORE JUMP JUMPDEST PUSH1 0x1 PUSH1 0x1 PUSH1 0xA0 SHL SUB DUP2 AND PUSH1 0x0 SWAP1 DUP2 MSTORE PUSH1 0xB PUSH1 0x20 SWAP1 DUP2 MSTORE PUSH1 0x40 SWAP2 DUP3 SWAP1 KECCAK256 DUP1 SLOAD DUP4 MLOAD DUP2 DUP5 MUL DUP2 ADD DUP5 ADD SWAP1 SWAP5 MSTORE DUP1 DUP5 MSTORE PUSH1 0x60 SWAP4 SWAP3 DUP4 ADD DUP3 DUP3 DUP1 ISZERO PUSH2 0x2B09 JUMPI PUSH1 0x20 MUL DUP3 ADD SWAP2 SWAP1 PUSH1 0x0 MSTORE PUSH1 0x20 PUSH1 0x0 KECCAK256 SWAP1 JUMPDEST DUP2 SLOAD DUP2 MSTORE PUSH1 0x20 ADD SWAP1 PUSH1 0x1 ADD SWAP1 DUP1 DUP4 GT PUSH2 0x2AF5 JUMPI JUMPDEST POP POP POP POP POP SWAP1 POP SWAP2 SWAP1 POP JUMP JUMPDEST PUSH1 0x1 PUSH1 0x1 PUSH1 0x78 SHL SUB DUP2 GT ISZERO PUSH2 0x2B5F JUMPI PUSH1 0x40 MLOAD PUSH3 0x461BCD PUSH1 0xE5 SHL DUP2 MSTORE PUSH1 0x20 PUSH1 0x4 DUP3 ADD MSTORE PUSH1 0x10 PUSH1 0x24 DUP3 ADD MSTORE PUSH16 0x416D6F756E7420746F6F206C61726765 PUSH1 0x80 SHL PUSH1 0x44 DUP3 ADD MSTORE PUSH1 0x64 ADD PUSH2 0x757 JUMP JUMPDEST PUSH1 0x40 DUP1 MLOAD PUSH2 0x1E0 DUP2 ADD DUP3 MSTORE ADDRESS DUP2 MSTORE PUSH1 0x0 PUSH1 0x20 DUP3 ADD DUP2 SWAP1 MSTORE PUSH1 0x5A DUP3 DUP5 ADD MSTORE DUP5 SLOAD PUSH3 0xFFFFFF PUSH1 0x1 PUSH1 0xD8 SHL DUP3 DIV AND PUSH1 0x60 DUP5 ADD MSTORE PUSH1 0xFF DUP2 AND ISZERO ISZERO PUSH1 0x80 DUP5 ADD MSTORE PUSH1 0x1 PUSH1 0xA0 DUP5 ADD MSTORE PUSH1 0x3 PUSH1 0xC0 DUP5 ADD MSTORE PUSH1 0xE0 DUP4 ADD DUP3 SWAP1 MSTORE PUSH1 0x1 PUSH1 0x1 PUSH1 0x78 SHL SUB DUP6 AND PUSH2 0x100 DUP5 ADD MSTORE PUSH1 0x1 PUSH1 0x1 PUSH1 0x40 SHL SUB PUSH4 0x1000000 DUP3 DIV DUP2 AND PUSH2 0x120 DUP6 ADD MSTORE PUSH1 0x1 PUSH1 0x58 SHL DUP3 DIV DUP2 AND PUSH2 0x140 DUP6 ADD MSTORE PUSH1 0x1 PUSH1 0x98 SHL SWAP1 SWAP2 DIV AND PUSH2 0x160 DUP4 ADD MSTORE PUSH2 0x180 DUP3 ADD DUP2 SWAP1 MSTORE PUSH2 0x1A0 DUP3 ADD DUP2 SWAP1 MSTORE PUSH2 0x1C0 DUP3 ADD DUP2 SWAP1 MSTORE SWAP2 MLOAD PUSH4 0xB7F989F PUSH1 0xE3 SHL DUP2 MSTORE SWAP1 SWAP2 PUSH32 0x0 PUSH1 0x1 PUSH1 0x1 PUSH1 0xA0 SHL SUB AND SWAP2 PUSH4 0x5BFCC4F8 SWAP2 PUSH2 0x2C5D SWAP2 DUP6 SWAP2 PUSH2 0x3E8 SWAP2 PUSH1 0x4 ADD PUSH2 0x3081 JUMP JUMPDEST PUSH1 0x0 PUSH1 0x40 MLOAD DUP1 DUP4 SUB DUP2 PUSH1 0x0 DUP8 DUP1 EXTCODESIZE ISZERO DUP1 ISZERO PUSH2 0x2C77 JUMPI PUSH1 0x0 DUP1 REVERT JUMPDEST POP GAS CALL ISZERO DUP1 ISZERO PUSH2 0x2C8B JUMPI RETURNDATASIZE PUSH1 0x0 DUP1 RETURNDATACOPY RETURNDATASIZE PUSH1 0x0 REVERT JUMPDEST POP POP POP POP POP POP POP JUMP JUMPDEST PUSH1 0x0 PUSH1 0x20 DUP3 DUP5 SUB SLT ISZERO PUSH2 0x2CA6 JUMPI PUSH1 0x0 DUP1 REVERT JUMPDEST POP CALLDATALOAD SWAP2 SWAP1 POP JUMP JUMPDEST DUP1 ISZERO ISZERO DUP2 EQ PUSH2 0x2CBB JUMPI PUSH1 0x0 DUP1 REVERT JUMPDEST POP JUMP JUMPDEST PUSH1 0x0 PUSH1 0x20 DUP3 DUP5 SUB SLT ISZERO PUSH2 0x2CD0 JUMPI PUSH1 0x0 DUP1 REVERT JUMPDEST DUP2 CALLDATALOAD PUSH2 0x2CDB DUP2 PUSH2 0x2CAD JUMP JUMPDEST SWAP4 SWAP3 POP POP POP JUMP JUMPDEST DUP1 CALLDATALOAD PUSH1 0x1 PUSH1 0x1 PUSH1 0x40 SHL SUB DUP2 AND DUP2 EQ PUSH2 0x2CF9 JUMPI PUSH1 0x0 DUP1 REVERT JUMPDEST SWAP2 SWAP1 POP JUMP JUMPDEST PUSH1 0x0 DUP1 PUSH1 0x40 DUP4 DUP6 SUB SLT ISZERO PUSH2 0x2D11 JUMPI PUSH1 0x0 DUP1 REVERT JUMPDEST DUP3 CALLDATALOAD PUSH4 0xFFFFFFFF DUP2 AND DUP2 EQ PUSH2 0x2D25 JUMPI PUSH1 0x0 DUP1 REVERT JUMPDEST SWAP2 POP PUSH2 0x2D33 PUSH1 0x20 DUP5 ADD PUSH2 0x2CE2 JUMP JUMPDEST SWAP1 POP SWAP3 POP SWAP3 SWAP1 POP JUMP JUMPDEST DUP1 CALLDATALOAD PUSH1 0x1 PUSH1 0x1 PUSH1 0xA0 SHL SUB DUP2 AND DUP2 EQ PUSH2 0x2CF9 JUMPI PUSH1 0x0 DUP1 REVERT JUMPDEST PUSH1 0x0 PUSH1 0x20 DUP3 DUP5 SUB SLT ISZERO PUSH2 0x2D65 JUMPI PUSH1 0x0 DUP1 REVERT JUMPDEST PUSH2 0x2CDB DUP3 PUSH2 0x2D3C JUMP JUMPDEST PUSH1 0x0 DUP1 PUSH1 0x40 DUP4 DUP6 SUB SLT ISZERO PUSH2 0x2D81 JUMPI PUSH1 0x0 DUP1 REVERT JUMPDEST POP POP DUP1 CALLDATALOAD SWAP3 PUSH1 0x20 SWAP1 SWAP2 ADD CALLDATALOAD SWAP2 POP JUMP JUMPDEST PUSH1 0x0 DUP1 PUSH1 0x0 DUP1 PUSH1 0x0 PUSH1 0xA0 DUP7 DUP9 SUB SLT ISZERO PUSH2 0x2DA8 JUMPI PUSH1 0x0 DUP1 REVERT JUMPDEST DUP6 CALLDATALOAD PUSH2 0x2DB3 DUP2 PUSH2 0x2CAD JUMP JUMPDEST SWAP5 POP PUSH2 0x2DC1 PUSH1 0x20 DUP8 ADD PUSH2 0x2CE2 JUMP JUMPDEST SWAP4 POP PUSH2 0x2DCF PUSH1 0x40 DUP8 ADD PUSH2 0x2CE2 JUMP JUMPDEST SWAP3 POP PUSH2 0x2DDD PUSH1 0x60 DUP8 ADD PUSH2 0x2CE2 JUMP JUMPDEST SWAP2 POP PUSH1 0x80 DUP7 ADD CALLDATALOAD PUSH3 0xFFFFFF DUP2 AND DUP2 EQ PUSH2 0x2DF5 JUMPI PUSH1 0x0 DUP1 REVERT JUMPDEST DUP1 SWAP2 POP POP SWAP3 SWAP6 POP SWAP3 SWAP6 SWAP1 SWAP4 POP JUMP JUMPDEST PUSH1 0x0 DUP1 PUSH1 0x40 DUP4 DUP6 SUB SLT ISZERO PUSH2 0x2E16 JUMPI PUSH1 0x0 DUP1 REVERT JUMPDEST PUSH2 0x2E1F DUP4 PUSH2 0x2D3C JUMP JUMPDEST SWAP5 PUSH1 0x20 SWAP4 SWAP1 SWAP4 ADD CALLDATALOAD SWAP4 POP POP POP JUMP JUMPDEST PUSH1 0x20 DUP1 DUP3 MSTORE DUP3 MLOAD DUP3 DUP3 ADD DUP2 SWAP1 MSTORE PUSH1 0x0 SWAP2 SWAP1 DUP5 DUP3 ADD SWAP1 PUSH1 0x40 DUP6 ADD SWAP1 DUP5 JUMPDEST DUP2 DUP2 LT ISZERO PUSH2 0x2E6E JUMPI DUP4 MLOAD PUSH1 0x1 PUSH1 0x1 PUSH1 0xA0 SHL SUB AND DUP4 MSTORE SWAP3 DUP5 ADD SWAP3 SWAP2 DUP5 ADD SWAP2 PUSH1 0x1 ADD PUSH2 0x2E49 JUMP JUMPDEST POP SWAP1 SWAP7 SWAP6 POP POP POP POP POP POP JUMP JUMPDEST PUSH1 0x20 DUP1 DUP3 MSTORE DUP3 MLOAD DUP3 DUP3 ADD DUP2 SWAP1 MSTORE PUSH1 0x0 SWAP2 SWAP1 DUP5 DUP3 ADD SWAP1 PUSH1 0x40 DUP6 ADD SWAP1 DUP5 JUMPDEST DUP2 DUP2 LT ISZERO PUSH2 0x2E6E JUMPI DUP4 MLOAD DUP4 MSTORE SWAP3 DUP5 ADD SWAP3 SWAP2 DUP5 ADD SWAP2 PUSH1 0x1 ADD PUSH2 0x2E96 JUMP JUMPDEST PUSH1 0x20 DUP1 DUP3 MSTORE PUSH1 0x9 SWAP1 DUP3 ADD MSTORE PUSH9 0x2737BA1030B236B4B7 PUSH1 0xB9 SHL PUSH1 0x40 DUP3 ADD MSTORE PUSH1 0x60 ADD SWAP1 JUMP JUMPDEST PUSH1 0x20 DUP1 DUP3 MSTORE PUSH1 0x9 SWAP1 DUP3 ADD MSTORE PUSH9 0x1499595B9D1C985B9D PUSH1 0xBA SHL PUSH1 0x40 DUP3 ADD MSTORE PUSH1 0x60 ADD SWAP1 JUMP JUMPDEST PUSH1 0x0 PUSH1 0x20 DUP3 DUP5 SUB SLT ISZERO PUSH2 0x2F0A JUMPI PUSH1 0x0 DUP1 REVERT JUMPDEST DUP2 MLOAD PUSH2 0x2CDB DUP2 PUSH2 0x2CAD JUMP JUMPDEST PUSH1 0x20 DUP1 DUP3 MSTORE PUSH1 0x6 SWAP1 DUP3 ADD MSTORE PUSH6 0x11985A5B1959 PUSH1 0xD2 SHL PUSH1 0x40 DUP3 ADD MSTORE PUSH1 0x60 ADD SWAP1 JUMP JUMPDEST PUSH1 0x20 DUP1 DUP3 MSTORE PUSH1 0xA SWAP1 DUP3 ADD MSTORE PUSH10 0x4E6F7420616374697665 PUSH1 0xB0 SHL PUSH1 0x40 DUP3 ADD MSTORE PUSH1 0x60 ADD SWAP1 JUMP JUMPDEST PUSH4 0x4E487B71 PUSH1 0xE0 SHL PUSH1 0x0 MSTORE PUSH1 0x11 PUSH1 0x4 MSTORE PUSH1 0x24 PUSH1 0x0 REVERT JUMPDEST DUP1 DUP3 ADD DUP1 DUP3 GT ISZERO PUSH2 0x22F2 JUMPI PUSH2 0x22F2 PUSH2 0x2F59 JUMP JUMPDEST PUSH1 0x0 PUSH1 0x20 DUP3 DUP5 SUB SLT ISZERO PUSH2 0x2F94 JUMPI PUSH1 0x0 DUP1 REVERT JUMPDEST POP MLOAD SWAP2 SWAP1 POP JUMP JUMPDEST DUP2 DUP2 SUB DUP2 DUP2 GT ISZERO PUSH2 0x22F2 JUMPI PUSH2 0x22F2 PUSH2 0x2F59 JUMP JUMPDEST DUP1 DUP3 MUL DUP2 ISZERO DUP3 DUP3 DIV DUP5 EQ OR PUSH2 0x22F2 JUMPI PUSH2 0x22F2 PUSH2 0x2F59 JUMP JUMPDEST PUSH1 0x0 DUP3 PUSH2 0x2FE2 JUMPI PUSH4 0x4E487B71 PUSH1 0xE0 SHL PUSH1 0x0 MSTORE PUSH1 0x12 PUSH1 0x4 MSTORE PUSH1 0x24 PUSH1 0x0 REVERT JUMPDEST POP DIV SWAP1 JUMP JUMPDEST PUSH1 0x0 PUSH1 0x1 PUSH1 0xFF SHL DUP3 ADD PUSH2 0x2FFC JUMPI PUSH2 0x2FFC PUSH2 0x2F59 JUMP JUMPDEST POP PUSH1 0x0 SUB SWAP1 JUMP JUMPDEST PUSH1 0x20 DUP1 DUP3 MSTORE PUSH1 0x6 SWAP1 DUP3 ADD MSTORE PUSH6 0x14185D5CD959 PUSH1 0xD2 SHL PUSH1 0x40 DUP3 ADD MSTORE PUSH1 0x60 ADD SWAP1 JUMP JUMPDEST PUSH1 0x0 PUSH4 0xFFFFFFFF DUP1 DUP4 AND DUP2 DUP2 SUB PUSH2 0x303C JUMPI PUSH2 0x303C PUSH2 0x2F59 JUMP JUMPDEST PUSH1 0x1 ADD SWAP4 SWAP3 POP POP POP JUMP JUMPDEST PUSH1 0x0 PUSH1 0x1 DUP3 ADD PUSH2 0x3058 JUMPI PUSH2 0x3058 PUSH2 0x2F59 JUMP JUMPDEST POP PUSH1 0x1 ADD SWAP1 JUMP JUMPDEST PUSH1 0x3 DUP2 LT PUSH2 0x307D JUMPI PUSH4 0x4E487B71 PUSH1 0xE0 SHL PUSH1 0x0 MSTORE PUSH1 0x21 PUSH1 0x4 MSTORE PUSH1 0x24 PUSH1 0x0 REVERT JUMPDEST SWAP1 MSTORE JUMP JUMPDEST DUP4 MLOAD PUSH1 0x1 PUSH1 0x1 PUSH1 0xA0 SHL SUB AND DUP2 MSTORE PUSH2 0x220 DUP2 ADD PUSH1 0x20 DUP6 ADD MLOAD PUSH2 0x30AA PUSH1 0x20 DUP5 ADD DUP3 PUSH4 0xFFFFFFFF AND SWAP1 MSTORE JUMP JUMPDEST POP PUSH1 0x40 DUP6 ADD MLOAD PUSH2 0x30C0 PUSH1 0x40 DUP5 ADD DUP3 PUSH2 0xFFFF AND SWAP1 MSTORE JUMP JUMPDEST POP PUSH1 0x60 DUP6 ADD MLOAD PUSH2 0x30D7 PUSH1 0x60 DUP5 ADD DUP3 PUSH3 0xFFFFFF AND SWAP1 MSTORE JUMP JUMPDEST POP PUSH1 0x80 DUP6 ADD MLOAD PUSH2 0x30EB PUSH1 0x80 DUP5 ADD DUP3 ISZERO ISZERO SWAP1 MSTORE JUMP JUMPDEST POP PUSH1 0xA0 DUP6 ADD MLOAD PUSH2 0x30FF PUSH1 0xA0 DUP5 ADD DUP3 ISZERO ISZERO SWAP1 MSTORE JUMP JUMPDEST POP PUSH1 0xC0 DUP6 ADD MLOAD PUSH2 0x3114 PUSH1 0xC0 DUP5 ADD DUP3 PUSH1 0xFF AND SWAP1 MSTORE JUMP JUMPDEST POP PUSH1 0xE0 DUP6 ADD MLOAD PUSH2 0x3127 PUSH1 0xE0 DUP5 ADD DUP3 PUSH2 0x305F JUMP JUMPDEST POP PUSH2 0x100 DUP6 DUP2 ADD MLOAD PUSH1 0x1 PUSH1 0x1 PUSH1 0x78 SHL SUB AND SWAP1 DUP4 ADD MSTORE PUSH2 0x120 DUP1 DUP7 ADD MLOAD PUSH1 0x1 PUSH1 0x1 PUSH1 0x40 SHL SUB SWAP1 DUP2 AND SWAP2 DUP5 ADD SWAP2 SWAP1 SWAP2 MSTORE PUSH2 0x140 DUP1 DUP8 ADD MLOAD DUP3 AND SWAP1 DUP5 ADD MSTORE PUSH2 0x160 DUP1 DUP8 ADD MLOAD SWAP1 SWAP2 AND SWAP1 DUP4 ADD MSTORE PUSH2 0x180 DUP1 DUP7 ADD MLOAD ISZERO ISZERO SWAP1 DUP4 ADD MSTORE PUSH2 0x1A0 DUP1 DUP7 ADD MLOAD PUSH1 0x1 PUSH1 0x1 PUSH1 0xA0 SHL SUB SWAP1 DUP2 AND SWAP2 DUP5 ADD SWAP2 SWAP1 SWAP2 MSTORE PUSH2 0x1C0 SWAP6 DUP7 ADD MLOAD PUSH3 0xFFFFFF AND SWAP6 DUP4 ADD SWAP6 SWAP1 SWAP6 MSTORE PUSH2 0xFFFF SWAP4 SWAP1 SWAP4 AND PUSH2 0x1E0 DUP3 ADD MSTORE SWAP3 AND PUSH2 0x200 SWAP1 SWAP3 ADD SWAP2 SWAP1 SWAP2 MSTORE SWAP1 JUMP INVALID LOG2 PUSH5 0x6970667358 0x22 SLT KECCAK256 LT 0x24 PUSH14 0x670D34C87ADEFE70E79ED3FEA75C PUSH1 0xBD SWAP3 0xD3 0xE7 0xBF 0x25 ADDMOD SELFDESTRUCT 0xD6 0x22 0xAA 0x2B DUP9 MUL PUSH5 0x736F6C6343 STOP ADDMOD SGT STOP CALLER "},"methodIdentifiers":{"BASIS_POINTS()":"e1f1c4a7","COPY_WINDOW()":"42c9c421","EMERGENCY_DELAY()":"82944e2d","MAX_RESULT_PCT()":"c8541cf1","MIN_COLLATERAL()":"fa779648","acceptAdmin()":"0e18b681","activeSignalId()":"30cb5b4a","admin()":"f851a440","adminDeposit(uint256)":"08687794","autoCopy(address)":"8e1f4fcf","autoCopyUsers(uint256)":"d89052f5","cancelSignal(uint256)":"840f51f5","claimProceeds(uint256)":"783e9f71","closeSignal(uint256,int256)":"a1dd5752","closeTradeMarket(uint32,uint64)":"36ce736b","copyTrade(uint256,uint256)":"7ee7cf14","diamond()":"f0b7db4e","disableAutoCopy()":"a5eda181","emergencyWithdraw(uint256)":"5312ea8e","enableAutoCopy(uint256)":"31794a03","executeCopyFor(address,uint256)":"e6b8d04f","feePercent()":"7fd6f15c","getActiveSignalId()":"4cb96a92","getAutoCopyUserCount()":"cfb18916","getAutoCopyUsers()":"be55b9e5","getExpectedPayout(address,uint256)":"a5519036","getUserSignalIds(address)":"fc6fee9c","isAutoCopyUser(address)":"b9341b1c","nextTradeIndex()":"2e1b5124","paused()":"5c975abb","pendingAdmin()":"26782247","positions(address,uint256)":"c1be6677","postSignal(bool,uint64,uint64,uint64,uint24)":"99d8528e","setFeePercent(uint256)":"7ce3489b","setPaused(bool)":"16c38b3c","signalCore(uint256)":"7a88d0b5","signalCount()":"ae0041aa","signalMeta(uint256)":"80447e32","totalFeesCollected()":"60c6d8ae","transferAdmin(address)":"75829def","usdc()":"3e413bee","userSignalIds(address,uint256)":"a5534664","withdrawFees()":"476343ee"}}}}}