{"contracts/StrategyMarketplace.sol":{"StrategyMarketplace":{"abi":[{"inputs":[{"internalType":"address","name":"_usdc","type":"address"},{"internalType":"address","name":"_diamond","type":"address"}],"stateMutability":"nonpayable","type":"constructor"},{"anonymous":false,"inputs":[{"indexed":true,"internalType":"address","name":"newAdmin","type":"address"}],"name":"AdminTransferStarted","type":"event"},{"anonymous":false,"inputs":[{"indexed":true,"internalType":"address","name":"oldAdmin","type":"address"},{"indexed":true,"internalType":"address","name":"newAdmin","type":"address"}],"name":"AdminTransferred","type":"event"},{"anonymous":false,"inputs":[{"indexed":true,"internalType":"address","name":"follower","type":"address"},{"indexed":true,"internalType":"address","name":"provider","type":"address"}],"name":"FollowDisabled","type":"event"},{"anonymous":false,"inputs":[{"indexed":true,"internalType":"address","name":"follower","type":"address"},{"indexed":true,"internalType":"address","name":"provider","type":"address"},{"indexed":false,"internalType":"uint256","name":"amount","type":"uint256"}],"name":"FollowEnabled","type":"event"},{"anonymous":false,"inputs":[{"indexed":false,"internalType":"uint256","name":"amount","type":"uint256"}],"name":"PlatformFeeWithdrawn","type":"event"},{"anonymous":false,"inputs":[{"indexed":true,"internalType":"address","name":"user","type":"address"},{"indexed":true,"internalType":"uint256","name":"signalId","type":"uint256"},{"indexed":false,"internalType":"uint256","name":"payout","type":"uint256"},{"indexed":false,"internalType":"uint256","name":"providerFee","type":"uint256"},{"indexed":false,"internalType":"uint256","name":"platformFee","type":"uint256"}],"name":"ProceedsClaimed","type":"event"},{"anonymous":false,"inputs":[{"indexed":true,"internalType":"address","name":"provider","type":"address"},{"indexed":false,"internalType":"uint256","name":"amount","type":"uint256"}],"name":"ProviderFeeClaimed","type":"event"},{"anonymous":false,"inputs":[{"indexed":true,"internalType":"address","name":"provider","type":"address"}],"name":"ProviderRegistered","type":"event"},{"anonymous":false,"inputs":[{"indexed":true,"internalType":"uint256","name":"signalId","type":"uint256"},{"indexed":true,"internalType":"address","name":"provider","type":"address"}],"name":"SignalCancelled","type":"event"},{"anonymous":false,"inputs":[{"indexed":true,"internalType":"uint256","name":"signalId","type":"uint256"},{"indexed":true,"internalType":"address","name":"provider","type":"address"},{"indexed":false,"internalType":"int256","name":"resultPct","type":"int256"}],"name":"SignalClosed","type":"event"},{"anonymous":false,"inputs":[{"indexed":true,"internalType":"uint256","name":"signalId","type":"uint256"},{"indexed":true,"internalType":"address","name":"provider","type":"address"},{"indexed":false,"internalType":"bool","name":"long","type":"bool"},{"indexed":false,"internalType":"uint64","name":"entryPrice","type":"uint64"},{"indexed":false,"internalType":"uint64","name":"tp","type":"uint64"},{"indexed":false,"internalType":"uint64","name":"sl","type":"uint64"},{"indexed":false,"internalType":"uint24","name":"leverage","type":"uint24"}],"name":"SignalPosted","type":"event"},{"anonymous":false,"inputs":[{"indexed":true,"internalType":"address","name":"user","type":"address"},{"indexed":true,"internalType":"uint256","name":"signalId","type":"uint256"},{"indexed":false,"internalType":"uint256","name":"amount","type":"uint256"}],"name":"TradeCopied","type":"event"},{"inputs":[],"name":"BASIS_POINTS","outputs":[{"internalType":"uint256","name":"","type":"uint256"}],"stateMutability":"view","type":"function"},{"inputs":[],"name":"COPY_WINDOW","outputs":[{"internalType":"uint256","name":"","type":"uint256"}],"stateMutability":"view","type":"function"},{"inputs":[],"name":"EMERGENCY_DELAY","outputs":[{"internalType":"uint256","name":"","type":"uint256"}],"stateMutability":"view","type":"function"},{"inputs":[],"name":"LEVERAGE_PRECISION","outputs":[{"internalType":"uint256","name":"","type":"uint256"}],"stateMutability":"view","type":"function"},{"inputs":[],"name":"MAX_RESULT_PCT","outputs":[{"internalType":"int256","name":"","type":"int256"}],"stateMutability":"view","type":"function"},{"inputs":[],"name":"MIN_COLLATERAL","outputs":[{"internalType":"uint256","name":"","type":"uint256"}],"stateMutability":"view","type":"function"},{"inputs":[],"name":"PLATFORM_FEE","outputs":[{"internalType":"uint256","name":"","type":"uint256"}],"stateMutability":"view","type":"function"},{"inputs":[],"name":"PRICE_PRECISION","outputs":[{"internalType":"uint256","name":"","type":"uint256"}],"stateMutability":"view","type":"function"},{"inputs":[],"name":"PROVIDER_FEE","outputs":[{"internalType":"uint256","name":"","type":"uint256"}],"stateMutability":"view","type":"function"},{"inputs":[],"name":"TOTAL_FEE","outputs":[{"internalType":"uint256","name":"","type":"uint256"}],"stateMutability":"view","type":"function"},{"inputs":[],"name":"acceptAdmin","outputs":[],"stateMutability":"nonpayable","type":"function"},{"inputs":[],"name":"admin","outputs":[{"internalType":"address","name":"","type":"address"}],"stateMutability":"view","type":"function"},{"inputs":[{"internalType":"uint256","name":"_amount","type":"uint256"}],"name":"adminDeposit","outputs":[],"stateMutability":"nonpayable","type":"function"},{"inputs":[{"internalType":"uint256","name":"_id","type":"uint256"}],"name":"cancelSignal","outputs":[],"stateMutability":"nonpayable","type":"function"},{"inputs":[{"internalType":"uint256","name":"_id","type":"uint256"}],"name":"claimProceeds","outputs":[],"stateMutability":"nonpayable","type":"function"},{"inputs":[],"name":"claimProviderFees","outputs":[],"stateMutability":"nonpayable","type":"function"},{"inputs":[{"internalType":"uint256","name":"_id","type":"uint256"},{"internalType":"int256","name":"_result","type":"int256"}],"name":"closeSignal","outputs":[],"stateMutability":"nonpayable","type":"function"},{"inputs":[{"internalType":"uint32","name":"_index","type":"uint32"},{"internalType":"uint64","name":"_expectedPrice","type":"uint64"}],"name":"closeTradeMarket","outputs":[],"stateMutability":"nonpayable","type":"function"},{"inputs":[{"internalType":"uint256","name":"_id","type":"uint256"},{"internalType":"uint256","name":"_amount","type":"uint256"}],"name":"copySignal","outputs":[],"stateMutability":"nonpayable","type":"function"},{"inputs":[],"name":"diamond","outputs":[{"internalType":"contract IGNSMultiCollatDiamond","name":"","type":"address"}],"stateMutability":"view","type":"function"},{"inputs":[{"internalType":"uint256","name":"_id","type":"uint256"}],"name":"emergencyWithdraw","outputs":[],"stateMutability":"nonpayable","type":"function"},{"inputs":[{"internalType":"address","name":"_follower","type":"address"},{"internalType":"uint256","name":"_signalId","type":"uint256"}],"name":"executeCopyFor","outputs":[],"stateMutability":"nonpayable","type":"function"},{"inputs":[{"internalType":"address","name":"_provider","type":"address"},{"internalType":"uint256","name":"_amountPerTrade","type":"uint256"}],"name":"followProvider","outputs":[],"stateMutability":"nonpayable","type":"function"},{"inputs":[{"internalType":"address","name":"","type":"address"},{"internalType":"uint256","name":"","type":"uint256"}],"name":"followerProviders","outputs":[{"internalType":"address","name":"","type":"address"}],"stateMutability":"view","type":"function"},{"inputs":[{"internalType":"address","name":"","type":"address"},{"internalType":"address","name":"","type":"address"}],"name":"follows","outputs":[{"internalType":"uint256","name":"amountPerTrade","type":"uint256"},{"internalType":"bool","name":"enabled","type":"bool"}],"stateMutability":"view","type":"function"},{"inputs":[{"internalType":"address","name":"_follower","type":"address"}],"name":"getFollowerProviders","outputs":[{"internalType":"address[]","name":"","type":"address[]"}],"stateMutability":"view","type":"function"},{"inputs":[],"name":"getProviderCount","outputs":[{"internalType":"uint256","name":"","type":"uint256"}],"stateMutability":"view","type":"function"},{"inputs":[{"internalType":"address","name":"_provider","type":"address"}],"name":"getProviderFollowers","outputs":[{"internalType":"address[]","name":"","type":"address[]"}],"stateMutability":"view","type":"function"},{"inputs":[],"name":"getProviderList","outputs":[{"internalType":"address[]","name":"","type":"address[]"}],"stateMutability":"view","type":"function"},{"inputs":[{"internalType":"address","name":"_provider","type":"address"},{"internalType":"uint256","name":"_from","type":"uint256"},{"internalType":"uint256","name":"_count","type":"uint256"}],"name":"getProviderSignals","outputs":[{"internalType":"uint256[]","name":"","type":"uint256[]"}],"stateMutability":"view","type":"function"},{"inputs":[{"internalType":"address","name":"_user","type":"address"}],"name":"getUserSignalIds","outputs":[{"internalType":"uint256[]","name":"","type":"uint256[]"}],"stateMutability":"view","type":"function"},{"inputs":[],"name":"globalSignalCount","outputs":[{"internalType":"uint256","name":"","type":"uint256"}],"stateMutability":"view","type":"function"},{"inputs":[],"name":"nextTradeIndex","outputs":[{"internalType":"uint32","name":"","type":"uint32"}],"stateMutability":"view","type":"function"},{"inputs":[],"name":"paused","outputs":[{"internalType":"bool","name":"","type":"bool"}],"stateMutability":"view","type":"function"},{"inputs":[],"name":"pendingAdmin","outputs":[{"internalType":"address","name":"","type":"address"}],"stateMutability":"view","type":"function"},{"inputs":[],"name":"platformFeesCollected","outputs":[{"internalType":"uint256","name":"","type":"uint256"}],"stateMutability":"view","type":"function"},{"inputs":[{"internalType":"address","name":"","type":"address"},{"internalType":"uint256","name":"","type":"uint256"}],"name":"positions","outputs":[{"internalType":"uint256","name":"collateral","type":"uint256"},{"internalType":"uint32","name":"tradeIndex","type":"uint32"},{"internalType":"bool","name":"claimed","type":"bool"}],"stateMutability":"view","type":"function"},{"inputs":[{"internalType":"bool","name":"_long","type":"bool"},{"internalType":"uint64","name":"_entry","type":"uint64"},{"internalType":"uint64","name":"_tp","type":"uint64"},{"internalType":"uint64","name":"_sl","type":"uint64"},{"internalType":"uint24","name":"_lev","type":"uint24"}],"name":"postSignal","outputs":[],"stateMutability":"nonpayable","type":"function"},{"inputs":[{"internalType":"address","name":"","type":"address"},{"internalType":"uint256","name":"","type":"uint256"}],"name":"providerFollowers","outputs":[{"internalType":"address","name":"","type":"address"}],"stateMutability":"view","type":"function"},{"inputs":[{"internalType":"uint256","name":"","type":"uint256"}],"name":"providerList","outputs":[{"internalType":"address","name":"","type":"address"}],"stateMutability":"view","type":"function"},{"inputs":[{"internalType":"address","name":"","type":"address"}],"name":"providers","outputs":[{"internalType":"bool","name":"registered","type":"bool"},{"internalType":"uint256","name":"signalCount","type":"uint256"},{"internalType":"uint256","name":"totalFeesEarned","type":"uint256"},{"internalType":"uint256","name":"feesUnclaimed","type":"uint256"}],"stateMutability":"view","type":"function"},{"inputs":[],"name":"registerProvider","outputs":[],"stateMutability":"nonpayable","type":"function"},{"inputs":[{"internalType":"bool","name":"_paused","type":"bool"}],"name":"setPaused","outputs":[],"stateMutability":"nonpayable","type":"function"},{"inputs":[{"internalType":"uint256","name":"","type":"uint256"}],"name":"signalCore","outputs":[{"internalType":"address","name":"provider","type":"address"},{"internalType":"bool","name":"long","type":"bool"},{"internalType":"bool","name":"active","type":"bool"},{"internalType":"bool","name":"closed","type":"bool"},{"internalType":"uint64","name":"entryPrice","type":"uint64"},{"internalType":"uint64","name":"tp","type":"uint64"},{"internalType":"uint64","name":"sl","type":"uint64"},{"internalType":"uint24","name":"leverage","type":"uint24"},{"internalType":"int256","name":"resultPct","type":"int256"}],"stateMutability":"view","type":"function"},{"inputs":[{"internalType":"uint256","name":"","type":"uint256"}],"name":"signalMeta","outputs":[{"internalType":"uint256","name":"timestamp","type":"uint256"},{"internalType":"uint256","name":"closedAt","type":"uint256"},{"internalType":"uint256","name":"totalCopied","type":"uint256"},{"internalType":"uint32","name":"copierCount","type":"uint32"}],"stateMutability":"view","type":"function"},{"inputs":[{"internalType":"address","name":"_newAdmin","type":"address"}],"name":"transferAdmin","outputs":[],"stateMutability":"nonpayable","type":"function"},{"inputs":[{"internalType":"address","name":"_provider","type":"address"}],"name":"unfollowProvider","outputs":[],"stateMutability":"nonpayable","type":"function"},{"inputs":[],"name":"usdc","outputs":[{"internalType":"contract IERC20","name":"","type":"address"}],"stateMutability":"view","type":"function"},{"inputs":[{"internalType":"address","name":"","type":"address"},{"internalType":"uint256","name":"","type":"uint256"}],"name":"userSignalIds","outputs":[{"internalType":"uint256","name":"","type":"uint256"}],"stateMutability":"view","type":"function"},{"inputs":[],"name":"withdrawPlatformFees","outputs":[],"stateMutability":"nonpayable","type":"function"}],"evm":{"bytecode":{"linkReferences":{},"object":"60c06040523480156200001157600080fd5b5060405162003a2f38038062003a2f8339810160408190526200003491620000f5565b600080546001600160a01b031916331790556001600160a01b03828116608081905290821660a0819052600160025560405163095ea7b360e01b81526004810191909152600019602482015263095ea7b3906044016020604051808303816000875af1158015620000a9573d6000803e3d6000fd5b505050506040513d601f19601f82011682018060405250810190620000cf91906200012d565b50505062000158565b80516001600160a01b0381168114620000f057600080fd5b919050565b600080604083850312156200010957600080fd5b6200011483620000d8565b91506200012460208401620000d8565b90509250929050565b6000602082840312156200014057600080fd5b815180151581146200015157600080fd5b9392505050565b60805160a051613856620001d96000396000818161080201528181610bd8015261313901526000818161042b015281816108ed01528181610d1a0152818161115701528181611412015281816114fc0152818161193701528181611b450152818161260701528181612b1901528181612bc30152612e4c01526138566000f3fe608060405234801561001057600080fd5b50600436106102d65760003560e01c8063827879b611610182578063c1be6677116100e9578063e6b8d04f116100a2578063f769c6d01161007c578063f769c6d01461082d578063f851a44014610835578063fa77964814610848578063fc6fee9c1461085257600080fd5b8063e6b8d04f146107ea578063f0b7db4e146107fd578063f623bb8b1461082457600080fd5b8063c1be66771461074d578063c21c0445146107b4578063c8541cf1146107bd578063d0b7830b146107c6578063e1f1c4a7146107ce578063e4969613146107d757600080fd5b806396b254101161013b57806396b25410146106f057806399d8528e14610703578063a1dd575214610716578063a553466414610729578063a9d172031461073c578063b36ffca61461074457600080fd5b8063827879b61461068b57806382944e2d1461069e578063840f51f5146106a85780638bcdf6c9146106bb5780638da793b2146106db57806395082d25146106e457600080fd5b80633e413bee116102415780635c975abb116101fa57806375829def116101d457806375829def1461051b578063783e9f711461052e5780637a88d0b51461054157806380447e321461062a57600080fd5b80635c975abb146104a45780635d1ca476146104c857806363db7eae1461051257600080fd5b80633e413bee1461042657806342c9c4211461044d5780634376894a1461045657806346ce4175146104695780634dd70ec0146104715780635312ea8e1461049157600080fd5b8063267822471161029357806326782247146103a95780632e1b5124146103bc57806334fbc9a1146103e157806336ce736b146103f8578063386ef40b1461040b578063390bfd3c1461041357600080fd5b80630787bc27146102db578063086877941461033b5780630e18b6811461035057806316a2aacc1461035857806316c38b3c1461036b5780631db5c9541461037e575b600080fd5b6103146102e9366004613234565b600560205260009081526040902080546001820154600283015460039093015460ff90921692909184565b60408051941515855260208501939093529183015260608201526080015b60405180910390f35b61034e610349366004613256565b610865565b005b61034e610999565b61034e610366366004613234565b610a45565b61034e610379366004613280565b610b04565b61039161038c36600461329d565b610b4c565b6040516001600160a01b039091168152602001610332565b600154610391906001600160a01b031681565b6003546103cc9063ffffffff1681565b60405163ffffffff9091168152602001610332565b6103ea6101f481565b604051908152602001610332565b61034e6104063660046132de565b610b84565b61034e610c40565b610391610421366004613256565b610de0565b6103917f000000000000000000000000000000000000000000000000000000000000000081565b6103ea61012c81565b61034e61046436600461331c565b610e0a565b6006546103ea565b61048461047f366004613234565b6111fe565b604051610332919061333e565b61034e61049f366004613256565b611274565b6001546104b890600160a01b900460ff1681565b6040519015158152602001610332565b6104fd6104d636600461338b565b600c6020908152600092835260408084209091529082529020805460019091015460ff1682565b60408051928352901515602083015201610332565b6103ea6107d081565b61034e610529366004613234565b6115b3565b61034e61053c366004613256565b611666565b6105c761054f366004613256565b6008602052600090815260409020805460018201546002909201546001600160a01b0382169260ff600160a01b8404811693600160a81b8104821693600160b01b8204909216926001600160401b03600160b81b90920482169281831692600160401b8304169162ffffff600160801b909104169089565b604080516001600160a01b03909a168a5297151560208a01529515159688019690965292151560608701526001600160401b039182166080870152811660a08601521660c084015262ffffff90911660e083015261010082015261012001610332565b610665610638366004613256565b60096020526000908152604090208054600182015460028301546003909301549192909163ffffffff1684565b6040805194855260208501939093529183015263ffffffff166060820152608001610332565b610484610699366004613234565b611be7565b6103ea62093a8081565b61034e6106b6366004613256565b611c5b565b6106ce6106c93660046133b5565b611d6f565b60405161033291906133e8565b6103ea6103e881565b6103ea6402540be40081565b6103916106fe36600461329d565b611edd565b61034e610711366004613420565b611ef9565b61034e61072436600461331c565b612332565b6103ea61073736600461329d565b6124b9565b6104846124ea565b6103ea60045481565b61079261075b36600461329d565b600a6020908152600092835260408084209091529082529020805460019091015463ffffffff811690640100000000900460ff1683565b6040805193845263ffffffff9092166020840152151590820152606001610332565b6103ea60075481565b6103ea61138881565b61034e61254c565b6103ea61271081565b61034e6107e536600461329d565b6126cb565b61034e6107f836600461329d565b6128ae565b6103917f000000000000000000000000000000000000000000000000000000000000000081565b6103ea6105dc81565b61034e612ef0565b600054610391906001600160a01b031681565b6103ea624c4b4081565b6106ce610860366004613234565b613003565b6000546001600160a01b031633146108985760405162461bcd60e51b815260040161088f90613493565b60405180910390fd5b6002546002036108ba5760405162461bcd60e51b815260040161088f906134b6565b600280556000546040516323b872dd60e01b81526001600160a01b039182166004820152306024820152604481018390527f0000000000000000000000000000000000000000000000000000000000000000909116906323b872dd906064016020604051808303816000875af1158015610938573d6000803e3d6000fd5b505050506040513d601f19601f8201168201806040525081019061095c91906134d9565b6109915760405162461bcd60e51b815260206004820152600660248201526511985a5b195960d21b604482015260640161088f565b506001600255565b6001546001600160a01b031633146109e15760405162461bcd60e51b815260206004820152600b60248201526a4e6f742070656e64696e6760a81b604482015260640161088f565b600154600080546040516001600160a01b0393841693909116917ff8ccb027dfcd135e000e9d45e6cc2d662578a8825d4c45b5e32e0adf67e79ec691a360018054600080546001600160a01b03199081166001600160a01b03841617909155169055565b336000908152600c602090815260408083206001600160a01b038516845290915290206001015460ff16610aab5760405162461bcd60e51b815260206004820152600d60248201526c4e6f7420666f6c6c6f77696e6760981b604482015260640161088f565b336000818152600c602090815260408083206001600160a01b0386168085529252808320600101805460ff19169055519092917fcd79c2ebc1a949278df87d076ca14914a0ba9d9cd0be992147cf5b846d34a0b591a350565b6000546001600160a01b03163314610b2e5760405162461bcd60e51b815260040161088f90613493565b60018054911515600160a01b0260ff60a01b19909216919091179055565b600e6020528160005260406000208181548110610b6857600080fd5b6000918252602090912001546001600160a01b03169150829050565b6000546001600160a01b03163314610bae5760405162461bcd60e51b815260040161088f90613493565b6040516336ce736b60e01b815263ffffffff831660048201526001600160401b03821660248201527f00000000000000000000000000000000000000000000000000000000000000006001600160a01b0316906336ce736b90604401600060405180830381600087803b158015610c2457600080fd5b505af1158015610c38573d6000803e3d6000fd5b505050505050565b3360009081526005602052604090205460ff16610c6f5760405162461bcd60e51b815260040161088f906134f6565b600254600203610c915760405162461bcd60e51b815260040161088f906134b6565b600280553360009081526005602052604090206003015480610cdf5760405162461bcd60e51b81526020600482015260076024820152664e6f206665657360c81b604482015260640161088f565b33600081815260056020526040808220600301919091555163a9059cbb60e01b81526004810191909152602481018290526001600160a01b037f0000000000000000000000000000000000000000000000000000000000000000169063a9059cbb906044016020604051808303816000875af1158015610d63573d6000803e3d6000fd5b505050506040513d601f19601f82011682018060405250810190610d8791906134d9565b610da35760405162461bcd60e51b815260040161088f9061351e565b60405181815233907f2dde923792ee541ad55ace416d0077ae7e224826839c03fb2426c2f43074a5709060200160405180910390a2506001600255565b60068181548110610df057600080fd5b6000918252602090912001546001600160a01b0316905081565b600154600160a01b900460ff1615610e345760405162461bcd60e51b815260040161088f90613547565b600254600203610e565760405162461bcd60e51b815260040161088f906134b6565b6002805560008281526008602052604090208054600160a81b900460ff168015610e8957508054600160b01b900460ff16155b610ea55760405162461bcd60e51b815260040161088f90613567565b600083815260096020526040902054610ec19061012c906135a1565b421115610f055760405162461bcd60e51b815260206004820152601260248201527110dbdc1e481dda5b991bddc818db1bdcd95960721b604482015260640161088f565b624c4b40821015610f465760405162461bcd60e51b815260206004820152600b60248201526a4d696e202435205553444360a81b604482015260640161088f565b6001600160781b03821115610f895760405162461bcd60e51b8152602060048201526009602482015268546f6f206c6172676560b81b604482015260640161088f565b336000908152600a6020908152604080832086845290915290205415610fe25760405162461bcd60e51b815260206004820152600e60248201526d105b1c9958591e4818dbdc1a595960921b604482015260640161088f565b6003805463ffffffff169081906000610ffa836135ba565b825463ffffffff9182166101009390930a928302928202191691909117909155604080516060810182528681528483166020808301918252600083850181815233808352600a84528683208d8452845286832095518655935160019586018054925115156401000000000264ffffffffff19909316919098161717909555908452600b8152828420805492830181558452808420909101889055878352600990528120600281018054919350869290916110b59084906135a1565b909155505060038101805463ffffffff169060006110d2836135ba565b91906101000a81548163ffffffff021916908363ffffffff1602179055505084336001600160a01b03167f0781b72d927fc2fcfd2be33c7fbfa6c56aaf0a10406aee7bb7538f0e522bf0bc8660405161112d91815260200190565b60405180910390a36040516323b872dd60e01b8152336004820152306024820152604481018590527f00000000000000000000000000000000000000000000000000000000000000006001600160a01b0316906323b872dd906064016020604051808303816000875af11580156111a8573d6000803e3d6000fd5b505050506040513d601f19601f820116820180604052508101906111cc91906134d9565b6111e85760405162461bcd60e51b815260040161088f9061351e565b6111f2838561306e565b50506001600255505050565b6001600160a01b0381166000908152600d602090815260409182902080548351818402810184019094528084526060939283018282801561126857602002820191906000526020600020905b81546001600160a01b0316815260019091019060200180831161124a575b50505050509050919050565b6002546002036112965760405162461bcd60e51b815260040161088f906134b6565b6002805560008181526008602052604090208054600160a81b900460ff1680156112c957508054600160b01b900460ff16155b6112e55760405162461bcd60e51b815260040161088f90613567565b6000828152600960205260409020546113029062093a80906135a1565b421161133c5760405162461bcd60e51b8152602060048201526009602482015268546f6f206561726c7960b81b604482015260640161088f565b336000908152600a60209081526040808320858452909152902080546113925760405162461bcd60e51b815260206004820152600b60248201526a2737903837b9b4ba34b7b760a91b604482015260640161088f565b6001810154640100000000900460ff16156113d95760405162461bcd60e51b815260206004820152600760248201526610db185a5b595960ca1b604482015260640161088f565b60018101805464ff00000000191664010000000017905580546040516370a0823160e01b81523060048201526000906001600160a01b037f000000000000000000000000000000000000000000000000000000000000000016906370a08231906024016020604051808303816000875af115801561145b573d6000803e3d6000fd5b505050506040513d601f19601f8201168201806040525081019061147f91906135dd565b905060008183116114905782611492565b815b60408051828152600060208201819052818301529051919250879133917f30857e17c02b9aa99ad97b3fc85fb6f2741181b4c25a5ac439290f354b9b53b3919081900360600190a380156115a65760405163a9059cbb60e01b8152336004820152602481018290527f00000000000000000000000000000000000000000000000000000000000000006001600160a01b03169063a9059cbb906044016020604051808303816000875af115801561154d573d6000803e3d6000fd5b505050506040513d601f19601f8201168201806040525081019061157191906134d9565b6115a65760405162461bcd60e51b815260206004820152600660248201526511985a5b195960d21b604482015260640161088f565b5050600160025550505050565b6000546001600160a01b031633146115dd5760405162461bcd60e51b815260040161088f90613493565b6001600160a01b03811661161c5760405162461bcd60e51b815260040161088f906020808252600490820152635a65726f60e01b604082015260600190565b600180546001600160a01b0319166001600160a01b0383169081179091556040517f7e5a44b25c18c9c756d8bb0c33e9f77d9ab83dc254932c8a69436f23ab74f63490600090a250565b6002546002036116885760405162461bcd60e51b815260040161088f906134b6565b6002805560008181526008602052604090208054600160b01b900460ff166116df5760405162461bcd60e51b815260206004820152600a602482015269139bdd0818db1bdcd95960b21b604482015260640161088f565b336000908152600a60209081526040808320858452909152902080546117355760405162461bcd60e51b815260206004820152600b60248201526a2737903837b9b4ba34b7b760a91b604482015260640161088f565b6001810154640100000000900460ff16156117845760405162461bcd60e51b815260206004820152600f60248201526e105b1c9958591e4818db185a5b5959608a1b604482015260640161088f565b805460028301546000908190819081136118a85760018601546002870154600091600160801b900462ffffff16906117bc90876135f6565b6117c691906135f6565b905060006117d86103e86127106135f6565b6117e2908361360d565b90506103e86117f3612710806135f6565b6117fd91906135f6565b6118096105dc846135f6565b611813919061360d565b93506103e8611824612710806135f6565b61182e91906135f6565b61183a6101f4846135f6565b611844919061360d565b92508061185184866135a1565b111561187f576107d06118666105dc836135f6565b611870919061360d565b935061187c848261362f565b92505b828461188b83896135a1565b611895919061362f565b61189f919061362f565b9450505061191f565b60006118b86103e86127106135f6565b60018801546002890154600160801b90910462ffffff16906118d990613642565b6118e390886135f6565b6118ed91906135f6565b6118f7919061360d565b9050848110156119105761190b818661362f565b611913565b60005b93506000925060009150505b6040516370a0823160e01b81523060048201526000907f00000000000000000000000000000000000000000000000000000000000000006001600160a01b0316906370a08231906024016020604051808303816000875af1158015611988573d6000803e3d6000fd5b505050506040513d601f19601f820116820180604052508101906119ac91906135dd565b905060006119b86131a9565b6004546119c591906135a1565b905060008183116119d75760006119e1565b6119e1828461362f565b905080861115611a4c57600a6119f88760096135f6565b611a02919061360d565b811015611a485760405162461bcd60e51b8152602060048201526014602482015273496e73756666696369656e742062616c616e636560601b604482015260640161088f565b8095505b60018801805464ff00000000191664010000000017905588546001600160a01b031660009081526005602052604081206002018054879290611a8f9084906135a1565b909155505088546001600160a01b031660009081526005602052604081206003018054879290611ac09084906135a1565b925050819055508360046000828254611ad991906135a1565b909155505060408051878152602081018790529081018590528a9033907f30857e17c02b9aa99ad97b3fc85fb6f2741181b4c25a5ac439290f354b9b53b39060600160405180910390a38515611bd65760405163a9059cbb60e01b8152336004820152602481018790527f00000000000000000000000000000000000000000000000000000000000000006001600160a01b03169063a9059cbb906044016020604051808303816000875af1158015611b96573d6000803e3d6000fd5b505050506040513d601f19601f82011682018060405250810190611bba91906134d9565b611bd65760405162461bcd60e51b815260040161088f9061351e565b505060016002555050505050505050565b6001600160a01b0381166000908152600e6020908152604091829020805483518184028101840190945280845260609392830182828015611268576020028201919060005260206000209081546001600160a01b0316815260019091019060200180831161124a5750505050509050919050565b60008181526008602052604090208054600160a81b900460ff168015611c8a57508054600160b01b900460ff16155b611ca65760405162461bcd60e51b815260040161088f90613567565b80546001600160a01b0316331480611cc857506000546001600160a01b031633145b611d055760405162461bcd60e51b815260206004820152600e60248201526d139bdd08185d5d1a1bdc9a5e995960921b604482015260640161088f565b805461ffff60a81b1916600160b01b178155600060028201819055828152600960205260408082204260019190910155825490516001600160a01b039091169184917fd81000df985c72d99c8445f85cc50bb333cb9ab029aeb0649e43ea0bce83c3ca9190a35050565b60606000826001600160401b03811115611d8b57611d8b61365e565b604051908082528060200260200182016040528015611db4578160200160208202803683370190505b5090506000845b60018110158015611dcb57508482105b15611e37576000818152600860205260409020546001600160a01b03808916911603611e1d5780838381518110611e0457611e04613674565b602090810291909101015281611e198161368a565b9250505b60018114611e375780611e2f816136a3565b915050611dbb565b506000816001600160401b03811115611e5257611e5261365e565b604051908082528060200260200182016040528015611e7b578160200160208202803683370190505b50905060005b82811015611ed257838181518110611e9b57611e9b613674565b6020026020010151828281518110611eb557611eb5613674565b602090810291909101015280611eca8161368a565b915050611e81565b509695505050505050565b600d6020528160005260406000208181548110610b6857600080fd5b3360009081526005602052604090205460ff16611f285760405162461bcd60e51b815260040161088f906134f6565b600154600160a01b900460ff1615611f525760405162461bcd60e51b815260040161088f90613547565b6000846001600160401b0316118015611f7457506000836001600160401b0316115b8015611f8957506000826001600160401b0316115b611fc65760405162461bcd60e51b815260206004820152600e60248201526d496e76616c69642070726963657360901b604482015260640161088f565b6107d08162ffffff1610158015611fe557506203d0908162ffffff1611155b6120245760405162461bcd60e51b815260206004820152601060248201526f098caeccae4c2ceca4064f05a646a60f60831b604482015260640161088f565b600780549060006120348361368a565b909155505060075433600090815260056020526040812060010180549161205a8361368a565b9190505550604051806101200160405280336001600160a01b031681526020018715158152602001600115158152602001600015158152602001866001600160401b03168152602001856001600160401b03168152602001846001600160401b031681526020018362ffffff16815260200160008152506008600083815260200190815260200160002060008201518160000160006101000a8154816001600160a01b0302191690836001600160a01b0316021790555060208201518160000160146101000a81548160ff02191690831515021790555060408201518160000160156101000a81548160ff02191690831515021790555060608201518160000160166101000a81548160ff02191690831515021790555060808201518160000160176101000a8154816001600160401b0302191690836001600160401b0316021790555060a08201518160010160006101000a8154816001600160401b0302191690836001600160401b0316021790555060c08201518160010160086101000a8154816001600160401b0302191690836001600160401b0316021790555060e08201518160010160106101000a81548162ffffff021916908362ffffff160217905550610100820151816002015590505060405180608001604052804281526020016000815260200160008152602001600063ffffffff168152506009600083815260200190815260200160002060008201518160000155602082015181600101556040820151816002015560608201518160030160006101000a81548163ffffffff021916908363ffffffff160217905550905050336001600160a01b0316817f193108380997f14e44d282ff42333cd7d1ef2975dc85037bfb1ac78771d80648888888888860405161232295949392919094151585526001600160401b0393841660208601529183166040850152909116606083015262ffffff16608082015260a00190565b60405180910390a3505050505050565b60008281526008602052604090208054600160a81b900460ff16801561236157508054600160b01b900460ff16155b61237d5760405162461bcd60e51b815260040161088f90613567565b80546001600160a01b031633148061239f57506000546001600160a01b031633145b6123dc5760405162461bcd60e51b815260206004820152600e60248201526d139bdd08185d5d1a1bdc9a5e995960921b604482015260640161088f565b6123e7611388613642565b82121580156123f857506113888213155b61243a5760405162461bcd60e51b8152602060048201526013602482015272526573756c74206f7574206f662072616e676560681b604482015260640161088f565b805461ffff60a81b1916600160b01b17815560028101829055600083815260096020526040908190204260019190910155815490516001600160a01b039091169084907f4734d66ebf6dfefa77c9d0227b2aed8cc2abdae2f12bd1e881ead0d284064982906124ac9086815260200190565b60405180910390a3505050565b600b60205281600052604060002081815481106124d557600080fd5b90600052602060002001600091509150505481565b6060600680548060200260200160405190810160405280929190818152602001828054801561254257602002820191906000526020600020905b81546001600160a01b03168152600190910190602001808311612524575b5050505050905090565b6000546001600160a01b031633146125765760405162461bcd60e51b815260040161088f90613493565b6002546002036125985760405162461bcd60e51b815260040161088f906134b6565b60028055600454806125d65760405162461bcd60e51b81526020600482015260076024820152664e6f206665657360c81b604482015260640161088f565b60006004818155905460405163a9059cbb60e01b81526001600160a01b0391821692810192909252602482018390527f0000000000000000000000000000000000000000000000000000000000000000169063a9059cbb906044016020604051808303816000875af1158015612650573d6000803e3d6000fd5b505050506040513d601f19601f8201168201806040525081019061267491906134d9565b6126905760405162461bcd60e51b815260040161088f9061351e565b6040518181527fa3f0fdc01545d578089318e8ad641e1a1a1ec38678f2733d4e67a676c2980f3e9060200160405180910390a1506001600255565b6001600160a01b03821660009081526005602052604090205460ff166127035760405162461bcd60e51b815260040161088f906134f6565b624c4b408110156127445760405162461bcd60e51b815260206004820152600b60248201526a4d696e202435205553444360a81b604482015260640161088f565b336001600160a01b038316036127955760405162461bcd60e51b815260206004820152601660248201527521b0b73737ba103337b63637bb903cb7bab939b2b63360511b604482015260640161088f565b336000908152600c602090815260408083206001600160a01b038616845290915290206001015460ff1661282557336000818152600d602090815260408083208054600181810183559185528385200180546001600160a01b0389166001600160a01b03199182168117909255908552600e84529184208054918201815584529190922001805490911690911790555b60408051808201825282815260016020808301828152336000818152600c84528681206001600160a01b038a168083529085529087902095518655915194909301805460ff1916941515949094179093559251848152919290917ffedf1ca5ef295f2da26d8971ea7a47811d901c42aeca3b7b996120b14907ddf0910160405180910390a35050565b6000546001600160a01b031633146128d85760405162461bcd60e51b815260040161088f90613493565b600154600160a01b900460ff16156129025760405162461bcd60e51b815260040161088f90613547565b6002546002036129245760405162461bcd60e51b815260040161088f906134b6565b6002805560008181526008602052604090208054600160a81b900460ff16801561295757508054600160b01b900460ff16155b6129735760405162461bcd60e51b815260040161088f90613567565b60008281526009602052604090205461298f9061012c906135a1565b4211156129d35760405162461bcd60e51b815260206004820152601260248201527110dbdc1e481dda5b991bddc818db1bdcd95960721b604482015260640161088f565b6001600160a01b0383166000908152600a6020908152604080832085845290915290205415612a355760405162461bcd60e51b815260206004820152600e60248201526d105b1c9958591e4818dbdc1a595960921b604482015260640161088f565b6001600160a01b038084166000908152600c602090815260408083208554909416835292905220600181015460ff16612ab05760405162461bcd60e51b815260206004820152601b60248201527f4e6f7420666f6c6c6f77696e6720746869732070726f76696465720000000000604482015260640161088f565b8054624c4b401115612af55760405162461bcd60e51b815260206004820152600e60248201526d416d6f756e7420746f6f206c6f7760901b604482015260640161088f565b80546040516370a0823160e01b81526001600160a01b0386811660048301526000917f0000000000000000000000000000000000000000000000000000000000000000909116906370a08231906024016020604051808303816000875af1158015612b64573d6000803e3d6000fd5b505050506040513d601f19601f82011682018060405250810190612b8891906135dd565b905081811015612b9b5750505050612ee7565b604051636eb1769f60e11b81526001600160a01b0387811660048301523060248301526000917f00000000000000000000000000000000000000000000000000000000000000009091169063dd62ed3e90604401602060405180830381865afa158015612c0c573d6000803e3d6000fd5b505050506040513d601f19601f82011682018060405250810190612c3091906135dd565b905082811015612c44575050505050612ee7565b6003805463ffffffff169081906000612c5c836135ba565b91906101000a81548163ffffffff021916908363ffffffff1602179055505060405180606001604052808581526020018263ffffffff16815260200160001515815250600a60008a6001600160a01b03166001600160a01b0316815260200190815260200160002060008981526020019081526020016000206000820151816000015560208201518160010160006101000a81548163ffffffff021916908363ffffffff16021790555060408201518160010160046101000a81548160ff021916908315150217905550905050600b6000896001600160a01b03166001600160a01b03168152602001908152602001600020879080600181540180825580915050600190039060005260206000200160009091909190915055600060096000898152602001908152602001600020905084816002016000828254612da091906135a1565b909155505060038101805463ffffffff16906000612dbd836135ba565b91906101000a81548163ffffffff021916908363ffffffff1602179055505087896001600160a01b03167f0781b72d927fc2fcfd2be33c7fbfa6c56aaf0a10406aee7bb7538f0e522bf0bc87604051612e1891815260200190565b60405180910390a36040516323b872dd60e01b81526001600160a01b038a81166004830152306024830152604482018790527f000000000000000000000000000000000000000000000000000000000000000016906323b872dd906064016020604051808303816000875af1158015612e95573d6000803e3d6000fd5b505050506040513d601f19601f82011682018060405250810190612eb991906134d9565b612ed55760405162461bcd60e51b815260040161088f9061351e565b612edf878661306e565b505050505050505b50506001600255565b3360009081526005602052604090205460ff1615612f455760405162461bcd60e51b8152602060048201526012602482015271105b1c9958591e481c9959da5cdd195c995960721b604482015260640161088f565b60408051608081018252600180825260006020808401828152848601838152606086018481523380865260059094528785209651875460ff19169015151787559151868601555160028601555160039094019390935560068054928301815581527ff652222313e28459528d920b65115c16c04f3efc82aaedc97be59f3f377c0d3f90910180546001600160a01b03191683179055915190917f70abce74777b3838ae60a33a6b9a87d9d25532668fe4fea548554c55868579c091a2565b6001600160a01b0381166000908152600b602090815260409182902080548351818402810184019094528084526060939283018282801561126857602002820191906000526020600020905b81548152602001906001019080831161304f5750505050509050919050565b604080516101e081018252308152600060208201819052605a82840152600185015462ffffff600160801b8204166060840152855460ff600160a01b8204161515608085015260a08401839052600360c085015260e084018390526001600160781b038616610100850152600160b81b90046001600160401b03908116610120850152808216610140850152600160401b9091041661016083015261018082018190526101a082018190526101c082018190529151630b7f989f60e31b815290916001600160a01b037f00000000000000000000000000000000000000000000000000000000000000001691635bfcc4f8916131729185916103e8916004016136dc565b600060405180830381600087803b15801561318c57600080fd5b505af11580156131a0573d6000803e3d6000fd5b50505050505050565b6000805b6006548110156132145760056000600683815481106131ce576131ce613674565b60009182526020808320909101546001600160a01b0316835282019290925260400190206003015461320090836135a1565b91508061320c8161368a565b9150506131ad565b5090565b80356001600160a01b038116811461322f57600080fd5b919050565b60006020828403121561324657600080fd5b61324f82613218565b9392505050565b60006020828403121561326857600080fd5b5035919050565b801515811461327d57600080fd5b50565b60006020828403121561329257600080fd5b813561324f8161326f565b600080604083850312156132b057600080fd5b6132b983613218565b946020939093013593505050565b80356001600160401b038116811461322f57600080fd5b600080604083850312156132f157600080fd5b823563ffffffff8116811461330557600080fd5b9150613313602084016132c7565b90509250929050565b6000806040838503121561332f57600080fd5b50508035926020909101359150565b6020808252825182820181905260009190848201906040850190845b8181101561337f5783516001600160a01b03168352928401929184019160010161335a565b50909695505050505050565b6000806040838503121561339e57600080fd5b6133a783613218565b915061331360208401613218565b6000806000606084860312156133ca57600080fd5b6133d384613218565b95602085013595506040909401359392505050565b6020808252825182820181905260009190848201906040850190845b8181101561337f57835183529284019291840191600101613404565b600080600080600060a0868803121561343857600080fd5b85356134438161326f565b9450613451602087016132c7565b935061345f604087016132c7565b925061346d606087016132c7565b9150608086013562ffffff8116811461348557600080fd5b809150509295509295909350565b6020808252600990820152682737ba1030b236b4b760b91b604082015260600190565b6020808252600990820152681499595b9d1c985b9d60ba1b604082015260600190565b6000602082840312156134eb57600080fd5b815161324f8161326f565b6020808252600e908201526d2737ba103090383937bb34b232b960911b604082015260600190565b6020808252600f908201526e151c985b9cd9995c8819985a5b1959608a1b604082015260600190565b60208082526006908201526514185d5cd95960d21b604082015260600190565b6020808252600a90820152694e6f742061637469766560b01b604082015260600190565b634e487b7160e01b600052601160045260246000fd5b808201808211156135b4576135b461358b565b92915050565b600063ffffffff8083168181036135d3576135d361358b565b6001019392505050565b6000602082840312156135ef57600080fd5b5051919050565b80820281158282048414176135b4576135b461358b565b60008261362a57634e487b7160e01b600052601260045260246000fd5b500490565b818103818111156135b4576135b461358b565b6000600160ff1b82016136575761365761358b565b5060000390565b634e487b7160e01b600052604160045260246000fd5b634e487b7160e01b600052603260045260246000fd5b60006001820161369c5761369c61358b565b5060010190565b6000816136b2576136b261358b565b506000190190565b600381106136d857634e487b7160e01b600052602160045260246000fd5b9052565b83516001600160a01b0316815261022081016020850151613705602084018263ffffffff169052565b50604085015161371b604084018261ffff169052565b506060850151613732606084018262ffffff169052565b506080850151613746608084018215159052565b5060a085015161375a60a084018215159052565b5060c085015161376f60c084018260ff169052565b5060e085015161378260e08401826136ba565b50610100858101516001600160781b031690830152610120808601516001600160401b0390811691840191909152610140808701518216908401526101608087015190911690830152610180808601511515908301526101a0808601516001600160a01b03908116918401919091526101c09586015162ffffff169583019590955261ffff939093166101e08201529216610200909201919091529056fea2646970667358221220581e94b4db681baff07257e9503afd2b1498d41bc4b84dd9b46dcc697291976e64736f6c63430008130033","opcodes":"PUSH1 0xC0 PUSH1 0x40 MSTORE CALLVALUE DUP1 ISZERO PUSH3 0x11 JUMPI PUSH1 0x0 DUP1 REVERT JUMPDEST POP PUSH1 0x40 MLOAD PUSH3 0x3A2F CODESIZE SUB DUP1 PUSH3 0x3A2F DUP4 CODECOPY DUP2 ADD PUSH1 0x40 DUP2 SWAP1 MSTORE PUSH3 0x34 SWAP2 PUSH3 0xF5 JUMP JUMPDEST PUSH1 0x0 DUP1 SLOAD PUSH1 0x1 PUSH1 0x1 PUSH1 0xA0 SHL SUB NOT AND CALLER OR SWAP1 SSTORE PUSH1 0x1 PUSH1 0x1 PUSH1 0xA0 SHL SUB DUP3 DUP2 AND PUSH1 0x80 DUP2 SWAP1 MSTORE SWAP1 DUP3 AND PUSH1 0xA0 DUP2 SWAP1 MSTORE PUSH1 0x1 PUSH1 0x2 SSTORE PUSH1 0x40 MLOAD PUSH4 0x95EA7B3 PUSH1 0xE0 SHL DUP2 MSTORE PUSH1 0x4 DUP2 ADD SWAP2 SWAP1 SWAP2 MSTORE PUSH1 0x0 NOT PUSH1 0x24 DUP3 ADD MSTORE PUSH4 0x95EA7B3 SWAP1 PUSH1 0x44 ADD PUSH1 0x20 PUSH1 0x40 MLOAD DUP1 DUP4 SUB DUP2 PUSH1 0x0 DUP8 GAS CALL ISZERO DUP1 ISZERO PUSH3 0xA9 JUMPI RETURNDATASIZE PUSH1 0x0 DUP1 RETURNDATACOPY RETURNDATASIZE PUSH1 0x0 REVERT JUMPDEST POP POP POP POP PUSH1 0x40 MLOAD RETURNDATASIZE PUSH1 0x1F NOT PUSH1 0x1F DUP3 ADD AND DUP3 ADD DUP1 PUSH1 0x40 MSTORE POP DUP2 ADD SWAP1 PUSH3 0xCF SWAP2 SWAP1 PUSH3 0x12D JUMP JUMPDEST POP POP POP PUSH3 0x158 JUMP JUMPDEST DUP1 MLOAD PUSH1 0x1 PUSH1 0x1 PUSH1 0xA0 SHL SUB DUP2 AND DUP2 EQ PUSH3 0xF0 JUMPI PUSH1 0x0 DUP1 REVERT JUMPDEST SWAP2 SWAP1 POP JUMP JUMPDEST PUSH1 0x0 DUP1 PUSH1 0x40 DUP4 DUP6 SUB SLT ISZERO PUSH3 0x109 JUMPI PUSH1 0x0 DUP1 REVERT JUMPDEST PUSH3 0x114 DUP4 PUSH3 0xD8 JUMP JUMPDEST SWAP2 POP PUSH3 0x124 PUSH1 0x20 DUP5 ADD PUSH3 0xD8 JUMP JUMPDEST SWAP1 POP SWAP3 POP SWAP3 SWAP1 POP JUMP JUMPDEST PUSH1 0x0 PUSH1 0x20 DUP3 DUP5 SUB SLT ISZERO PUSH3 0x140 JUMPI PUSH1 0x0 DUP1 REVERT JUMPDEST DUP2 MLOAD DUP1 ISZERO ISZERO DUP2 EQ PUSH3 0x151 JUMPI PUSH1 0x0 DUP1 REVERT JUMPDEST SWAP4 SWAP3 POP POP POP JUMP JUMPDEST PUSH1 0x80 MLOAD PUSH1 0xA0 MLOAD PUSH2 0x3856 PUSH3 0x1D9 PUSH1 0x0 CODECOPY PUSH1 0x0 DUP2 DUP2 PUSH2 0x802 ADD MSTORE DUP2 DUP2 PUSH2 0xBD8 ADD MSTORE PUSH2 0x3139 ADD MSTORE PUSH1 0x0 DUP2 DUP2 PUSH2 0x42B ADD MSTORE DUP2 DUP2 PUSH2 0x8ED ADD MSTORE DUP2 DUP2 PUSH2 0xD1A ADD MSTORE DUP2 DUP2 PUSH2 0x1157 ADD MSTORE DUP2 DUP2 PUSH2 0x1412 ADD MSTORE DUP2 DUP2 PUSH2 0x14FC ADD MSTORE DUP2 DUP2 PUSH2 0x1937 ADD MSTORE DUP2 DUP2 PUSH2 0x1B45 ADD MSTORE DUP2 DUP2 PUSH2 0x2607 ADD MSTORE DUP2 DUP2 PUSH2 0x2B19 ADD MSTORE DUP2 DUP2 PUSH2 0x2BC3 ADD MSTORE PUSH2 0x2E4C ADD MSTORE PUSH2 0x3856 PUSH1 0x0 RETURN INVALID PUSH1 0x80 PUSH1 0x40 MSTORE CALLVALUE DUP1 ISZERO PUSH2 0x10 JUMPI PUSH1 0x0 DUP1 REVERT JUMPDEST POP PUSH1 0x4 CALLDATASIZE LT PUSH2 0x2D6 JUMPI PUSH1 0x0 CALLDATALOAD PUSH1 0xE0 SHR DUP1 PUSH4 0x827879B6 GT PUSH2 0x182 JUMPI DUP1 PUSH4 0xC1BE6677 GT PUSH2 0xE9 JUMPI DUP1 PUSH4 0xE6B8D04F GT PUSH2 0xA2 JUMPI DUP1 PUSH4 0xF769C6D0 GT PUSH2 0x7C JUMPI DUP1 PUSH4 0xF769C6D0 EQ PUSH2 0x82D JUMPI DUP1 PUSH4 0xF851A440 EQ PUSH2 0x835 JUMPI DUP1 PUSH4 0xFA779648 EQ PUSH2 0x848 JUMPI DUP1 PUSH4 0xFC6FEE9C EQ PUSH2 0x852 JUMPI PUSH1 0x0 DUP1 REVERT JUMPDEST DUP1 PUSH4 0xE6B8D04F EQ PUSH2 0x7EA JUMPI DUP1 PUSH4 0xF0B7DB4E EQ PUSH2 0x7FD JUMPI DUP1 PUSH4 0xF623BB8B EQ PUSH2 0x824 JUMPI PUSH1 0x0 DUP1 REVERT JUMPDEST DUP1 PUSH4 0xC1BE6677 EQ PUSH2 0x74D JUMPI DUP1 PUSH4 0xC21C0445 EQ PUSH2 0x7B4 JUMPI DUP1 PUSH4 0xC8541CF1 EQ PUSH2 0x7BD JUMPI DUP1 PUSH4 0xD0B7830B EQ PUSH2 0x7C6 JUMPI DUP1 PUSH4 0xE1F1C4A7 EQ PUSH2 0x7CE JUMPI DUP1 PUSH4 0xE4969613 EQ PUSH2 0x7D7 JUMPI PUSH1 0x0 DUP1 REVERT JUMPDEST DUP1 PUSH4 0x96B25410 GT PUSH2 0x13B JUMPI DUP1 PUSH4 0x96B25410 EQ PUSH2 0x6F0 JUMPI DUP1 PUSH4 0x99D8528E EQ PUSH2 0x703 JUMPI DUP1 PUSH4 0xA1DD5752 EQ PUSH2 0x716 JUMPI DUP1 PUSH4 0xA5534664 EQ PUSH2 0x729 JUMPI DUP1 PUSH4 0xA9D17203 EQ PUSH2 0x73C JUMPI DUP1 PUSH4 0xB36FFCA6 EQ PUSH2 0x744 JUMPI PUSH1 0x0 DUP1 REVERT JUMPDEST DUP1 PUSH4 0x827879B6 EQ PUSH2 0x68B JUMPI DUP1 PUSH4 0x82944E2D EQ PUSH2 0x69E JUMPI DUP1 PUSH4 0x840F51F5 EQ PUSH2 0x6A8 JUMPI DUP1 PUSH4 0x8BCDF6C9 EQ PUSH2 0x6BB JUMPI DUP1 PUSH4 0x8DA793B2 EQ PUSH2 0x6DB JUMPI DUP1 PUSH4 0x95082D25 EQ PUSH2 0x6E4 JUMPI PUSH1 0x0 DUP1 REVERT JUMPDEST DUP1 PUSH4 0x3E413BEE GT PUSH2 0x241 JUMPI DUP1 PUSH4 0x5C975ABB GT PUSH2 0x1FA JUMPI DUP1 PUSH4 0x75829DEF GT PUSH2 0x1D4 JUMPI DUP1 PUSH4 0x75829DEF EQ PUSH2 0x51B JUMPI DUP1 PUSH4 0x783E9F71 EQ PUSH2 0x52E JUMPI DUP1 PUSH4 0x7A88D0B5 EQ PUSH2 0x541 JUMPI DUP1 PUSH4 0x80447E32 EQ PUSH2 0x62A JUMPI PUSH1 0x0 DUP1 REVERT JUMPDEST DUP1 PUSH4 0x5C975ABB EQ PUSH2 0x4A4 JUMPI DUP1 PUSH4 0x5D1CA476 EQ PUSH2 0x4C8 JUMPI DUP1 PUSH4 0x63DB7EAE EQ PUSH2 0x512 JUMPI PUSH1 0x0 DUP1 REVERT JUMPDEST DUP1 PUSH4 0x3E413BEE EQ PUSH2 0x426 JUMPI DUP1 PUSH4 0x42C9C421 EQ PUSH2 0x44D JUMPI DUP1 PUSH4 0x4376894A EQ PUSH2 0x456 JUMPI DUP1 PUSH4 0x46CE4175 EQ PUSH2 0x469 JUMPI DUP1 PUSH4 0x4DD70EC0 EQ PUSH2 0x471 JUMPI DUP1 PUSH4 0x5312EA8E EQ PUSH2 0x491 JUMPI PUSH1 0x0 DUP1 REVERT JUMPDEST DUP1 PUSH4 0x26782247 GT PUSH2 0x293 JUMPI DUP1 PUSH4 0x26782247 EQ PUSH2 0x3A9 JUMPI DUP1 PUSH4 0x2E1B5124 EQ PUSH2 0x3BC JUMPI DUP1 PUSH4 0x34FBC9A1 EQ PUSH2 0x3E1 JUMPI DUP1 PUSH4 0x36CE736B EQ PUSH2 0x3F8 JUMPI DUP1 PUSH4 0x386EF40B EQ PUSH2 0x40B JUMPI DUP1 PUSH4 0x390BFD3C EQ PUSH2 0x413 JUMPI PUSH1 0x0 DUP1 REVERT JUMPDEST DUP1 PUSH4 0x787BC27 EQ PUSH2 0x2DB JUMPI DUP1 PUSH4 0x8687794 EQ PUSH2 0x33B JUMPI DUP1 PUSH4 0xE18B681 EQ PUSH2 0x350 JUMPI DUP1 PUSH4 0x16A2AACC EQ PUSH2 0x358 JUMPI DUP1 PUSH4 0x16C38B3C EQ PUSH2 0x36B JUMPI DUP1 PUSH4 0x1DB5C954 EQ PUSH2 0x37E JUMPI JUMPDEST PUSH1 0x0 DUP1 REVERT JUMPDEST PUSH2 0x314 PUSH2 0x2E9 CALLDATASIZE PUSH1 0x4 PUSH2 0x3234 JUMP JUMPDEST PUSH1 0x5 PUSH1 0x20 MSTORE PUSH1 0x0 SWAP1 DUP2 MSTORE PUSH1 0x40 SWAP1 KECCAK256 DUP1 SLOAD PUSH1 0x1 DUP3 ADD SLOAD PUSH1 0x2 DUP4 ADD SLOAD PUSH1 0x3 SWAP1 SWAP4 ADD SLOAD PUSH1 0xFF SWAP1 SWAP3 AND SWAP3 SWAP1 SWAP2 DUP5 JUMP JUMPDEST PUSH1 0x40 DUP1 MLOAD SWAP5 ISZERO ISZERO DUP6 MSTORE PUSH1 0x20 DUP6 ADD SWAP4 SWAP1 SWAP4 MSTORE SWAP2 DUP4 ADD MSTORE PUSH1 0x60 DUP3 ADD MSTORE PUSH1 0x80 ADD JUMPDEST PUSH1 0x40 MLOAD DUP1 SWAP2 SUB SWAP1 RETURN JUMPDEST PUSH2 0x34E PUSH2 0x349 CALLDATASIZE PUSH1 0x4 PUSH2 0x3256 JUMP JUMPDEST PUSH2 0x865 JUMP JUMPDEST STOP JUMPDEST PUSH2 0x34E PUSH2 0x999 JUMP JUMPDEST PUSH2 0x34E PUSH2 0x366 CALLDATASIZE PUSH1 0x4 PUSH2 0x3234 JUMP JUMPDEST PUSH2 0xA45 JUMP JUMPDEST PUSH2 0x34E PUSH2 0x379 CALLDATASIZE PUSH1 0x4 PUSH2 0x3280 JUMP JUMPDEST PUSH2 0xB04 JUMP JUMPDEST PUSH2 0x391 PUSH2 0x38C CALLDATASIZE PUSH1 0x4 PUSH2 0x329D JUMP JUMPDEST PUSH2 0xB4C JUMP JUMPDEST PUSH1 0x40 MLOAD PUSH1 0x1 PUSH1 0x1 PUSH1 0xA0 SHL SUB SWAP1 SWAP2 AND DUP2 MSTORE PUSH1 0x20 ADD PUSH2 0x332 JUMP JUMPDEST PUSH1 0x1 SLOAD PUSH2 0x391 SWAP1 PUSH1 0x1 PUSH1 0x1 PUSH1 0xA0 SHL SUB AND DUP2 JUMP JUMPDEST PUSH1 0x3 SLOAD PUSH2 0x3CC SWAP1 PUSH4 0xFFFFFFFF AND DUP2 JUMP JUMPDEST PUSH1 0x40 MLOAD PUSH4 0xFFFFFFFF SWAP1 SWAP2 AND DUP2 MSTORE PUSH1 0x20 ADD PUSH2 0x332 JUMP JUMPDEST PUSH2 0x3EA PUSH2 0x1F4 DUP2 JUMP JUMPDEST PUSH1 0x40 MLOAD SWAP1 DUP2 MSTORE PUSH1 0x20 ADD PUSH2 0x332 JUMP JUMPDEST PUSH2 0x34E PUSH2 0x406 CALLDATASIZE PUSH1 0x4 PUSH2 0x32DE JUMP JUMPDEST PUSH2 0xB84 JUMP JUMPDEST PUSH2 0x34E PUSH2 0xC40 JUMP JUMPDEST PUSH2 0x391 PUSH2 0x421 CALLDATASIZE PUSH1 0x4 PUSH2 0x3256 JUMP JUMPDEST PUSH2 0xDE0 JUMP JUMPDEST PUSH2 0x391 PUSH32 0x0 DUP2 JUMP JUMPDEST PUSH2 0x3EA PUSH2 0x12C DUP2 JUMP JUMPDEST PUSH2 0x34E PUSH2 0x464 CALLDATASIZE PUSH1 0x4 PUSH2 0x331C JUMP JUMPDEST PUSH2 0xE0A JUMP JUMPDEST PUSH1 0x6 SLOAD PUSH2 0x3EA JUMP JUMPDEST PUSH2 0x484 PUSH2 0x47F CALLDATASIZE PUSH1 0x4 PUSH2 0x3234 JUMP JUMPDEST PUSH2 0x11FE JUMP JUMPDEST PUSH1 0x40 MLOAD PUSH2 0x332 SWAP2 SWAP1 PUSH2 0x333E JUMP JUMPDEST PUSH2 0x34E PUSH2 0x49F CALLDATASIZE PUSH1 0x4 PUSH2 0x3256 JUMP JUMPDEST PUSH2 0x1274 JUMP JUMPDEST PUSH1 0x1 SLOAD PUSH2 0x4B8 SWAP1 PUSH1 0x1 PUSH1 0xA0 SHL SWAP1 DIV PUSH1 0xFF AND DUP2 JUMP JUMPDEST PUSH1 0x40 MLOAD SWAP1 ISZERO ISZERO DUP2 MSTORE PUSH1 0x20 ADD PUSH2 0x332 JUMP JUMPDEST PUSH2 0x4FD PUSH2 0x4D6 CALLDATASIZE PUSH1 0x4 PUSH2 0x338B JUMP JUMPDEST PUSH1 0xC PUSH1 0x20 SWAP1 DUP2 MSTORE PUSH1 0x0 SWAP3 DUP4 MSTORE PUSH1 0x40 DUP1 DUP5 KECCAK256 SWAP1 SWAP2 MSTORE SWAP1 DUP3 MSTORE SWAP1 KECCAK256 DUP1 SLOAD PUSH1 0x1 SWAP1 SWAP2 ADD SLOAD PUSH1 0xFF AND DUP3 JUMP JUMPDEST PUSH1 0x40 DUP1 MLOAD SWAP3 DUP4 MSTORE SWAP1 ISZERO ISZERO PUSH1 0x20 DUP4 ADD MSTORE ADD PUSH2 0x332 JUMP JUMPDEST PUSH2 0x3EA PUSH2 0x7D0 DUP2 JUMP JUMPDEST PUSH2 0x34E PUSH2 0x529 CALLDATASIZE PUSH1 0x4 PUSH2 0x3234 JUMP JUMPDEST PUSH2 0x15B3 JUMP JUMPDEST PUSH2 0x34E PUSH2 0x53C CALLDATASIZE PUSH1 0x4 PUSH2 0x3256 JUMP JUMPDEST PUSH2 0x1666 JUMP JUMPDEST PUSH2 0x5C7 PUSH2 0x54F CALLDATASIZE PUSH1 0x4 PUSH2 0x3256 JUMP JUMPDEST PUSH1 0x8 PUSH1 0x20 MSTORE PUSH1 0x0 SWAP1 DUP2 MSTORE PUSH1 0x40 SWAP1 KECCAK256 DUP1 SLOAD PUSH1 0x1 DUP3 ADD SLOAD PUSH1 0x2 SWAP1 SWAP3 ADD SLOAD PUSH1 0x1 PUSH1 0x1 PUSH1 0xA0 SHL SUB DUP3 AND SWAP3 PUSH1 0xFF PUSH1 0x1 PUSH1 0xA0 SHL DUP5 DIV DUP2 AND SWAP4 PUSH1 0x1 PUSH1 0xA8 SHL DUP2 DIV DUP3 AND SWAP4 PUSH1 0x1 PUSH1 0xB0 SHL DUP3 DIV SWAP1 SWAP3 AND SWAP3 PUSH1 0x1 PUSH1 0x1 PUSH1 0x40 SHL SUB PUSH1 0x1 PUSH1 0xB8 SHL SWAP1 SWAP3 DIV DUP3 AND SWAP3 DUP2 DUP4 AND SWAP3 PUSH1 0x1 PUSH1 0x40 SHL DUP4 DIV AND SWAP2 PUSH3 0xFFFFFF PUSH1 0x1 PUSH1 0x80 SHL SWAP1 SWAP2 DIV AND SWAP1 DUP10 JUMP JUMPDEST PUSH1 0x40 DUP1 MLOAD PUSH1 0x1 PUSH1 0x1 PUSH1 0xA0 SHL SUB SWAP1 SWAP11 AND DUP11 MSTORE SWAP8 ISZERO ISZERO PUSH1 0x20 DUP11 ADD MSTORE SWAP6 ISZERO ISZERO SWAP7 DUP9 ADD SWAP7 SWAP1 SWAP7 MSTORE SWAP3 ISZERO ISZERO PUSH1 0x60 DUP8 ADD MSTORE PUSH1 0x1 PUSH1 0x1 PUSH1 0x40 SHL SUB SWAP2 DUP3 AND PUSH1 0x80 DUP8 ADD MSTORE DUP2 AND PUSH1 0xA0 DUP7 ADD MSTORE AND PUSH1 0xC0 DUP5 ADD MSTORE PUSH3 0xFFFFFF SWAP1 SWAP2 AND PUSH1 0xE0 DUP4 ADD MSTORE PUSH2 0x100 DUP3 ADD MSTORE PUSH2 0x120 ADD PUSH2 0x332 JUMP JUMPDEST PUSH2 0x665 PUSH2 0x638 CALLDATASIZE PUSH1 0x4 PUSH2 0x3256 JUMP JUMPDEST PUSH1 0x9 PUSH1 0x20 MSTORE PUSH1 0x0 SWAP1 DUP2 MSTORE PUSH1 0x40 SWAP1 KECCAK256 DUP1 SLOAD PUSH1 0x1 DUP3 ADD SLOAD PUSH1 0x2 DUP4 ADD SLOAD PUSH1 0x3 SWAP1 SWAP4 ADD SLOAD SWAP2 SWAP3 SWAP1 SWAP2 PUSH4 0xFFFFFFFF AND DUP5 JUMP JUMPDEST PUSH1 0x40 DUP1 MLOAD SWAP5 DUP6 MSTORE PUSH1 0x20 DUP6 ADD SWAP4 SWAP1 SWAP4 MSTORE SWAP2 DUP4 ADD MSTORE PUSH4 0xFFFFFFFF AND PUSH1 0x60 DUP3 ADD MSTORE PUSH1 0x80 ADD PUSH2 0x332 JUMP JUMPDEST PUSH2 0x484 PUSH2 0x699 CALLDATASIZE PUSH1 0x4 PUSH2 0x3234 JUMP JUMPDEST PUSH2 0x1BE7 JUMP JUMPDEST PUSH2 0x3EA PUSH3 0x93A80 DUP2 JUMP JUMPDEST PUSH2 0x34E PUSH2 0x6B6 CALLDATASIZE PUSH1 0x4 PUSH2 0x3256 JUMP JUMPDEST PUSH2 0x1C5B JUMP JUMPDEST PUSH2 0x6CE PUSH2 0x6C9 CALLDATASIZE PUSH1 0x4 PUSH2 0x33B5 JUMP JUMPDEST PUSH2 0x1D6F JUMP JUMPDEST PUSH1 0x40 MLOAD PUSH2 0x332 SWAP2 SWAP1 PUSH2 0x33E8 JUMP JUMPDEST PUSH2 0x3EA PUSH2 0x3E8 DUP2 JUMP JUMPDEST PUSH2 0x3EA PUSH5 0x2540BE400 DUP2 JUMP JUMPDEST PUSH2 0x391 PUSH2 0x6FE CALLDATASIZE PUSH1 0x4 PUSH2 0x329D JUMP JUMPDEST PUSH2 0x1EDD JUMP JUMPDEST PUSH2 0x34E PUSH2 0x711 CALLDATASIZE PUSH1 0x4 PUSH2 0x3420 JUMP JUMPDEST PUSH2 0x1EF9 JUMP JUMPDEST PUSH2 0x34E PUSH2 0x724 CALLDATASIZE PUSH1 0x4 PUSH2 0x331C JUMP JUMPDEST PUSH2 0x2332 JUMP JUMPDEST PUSH2 0x3EA PUSH2 0x737 CALLDATASIZE PUSH1 0x4 PUSH2 0x329D JUMP JUMPDEST PUSH2 0x24B9 JUMP JUMPDEST PUSH2 0x484 PUSH2 0x24EA JUMP JUMPDEST PUSH2 0x3EA PUSH1 0x4 SLOAD DUP2 JUMP JUMPDEST PUSH2 0x792 PUSH2 0x75B CALLDATASIZE PUSH1 0x4 PUSH2 0x329D JUMP JUMPDEST PUSH1 0xA PUSH1 0x20 SWAP1 DUP2 MSTORE PUSH1 0x0 SWAP3 DUP4 MSTORE PUSH1 0x40 DUP1 DUP5 KECCAK256 SWAP1 SWAP2 MSTORE SWAP1 DUP3 MSTORE SWAP1 KECCAK256 DUP1 SLOAD PUSH1 0x1 SWAP1 SWAP2 ADD SLOAD PUSH4 0xFFFFFFFF DUP2 AND SWAP1 PUSH5 0x100000000 SWAP1 DIV PUSH1 0xFF AND DUP4 JUMP JUMPDEST PUSH1 0x40 DUP1 MLOAD SWAP4 DUP5 MSTORE PUSH4 0xFFFFFFFF SWAP1 SWAP3 AND PUSH1 0x20 DUP5 ADD MSTORE ISZERO ISZERO SWAP1 DUP3 ADD MSTORE PUSH1 0x60 ADD PUSH2 0x332 JUMP JUMPDEST PUSH2 0x3EA PUSH1 0x7 SLOAD DUP2 JUMP JUMPDEST PUSH2 0x3EA PUSH2 0x1388 DUP2 JUMP JUMPDEST PUSH2 0x34E PUSH2 0x254C JUMP JUMPDEST PUSH2 0x3EA PUSH2 0x2710 DUP2 JUMP JUMPDEST PUSH2 0x34E PUSH2 0x7E5 CALLDATASIZE PUSH1 0x4 PUSH2 0x329D JUMP JUMPDEST PUSH2 0x26CB JUMP JUMPDEST PUSH2 0x34E PUSH2 0x7F8 CALLDATASIZE PUSH1 0x4 PUSH2 0x329D JUMP JUMPDEST PUSH2 0x28AE JUMP JUMPDEST PUSH2 0x391 PUSH32 0x0 DUP2 JUMP JUMPDEST PUSH2 0x3EA PUSH2 0x5DC DUP2 JUMP JUMPDEST PUSH2 0x34E PUSH2 0x2EF0 JUMP JUMPDEST PUSH1 0x0 SLOAD PUSH2 0x391 SWAP1 PUSH1 0x1 PUSH1 0x1 PUSH1 0xA0 SHL SUB AND DUP2 JUMP JUMPDEST PUSH2 0x3EA PUSH3 0x4C4B40 DUP2 JUMP JUMPDEST PUSH2 0x6CE PUSH2 0x860 CALLDATASIZE PUSH1 0x4 PUSH2 0x3234 JUMP JUMPDEST PUSH2 0x3003 JUMP JUMPDEST PUSH1 0x0 SLOAD PUSH1 0x1 PUSH1 0x1 PUSH1 0xA0 SHL SUB AND CALLER EQ PUSH2 0x898 JUMPI PUSH1 0x40 MLOAD PUSH3 0x461BCD PUSH1 0xE5 SHL DUP2 MSTORE PUSH1 0x4 ADD PUSH2 0x88F SWAP1 PUSH2 0x3493 JUMP JUMPDEST PUSH1 0x40 MLOAD DUP1 SWAP2 SUB SWAP1 REVERT JUMPDEST PUSH1 0x2 SLOAD PUSH1 0x2 SUB PUSH2 0x8BA JUMPI PUSH1 0x40 MLOAD PUSH3 0x461BCD PUSH1 0xE5 SHL DUP2 MSTORE PUSH1 0x4 ADD PUSH2 0x88F SWAP1 PUSH2 0x34B6 JUMP JUMPDEST PUSH1 0x2 DUP1 SSTORE PUSH1 0x0 SLOAD PUSH1 0x40 MLOAD PUSH4 0x23B872DD PUSH1 0xE0 SHL DUP2 MSTORE PUSH1 0x1 PUSH1 0x1 PUSH1 0xA0 SHL SUB SWAP2 DUP3 AND PUSH1 0x4 DUP3 ADD MSTORE ADDRESS PUSH1 0x24 DUP3 ADD MSTORE PUSH1 0x44 DUP2 ADD DUP4 SWAP1 MSTORE PUSH32 0x0 SWAP1 SWAP2 AND SWAP1 PUSH4 0x23B872DD SWAP1 PUSH1 0x64 ADD PUSH1 0x20 PUSH1 0x40 MLOAD DUP1 DUP4 SUB DUP2 PUSH1 0x0 DUP8 GAS CALL ISZERO DUP1 ISZERO PUSH2 0x938 JUMPI RETURNDATASIZE PUSH1 0x0 DUP1 RETURNDATACOPY RETURNDATASIZE PUSH1 0x0 REVERT JUMPDEST POP POP POP POP PUSH1 0x40 MLOAD RETURNDATASIZE PUSH1 0x1F NOT PUSH1 0x1F DUP3 ADD AND DUP3 ADD DUP1 PUSH1 0x40 MSTORE POP DUP2 ADD SWAP1 PUSH2 0x95C SWAP2 SWAP1 PUSH2 0x34D9 JUMP JUMPDEST PUSH2 0x991 JUMPI PUSH1 0x40 MLOAD PUSH3 0x461BCD PUSH1 0xE5 SHL DUP2 MSTORE PUSH1 0x20 PUSH1 0x4 DUP3 ADD MSTORE PUSH1 0x6 PUSH1 0x24 DUP3 ADD MSTORE PUSH6 0x11985A5B1959 PUSH1 0xD2 SHL PUSH1 0x44 DUP3 ADD MSTORE PUSH1 0x64 ADD PUSH2 0x88F JUMP JUMPDEST POP PUSH1 0x1 PUSH1 0x2 SSTORE JUMP JUMPDEST PUSH1 0x1 SLOAD PUSH1 0x1 PUSH1 0x1 PUSH1 0xA0 SHL SUB AND CALLER EQ PUSH2 0x9E1 JUMPI PUSH1 0x40 MLOAD PUSH3 0x461BCD PUSH1 0xE5 SHL DUP2 MSTORE PUSH1 0x20 PUSH1 0x4 DUP3 ADD MSTORE PUSH1 0xB PUSH1 0x24 DUP3 ADD MSTORE PUSH11 0x4E6F742070656E64696E67 PUSH1 0xA8 SHL PUSH1 0x44 DUP3 ADD MSTORE PUSH1 0x64 ADD PUSH2 0x88F JUMP JUMPDEST PUSH1 0x1 SLOAD PUSH1 0x0 DUP1 SLOAD PUSH1 0x40 MLOAD PUSH1 0x1 PUSH1 0x1 PUSH1 0xA0 SHL SUB SWAP4 DUP5 AND SWAP4 SWAP1 SWAP2 AND SWAP2 PUSH32 0xF8CCB027DFCD135E000E9D45E6CC2D662578A8825D4C45B5E32E0ADF67E79EC6 SWAP2 LOG3 PUSH1 0x1 DUP1 SLOAD PUSH1 0x0 DUP1 SLOAD PUSH1 0x1 PUSH1 0x1 PUSH1 0xA0 SHL SUB NOT SWAP1 DUP2 AND PUSH1 0x1 PUSH1 0x1 PUSH1 0xA0 SHL SUB DUP5 AND OR SWAP1 SWAP2 SSTORE AND SWAP1 SSTORE JUMP JUMPDEST CALLER PUSH1 0x0 SWAP1 DUP2 MSTORE PUSH1 0xC PUSH1 0x20 SWAP1 DUP2 MSTORE PUSH1 0x40 DUP1 DUP4 KECCAK256 PUSH1 0x1 PUSH1 0x1 PUSH1 0xA0 SHL SUB DUP6 AND DUP5 MSTORE SWAP1 SWAP2 MSTORE SWAP1 KECCAK256 PUSH1 0x1 ADD SLOAD PUSH1 0xFF AND PUSH2 0xAAB JUMPI PUSH1 0x40 MLOAD PUSH3 0x461BCD PUSH1 0xE5 SHL DUP2 MSTORE PUSH1 0x20 PUSH1 0x4 DUP3 ADD MSTORE PUSH1 0xD PUSH1 0x24 DUP3 ADD MSTORE PUSH13 0x4E6F7420666F6C6C6F77696E67 PUSH1 0x98 SHL PUSH1 0x44 DUP3 ADD MSTORE PUSH1 0x64 ADD PUSH2 0x88F JUMP JUMPDEST CALLER PUSH1 0x0 DUP2 DUP2 MSTORE PUSH1 0xC PUSH1 0x20 SWAP1 DUP2 MSTORE PUSH1 0x40 DUP1 DUP4 KECCAK256 PUSH1 0x1 PUSH1 0x1 PUSH1 0xA0 SHL SUB DUP7 AND DUP1 DUP6 MSTORE SWAP3 MSTORE DUP1 DUP4 KECCAK256 PUSH1 0x1 ADD DUP1 SLOAD PUSH1 0xFF NOT AND SWAP1 SSTORE MLOAD SWAP1 SWAP3 SWAP2 PUSH32 0xCD79C2EBC1A949278DF87D076CA14914A0BA9D9CD0BE992147CF5B846D34A0B5 SWAP2 LOG3 POP JUMP JUMPDEST PUSH1 0x0 SLOAD PUSH1 0x1 PUSH1 0x1 PUSH1 0xA0 SHL SUB AND CALLER EQ PUSH2 0xB2E JUMPI PUSH1 0x40 MLOAD PUSH3 0x461BCD PUSH1 0xE5 SHL DUP2 MSTORE PUSH1 0x4 ADD PUSH2 0x88F SWAP1 PUSH2 0x3493 JUMP JUMPDEST PUSH1 0x1 DUP1 SLOAD SWAP2 ISZERO ISZERO PUSH1 0x1 PUSH1 0xA0 SHL MUL PUSH1 0xFF PUSH1 0xA0 SHL NOT SWAP1 SWAP3 AND SWAP2 SWAP1 SWAP2 OR SWAP1 SSTORE JUMP JUMPDEST PUSH1 0xE PUSH1 0x20 MSTORE DUP2 PUSH1 0x0 MSTORE PUSH1 0x40 PUSH1 0x0 KECCAK256 DUP2 DUP2 SLOAD DUP2 LT PUSH2 0xB68 JUMPI PUSH1 0x0 DUP1 REVERT JUMPDEST PUSH1 0x0 SWAP2 DUP3 MSTORE PUSH1 0x20 SWAP1 SWAP2 KECCAK256 ADD SLOAD PUSH1 0x1 PUSH1 0x1 PUSH1 0xA0 SHL SUB AND SWAP2 POP DUP3 SWAP1 POP JUMP JUMPDEST PUSH1 0x0 SLOAD PUSH1 0x1 PUSH1 0x1 PUSH1 0xA0 SHL SUB AND CALLER EQ PUSH2 0xBAE JUMPI PUSH1 0x40 MLOAD PUSH3 0x461BCD PUSH1 0xE5 SHL DUP2 MSTORE PUSH1 0x4 ADD PUSH2 0x88F SWAP1 PUSH2 0x3493 JUMP JUMPDEST PUSH1 0x40 MLOAD PUSH4 0x36CE736B PUSH1 0xE0 SHL DUP2 MSTORE PUSH4 0xFFFFFFFF DUP4 AND PUSH1 0x4 DUP3 ADD MSTORE PUSH1 0x1 PUSH1 0x1 PUSH1 0x40 SHL SUB DUP3 AND PUSH1 0x24 DUP3 ADD MSTORE PUSH32 0x0 PUSH1 0x1 PUSH1 0x1 PUSH1 0xA0 SHL SUB AND SWAP1 PUSH4 0x36CE736B SWAP1 PUSH1 0x44 ADD PUSH1 0x0 PUSH1 0x40 MLOAD DUP1 DUP4 SUB DUP2 PUSH1 0x0 DUP8 DUP1 EXTCODESIZE ISZERO DUP1 ISZERO PUSH2 0xC24 JUMPI PUSH1 0x0 DUP1 REVERT JUMPDEST POP GAS CALL ISZERO DUP1 ISZERO PUSH2 0xC38 JUMPI RETURNDATASIZE PUSH1 0x0 DUP1 RETURNDATACOPY RETURNDATASIZE PUSH1 0x0 REVERT JUMPDEST POP POP POP POP POP POP JUMP JUMPDEST CALLER PUSH1 0x0 SWAP1 DUP2 MSTORE PUSH1 0x5 PUSH1 0x20 MSTORE PUSH1 0x40 SWAP1 KECCAK256 SLOAD PUSH1 0xFF AND PUSH2 0xC6F JUMPI PUSH1 0x40 MLOAD PUSH3 0x461BCD PUSH1 0xE5 SHL DUP2 MSTORE PUSH1 0x4 ADD PUSH2 0x88F SWAP1 PUSH2 0x34F6 JUMP JUMPDEST PUSH1 0x2 SLOAD PUSH1 0x2 SUB PUSH2 0xC91 JUMPI PUSH1 0x40 MLOAD PUSH3 0x461BCD PUSH1 0xE5 SHL DUP2 MSTORE PUSH1 0x4 ADD PUSH2 0x88F SWAP1 PUSH2 0x34B6 JUMP JUMPDEST PUSH1 0x2 DUP1 SSTORE CALLER PUSH1 0x0 SWAP1 DUP2 MSTORE PUSH1 0x5 PUSH1 0x20 MSTORE PUSH1 0x40 SWAP1 KECCAK256 PUSH1 0x3 ADD SLOAD DUP1 PUSH2 0xCDF JUMPI PUSH1 0x40 MLOAD PUSH3 0x461BCD PUSH1 0xE5 SHL DUP2 MSTORE PUSH1 0x20 PUSH1 0x4 DUP3 ADD MSTORE PUSH1 0x7 PUSH1 0x24 DUP3 ADD MSTORE PUSH7 0x4E6F2066656573 PUSH1 0xC8 SHL PUSH1 0x44 DUP3 ADD MSTORE PUSH1 0x64 ADD PUSH2 0x88F JUMP JUMPDEST CALLER PUSH1 0x0 DUP2 DUP2 MSTORE PUSH1 0x5 PUSH1 0x20 MSTORE PUSH1 0x40 DUP1 DUP3 KECCAK256 PUSH1 0x3 ADD SWAP2 SWAP1 SWAP2 SSTORE MLOAD PUSH4 0xA9059CBB PUSH1 0xE0 SHL DUP2 MSTORE PUSH1 0x4 DUP2 ADD SWAP2 SWAP1 SWAP2 MSTORE PUSH1 0x24 DUP2 ADD DUP3 SWAP1 MSTORE PUSH1 0x1 PUSH1 0x1 PUSH1 0xA0 SHL SUB PUSH32 0x0 AND SWAP1 PUSH4 0xA9059CBB SWAP1 PUSH1 0x44 ADD PUSH1 0x20 PUSH1 0x40 MLOAD DUP1 DUP4 SUB DUP2 PUSH1 0x0 DUP8 GAS CALL ISZERO DUP1 ISZERO PUSH2 0xD63 JUMPI RETURNDATASIZE PUSH1 0x0 DUP1 RETURNDATACOPY RETURNDATASIZE PUSH1 0x0 REVERT JUMPDEST POP POP POP POP PUSH1 0x40 MLOAD RETURNDATASIZE PUSH1 0x1F NOT PUSH1 0x1F DUP3 ADD AND DUP3 ADD DUP1 PUSH1 0x40 MSTORE POP DUP2 ADD SWAP1 PUSH2 0xD87 SWAP2 SWAP1 PUSH2 0x34D9 JUMP JUMPDEST PUSH2 0xDA3 JUMPI PUSH1 0x40 MLOAD PUSH3 0x461BCD PUSH1 0xE5 SHL DUP2 MSTORE PUSH1 0x4 ADD PUSH2 0x88F SWAP1 PUSH2 0x351E JUMP JUMPDEST PUSH1 0x40 MLOAD DUP2 DUP2 MSTORE CALLER SWAP1 PUSH32 0x2DDE923792EE541AD55ACE416D0077AE7E224826839C03FB2426C2F43074A570 SWAP1 PUSH1 0x20 ADD PUSH1 0x40 MLOAD DUP1 SWAP2 SUB SWAP1 LOG2 POP PUSH1 0x1 PUSH1 0x2 SSTORE JUMP JUMPDEST PUSH1 0x6 DUP2 DUP2 SLOAD DUP2 LT PUSH2 0xDF0 JUMPI PUSH1 0x0 DUP1 REVERT JUMPDEST PUSH1 0x0 SWAP2 DUP3 MSTORE PUSH1 0x20 SWAP1 SWAP2 KECCAK256 ADD SLOAD PUSH1 0x1 PUSH1 0x1 PUSH1 0xA0 SHL SUB AND SWAP1 POP DUP2 JUMP JUMPDEST PUSH1 0x1 SLOAD PUSH1 0x1 PUSH1 0xA0 SHL SWAP1 DIV PUSH1 0xFF AND ISZERO PUSH2 0xE34 JUMPI PUSH1 0x40 MLOAD PUSH3 0x461BCD PUSH1 0xE5 SHL DUP2 MSTORE PUSH1 0x4 ADD PUSH2 0x88F SWAP1 PUSH2 0x3547 JUMP JUMPDEST PUSH1 0x2 SLOAD PUSH1 0x2 SUB PUSH2 0xE56 JUMPI PUSH1 0x40 MLOAD PUSH3 0x461BCD PUSH1 0xE5 SHL DUP2 MSTORE PUSH1 0x4 ADD PUSH2 0x88F SWAP1 PUSH2 0x34B6 JUMP JUMPDEST PUSH1 0x2 DUP1 SSTORE PUSH1 0x0 DUP3 DUP2 MSTORE PUSH1 0x8 PUSH1 0x20 MSTORE PUSH1 0x40 SWAP1 KECCAK256 DUP1 SLOAD PUSH1 0x1 PUSH1 0xA8 SHL SWAP1 DIV PUSH1 0xFF AND DUP1 ISZERO PUSH2 0xE89 JUMPI POP DUP1 SLOAD PUSH1 0x1 PUSH1 0xB0 SHL SWAP1 DIV PUSH1 0xFF AND ISZERO JUMPDEST PUSH2 0xEA5 JUMPI PUSH1 0x40 MLOAD PUSH3 0x461BCD PUSH1 0xE5 SHL DUP2 MSTORE PUSH1 0x4 ADD PUSH2 0x88F SWAP1 PUSH2 0x3567 JUMP JUMPDEST PUSH1 0x0 DUP4 DUP2 MSTORE PUSH1 0x9 PUSH1 0x20 MSTORE PUSH1 0x40 SWAP1 KECCAK256 SLOAD PUSH2 0xEC1 SWAP1 PUSH2 0x12C SWAP1 PUSH2 0x35A1 JUMP JUMPDEST TIMESTAMP GT ISZERO PUSH2 0xF05 JUMPI PUSH1 0x40 MLOAD PUSH3 0x461BCD PUSH1 0xE5 SHL DUP2 MSTORE PUSH1 0x20 PUSH1 0x4 DUP3 ADD MSTORE PUSH1 0x12 PUSH1 0x24 DUP3 ADD MSTORE PUSH18 0x10DBDC1E481DDA5B991BDDC818DB1BDCD959 PUSH1 0x72 SHL PUSH1 0x44 DUP3 ADD MSTORE PUSH1 0x64 ADD PUSH2 0x88F JUMP JUMPDEST PUSH3 0x4C4B40 DUP3 LT ISZERO PUSH2 0xF46 JUMPI PUSH1 0x40 MLOAD PUSH3 0x461BCD PUSH1 0xE5 SHL DUP2 MSTORE PUSH1 0x20 PUSH1 0x4 DUP3 ADD MSTORE PUSH1 0xB PUSH1 0x24 DUP3 ADD MSTORE PUSH11 0x4D696E2024352055534443 PUSH1 0xA8 SHL PUSH1 0x44 DUP3 ADD MSTORE PUSH1 0x64 ADD PUSH2 0x88F JUMP JUMPDEST PUSH1 0x1 PUSH1 0x1 PUSH1 0x78 SHL SUB DUP3 GT ISZERO PUSH2 0xF89 JUMPI PUSH1 0x40 MLOAD PUSH3 0x461BCD PUSH1 0xE5 SHL DUP2 MSTORE PUSH1 0x20 PUSH1 0x4 DUP3 ADD MSTORE PUSH1 0x9 PUSH1 0x24 DUP3 ADD MSTORE PUSH9 0x546F6F206C61726765 PUSH1 0xB8 SHL PUSH1 0x44 DUP3 ADD MSTORE PUSH1 0x64 ADD PUSH2 0x88F JUMP JUMPDEST CALLER PUSH1 0x0 SWAP1 DUP2 MSTORE PUSH1 0xA PUSH1 0x20 SWAP1 DUP2 MSTORE PUSH1 0x40 DUP1 DUP4 KECCAK256 DUP7 DUP5 MSTORE SWAP1 SWAP2 MSTORE SWAP1 KECCAK256 SLOAD ISZERO PUSH2 0xFE2 JUMPI PUSH1 0x40 MLOAD PUSH3 0x461BCD PUSH1 0xE5 SHL DUP2 MSTORE PUSH1 0x20 PUSH1 0x4 DUP3 ADD MSTORE PUSH1 0xE PUSH1 0x24 DUP3 ADD MSTORE PUSH14 0x105B1C9958591E4818DBDC1A5959 PUSH1 0x92 SHL PUSH1 0x44 DUP3 ADD MSTORE PUSH1 0x64 ADD PUSH2 0x88F JUMP JUMPDEST PUSH1 0x3 DUP1 SLOAD PUSH4 0xFFFFFFFF AND SWAP1 DUP2 SWAP1 PUSH1 0x0 PUSH2 0xFFA DUP4 PUSH2 0x35BA JUMP JUMPDEST DUP3 SLOAD PUSH4 0xFFFFFFFF SWAP2 DUP3 AND PUSH2 0x100 SWAP4 SWAP1 SWAP4 EXP SWAP3 DUP4 MUL SWAP3 DUP3 MUL NOT AND SWAP2 SWAP1 SWAP2 OR SWAP1 SWAP2 SSTORE PUSH1 0x40 DUP1 MLOAD PUSH1 0x60 DUP2 ADD DUP3 MSTORE DUP7 DUP2 MSTORE DUP5 DUP4 AND PUSH1 0x20 DUP1 DUP4 ADD SWAP2 DUP3 MSTORE PUSH1 0x0 DUP4 DUP6 ADD DUP2 DUP2 MSTORE CALLER DUP1 DUP4 MSTORE PUSH1 0xA DUP5 MSTORE DUP7 DUP4 KECCAK256 DUP14 DUP5 MSTORE DUP5 MSTORE DUP7 DUP4 KECCAK256 SWAP6 MLOAD DUP7 SSTORE SWAP4 MLOAD PUSH1 0x1 SWAP6 DUP7 ADD DUP1 SLOAD SWAP3 MLOAD ISZERO ISZERO PUSH5 0x100000000 MUL PUSH5 0xFFFFFFFFFF NOT SWAP1 SWAP4 AND SWAP2 SWAP1 SWAP9 AND OR OR SWAP1 SWAP6 SSTORE SWAP1 DUP5 MSTORE PUSH1 0xB DUP2 MSTORE DUP3 DUP5 KECCAK256 DUP1 SLOAD SWAP3 DUP4 ADD DUP2 SSTORE DUP5 MSTORE DUP1 DUP5 KECCAK256 SWAP1 SWAP2 ADD DUP9 SWAP1 SSTORE DUP8 DUP4 MSTORE PUSH1 0x9 SWAP1 MSTORE DUP2 KECCAK256 PUSH1 0x2 DUP2 ADD DUP1 SLOAD SWAP2 SWAP4 POP DUP7 SWAP3 SWAP1 SWAP2 PUSH2 0x10B5 SWAP1 DUP5 SWAP1 PUSH2 0x35A1 JUMP JUMPDEST SWAP1 SWAP2 SSTORE POP POP PUSH1 0x3 DUP2 ADD DUP1 SLOAD PUSH4 0xFFFFFFFF AND SWAP1 PUSH1 0x0 PUSH2 0x10D2 DUP4 PUSH2 0x35BA JUMP JUMPDEST SWAP2 SWAP1 PUSH2 0x100 EXP DUP2 SLOAD DUP2 PUSH4 0xFFFFFFFF MUL NOT AND SWAP1 DUP4 PUSH4 0xFFFFFFFF AND MUL OR SWAP1 SSTORE POP POP DUP5 CALLER PUSH1 0x1 PUSH1 0x1 PUSH1 0xA0 SHL SUB AND PUSH32 0x781B72D927FC2FCFD2BE33C7FBFA6C56AAF0A10406AEE7BB7538F0E522BF0BC DUP7 PUSH1 0x40 MLOAD PUSH2 0x112D SWAP2 DUP2 MSTORE PUSH1 0x20 ADD SWAP1 JUMP JUMPDEST PUSH1 0x40 MLOAD DUP1 SWAP2 SUB SWAP1 LOG3 PUSH1 0x40 MLOAD PUSH4 0x23B872DD PUSH1 0xE0 SHL DUP2 MSTORE CALLER PUSH1 0x4 DUP3 ADD MSTORE ADDRESS PUSH1 0x24 DUP3 ADD MSTORE PUSH1 0x44 DUP2 ADD DUP6 SWAP1 MSTORE PUSH32 0x0 PUSH1 0x1 PUSH1 0x1 PUSH1 0xA0 SHL SUB AND SWAP1 PUSH4 0x23B872DD SWAP1 PUSH1 0x64 ADD PUSH1 0x20 PUSH1 0x40 MLOAD DUP1 DUP4 SUB DUP2 PUSH1 0x0 DUP8 GAS CALL ISZERO DUP1 ISZERO PUSH2 0x11A8 JUMPI RETURNDATASIZE PUSH1 0x0 DUP1 RETURNDATACOPY RETURNDATASIZE PUSH1 0x0 REVERT JUMPDEST POP POP POP POP PUSH1 0x40 MLOAD RETURNDATASIZE PUSH1 0x1F NOT PUSH1 0x1F DUP3 ADD AND DUP3 ADD DUP1 PUSH1 0x40 MSTORE POP DUP2 ADD SWAP1 PUSH2 0x11CC SWAP2 SWAP1 PUSH2 0x34D9 JUMP JUMPDEST PUSH2 0x11E8 JUMPI PUSH1 0x40 MLOAD PUSH3 0x461BCD PUSH1 0xE5 SHL DUP2 MSTORE PUSH1 0x4 ADD PUSH2 0x88F SWAP1 PUSH2 0x351E JUMP JUMPDEST PUSH2 0x11F2 DUP4 DUP6 PUSH2 0x306E JUMP JUMPDEST POP POP PUSH1 0x1 PUSH1 0x2 SSTORE POP POP POP JUMP JUMPDEST PUSH1 0x1 PUSH1 0x1 PUSH1 0xA0 SHL SUB DUP2 AND PUSH1 0x0 SWAP1 DUP2 MSTORE PUSH1 0xD PUSH1 0x20 SWAP1 DUP2 MSTORE PUSH1 0x40 SWAP2 DUP3 SWAP1 KECCAK256 DUP1 SLOAD DUP4 MLOAD DUP2 DUP5 MUL DUP2 ADD DUP5 ADD SWAP1 SWAP5 MSTORE DUP1 DUP5 MSTORE PUSH1 0x60 SWAP4 SWAP3 DUP4 ADD DUP3 DUP3 DUP1 ISZERO PUSH2 0x1268 JUMPI PUSH1 0x20 MUL DUP3 ADD SWAP2 SWAP1 PUSH1 0x0 MSTORE PUSH1 0x20 PUSH1 0x0 KECCAK256 SWAP1 JUMPDEST DUP2 SLOAD PUSH1 0x1 PUSH1 0x1 PUSH1 0xA0 SHL SUB AND DUP2 MSTORE PUSH1 0x1 SWAP1 SWAP2 ADD SWAP1 PUSH1 0x20 ADD DUP1 DUP4 GT PUSH2 0x124A JUMPI JUMPDEST POP POP POP POP POP SWAP1 POP SWAP2 SWAP1 POP JUMP JUMPDEST PUSH1 0x2 SLOAD PUSH1 0x2 SUB PUSH2 0x1296 JUMPI PUSH1 0x40 MLOAD PUSH3 0x461BCD PUSH1 0xE5 SHL DUP2 MSTORE PUSH1 0x4 ADD PUSH2 0x88F SWAP1 PUSH2 0x34B6 JUMP JUMPDEST PUSH1 0x2 DUP1 SSTORE PUSH1 0x0 DUP2 DUP2 MSTORE PUSH1 0x8 PUSH1 0x20 MSTORE PUSH1 0x40 SWAP1 KECCAK256 DUP1 SLOAD PUSH1 0x1 PUSH1 0xA8 SHL SWAP1 DIV PUSH1 0xFF AND DUP1 ISZERO PUSH2 0x12C9 JUMPI POP DUP1 SLOAD PUSH1 0x1 PUSH1 0xB0 SHL SWAP1 DIV PUSH1 0xFF AND ISZERO JUMPDEST PUSH2 0x12E5 JUMPI PUSH1 0x40 MLOAD PUSH3 0x461BCD PUSH1 0xE5 SHL DUP2 MSTORE PUSH1 0x4 ADD PUSH2 0x88F SWAP1 PUSH2 0x3567 JUMP JUMPDEST PUSH1 0x0 DUP3 DUP2 MSTORE PUSH1 0x9 PUSH1 0x20 MSTORE PUSH1 0x40 SWAP1 KECCAK256 SLOAD PUSH2 0x1302 SWAP1 PUSH3 0x93A80 SWAP1 PUSH2 0x35A1 JUMP JUMPDEST TIMESTAMP GT PUSH2 0x133C JUMPI PUSH1 0x40 MLOAD PUSH3 0x461BCD PUSH1 0xE5 SHL DUP2 MSTORE PUSH1 0x20 PUSH1 0x4 DUP3 ADD MSTORE PUSH1 0x9 PUSH1 0x24 DUP3 ADD MSTORE PUSH9 0x546F6F206561726C79 PUSH1 0xB8 SHL PUSH1 0x44 DUP3 ADD MSTORE PUSH1 0x64 ADD PUSH2 0x88F JUMP JUMPDEST CALLER PUSH1 0x0 SWAP1 DUP2 MSTORE PUSH1 0xA PUSH1 0x20 SWAP1 DUP2 MSTORE PUSH1 0x40 DUP1 DUP4 KECCAK256 DUP6 DUP5 MSTORE SWAP1 SWAP2 MSTORE SWAP1 KECCAK256 DUP1 SLOAD PUSH2 0x1392 JUMPI PUSH1 0x40 MLOAD PUSH3 0x461BCD PUSH1 0xE5 SHL DUP2 MSTORE PUSH1 0x20 PUSH1 0x4 DUP3 ADD MSTORE PUSH1 0xB PUSH1 0x24 DUP3 ADD MSTORE PUSH11 0x2737903837B9B4BA34B7B7 PUSH1 0xA9 SHL PUSH1 0x44 DUP3 ADD MSTORE PUSH1 0x64 ADD PUSH2 0x88F JUMP JUMPDEST PUSH1 0x1 DUP2 ADD SLOAD PUSH5 0x100000000 SWAP1 DIV PUSH1 0xFF AND ISZERO PUSH2 0x13D9 JUMPI PUSH1 0x40 MLOAD PUSH3 0x461BCD PUSH1 0xE5 SHL DUP2 MSTORE PUSH1 0x20 PUSH1 0x4 DUP3 ADD MSTORE PUSH1 0x7 PUSH1 0x24 DUP3 ADD MSTORE PUSH7 0x10DB185A5B5959 PUSH1 0xCA SHL PUSH1 0x44 DUP3 ADD MSTORE PUSH1 0x64 ADD PUSH2 0x88F JUMP JUMPDEST PUSH1 0x1 DUP2 ADD DUP1 SLOAD PUSH5 0xFF00000000 NOT AND PUSH5 0x100000000 OR SWAP1 SSTORE DUP1 SLOAD PUSH1 0x40 MLOAD PUSH4 0x70A08231 PUSH1 0xE0 SHL DUP2 MSTORE ADDRESS PUSH1 0x4 DUP3 ADD MSTORE PUSH1 0x0 SWAP1 PUSH1 0x1 PUSH1 0x1 PUSH1 0xA0 SHL SUB PUSH32 0x0 AND SWAP1 PUSH4 0x70A08231 SWAP1 PUSH1 0x24 ADD PUSH1 0x20 PUSH1 0x40 MLOAD DUP1 DUP4 SUB DUP2 PUSH1 0x0 DUP8 GAS CALL ISZERO DUP1 ISZERO PUSH2 0x145B JUMPI RETURNDATASIZE PUSH1 0x0 DUP1 RETURNDATACOPY RETURNDATASIZE PUSH1 0x0 REVERT JUMPDEST POP POP POP POP PUSH1 0x40 MLOAD RETURNDATASIZE PUSH1 0x1F NOT PUSH1 0x1F DUP3 ADD AND DUP3 ADD DUP1 PUSH1 0x40 MSTORE POP DUP2 ADD SWAP1 PUSH2 0x147F SWAP2 SWAP1 PUSH2 0x35DD JUMP JUMPDEST SWAP1 POP PUSH1 0x0 DUP2 DUP4 GT PUSH2 0x1490 JUMPI DUP3 PUSH2 0x1492 JUMP JUMPDEST DUP2 JUMPDEST PUSH1 0x40 DUP1 MLOAD DUP3 DUP2 MSTORE PUSH1 0x0 PUSH1 0x20 DUP3 ADD DUP2 SWAP1 MSTORE DUP2 DUP4 ADD MSTORE SWAP1 MLOAD SWAP2 SWAP3 POP DUP8 SWAP2 CALLER SWAP2 PUSH32 0x30857E17C02B9AA99AD97B3FC85FB6F2741181B4C25A5AC439290F354B9B53B3 SWAP2 SWAP1 DUP2 SWAP1 SUB PUSH1 0x60 ADD SWAP1 LOG3 DUP1 ISZERO PUSH2 0x15A6 JUMPI PUSH1 0x40 MLOAD PUSH4 0xA9059CBB PUSH1 0xE0 SHL DUP2 MSTORE CALLER PUSH1 0x4 DUP3 ADD MSTORE PUSH1 0x24 DUP2 ADD DUP3 SWAP1 MSTORE PUSH32 0x0 PUSH1 0x1 PUSH1 0x1 PUSH1 0xA0 SHL SUB AND SWAP1 PUSH4 0xA9059CBB SWAP1 PUSH1 0x44 ADD PUSH1 0x20 PUSH1 0x40 MLOAD DUP1 DUP4 SUB DUP2 PUSH1 0x0 DUP8 GAS CALL ISZERO DUP1 ISZERO PUSH2 0x154D JUMPI RETURNDATASIZE PUSH1 0x0 DUP1 RETURNDATACOPY RETURNDATASIZE PUSH1 0x0 REVERT JUMPDEST POP POP POP POP PUSH1 0x40 MLOAD RETURNDATASIZE PUSH1 0x1F NOT PUSH1 0x1F DUP3 ADD AND DUP3 ADD DUP1 PUSH1 0x40 MSTORE POP DUP2 ADD SWAP1 PUSH2 0x1571 SWAP2 SWAP1 PUSH2 0x34D9 JUMP JUMPDEST PUSH2 0x15A6 JUMPI PUSH1 0x40 MLOAD PUSH3 0x461BCD PUSH1 0xE5 SHL DUP2 MSTORE PUSH1 0x20 PUSH1 0x4 DUP3 ADD MSTORE PUSH1 0x6 PUSH1 0x24 DUP3 ADD MSTORE PUSH6 0x11985A5B1959 PUSH1 0xD2 SHL PUSH1 0x44 DUP3 ADD MSTORE PUSH1 0x64 ADD PUSH2 0x88F JUMP JUMPDEST POP POP PUSH1 0x1 PUSH1 0x2 SSTORE POP POP POP POP JUMP JUMPDEST PUSH1 0x0 SLOAD PUSH1 0x1 PUSH1 0x1 PUSH1 0xA0 SHL SUB AND CALLER EQ PUSH2 0x15DD JUMPI PUSH1 0x40 MLOAD PUSH3 0x461BCD PUSH1 0xE5 SHL DUP2 MSTORE PUSH1 0x4 ADD PUSH2 0x88F SWAP1 PUSH2 0x3493 JUMP JUMPDEST PUSH1 0x1 PUSH1 0x1 PUSH1 0xA0 SHL SUB DUP2 AND PUSH2 0x161C JUMPI PUSH1 0x40 MLOAD PUSH3 0x461BCD PUSH1 0xE5 SHL DUP2 MSTORE PUSH1 0x4 ADD PUSH2 0x88F SWAP1 PUSH1 0x20 DUP1 DUP3 MSTORE PUSH1 0x4 SWAP1 DUP3 ADD MSTORE PUSH4 0x5A65726F PUSH1 0xE0 SHL PUSH1 0x40 DUP3 ADD MSTORE PUSH1 0x60 ADD SWAP1 JUMP JUMPDEST PUSH1 0x1 DUP1 SLOAD PUSH1 0x1 PUSH1 0x1 PUSH1 0xA0 SHL SUB NOT AND PUSH1 0x1 PUSH1 0x1 PUSH1 0xA0 SHL SUB DUP4 AND SWAP1 DUP2 OR SWAP1 SWAP2 SSTORE PUSH1 0x40 MLOAD PUSH32 0x7E5A44B25C18C9C756D8BB0C33E9F77D9AB83DC254932C8A69436F23AB74F634 SWAP1 PUSH1 0x0 SWAP1 LOG2 POP JUMP JUMPDEST PUSH1 0x2 SLOAD PUSH1 0x2 SUB PUSH2 0x1688 JUMPI PUSH1 0x40 MLOAD PUSH3 0x461BCD PUSH1 0xE5 SHL DUP2 MSTORE PUSH1 0x4 ADD PUSH2 0x88F SWAP1 PUSH2 0x34B6 JUMP JUMPDEST PUSH1 0x2 DUP1 SSTORE PUSH1 0x0 DUP2 DUP2 MSTORE PUSH1 0x8 PUSH1 0x20 MSTORE PUSH1 0x40 SWAP1 KECCAK256 DUP1 SLOAD PUSH1 0x1 PUSH1 0xB0 SHL SWAP1 DIV PUSH1 0xFF AND PUSH2 0x16DF JUMPI PUSH1 0x40 MLOAD PUSH3 0x461BCD PUSH1 0xE5 SHL DUP2 MSTORE PUSH1 0x20 PUSH1 0x4 DUP3 ADD MSTORE PUSH1 0xA PUSH1 0x24 DUP3 ADD MSTORE PUSH10 0x139BDD0818DB1BDCD959 PUSH1 0xB2 SHL PUSH1 0x44 DUP3 ADD MSTORE PUSH1 0x64 ADD PUSH2 0x88F JUMP JUMPDEST CALLER PUSH1 0x0 SWAP1 DUP2 MSTORE PUSH1 0xA PUSH1 0x20 SWAP1 DUP2 MSTORE PUSH1 0x40 DUP1 DUP4 KECCAK256 DUP6 DUP5 MSTORE SWAP1 SWAP2 MSTORE SWAP1 KECCAK256 DUP1 SLOAD PUSH2 0x1735 JUMPI PUSH1 0x40 MLOAD PUSH3 0x461BCD PUSH1 0xE5 SHL DUP2 MSTORE PUSH1 0x20 PUSH1 0x4 DUP3 ADD MSTORE PUSH1 0xB PUSH1 0x24 DUP3 ADD MSTORE PUSH11 0x2737903837B9B4BA34B7B7 PUSH1 0xA9 SHL PUSH1 0x44 DUP3 ADD MSTORE PUSH1 0x64 ADD PUSH2 0x88F JUMP JUMPDEST PUSH1 0x1 DUP2 ADD SLOAD PUSH5 0x100000000 SWAP1 DIV PUSH1 0xFF AND ISZERO PUSH2 0x1784 JUMPI PUSH1 0x40 MLOAD PUSH3 0x461BCD PUSH1 0xE5 SHL DUP2 MSTORE PUSH1 0x20 PUSH1 0x4 DUP3 ADD MSTORE PUSH1 0xF PUSH1 0x24 DUP3 ADD MSTORE PUSH15 0x105B1C9958591E4818DB185A5B5959 PUSH1 0x8A SHL PUSH1 0x44 DUP3 ADD MSTORE PUSH1 0x64 ADD PUSH2 0x88F JUMP JUMPDEST DUP1 SLOAD PUSH1 0x2 DUP4 ADD SLOAD PUSH1 0x0 SWAP1 DUP2 SWAP1 DUP2 SWAP1 DUP2 SGT PUSH2 0x18A8 JUMPI PUSH1 0x1 DUP7 ADD SLOAD PUSH1 0x2 DUP8 ADD SLOAD PUSH1 0x0 SWAP2 PUSH1 0x1 PUSH1 0x80 SHL SWAP1 DIV PUSH3 0xFFFFFF AND SWAP1 PUSH2 0x17BC SWAP1 DUP8 PUSH2 0x35F6 JUMP JUMPDEST PUSH2 0x17C6 SWAP2 SWAP1 PUSH2 0x35F6 JUMP JUMPDEST SWAP1 POP PUSH1 0x0 PUSH2 0x17D8 PUSH2 0x3E8 PUSH2 0x2710 PUSH2 0x35F6 JUMP JUMPDEST PUSH2 0x17E2 SWAP1 DUP4 PUSH2 0x360D JUMP JUMPDEST SWAP1 POP PUSH2 0x3E8 PUSH2 0x17F3 PUSH2 0x2710 DUP1 PUSH2 0x35F6 JUMP JUMPDEST PUSH2 0x17FD SWAP2 SWAP1 PUSH2 0x35F6 JUMP JUMPDEST PUSH2 0x1809 PUSH2 0x5DC DUP5 PUSH2 0x35F6 JUMP JUMPDEST PUSH2 0x1813 SWAP2 SWAP1 PUSH2 0x360D JUMP JUMPDEST SWAP4 POP PUSH2 0x3E8 PUSH2 0x1824 PUSH2 0x2710 DUP1 PUSH2 0x35F6 JUMP JUMPDEST PUSH2 0x182E SWAP2 SWAP1 PUSH2 0x35F6 JUMP JUMPDEST PUSH2 0x183A PUSH2 0x1F4 DUP5 PUSH2 0x35F6 JUMP JUMPDEST PUSH2 0x1844 SWAP2 SWAP1 PUSH2 0x360D JUMP JUMPDEST SWAP3 POP DUP1 PUSH2 0x1851 DUP5 DUP7 PUSH2 0x35A1 JUMP JUMPDEST GT ISZERO PUSH2 0x187F JUMPI PUSH2 0x7D0 PUSH2 0x1866 PUSH2 0x5DC DUP4 PUSH2 0x35F6 JUMP JUMPDEST PUSH2 0x1870 SWAP2 SWAP1 PUSH2 0x360D JUMP JUMPDEST SWAP4 POP PUSH2 0x187C DUP5 DUP3 PUSH2 0x362F JUMP JUMPDEST SWAP3 POP JUMPDEST DUP3 DUP5 PUSH2 0x188B DUP4 DUP10 PUSH2 0x35A1 JUMP JUMPDEST PUSH2 0x1895 SWAP2 SWAP1 PUSH2 0x362F JUMP JUMPDEST PUSH2 0x189F SWAP2 SWAP1 PUSH2 0x362F JUMP JUMPDEST SWAP5 POP POP POP PUSH2 0x191F JUMP JUMPDEST PUSH1 0x0 PUSH2 0x18B8 PUSH2 0x3E8 PUSH2 0x2710 PUSH2 0x35F6 JUMP JUMPDEST PUSH1 0x1 DUP9 ADD SLOAD PUSH1 0x2 DUP10 ADD SLOAD PUSH1 0x1 PUSH1 0x80 SHL SWAP1 SWAP2 DIV PUSH3 0xFFFFFF AND SWAP1 PUSH2 0x18D9 SWAP1 PUSH2 0x3642 JUMP JUMPDEST PUSH2 0x18E3 SWAP1 DUP9 PUSH2 0x35F6 JUMP JUMPDEST PUSH2 0x18ED SWAP2 SWAP1 PUSH2 0x35F6 JUMP JUMPDEST PUSH2 0x18F7 SWAP2 SWAP1 PUSH2 0x360D JUMP JUMPDEST SWAP1 POP DUP5 DUP2 LT ISZERO PUSH2 0x1910 JUMPI PUSH2 0x190B DUP2 DUP7 PUSH2 0x362F JUMP JUMPDEST PUSH2 0x1913 JUMP JUMPDEST PUSH1 0x0 JUMPDEST SWAP4 POP PUSH1 0x0 SWAP3 POP PUSH1 0x0 SWAP2 POP POP JUMPDEST PUSH1 0x40 MLOAD PUSH4 0x70A08231 PUSH1 0xE0 SHL DUP2 MSTORE ADDRESS PUSH1 0x4 DUP3 ADD MSTORE PUSH1 0x0 SWAP1 PUSH32 0x0 PUSH1 0x1 PUSH1 0x1 PUSH1 0xA0 SHL SUB AND SWAP1 PUSH4 0x70A08231 SWAP1 PUSH1 0x24 ADD PUSH1 0x20 PUSH1 0x40 MLOAD DUP1 DUP4 SUB DUP2 PUSH1 0x0 DUP8 GAS CALL ISZERO DUP1 ISZERO PUSH2 0x1988 JUMPI RETURNDATASIZE PUSH1 0x0 DUP1 RETURNDATACOPY RETURNDATASIZE PUSH1 0x0 REVERT JUMPDEST POP POP POP POP PUSH1 0x40 MLOAD RETURNDATASIZE PUSH1 0x1F NOT PUSH1 0x1F DUP3 ADD AND DUP3 ADD DUP1 PUSH1 0x40 MSTORE POP DUP2 ADD SWAP1 PUSH2 0x19AC SWAP2 SWAP1 PUSH2 0x35DD JUMP JUMPDEST SWAP1 POP PUSH1 0x0 PUSH2 0x19B8 PUSH2 0x31A9 JUMP JUMPDEST PUSH1 0x4 SLOAD PUSH2 0x19C5 SWAP2 SWAP1 PUSH2 0x35A1 JUMP JUMPDEST SWAP1 POP PUSH1 0x0 DUP2 DUP4 GT PUSH2 0x19D7 JUMPI PUSH1 0x0 PUSH2 0x19E1 JUMP JUMPDEST PUSH2 0x19E1 DUP3 DUP5 PUSH2 0x362F JUMP JUMPDEST SWAP1 POP DUP1 DUP7 GT ISZERO PUSH2 0x1A4C JUMPI PUSH1 0xA PUSH2 0x19F8 DUP8 PUSH1 0x9 PUSH2 0x35F6 JUMP JUMPDEST PUSH2 0x1A02 SWAP2 SWAP1 PUSH2 0x360D JUMP JUMPDEST DUP2 LT ISZERO PUSH2 0x1A48 JUMPI PUSH1 0x40 MLOAD PUSH3 0x461BCD PUSH1 0xE5 SHL DUP2 MSTORE PUSH1 0x20 PUSH1 0x4 DUP3 ADD MSTORE PUSH1 0x14 PUSH1 0x24 DUP3 ADD MSTORE PUSH20 0x496E73756666696369656E742062616C616E6365 PUSH1 0x60 SHL PUSH1 0x44 DUP3 ADD MSTORE PUSH1 0x64 ADD PUSH2 0x88F JUMP JUMPDEST DUP1 SWAP6 POP JUMPDEST PUSH1 0x1 DUP9 ADD DUP1 SLOAD PUSH5 0xFF00000000 NOT AND PUSH5 0x100000000 OR SWAP1 SSTORE DUP9 SLOAD PUSH1 0x1 PUSH1 0x1 PUSH1 0xA0 SHL SUB AND PUSH1 0x0 SWAP1 DUP2 MSTORE PUSH1 0x5 PUSH1 0x20 MSTORE PUSH1 0x40 DUP2 KECCAK256 PUSH1 0x2 ADD DUP1 SLOAD DUP8 SWAP3 SWAP1 PUSH2 0x1A8F SWAP1 DUP5 SWAP1 PUSH2 0x35A1 JUMP JUMPDEST SWAP1 SWAP2 SSTORE POP POP DUP9 SLOAD PUSH1 0x1 PUSH1 0x1 PUSH1 0xA0 SHL SUB AND PUSH1 0x0 SWAP1 DUP2 MSTORE PUSH1 0x5 PUSH1 0x20 MSTORE PUSH1 0x40 DUP2 KECCAK256 PUSH1 0x3 ADD DUP1 SLOAD DUP8 SWAP3 SWAP1 PUSH2 0x1AC0 SWAP1 DUP5 SWAP1 PUSH2 0x35A1 JUMP JUMPDEST SWAP3 POP POP DUP2 SWAP1 SSTORE POP DUP4 PUSH1 0x4 PUSH1 0x0 DUP3 DUP3 SLOAD PUSH2 0x1AD9 SWAP2 SWAP1 PUSH2 0x35A1 JUMP JUMPDEST SWAP1 SWAP2 SSTORE POP POP PUSH1 0x40 DUP1 MLOAD DUP8 DUP2 MSTORE PUSH1 0x20 DUP2 ADD DUP8 SWAP1 MSTORE SWAP1 DUP2 ADD DUP6 SWAP1 MSTORE DUP11 SWAP1 CALLER SWAP1 PUSH32 0x30857E17C02B9AA99AD97B3FC85FB6F2741181B4C25A5AC439290F354B9B53B3 SWAP1 PUSH1 0x60 ADD PUSH1 0x40 MLOAD DUP1 SWAP2 SUB SWAP1 LOG3 DUP6 ISZERO PUSH2 0x1BD6 JUMPI PUSH1 0x40 MLOAD PUSH4 0xA9059CBB PUSH1 0xE0 SHL DUP2 MSTORE CALLER PUSH1 0x4 DUP3 ADD MSTORE PUSH1 0x24 DUP2 ADD DUP8 SWAP1 MSTORE PUSH32 0x0 PUSH1 0x1 PUSH1 0x1 PUSH1 0xA0 SHL SUB AND SWAP1 PUSH4 0xA9059CBB SWAP1 PUSH1 0x44 ADD PUSH1 0x20 PUSH1 0x40 MLOAD DUP1 DUP4 SUB DUP2 PUSH1 0x0 DUP8 GAS CALL ISZERO DUP1 ISZERO PUSH2 0x1B96 JUMPI RETURNDATASIZE PUSH1 0x0 DUP1 RETURNDATACOPY RETURNDATASIZE PUSH1 0x0 REVERT JUMPDEST POP POP POP POP PUSH1 0x40 MLOAD RETURNDATASIZE PUSH1 0x1F NOT PUSH1 0x1F DUP3 ADD AND DUP3 ADD DUP1 PUSH1 0x40 MSTORE POP DUP2 ADD SWAP1 PUSH2 0x1BBA SWAP2 SWAP1 PUSH2 0x34D9 JUMP JUMPDEST PUSH2 0x1BD6 JUMPI PUSH1 0x40 MLOAD PUSH3 0x461BCD PUSH1 0xE5 SHL DUP2 MSTORE PUSH1 0x4 ADD PUSH2 0x88F SWAP1 PUSH2 0x351E JUMP JUMPDEST POP POP PUSH1 0x1 PUSH1 0x2 SSTORE POP POP POP POP POP POP POP POP JUMP JUMPDEST PUSH1 0x1 PUSH1 0x1 PUSH1 0xA0 SHL SUB DUP2 AND PUSH1 0x0 SWAP1 DUP2 MSTORE PUSH1 0xE PUSH1 0x20 SWAP1 DUP2 MSTORE PUSH1 0x40 SWAP2 DUP3 SWAP1 KECCAK256 DUP1 SLOAD DUP4 MLOAD DUP2 DUP5 MUL DUP2 ADD DUP5 ADD SWAP1 SWAP5 MSTORE DUP1 DUP5 MSTORE PUSH1 0x60 SWAP4 SWAP3 DUP4 ADD DUP3 DUP3 DUP1 ISZERO PUSH2 0x1268 JUMPI PUSH1 0x20 MUL DUP3 ADD SWAP2 SWAP1 PUSH1 0x0 MSTORE PUSH1 0x20 PUSH1 0x0 KECCAK256 SWAP1 DUP2 SLOAD PUSH1 0x1 PUSH1 0x1 PUSH1 0xA0 SHL SUB AND DUP2 MSTORE PUSH1 0x1 SWAP1 SWAP2 ADD SWAP1 PUSH1 0x20 ADD DUP1 DUP4 GT PUSH2 0x124A JUMPI POP POP POP POP POP SWAP1 POP SWAP2 SWAP1 POP JUMP JUMPDEST PUSH1 0x0 DUP2 DUP2 MSTORE PUSH1 0x8 PUSH1 0x20 MSTORE PUSH1 0x40 SWAP1 KECCAK256 DUP1 SLOAD PUSH1 0x1 PUSH1 0xA8 SHL SWAP1 DIV PUSH1 0xFF AND DUP1 ISZERO PUSH2 0x1C8A JUMPI POP DUP1 SLOAD PUSH1 0x1 PUSH1 0xB0 SHL SWAP1 DIV PUSH1 0xFF AND ISZERO JUMPDEST PUSH2 0x1CA6 JUMPI PUSH1 0x40 MLOAD PUSH3 0x461BCD PUSH1 0xE5 SHL DUP2 MSTORE PUSH1 0x4 ADD PUSH2 0x88F SWAP1 PUSH2 0x3567 JUMP JUMPDEST DUP1 SLOAD PUSH1 0x1 PUSH1 0x1 PUSH1 0xA0 SHL SUB AND CALLER EQ DUP1 PUSH2 0x1CC8 JUMPI POP PUSH1 0x0 SLOAD PUSH1 0x1 PUSH1 0x1 PUSH1 0xA0 SHL SUB AND CALLER EQ JUMPDEST PUSH2 0x1D05 JUMPI PUSH1 0x40 MLOAD PUSH3 0x461BCD PUSH1 0xE5 SHL DUP2 MSTORE PUSH1 0x20 PUSH1 0x4 DUP3 ADD MSTORE PUSH1 0xE PUSH1 0x24 DUP3 ADD MSTORE PUSH14 0x139BDD08185D5D1A1BDC9A5E9959 PUSH1 0x92 SHL PUSH1 0x44 DUP3 ADD MSTORE PUSH1 0x64 ADD PUSH2 0x88F JUMP JUMPDEST DUP1 SLOAD PUSH2 0xFFFF PUSH1 0xA8 SHL NOT AND PUSH1 0x1 PUSH1 0xB0 SHL OR DUP2 SSTORE PUSH1 0x0 PUSH1 0x2 DUP3 ADD DUP2 SWAP1 SSTORE DUP3 DUP2 MSTORE PUSH1 0x9 PUSH1 0x20 MSTORE PUSH1 0x40 DUP1 DUP3 KECCAK256 TIMESTAMP PUSH1 0x1 SWAP2 SWAP1 SWAP2 ADD SSTORE DUP3 SLOAD SWAP1 MLOAD PUSH1 0x1 PUSH1 0x1 PUSH1 0xA0 SHL SUB SWAP1 SWAP2 AND SWAP2 DUP5 SWAP2 PUSH32 0xD81000DF985C72D99C8445F85CC50BB333CB9AB029AEB0649E43EA0BCE83C3CA SWAP2 SWAP1 LOG3 POP POP JUMP JUMPDEST PUSH1 0x60 PUSH1 0x0 DUP3 PUSH1 0x1 PUSH1 0x1 PUSH1 0x40 SHL SUB DUP2 GT ISZERO PUSH2 0x1D8B JUMPI PUSH2 0x1D8B PUSH2 0x365E JUMP JUMPDEST PUSH1 0x40 MLOAD SWAP1 DUP1 DUP3 MSTORE DUP1 PUSH1 0x20 MUL PUSH1 0x20 ADD DUP3 ADD PUSH1 0x40 MSTORE DUP1 ISZERO PUSH2 0x1DB4 JUMPI DUP2 PUSH1 0x20 ADD PUSH1 0x20 DUP3 MUL DUP1 CALLDATASIZE DUP4 CALLDATACOPY ADD SWAP1 POP JUMPDEST POP SWAP1 POP PUSH1 0x0 DUP5 JUMPDEST PUSH1 0x1 DUP2 LT ISZERO DUP1 ISZERO PUSH2 0x1DCB JUMPI POP DUP5 DUP3 LT JUMPDEST ISZERO PUSH2 0x1E37 JUMPI PUSH1 0x0 DUP2 DUP2 MSTORE PUSH1 0x8 PUSH1 0x20 MSTORE PUSH1 0x40 SWAP1 KECCAK256 SLOAD PUSH1 0x1 PUSH1 0x1 PUSH1 0xA0 SHL SUB DUP1 DUP10 AND SWAP2 AND SUB PUSH2 0x1E1D JUMPI DUP1 DUP4 DUP4 DUP2 MLOAD DUP2 LT PUSH2 0x1E04 JUMPI PUSH2 0x1E04 PUSH2 0x3674 JUMP JUMPDEST PUSH1 0x20 SWAP1 DUP2 MUL SWAP2 SWAP1 SWAP2 ADD ADD MSTORE DUP2 PUSH2 0x1E19 DUP2 PUSH2 0x368A JUMP JUMPDEST SWAP3 POP POP JUMPDEST PUSH1 0x1 DUP2 EQ PUSH2 0x1E37 JUMPI DUP1 PUSH2 0x1E2F DUP2 PUSH2 0x36A3 JUMP JUMPDEST SWAP2 POP POP PUSH2 0x1DBB JUMP JUMPDEST POP PUSH1 0x0 DUP2 PUSH1 0x1 PUSH1 0x1 PUSH1 0x40 SHL SUB DUP2 GT ISZERO PUSH2 0x1E52 JUMPI PUSH2 0x1E52 PUSH2 0x365E JUMP JUMPDEST PUSH1 0x40 MLOAD SWAP1 DUP1 DUP3 MSTORE DUP1 PUSH1 0x20 MUL PUSH1 0x20 ADD DUP3 ADD PUSH1 0x40 MSTORE DUP1 ISZERO PUSH2 0x1E7B JUMPI DUP2 PUSH1 0x20 ADD PUSH1 0x20 DUP3 MUL DUP1 CALLDATASIZE DUP4 CALLDATACOPY ADD SWAP1 POP JUMPDEST POP SWAP1 POP PUSH1 0x0 JUMPDEST DUP3 DUP2 LT ISZERO PUSH2 0x1ED2 JUMPI DUP4 DUP2 DUP2 MLOAD DUP2 LT PUSH2 0x1E9B JUMPI PUSH2 0x1E9B PUSH2 0x3674 JUMP JUMPDEST PUSH1 0x20 MUL PUSH1 0x20 ADD ADD MLOAD DUP3 DUP3 DUP2 MLOAD DUP2 LT PUSH2 0x1EB5 JUMPI PUSH2 0x1EB5 PUSH2 0x3674 JUMP JUMPDEST PUSH1 0x20 SWAP1 DUP2 MUL SWAP2 SWAP1 SWAP2 ADD ADD MSTORE DUP1 PUSH2 0x1ECA DUP2 PUSH2 0x368A JUMP JUMPDEST SWAP2 POP POP PUSH2 0x1E81 JUMP JUMPDEST POP SWAP7 SWAP6 POP POP POP POP POP POP JUMP JUMPDEST PUSH1 0xD PUSH1 0x20 MSTORE DUP2 PUSH1 0x0 MSTORE PUSH1 0x40 PUSH1 0x0 KECCAK256 DUP2 DUP2 SLOAD DUP2 LT PUSH2 0xB68 JUMPI PUSH1 0x0 DUP1 REVERT JUMPDEST CALLER PUSH1 0x0 SWAP1 DUP2 MSTORE PUSH1 0x5 PUSH1 0x20 MSTORE PUSH1 0x40 SWAP1 KECCAK256 SLOAD PUSH1 0xFF AND PUSH2 0x1F28 JUMPI PUSH1 0x40 MLOAD PUSH3 0x461BCD PUSH1 0xE5 SHL DUP2 MSTORE PUSH1 0x4 ADD PUSH2 0x88F SWAP1 PUSH2 0x34F6 JUMP JUMPDEST PUSH1 0x1 SLOAD PUSH1 0x1 PUSH1 0xA0 SHL SWAP1 DIV PUSH1 0xFF AND ISZERO PUSH2 0x1F52 JUMPI PUSH1 0x40 MLOAD PUSH3 0x461BCD PUSH1 0xE5 SHL DUP2 MSTORE PUSH1 0x4 ADD PUSH2 0x88F SWAP1 PUSH2 0x3547 JUMP JUMPDEST PUSH1 0x0 DUP5 PUSH1 0x1 PUSH1 0x1 PUSH1 0x40 SHL SUB AND GT DUP1 ISZERO PUSH2 0x1F74 JUMPI POP PUSH1 0x0 DUP4 PUSH1 0x1 PUSH1 0x1 PUSH1 0x40 SHL SUB AND GT JUMPDEST DUP1 ISZERO PUSH2 0x1F89 JUMPI POP PUSH1 0x0 DUP3 PUSH1 0x1 PUSH1 0x1 PUSH1 0x40 SHL SUB AND GT JUMPDEST PUSH2 0x1FC6 JUMPI PUSH1 0x40 MLOAD PUSH3 0x461BCD PUSH1 0xE5 SHL DUP2 MSTORE PUSH1 0x20 PUSH1 0x4 DUP3 ADD MSTORE PUSH1 0xE PUSH1 0x24 DUP3 ADD MSTORE PUSH14 0x496E76616C696420707269636573 PUSH1 0x90 SHL PUSH1 0x44 DUP3 ADD MSTORE PUSH1 0x64 ADD PUSH2 0x88F JUMP JUMPDEST PUSH2 0x7D0 DUP2 PUSH3 0xFFFFFF AND LT ISZERO DUP1 ISZERO PUSH2 0x1FE5 JUMPI POP PUSH3 0x3D090 DUP2 PUSH3 0xFFFFFF AND GT ISZERO JUMPDEST PUSH2 0x2024 JUMPI PUSH1 0x40 MLOAD PUSH3 0x461BCD PUSH1 0xE5 SHL DUP2 MSTORE PUSH1 0x20 PUSH1 0x4 DUP3 ADD MSTORE PUSH1 0x10 PUSH1 0x24 DUP3 ADD MSTORE PUSH16 0x98CAECCAE4C2CECA4064F05A646A60F PUSH1 0x83 SHL PUSH1 0x44 DUP3 ADD MSTORE PUSH1 0x64 ADD PUSH2 0x88F JUMP JUMPDEST PUSH1 0x7 DUP1 SLOAD SWAP1 PUSH1 0x0 PUSH2 0x2034 DUP4 PUSH2 0x368A JUMP JUMPDEST SWAP1 SWAP2 SSTORE POP POP PUSH1 0x7 SLOAD CALLER PUSH1 0x0 SWAP1 DUP2 MSTORE PUSH1 0x5 PUSH1 0x20 MSTORE PUSH1 0x40 DUP2 KECCAK256 PUSH1 0x1 ADD DUP1 SLOAD SWAP2 PUSH2 0x205A DUP4 PUSH2 0x368A JUMP JUMPDEST SWAP2 SWAP1 POP SSTORE POP PUSH1 0x40 MLOAD DUP1 PUSH2 0x120 ADD PUSH1 0x40 MSTORE DUP1 CALLER PUSH1 0x1 PUSH1 0x1 PUSH1 0xA0 SHL SUB AND DUP2 MSTORE PUSH1 0x20 ADD DUP8 ISZERO ISZERO DUP2 MSTORE PUSH1 0x20 ADD PUSH1 0x1 ISZERO ISZERO DUP2 MSTORE PUSH1 0x20 ADD PUSH1 0x0 ISZERO ISZERO DUP2 MSTORE PUSH1 0x20 ADD DUP7 PUSH1 0x1 PUSH1 0x1 PUSH1 0x40 SHL SUB AND DUP2 MSTORE PUSH1 0x20 ADD DUP6 PUSH1 0x1 PUSH1 0x1 PUSH1 0x40 SHL SUB AND DUP2 MSTORE PUSH1 0x20 ADD DUP5 PUSH1 0x1 PUSH1 0x1 PUSH1 0x40 SHL SUB AND DUP2 MSTORE PUSH1 0x20 ADD DUP4 PUSH3 0xFFFFFF AND DUP2 MSTORE PUSH1 0x20 ADD PUSH1 0x0 DUP2 MSTORE POP PUSH1 0x8 PUSH1 0x0 DUP4 DUP2 MSTORE PUSH1 0x20 ADD SWAP1 DUP2 MSTORE PUSH1 0x20 ADD PUSH1 0x0 KECCAK256 PUSH1 0x0 DUP3 ADD MLOAD DUP2 PUSH1 0x0 ADD PUSH1 0x0 PUSH2 0x100 EXP DUP2 SLOAD DUP2 PUSH1 0x1 PUSH1 0x1 PUSH1 0xA0 SHL SUB MUL NOT AND SWAP1 DUP4 PUSH1 0x1 PUSH1 0x1 PUSH1 0xA0 SHL SUB AND MUL OR SWAP1 SSTORE POP PUSH1 0x20 DUP3 ADD MLOAD DUP2 PUSH1 0x0 ADD PUSH1 0x14 PUSH2 0x100 EXP DUP2 SLOAD DUP2 PUSH1 0xFF MUL NOT AND SWAP1 DUP4 ISZERO ISZERO MUL OR SWAP1 SSTORE POP PUSH1 0x40 DUP3 ADD MLOAD DUP2 PUSH1 0x0 ADD PUSH1 0x15 PUSH2 0x100 EXP DUP2 SLOAD DUP2 PUSH1 0xFF MUL NOT AND SWAP1 DUP4 ISZERO ISZERO MUL OR SWAP1 SSTORE POP PUSH1 0x60 DUP3 ADD MLOAD DUP2 PUSH1 0x0 ADD PUSH1 0x16 PUSH2 0x100 EXP DUP2 SLOAD DUP2 PUSH1 0xFF MUL NOT AND SWAP1 DUP4 ISZERO ISZERO MUL OR SWAP1 SSTORE POP PUSH1 0x80 DUP3 ADD MLOAD DUP2 PUSH1 0x0 ADD PUSH1 0x17 PUSH2 0x100 EXP DUP2 SLOAD DUP2 PUSH1 0x1 PUSH1 0x1 PUSH1 0x40 SHL SUB MUL NOT AND SWAP1 DUP4 PUSH1 0x1 PUSH1 0x1 PUSH1 0x40 SHL SUB AND MUL OR SWAP1 SSTORE POP PUSH1 0xA0 DUP3 ADD MLOAD DUP2 PUSH1 0x1 ADD PUSH1 0x0 PUSH2 0x100 EXP DUP2 SLOAD DUP2 PUSH1 0x1 PUSH1 0x1 PUSH1 0x40 SHL SUB MUL NOT AND SWAP1 DUP4 PUSH1 0x1 PUSH1 0x1 PUSH1 0x40 SHL SUB AND MUL OR SWAP1 SSTORE POP PUSH1 0xC0 DUP3 ADD MLOAD DUP2 PUSH1 0x1 ADD PUSH1 0x8 PUSH2 0x100 EXP DUP2 SLOAD DUP2 PUSH1 0x1 PUSH1 0x1 PUSH1 0x40 SHL SUB MUL NOT AND SWAP1 DUP4 PUSH1 0x1 PUSH1 0x1 PUSH1 0x40 SHL SUB AND MUL OR SWAP1 SSTORE POP PUSH1 0xE0 DUP3 ADD MLOAD DUP2 PUSH1 0x1 ADD PUSH1 0x10 PUSH2 0x100 EXP DUP2 SLOAD DUP2 PUSH3 0xFFFFFF MUL NOT AND SWAP1 DUP4 PUSH3 0xFFFFFF AND MUL OR SWAP1 SSTORE POP PUSH2 0x100 DUP3 ADD MLOAD DUP2 PUSH1 0x2 ADD SSTORE SWAP1 POP POP PUSH1 0x40 MLOAD DUP1 PUSH1 0x80 ADD PUSH1 0x40 MSTORE DUP1 TIMESTAMP DUP2 MSTORE PUSH1 0x20 ADD PUSH1 0x0 DUP2 MSTORE PUSH1 0x20 ADD PUSH1 0x0 DUP2 MSTORE PUSH1 0x20 ADD PUSH1 0x0 PUSH4 0xFFFFFFFF AND DUP2 MSTORE POP PUSH1 0x9 PUSH1 0x0 DUP4 DUP2 MSTORE PUSH1 0x20 ADD SWAP1 DUP2 MSTORE PUSH1 0x20 ADD PUSH1 0x0 KECCAK256 PUSH1 0x0 DUP3 ADD MLOAD DUP2 PUSH1 0x0 ADD SSTORE PUSH1 0x20 DUP3 ADD MLOAD DUP2 PUSH1 0x1 ADD SSTORE PUSH1 0x40 DUP3 ADD MLOAD DUP2 PUSH1 0x2 ADD SSTORE PUSH1 0x60 DUP3 ADD MLOAD DUP2 PUSH1 0x3 ADD PUSH1 0x0 PUSH2 0x100 EXP DUP2 SLOAD DUP2 PUSH4 0xFFFFFFFF MUL NOT AND SWAP1 DUP4 PUSH4 0xFFFFFFFF AND MUL OR SWAP1 SSTORE POP SWAP1 POP POP CALLER PUSH1 0x1 PUSH1 0x1 PUSH1 0xA0 SHL SUB AND DUP2 PUSH32 0x193108380997F14E44D282FF42333CD7D1EF2975DC85037BFB1AC78771D80648 DUP9 DUP9 DUP9 DUP9 DUP9 PUSH1 0x40 MLOAD PUSH2 0x2322 SWAP6 SWAP5 SWAP4 SWAP3 SWAP2 SWAP1 SWAP5 ISZERO ISZERO DUP6 MSTORE PUSH1 0x1 PUSH1 0x1 PUSH1 0x40 SHL SUB SWAP4 DUP5 AND PUSH1 0x20 DUP7 ADD MSTORE SWAP2 DUP4 AND PUSH1 0x40 DUP6 ADD MSTORE SWAP1 SWAP2 AND PUSH1 0x60 DUP4 ADD MSTORE PUSH3 0xFFFFFF AND PUSH1 0x80 DUP3 ADD MSTORE PUSH1 0xA0 ADD SWAP1 JUMP JUMPDEST PUSH1 0x40 MLOAD DUP1 SWAP2 SUB SWAP1 LOG3 POP POP POP POP POP POP JUMP JUMPDEST PUSH1 0x0 DUP3 DUP2 MSTORE PUSH1 0x8 PUSH1 0x20 MSTORE PUSH1 0x40 SWAP1 KECCAK256 DUP1 SLOAD PUSH1 0x1 PUSH1 0xA8 SHL SWAP1 DIV PUSH1 0xFF AND DUP1 ISZERO PUSH2 0x2361 JUMPI POP DUP1 SLOAD PUSH1 0x1 PUSH1 0xB0 SHL SWAP1 DIV PUSH1 0xFF AND ISZERO JUMPDEST PUSH2 0x237D JUMPI PUSH1 0x40 MLOAD PUSH3 0x461BCD PUSH1 0xE5 SHL DUP2 MSTORE PUSH1 0x4 ADD PUSH2 0x88F SWAP1 PUSH2 0x3567 JUMP JUMPDEST DUP1 SLOAD PUSH1 0x1 PUSH1 0x1 PUSH1 0xA0 SHL SUB AND CALLER EQ DUP1 PUSH2 0x239F JUMPI POP PUSH1 0x0 SLOAD PUSH1 0x1 PUSH1 0x1 PUSH1 0xA0 SHL SUB AND CALLER EQ JUMPDEST PUSH2 0x23DC JUMPI PUSH1 0x40 MLOAD PUSH3 0x461BCD PUSH1 0xE5 SHL DUP2 MSTORE PUSH1 0x20 PUSH1 0x4 DUP3 ADD MSTORE PUSH1 0xE PUSH1 0x24 DUP3 ADD MSTORE PUSH14 0x139BDD08185D5D1A1BDC9A5E9959 PUSH1 0x92 SHL PUSH1 0x44 DUP3 ADD MSTORE PUSH1 0x64 ADD PUSH2 0x88F JUMP JUMPDEST PUSH2 0x23E7 PUSH2 0x1388 PUSH2 0x3642 JUMP JUMPDEST DUP3 SLT ISZERO DUP1 ISZERO PUSH2 0x23F8 JUMPI POP PUSH2 0x1388 DUP3 SGT ISZERO JUMPDEST PUSH2 0x243A JUMPI PUSH1 0x40 MLOAD PUSH3 0x461BCD PUSH1 0xE5 SHL DUP2 MSTORE PUSH1 0x20 PUSH1 0x4 DUP3 ADD MSTORE PUSH1 0x13 PUSH1 0x24 DUP3 ADD MSTORE PUSH19 0x526573756C74206F7574206F662072616E6765 PUSH1 0x68 SHL PUSH1 0x44 DUP3 ADD MSTORE PUSH1 0x64 ADD PUSH2 0x88F JUMP JUMPDEST DUP1 SLOAD PUSH2 0xFFFF PUSH1 0xA8 SHL NOT AND PUSH1 0x1 PUSH1 0xB0 SHL OR DUP2 SSTORE PUSH1 0x2 DUP2 ADD DUP3 SWAP1 SSTORE PUSH1 0x0 DUP4 DUP2 MSTORE PUSH1 0x9 PUSH1 0x20 MSTORE PUSH1 0x40 SWAP1 DUP2 SWAP1 KECCAK256 TIMESTAMP PUSH1 0x1 SWAP2 SWAP1 SWAP2 ADD SSTORE DUP2 SLOAD SWAP1 MLOAD PUSH1 0x1 PUSH1 0x1 PUSH1 0xA0 SHL SUB SWAP1 SWAP2 AND SWAP1 DUP5 SWAP1 PUSH32 0x4734D66EBF6DFEFA77C9D0227B2AED8CC2ABDAE2F12BD1E881EAD0D284064982 SWAP1 PUSH2 0x24AC SWAP1 DUP7 DUP2 MSTORE PUSH1 0x20 ADD SWAP1 JUMP JUMPDEST PUSH1 0x40 MLOAD DUP1 SWAP2 SUB SWAP1 LOG3 POP POP POP JUMP JUMPDEST PUSH1 0xB PUSH1 0x20 MSTORE DUP2 PUSH1 0x0 MSTORE PUSH1 0x40 PUSH1 0x0 KECCAK256 DUP2 DUP2 SLOAD DUP2 LT PUSH2 0x24D5 JUMPI PUSH1 0x0 DUP1 REVERT JUMPDEST SWAP1 PUSH1 0x0 MSTORE PUSH1 0x20 PUSH1 0x0 KECCAK256 ADD PUSH1 0x0 SWAP2 POP SWAP2 POP POP SLOAD DUP2 JUMP JUMPDEST PUSH1 0x60 PUSH1 0x6 DUP1 SLOAD DUP1 PUSH1 0x20 MUL PUSH1 0x20 ADD PUSH1 0x40 MLOAD SWAP1 DUP2 ADD PUSH1 0x40 MSTORE DUP1 SWAP3 SWAP2 SWAP1 DUP2 DUP2 MSTORE PUSH1 0x20 ADD DUP3 DUP1 SLOAD DUP1 ISZERO PUSH2 0x2542 JUMPI PUSH1 0x20 MUL DUP3 ADD SWAP2 SWAP1 PUSH1 0x0 MSTORE PUSH1 0x20 PUSH1 0x0 KECCAK256 SWAP1 JUMPDEST DUP2 SLOAD PUSH1 0x1 PUSH1 0x1 PUSH1 0xA0 SHL SUB AND DUP2 MSTORE PUSH1 0x1 SWAP1 SWAP2 ADD SWAP1 PUSH1 0x20 ADD DUP1 DUP4 GT PUSH2 0x2524 JUMPI JUMPDEST POP POP POP POP POP SWAP1 POP SWAP1 JUMP JUMPDEST PUSH1 0x0 SLOAD PUSH1 0x1 PUSH1 0x1 PUSH1 0xA0 SHL SUB AND CALLER EQ PUSH2 0x2576 JUMPI PUSH1 0x40 MLOAD PUSH3 0x461BCD PUSH1 0xE5 SHL DUP2 MSTORE PUSH1 0x4 ADD PUSH2 0x88F SWAP1 PUSH2 0x3493 JUMP JUMPDEST PUSH1 0x2 SLOAD PUSH1 0x2 SUB PUSH2 0x2598 JUMPI PUSH1 0x40 MLOAD PUSH3 0x461BCD PUSH1 0xE5 SHL DUP2 MSTORE PUSH1 0x4 ADD PUSH2 0x88F SWAP1 PUSH2 0x34B6 JUMP JUMPDEST PUSH1 0x2 DUP1 SSTORE PUSH1 0x4 SLOAD DUP1 PUSH2 0x25D6 JUMPI PUSH1 0x40 MLOAD PUSH3 0x461BCD PUSH1 0xE5 SHL DUP2 MSTORE PUSH1 0x20 PUSH1 0x4 DUP3 ADD MSTORE PUSH1 0x7 PUSH1 0x24 DUP3 ADD MSTORE PUSH7 0x4E6F2066656573 PUSH1 0xC8 SHL PUSH1 0x44 DUP3 ADD MSTORE PUSH1 0x64 ADD PUSH2 0x88F JUMP JUMPDEST PUSH1 0x0 PUSH1 0x4 DUP2 DUP2 SSTORE SWAP1 SLOAD PUSH1 0x40 MLOAD PUSH4 0xA9059CBB PUSH1 0xE0 SHL DUP2 MSTORE PUSH1 0x1 PUSH1 0x1 PUSH1 0xA0 SHL SUB SWAP2 DUP3 AND SWAP3 DUP2 ADD SWAP3 SWAP1 SWAP3 MSTORE PUSH1 0x24 DUP3 ADD DUP4 SWAP1 MSTORE PUSH32 0x0 AND SWAP1 PUSH4 0xA9059CBB SWAP1 PUSH1 0x44 ADD PUSH1 0x20 PUSH1 0x40 MLOAD DUP1 DUP4 SUB DUP2 PUSH1 0x0 DUP8 GAS CALL ISZERO DUP1 ISZERO PUSH2 0x2650 JUMPI RETURNDATASIZE PUSH1 0x0 DUP1 RETURNDATACOPY RETURNDATASIZE PUSH1 0x0 REVERT JUMPDEST POP POP POP POP PUSH1 0x40 MLOAD RETURNDATASIZE PUSH1 0x1F NOT PUSH1 0x1F DUP3 ADD AND DUP3 ADD DUP1 PUSH1 0x40 MSTORE POP DUP2 ADD SWAP1 PUSH2 0x2674 SWAP2 SWAP1 PUSH2 0x34D9 JUMP JUMPDEST PUSH2 0x2690 JUMPI PUSH1 0x40 MLOAD PUSH3 0x461BCD PUSH1 0xE5 SHL DUP2 MSTORE PUSH1 0x4 ADD PUSH2 0x88F SWAP1 PUSH2 0x351E JUMP JUMPDEST PUSH1 0x40 MLOAD DUP2 DUP2 MSTORE PUSH32 0xA3F0FDC01545D578089318E8AD641E1A1A1EC38678F2733D4E67A676C2980F3E SWAP1 PUSH1 0x20 ADD PUSH1 0x40 MLOAD DUP1 SWAP2 SUB SWAP1 LOG1 POP PUSH1 0x1 PUSH1 0x2 SSTORE JUMP JUMPDEST PUSH1 0x1 PUSH1 0x1 PUSH1 0xA0 SHL SUB DUP3 AND PUSH1 0x0 SWAP1 DUP2 MSTORE PUSH1 0x5 PUSH1 0x20 MSTORE PUSH1 0x40 SWAP1 KECCAK256 SLOAD PUSH1 0xFF AND PUSH2 0x2703 JUMPI PUSH1 0x40 MLOAD PUSH3 0x461BCD PUSH1 0xE5 SHL DUP2 MSTORE PUSH1 0x4 ADD PUSH2 0x88F SWAP1 PUSH2 0x34F6 JUMP JUMPDEST PUSH3 0x4C4B40 DUP2 LT ISZERO PUSH2 0x2744 JUMPI PUSH1 0x40 MLOAD PUSH3 0x461BCD PUSH1 0xE5 SHL DUP2 MSTORE PUSH1 0x20 PUSH1 0x4 DUP3 ADD MSTORE PUSH1 0xB PUSH1 0x24 DUP3 ADD MSTORE PUSH11 0x4D696E2024352055534443 PUSH1 0xA8 SHL PUSH1 0x44 DUP3 ADD MSTORE PUSH1 0x64 ADD PUSH2 0x88F JUMP JUMPDEST CALLER PUSH1 0x1 PUSH1 0x1 PUSH1 0xA0 SHL SUB DUP4 AND SUB PUSH2 0x2795 JUMPI PUSH1 0x40 MLOAD PUSH3 0x461BCD PUSH1 0xE5 SHL DUP2 MSTORE PUSH1 0x20 PUSH1 0x4 DUP3 ADD MSTORE PUSH1 0x16 PUSH1 0x24 DUP3 ADD MSTORE PUSH22 0x21B0B73737BA103337B63637BB903CB7BAB939B2B633 PUSH1 0x51 SHL PUSH1 0x44 DUP3 ADD MSTORE PUSH1 0x64 ADD PUSH2 0x88F JUMP JUMPDEST CALLER PUSH1 0x0 SWAP1 DUP2 MSTORE PUSH1 0xC PUSH1 0x20 SWAP1 DUP2 MSTORE PUSH1 0x40 DUP1 DUP4 KECCAK256 PUSH1 0x1 PUSH1 0x1 PUSH1 0xA0 SHL SUB DUP7 AND DUP5 MSTORE SWAP1 SWAP2 MSTORE SWAP1 KECCAK256 PUSH1 0x1 ADD SLOAD PUSH1 0xFF AND PUSH2 0x2825 JUMPI CALLER PUSH1 0x0 DUP2 DUP2 MSTORE PUSH1 0xD PUSH1 0x20 SWAP1 DUP2 MSTORE PUSH1 0x40 DUP1 DUP4 KECCAK256 DUP1 SLOAD PUSH1 0x1 DUP2 DUP2 ADD DUP4 SSTORE SWAP2 DUP6 MSTORE DUP4 DUP6 KECCAK256 ADD DUP1 SLOAD PUSH1 0x1 PUSH1 0x1 PUSH1 0xA0 SHL SUB DUP10 AND PUSH1 0x1 PUSH1 0x1 PUSH1 0xA0 SHL SUB NOT SWAP2 DUP3 AND DUP2 OR SWAP1 SWAP3 SSTORE SWAP1 DUP6 MSTORE PUSH1 0xE DUP5 MSTORE SWAP2 DUP5 KECCAK256 DUP1 SLOAD SWAP2 DUP3 ADD DUP2 SSTORE DUP5 MSTORE SWAP2 SWAP1 SWAP3 KECCAK256 ADD DUP1 SLOAD SWAP1 SWAP2 AND SWAP1 SWAP2 OR SWAP1 SSTORE JUMPDEST PUSH1 0x40 DUP1 MLOAD DUP1 DUP3 ADD DUP3 MSTORE DUP3 DUP2 MSTORE PUSH1 0x1 PUSH1 0x20 DUP1 DUP4 ADD DUP3 DUP2 MSTORE CALLER PUSH1 0x0 DUP2 DUP2 MSTORE PUSH1 0xC DUP5 MSTORE DUP7 DUP2 KECCAK256 PUSH1 0x1 PUSH1 0x1 PUSH1 0xA0 SHL SUB DUP11 AND DUP1 DUP4 MSTORE SWAP1 DUP6 MSTORE SWAP1 DUP8 SWAP1 KECCAK256 SWAP6 MLOAD DUP7 SSTORE SWAP2 MLOAD SWAP5 SWAP1 SWAP4 ADD DUP1 SLOAD PUSH1 0xFF NOT AND SWAP5 ISZERO ISZERO SWAP5 SWAP1 SWAP5 OR SWAP1 SWAP4 SSTORE SWAP3 MLOAD DUP5 DUP2 MSTORE SWAP2 SWAP3 SWAP1 SWAP2 PUSH32 0xFEDF1CA5EF295F2DA26D8971EA7A47811D901C42AECA3B7B996120B14907DDF0 SWAP2 ADD PUSH1 0x40 MLOAD DUP1 SWAP2 SUB SWAP1 LOG3 POP POP JUMP JUMPDEST PUSH1 0x0 SLOAD PUSH1 0x1 PUSH1 0x1 PUSH1 0xA0 SHL SUB AND CALLER EQ PUSH2 0x28D8 JUMPI PUSH1 0x40 MLOAD PUSH3 0x461BCD PUSH1 0xE5 SHL DUP2 MSTORE PUSH1 0x4 ADD PUSH2 0x88F SWAP1 PUSH2 0x3493 JUMP JUMPDEST PUSH1 0x1 SLOAD PUSH1 0x1 PUSH1 0xA0 SHL SWAP1 DIV PUSH1 0xFF AND ISZERO PUSH2 0x2902 JUMPI PUSH1 0x40 MLOAD PUSH3 0x461BCD PUSH1 0xE5 SHL DUP2 MSTORE PUSH1 0x4 ADD PUSH2 0x88F SWAP1 PUSH2 0x3547 JUMP JUMPDEST PUSH1 0x2 SLOAD PUSH1 0x2 SUB PUSH2 0x2924 JUMPI PUSH1 0x40 MLOAD PUSH3 0x461BCD PUSH1 0xE5 SHL DUP2 MSTORE PUSH1 0x4 ADD PUSH2 0x88F SWAP1 PUSH2 0x34B6 JUMP JUMPDEST PUSH1 0x2 DUP1 SSTORE PUSH1 0x0 DUP2 DUP2 MSTORE PUSH1 0x8 PUSH1 0x20 MSTORE PUSH1 0x40 SWAP1 KECCAK256 DUP1 SLOAD PUSH1 0x1 PUSH1 0xA8 SHL SWAP1 DIV PUSH1 0xFF AND DUP1 ISZERO PUSH2 0x2957 JUMPI POP DUP1 SLOAD PUSH1 0x1 PUSH1 0xB0 SHL SWAP1 DIV PUSH1 0xFF AND ISZERO JUMPDEST PUSH2 0x2973 JUMPI PUSH1 0x40 MLOAD PUSH3 0x461BCD PUSH1 0xE5 SHL DUP2 MSTORE PUSH1 0x4 ADD PUSH2 0x88F SWAP1 PUSH2 0x3567 JUMP JUMPDEST PUSH1 0x0 DUP3 DUP2 MSTORE PUSH1 0x9 PUSH1 0x20 MSTORE PUSH1 0x40 SWAP1 KECCAK256 SLOAD PUSH2 0x298F SWAP1 PUSH2 0x12C SWAP1 PUSH2 0x35A1 JUMP JUMPDEST TIMESTAMP GT ISZERO PUSH2 0x29D3 JUMPI PUSH1 0x40 MLOAD PUSH3 0x461BCD PUSH1 0xE5 SHL DUP2 MSTORE PUSH1 0x20 PUSH1 0x4 DUP3 ADD MSTORE PUSH1 0x12 PUSH1 0x24 DUP3 ADD MSTORE PUSH18 0x10DBDC1E481DDA5B991BDDC818DB1BDCD959 PUSH1 0x72 SHL PUSH1 0x44 DUP3 ADD MSTORE PUSH1 0x64 ADD PUSH2 0x88F JUMP JUMPDEST PUSH1 0x1 PUSH1 0x1 PUSH1 0xA0 SHL SUB DUP4 AND PUSH1 0x0 SWAP1 DUP2 MSTORE PUSH1 0xA PUSH1 0x20 SWAP1 DUP2 MSTORE PUSH1 0x40 DUP1 DUP4 KECCAK256 DUP6 DUP5 MSTORE SWAP1 SWAP2 MSTORE SWAP1 KECCAK256 SLOAD ISZERO PUSH2 0x2A35 JUMPI PUSH1 0x40 MLOAD PUSH3 0x461BCD PUSH1 0xE5 SHL DUP2 MSTORE PUSH1 0x20 PUSH1 0x4 DUP3 ADD MSTORE PUSH1 0xE PUSH1 0x24 DUP3 ADD MSTORE PUSH14 0x105B1C9958591E4818DBDC1A5959 PUSH1 0x92 SHL PUSH1 0x44 DUP3 ADD MSTORE PUSH1 0x64 ADD PUSH2 0x88F JUMP JUMPDEST PUSH1 0x1 PUSH1 0x1 PUSH1 0xA0 SHL SUB DUP1 DUP5 AND PUSH1 0x0 SWAP1 DUP2 MSTORE PUSH1 0xC PUSH1 0x20 SWAP1 DUP2 MSTORE PUSH1 0x40 DUP1 DUP4 KECCAK256 DUP6 SLOAD SWAP1 SWAP5 AND DUP4 MSTORE SWAP3 SWAP1 MSTORE KECCAK256 PUSH1 0x1 DUP2 ADD SLOAD PUSH1 0xFF AND PUSH2 0x2AB0 JUMPI PUSH1 0x40 MLOAD PUSH3 0x461BCD PUSH1 0xE5 SHL DUP2 MSTORE PUSH1 0x20 PUSH1 0x4 DUP3 ADD MSTORE PUSH1 0x1B PUSH1 0x24 DUP3 ADD MSTORE PUSH32 0x4E6F7420666F6C6C6F77696E6720746869732070726F76696465720000000000 PUSH1 0x44 DUP3 ADD MSTORE PUSH1 0x64 ADD PUSH2 0x88F JUMP JUMPDEST DUP1 SLOAD PUSH3 0x4C4B40 GT ISZERO PUSH2 0x2AF5 JUMPI PUSH1 0x40 MLOAD PUSH3 0x461BCD PUSH1 0xE5 SHL DUP2 MSTORE PUSH1 0x20 PUSH1 0x4 DUP3 ADD MSTORE PUSH1 0xE PUSH1 0x24 DUP3 ADD MSTORE PUSH14 0x416D6F756E7420746F6F206C6F77 PUSH1 0x90 SHL PUSH1 0x44 DUP3 ADD MSTORE PUSH1 0x64 ADD PUSH2 0x88F JUMP JUMPDEST DUP1 SLOAD PUSH1 0x40 MLOAD PUSH4 0x70A08231 PUSH1 0xE0 SHL DUP2 MSTORE PUSH1 0x1 PUSH1 0x1 PUSH1 0xA0 SHL SUB DUP7 DUP2 AND PUSH1 0x4 DUP4 ADD MSTORE PUSH1 0x0 SWAP2 PUSH32 0x0 SWAP1 SWAP2 AND SWAP1 PUSH4 0x70A08231 SWAP1 PUSH1 0x24 ADD PUSH1 0x20 PUSH1 0x40 MLOAD DUP1 DUP4 SUB DUP2 PUSH1 0x0 DUP8 GAS CALL ISZERO DUP1 ISZERO PUSH2 0x2B64 JUMPI RETURNDATASIZE PUSH1 0x0 DUP1 RETURNDATACOPY RETURNDATASIZE PUSH1 0x0 REVERT JUMPDEST POP POP POP POP PUSH1 0x40 MLOAD RETURNDATASIZE PUSH1 0x1F NOT PUSH1 0x1F DUP3 ADD AND DUP3 ADD DUP1 PUSH1 0x40 MSTORE POP DUP2 ADD SWAP1 PUSH2 0x2B88 SWAP2 SWAP1 PUSH2 0x35DD JUMP JUMPDEST SWAP1 POP DUP2 DUP2 LT ISZERO PUSH2 0x2B9B JUMPI POP POP POP POP PUSH2 0x2EE7 JUMP JUMPDEST PUSH1 0x40 MLOAD PUSH4 0x6EB1769F PUSH1 0xE1 SHL DUP2 MSTORE PUSH1 0x1 PUSH1 0x1 PUSH1 0xA0 SHL SUB DUP8 DUP2 AND PUSH1 0x4 DUP4 ADD MSTORE ADDRESS PUSH1 0x24 DUP4 ADD MSTORE PUSH1 0x0 SWAP2 PUSH32 0x0 SWAP1 SWAP2 AND SWAP1 PUSH4 0xDD62ED3E SWAP1 PUSH1 0x44 ADD PUSH1 0x20 PUSH1 0x40 MLOAD DUP1 DUP4 SUB DUP2 DUP7 GAS STATICCALL ISZERO DUP1 ISZERO PUSH2 0x2C0C JUMPI RETURNDATASIZE PUSH1 0x0 DUP1 RETURNDATACOPY RETURNDATASIZE PUSH1 0x0 REVERT JUMPDEST POP POP POP POP PUSH1 0x40 MLOAD RETURNDATASIZE PUSH1 0x1F NOT PUSH1 0x1F DUP3 ADD AND DUP3 ADD DUP1 PUSH1 0x40 MSTORE POP DUP2 ADD SWAP1 PUSH2 0x2C30 SWAP2 SWAP1 PUSH2 0x35DD JUMP JUMPDEST SWAP1 POP DUP3 DUP2 LT ISZERO PUSH2 0x2C44 JUMPI POP POP POP POP POP PUSH2 0x2EE7 JUMP JUMPDEST PUSH1 0x3 DUP1 SLOAD PUSH4 0xFFFFFFFF AND SWAP1 DUP2 SWAP1 PUSH1 0x0 PUSH2 0x2C5C DUP4 PUSH2 0x35BA JUMP JUMPDEST SWAP2 SWAP1 PUSH2 0x100 EXP DUP2 SLOAD DUP2 PUSH4 0xFFFFFFFF MUL NOT AND SWAP1 DUP4 PUSH4 0xFFFFFFFF AND MUL OR SWAP1 SSTORE POP POP PUSH1 0x40 MLOAD DUP1 PUSH1 0x60 ADD PUSH1 0x40 MSTORE DUP1 DUP6 DUP2 MSTORE PUSH1 0x20 ADD DUP3 PUSH4 0xFFFFFFFF AND DUP2 MSTORE PUSH1 0x20 ADD PUSH1 0x0 ISZERO ISZERO DUP2 MSTORE POP PUSH1 0xA PUSH1 0x0 DUP11 PUSH1 0x1 PUSH1 0x1 PUSH1 0xA0 SHL SUB AND PUSH1 0x1 PUSH1 0x1 PUSH1 0xA0 SHL SUB AND DUP2 MSTORE PUSH1 0x20 ADD SWAP1 DUP2 MSTORE PUSH1 0x20 ADD PUSH1 0x0 KECCAK256 PUSH1 0x0 DUP10 DUP2 MSTORE PUSH1 0x20 ADD SWAP1 DUP2 MSTORE PUSH1 0x20 ADD PUSH1 0x0 KECCAK256 PUSH1 0x0 DUP3 ADD MLOAD DUP2 PUSH1 0x0 ADD SSTORE PUSH1 0x20 DUP3 ADD MLOAD DUP2 PUSH1 0x1 ADD PUSH1 0x0 PUSH2 0x100 EXP DUP2 SLOAD DUP2 PUSH4 0xFFFFFFFF MUL NOT AND SWAP1 DUP4 PUSH4 0xFFFFFFFF AND MUL OR SWAP1 SSTORE POP PUSH1 0x40 DUP3 ADD MLOAD DUP2 PUSH1 0x1 ADD PUSH1 0x4 PUSH2 0x100 EXP DUP2 SLOAD DUP2 PUSH1 0xFF MUL NOT AND SWAP1 DUP4 ISZERO ISZERO MUL OR SWAP1 SSTORE POP SWAP1 POP POP PUSH1 0xB PUSH1 0x0 DUP10 PUSH1 0x1 PUSH1 0x1 PUSH1 0xA0 SHL SUB AND PUSH1 0x1 PUSH1 0x1 PUSH1 0xA0 SHL SUB AND DUP2 MSTORE PUSH1 0x20 ADD SWAP1 DUP2 MSTORE PUSH1 0x20 ADD PUSH1 0x0 KECCAK256 DUP8 SWAP1 DUP1 PUSH1 0x1 DUP2 SLOAD ADD DUP1 DUP3 SSTORE DUP1 SWAP2 POP POP PUSH1 0x1 SWAP1 SUB SWAP1 PUSH1 0x0 MSTORE PUSH1 0x20 PUSH1 0x0 KECCAK256 ADD PUSH1 0x0 SWAP1 SWAP2 SWAP1 SWAP2 SWAP1 SWAP2 POP SSTORE PUSH1 0x0 PUSH1 0x9 PUSH1 0x0 DUP10 DUP2 MSTORE PUSH1 0x20 ADD SWAP1 DUP2 MSTORE PUSH1 0x20 ADD PUSH1 0x0 KECCAK256 SWAP1 POP DUP5 DUP2 PUSH1 0x2 ADD PUSH1 0x0 DUP3 DUP3 SLOAD PUSH2 0x2DA0 SWAP2 SWAP1 PUSH2 0x35A1 JUMP JUMPDEST SWAP1 SWAP2 SSTORE POP POP PUSH1 0x3 DUP2 ADD DUP1 SLOAD PUSH4 0xFFFFFFFF AND SWAP1 PUSH1 0x0 PUSH2 0x2DBD DUP4 PUSH2 0x35BA JUMP JUMPDEST SWAP2 SWAP1 PUSH2 0x100 EXP DUP2 SLOAD DUP2 PUSH4 0xFFFFFFFF MUL NOT AND SWAP1 DUP4 PUSH4 0xFFFFFFFF AND MUL OR SWAP1 SSTORE POP POP DUP8 DUP10 PUSH1 0x1 PUSH1 0x1 PUSH1 0xA0 SHL SUB AND PUSH32 0x781B72D927FC2FCFD2BE33C7FBFA6C56AAF0A10406AEE7BB7538F0E522BF0BC DUP8 PUSH1 0x40 MLOAD PUSH2 0x2E18 SWAP2 DUP2 MSTORE PUSH1 0x20 ADD SWAP1 JUMP JUMPDEST PUSH1 0x40 MLOAD DUP1 SWAP2 SUB SWAP1 LOG3 PUSH1 0x40 MLOAD PUSH4 0x23B872DD PUSH1 0xE0 SHL DUP2 MSTORE PUSH1 0x1 PUSH1 0x1 PUSH1 0xA0 SHL SUB DUP11 DUP2 AND PUSH1 0x4 DUP4 ADD MSTORE ADDRESS PUSH1 0x24 DUP4 ADD MSTORE PUSH1 0x44 DUP3 ADD DUP8 SWAP1 MSTORE PUSH32 0x0 AND SWAP1 PUSH4 0x23B872DD SWAP1 PUSH1 0x64 ADD PUSH1 0x20 PUSH1 0x40 MLOAD DUP1 DUP4 SUB DUP2 PUSH1 0x0 DUP8 GAS CALL ISZERO DUP1 ISZERO PUSH2 0x2E95 JUMPI RETURNDATASIZE PUSH1 0x0 DUP1 RETURNDATACOPY RETURNDATASIZE PUSH1 0x0 REVERT JUMPDEST POP POP POP POP PUSH1 0x40 MLOAD RETURNDATASIZE PUSH1 0x1F NOT PUSH1 0x1F DUP3 ADD AND DUP3 ADD DUP1 PUSH1 0x40 MSTORE POP DUP2 ADD SWAP1 PUSH2 0x2EB9 SWAP2 SWAP1 PUSH2 0x34D9 JUMP JUMPDEST PUSH2 0x2ED5 JUMPI PUSH1 0x40 MLOAD PUSH3 0x461BCD PUSH1 0xE5 SHL DUP2 MSTORE PUSH1 0x4 ADD PUSH2 0x88F SWAP1 PUSH2 0x351E JUMP JUMPDEST PUSH2 0x2EDF DUP8 DUP7 PUSH2 0x306E JUMP JUMPDEST POP POP POP POP POP POP POP JUMPDEST POP POP PUSH1 0x1 PUSH1 0x2 SSTORE JUMP JUMPDEST CALLER PUSH1 0x0 SWAP1 DUP2 MSTORE PUSH1 0x5 PUSH1 0x20 MSTORE PUSH1 0x40 SWAP1 KECCAK256 SLOAD PUSH1 0xFF AND ISZERO PUSH2 0x2F45 JUMPI PUSH1 0x40 MLOAD PUSH3 0x461BCD PUSH1 0xE5 SHL DUP2 MSTORE PUSH1 0x20 PUSH1 0x4 DUP3 ADD MSTORE PUSH1 0x12 PUSH1 0x24 DUP3 ADD MSTORE PUSH18 0x105B1C9958591E481C9959DA5CDD195C9959 PUSH1 0x72 SHL PUSH1 0x44 DUP3 ADD MSTORE PUSH1 0x64 ADD PUSH2 0x88F JUMP JUMPDEST PUSH1 0x40 DUP1 MLOAD PUSH1 0x80 DUP2 ADD DUP3 MSTORE PUSH1 0x1 DUP1 DUP3 MSTORE PUSH1 0x0 PUSH1 0x20 DUP1 DUP5 ADD DUP3 DUP2 MSTORE DUP5 DUP7 ADD DUP4 DUP2 MSTORE PUSH1 0x60 DUP7 ADD DUP5 DUP2 MSTORE CALLER DUP1 DUP7 MSTORE PUSH1 0x5 SWAP1 SWAP5 MSTORE DUP8 DUP6 KECCAK256 SWAP7 MLOAD DUP8 SLOAD PUSH1 0xFF NOT AND SWAP1 ISZERO ISZERO OR DUP8 SSTORE SWAP2 MLOAD DUP7 DUP7 ADD SSTORE MLOAD PUSH1 0x2 DUP7 ADD SSTORE MLOAD PUSH1 0x3 SWAP1 SWAP5 ADD SWAP4 SWAP1 SWAP4 SSTORE PUSH1 0x6 DUP1 SLOAD SWAP3 DUP4 ADD DUP2 SSTORE DUP2 MSTORE PUSH32 0xF652222313E28459528D920B65115C16C04F3EFC82AAEDC97BE59F3F377C0D3F SWAP1 SWAP2 ADD DUP1 SLOAD PUSH1 0x1 PUSH1 0x1 PUSH1 0xA0 SHL SUB NOT AND DUP4 OR SWAP1 SSTORE SWAP2 MLOAD SWAP1 SWAP2 PUSH32 0x70ABCE74777B3838AE60A33A6B9A87D9D25532668FE4FEA548554C55868579C0 SWAP2 LOG2 JUMP JUMPDEST PUSH1 0x1 PUSH1 0x1 PUSH1 0xA0 SHL SUB DUP2 AND PUSH1 0x0 SWAP1 DUP2 MSTORE PUSH1 0xB PUSH1 0x20 SWAP1 DUP2 MSTORE PUSH1 0x40 SWAP2 DUP3 SWAP1 KECCAK256 DUP1 SLOAD DUP4 MLOAD DUP2 DUP5 MUL DUP2 ADD DUP5 ADD SWAP1 SWAP5 MSTORE DUP1 DUP5 MSTORE PUSH1 0x60 SWAP4 SWAP3 DUP4 ADD DUP3 DUP3 DUP1 ISZERO PUSH2 0x1268 JUMPI PUSH1 0x20 MUL DUP3 ADD SWAP2 SWAP1 PUSH1 0x0 MSTORE PUSH1 0x20 PUSH1 0x0 KECCAK256 SWAP1 JUMPDEST DUP2 SLOAD DUP2 MSTORE PUSH1 0x20 ADD SWAP1 PUSH1 0x1 ADD SWAP1 DUP1 DUP4 GT PUSH2 0x304F JUMPI POP POP POP POP POP SWAP1 POP SWAP2 SWAP1 POP JUMP JUMPDEST PUSH1 0x40 DUP1 MLOAD PUSH2 0x1E0 DUP2 ADD DUP3 MSTORE ADDRESS DUP2 MSTORE PUSH1 0x0 PUSH1 0x20 DUP3 ADD DUP2 SWAP1 MSTORE PUSH1 0x5A DUP3 DUP5 ADD MSTORE PUSH1 0x1 DUP6 ADD SLOAD PUSH3 0xFFFFFF PUSH1 0x1 PUSH1 0x80 SHL DUP3 DIV AND PUSH1 0x60 DUP5 ADD MSTORE DUP6 SLOAD PUSH1 0xFF PUSH1 0x1 PUSH1 0xA0 SHL DUP3 DIV AND ISZERO ISZERO PUSH1 0x80 DUP6 ADD MSTORE PUSH1 0xA0 DUP5 ADD DUP4 SWAP1 MSTORE PUSH1 0x3 PUSH1 0xC0 DUP6 ADD MSTORE PUSH1 0xE0 DUP5 ADD DUP4 SWAP1 MSTORE PUSH1 0x1 PUSH1 0x1 PUSH1 0x78 SHL SUB DUP7 AND PUSH2 0x100 DUP6 ADD MSTORE PUSH1 0x1 PUSH1 0xB8 SHL SWAP1 DIV PUSH1 0x1 PUSH1 0x1 PUSH1 0x40 SHL SUB SWAP1 DUP2 AND PUSH2 0x120 DUP6 ADD MSTORE DUP1 DUP3 AND PUSH2 0x140 DUP6 ADD MSTORE PUSH1 0x1 PUSH1 0x40 SHL SWAP1 SWAP2 DIV AND PUSH2 0x160 DUP4 ADD MSTORE PUSH2 0x180 DUP3 ADD DUP2 SWAP1 MSTORE PUSH2 0x1A0 DUP3 ADD DUP2 SWAP1 MSTORE PUSH2 0x1C0 DUP3 ADD DUP2 SWAP1 MSTORE SWAP2 MLOAD PUSH4 0xB7F989F PUSH1 0xE3 SHL DUP2 MSTORE SWAP1 SWAP2 PUSH1 0x1 PUSH1 0x1 PUSH1 0xA0 SHL SUB PUSH32 0x0 AND SWAP2 PUSH4 0x5BFCC4F8 SWAP2 PUSH2 0x3172 SWAP2 DUP6 SWAP2 PUSH2 0x3E8 SWAP2 PUSH1 0x4 ADD PUSH2 0x36DC JUMP JUMPDEST PUSH1 0x0 PUSH1 0x40 MLOAD DUP1 DUP4 SUB DUP2 PUSH1 0x0 DUP8 DUP1 EXTCODESIZE ISZERO DUP1 ISZERO PUSH2 0x318C JUMPI PUSH1 0x0 DUP1 REVERT JUMPDEST POP GAS CALL ISZERO DUP1 ISZERO PUSH2 0x31A0 JUMPI RETURNDATASIZE PUSH1 0x0 DUP1 RETURNDATACOPY RETURNDATASIZE PUSH1 0x0 REVERT JUMPDEST POP POP POP POP POP POP POP JUMP JUMPDEST PUSH1 0x0 DUP1 JUMPDEST PUSH1 0x6 SLOAD DUP2 LT ISZERO PUSH2 0x3214 JUMPI PUSH1 0x5 PUSH1 0x0 PUSH1 0x6 DUP4 DUP2 SLOAD DUP2 LT PUSH2 0x31CE JUMPI PUSH2 0x31CE PUSH2 0x3674 JUMP JUMPDEST PUSH1 0x0 SWAP2 DUP3 MSTORE PUSH1 0x20 DUP1 DUP4 KECCAK256 SWAP1 SWAP2 ADD SLOAD PUSH1 0x1 PUSH1 0x1 PUSH1 0xA0 SHL SUB AND DUP4 MSTORE DUP3 ADD SWAP3 SWAP1 SWAP3 MSTORE PUSH1 0x40 ADD SWAP1 KECCAK256 PUSH1 0x3 ADD SLOAD PUSH2 0x3200 SWAP1 DUP4 PUSH2 0x35A1 JUMP JUMPDEST SWAP2 POP DUP1 PUSH2 0x320C DUP2 PUSH2 0x368A JUMP JUMPDEST SWAP2 POP POP PUSH2 0x31AD JUMP JUMPDEST POP SWAP1 JUMP JUMPDEST DUP1 CALLDATALOAD PUSH1 0x1 PUSH1 0x1 PUSH1 0xA0 SHL SUB DUP2 AND DUP2 EQ PUSH2 0x322F JUMPI PUSH1 0x0 DUP1 REVERT JUMPDEST SWAP2 SWAP1 POP JUMP JUMPDEST PUSH1 0x0 PUSH1 0x20 DUP3 DUP5 SUB SLT ISZERO PUSH2 0x3246 JUMPI PUSH1 0x0 DUP1 REVERT JUMPDEST PUSH2 0x324F DUP3 PUSH2 0x3218 JUMP JUMPDEST SWAP4 SWAP3 POP POP POP JUMP JUMPDEST PUSH1 0x0 PUSH1 0x20 DUP3 DUP5 SUB SLT ISZERO PUSH2 0x3268 JUMPI PUSH1 0x0 DUP1 REVERT JUMPDEST POP CALLDATALOAD SWAP2 SWAP1 POP JUMP JUMPDEST DUP1 ISZERO ISZERO DUP2 EQ PUSH2 0x327D JUMPI PUSH1 0x0 DUP1 REVERT JUMPDEST POP JUMP JUMPDEST PUSH1 0x0 PUSH1 0x20 DUP3 DUP5 SUB SLT ISZERO PUSH2 0x3292 JUMPI PUSH1 0x0 DUP1 REVERT JUMPDEST DUP2 CALLDATALOAD PUSH2 0x324F DUP2 PUSH2 0x326F JUMP JUMPDEST PUSH1 0x0 DUP1 PUSH1 0x40 DUP4 DUP6 SUB SLT ISZERO PUSH2 0x32B0 JUMPI PUSH1 0x0 DUP1 REVERT JUMPDEST PUSH2 0x32B9 DUP4 PUSH2 0x3218 JUMP JUMPDEST SWAP5 PUSH1 0x20 SWAP4 SWAP1 SWAP4 ADD CALLDATALOAD SWAP4 POP POP POP JUMP JUMPDEST DUP1 CALLDATALOAD PUSH1 0x1 PUSH1 0x1 PUSH1 0x40 SHL SUB DUP2 AND DUP2 EQ PUSH2 0x322F JUMPI PUSH1 0x0 DUP1 REVERT JUMPDEST PUSH1 0x0 DUP1 PUSH1 0x40 DUP4 DUP6 SUB SLT ISZERO PUSH2 0x32F1 JUMPI PUSH1 0x0 DUP1 REVERT JUMPDEST DUP3 CALLDATALOAD PUSH4 0xFFFFFFFF DUP2 AND DUP2 EQ PUSH2 0x3305 JUMPI PUSH1 0x0 DUP1 REVERT JUMPDEST SWAP2 POP PUSH2 0x3313 PUSH1 0x20 DUP5 ADD PUSH2 0x32C7 JUMP JUMPDEST SWAP1 POP SWAP3 POP SWAP3 SWAP1 POP JUMP JUMPDEST PUSH1 0x0 DUP1 PUSH1 0x40 DUP4 DUP6 SUB SLT ISZERO PUSH2 0x332F JUMPI PUSH1 0x0 DUP1 REVERT JUMPDEST POP POP DUP1 CALLDATALOAD SWAP3 PUSH1 0x20 SWAP1 SWAP2 ADD CALLDATALOAD SWAP2 POP JUMP JUMPDEST PUSH1 0x20 DUP1 DUP3 MSTORE DUP3 MLOAD DUP3 DUP3 ADD DUP2 SWAP1 MSTORE PUSH1 0x0 SWAP2 SWAP1 DUP5 DUP3 ADD SWAP1 PUSH1 0x40 DUP6 ADD SWAP1 DUP5 JUMPDEST DUP2 DUP2 LT ISZERO PUSH2 0x337F JUMPI DUP4 MLOAD PUSH1 0x1 PUSH1 0x1 PUSH1 0xA0 SHL SUB AND DUP4 MSTORE SWAP3 DUP5 ADD SWAP3 SWAP2 DUP5 ADD SWAP2 PUSH1 0x1 ADD PUSH2 0x335A JUMP JUMPDEST POP SWAP1 SWAP7 SWAP6 POP POP POP POP POP POP JUMP JUMPDEST PUSH1 0x0 DUP1 PUSH1 0x40 DUP4 DUP6 SUB SLT ISZERO PUSH2 0x339E JUMPI PUSH1 0x0 DUP1 REVERT JUMPDEST PUSH2 0x33A7 DUP4 PUSH2 0x3218 JUMP JUMPDEST SWAP2 POP PUSH2 0x3313 PUSH1 0x20 DUP5 ADD PUSH2 0x3218 JUMP JUMPDEST PUSH1 0x0 DUP1 PUSH1 0x0 PUSH1 0x60 DUP5 DUP7 SUB SLT ISZERO PUSH2 0x33CA JUMPI PUSH1 0x0 DUP1 REVERT JUMPDEST PUSH2 0x33D3 DUP5 PUSH2 0x3218 JUMP JUMPDEST SWAP6 PUSH1 0x20 DUP6 ADD CALLDATALOAD SWAP6 POP PUSH1 0x40 SWAP1 SWAP5 ADD CALLDATALOAD SWAP4 SWAP3 POP POP POP JUMP JUMPDEST PUSH1 0x20 DUP1 DUP3 MSTORE DUP3 MLOAD DUP3 DUP3 ADD DUP2 SWAP1 MSTORE PUSH1 0x0 SWAP2 SWAP1 DUP5 DUP3 ADD SWAP1 PUSH1 0x40 DUP6 ADD SWAP1 DUP5 JUMPDEST DUP2 DUP2 LT ISZERO PUSH2 0x337F JUMPI DUP4 MLOAD DUP4 MSTORE SWAP3 DUP5 ADD SWAP3 SWAP2 DUP5 ADD SWAP2 PUSH1 0x1 ADD PUSH2 0x3404 JUMP JUMPDEST PUSH1 0x0 DUP1 PUSH1 0x0 DUP1 PUSH1 0x0 PUSH1 0xA0 DUP7 DUP9 SUB SLT ISZERO PUSH2 0x3438 JUMPI PUSH1 0x0 DUP1 REVERT JUMPDEST DUP6 CALLDATALOAD PUSH2 0x3443 DUP2 PUSH2 0x326F JUMP JUMPDEST SWAP5 POP PUSH2 0x3451 PUSH1 0x20 DUP8 ADD PUSH2 0x32C7 JUMP JUMPDEST SWAP4 POP PUSH2 0x345F PUSH1 0x40 DUP8 ADD PUSH2 0x32C7 JUMP JUMPDEST SWAP3 POP PUSH2 0x346D PUSH1 0x60 DUP8 ADD PUSH2 0x32C7 JUMP JUMPDEST SWAP2 POP PUSH1 0x80 DUP7 ADD CALLDATALOAD PUSH3 0xFFFFFF DUP2 AND DUP2 EQ PUSH2 0x3485 JUMPI PUSH1 0x0 DUP1 REVERT JUMPDEST DUP1 SWAP2 POP POP SWAP3 SWAP6 POP SWAP3 SWAP6 SWAP1 SWAP4 POP JUMP JUMPDEST PUSH1 0x20 DUP1 DUP3 MSTORE PUSH1 0x9 SWAP1 DUP3 ADD MSTORE PUSH9 0x2737BA1030B236B4B7 PUSH1 0xB9 SHL PUSH1 0x40 DUP3 ADD MSTORE PUSH1 0x60 ADD SWAP1 JUMP JUMPDEST PUSH1 0x20 DUP1 DUP3 MSTORE PUSH1 0x9 SWAP1 DUP3 ADD MSTORE PUSH9 0x1499595B9D1C985B9D PUSH1 0xBA SHL PUSH1 0x40 DUP3 ADD MSTORE PUSH1 0x60 ADD SWAP1 JUMP JUMPDEST PUSH1 0x0 PUSH1 0x20 DUP3 DUP5 SUB SLT ISZERO PUSH2 0x34EB JUMPI PUSH1 0x0 DUP1 REVERT JUMPDEST DUP2 MLOAD PUSH2 0x324F DUP2 PUSH2 0x326F JUMP JUMPDEST PUSH1 0x20 DUP1 DUP3 MSTORE PUSH1 0xE SWAP1 DUP3 ADD MSTORE PUSH14 0x2737BA103090383937BB34B232B9 PUSH1 0x91 SHL PUSH1 0x40 DUP3 ADD MSTORE PUSH1 0x60 ADD SWAP1 JUMP JUMPDEST PUSH1 0x20 DUP1 DUP3 MSTORE PUSH1 0xF SWAP1 DUP3 ADD MSTORE PUSH15 0x151C985B9CD9995C8819985A5B1959 PUSH1 0x8A SHL PUSH1 0x40 DUP3 ADD MSTORE PUSH1 0x60 ADD SWAP1 JUMP JUMPDEST PUSH1 0x20 DUP1 DUP3 MSTORE PUSH1 0x6 SWAP1 DUP3 ADD MSTORE PUSH6 0x14185D5CD959 PUSH1 0xD2 SHL PUSH1 0x40 DUP3 ADD MSTORE PUSH1 0x60 ADD SWAP1 JUMP JUMPDEST PUSH1 0x20 DUP1 DUP3 MSTORE PUSH1 0xA SWAP1 DUP3 ADD MSTORE PUSH10 0x4E6F7420616374697665 PUSH1 0xB0 SHL PUSH1 0x40 DUP3 ADD MSTORE PUSH1 0x60 ADD SWAP1 JUMP JUMPDEST PUSH4 0x4E487B71 PUSH1 0xE0 SHL PUSH1 0x0 MSTORE PUSH1 0x11 PUSH1 0x4 MSTORE PUSH1 0x24 PUSH1 0x0 REVERT JUMPDEST DUP1 DUP3 ADD DUP1 DUP3 GT ISZERO PUSH2 0x35B4 JUMPI PUSH2 0x35B4 PUSH2 0x358B JUMP JUMPDEST SWAP3 SWAP2 POP POP JUMP JUMPDEST PUSH1 0x0 PUSH4 0xFFFFFFFF DUP1 DUP4 AND DUP2 DUP2 SUB PUSH2 0x35D3 JUMPI PUSH2 0x35D3 PUSH2 0x358B JUMP JUMPDEST PUSH1 0x1 ADD SWAP4 SWAP3 POP POP POP JUMP JUMPDEST PUSH1 0x0 PUSH1 0x20 DUP3 DUP5 SUB SLT ISZERO PUSH2 0x35EF JUMPI PUSH1 0x0 DUP1 REVERT JUMPDEST POP MLOAD SWAP2 SWAP1 POP JUMP JUMPDEST DUP1 DUP3 MUL DUP2 ISZERO DUP3 DUP3 DIV DUP5 EQ OR PUSH2 0x35B4 JUMPI PUSH2 0x35B4 PUSH2 0x358B JUMP JUMPDEST PUSH1 0x0 DUP3 PUSH2 0x362A JUMPI PUSH4 0x4E487B71 PUSH1 0xE0 SHL PUSH1 0x0 MSTORE PUSH1 0x12 PUSH1 0x4 MSTORE PUSH1 0x24 PUSH1 0x0 REVERT JUMPDEST POP DIV SWAP1 JUMP JUMPDEST DUP2 DUP2 SUB DUP2 DUP2 GT ISZERO PUSH2 0x35B4 JUMPI PUSH2 0x35B4 PUSH2 0x358B JUMP JUMPDEST PUSH1 0x0 PUSH1 0x1 PUSH1 0xFF SHL DUP3 ADD PUSH2 0x3657 JUMPI PUSH2 0x3657 PUSH2 0x358B JUMP JUMPDEST POP PUSH1 0x0 SUB SWAP1 JUMP JUMPDEST PUSH4 0x4E487B71 PUSH1 0xE0 SHL PUSH1 0x0 MSTORE PUSH1 0x41 PUSH1 0x4 MSTORE PUSH1 0x24 PUSH1 0x0 REVERT JUMPDEST PUSH4 0x4E487B71 PUSH1 0xE0 SHL PUSH1 0x0 MSTORE PUSH1 0x32 PUSH1 0x4 MSTORE PUSH1 0x24 PUSH1 0x0 REVERT JUMPDEST PUSH1 0x0 PUSH1 0x1 DUP3 ADD PUSH2 0x369C JUMPI PUSH2 0x369C PUSH2 0x358B JUMP JUMPDEST POP PUSH1 0x1 ADD SWAP1 JUMP JUMPDEST PUSH1 0x0 DUP2 PUSH2 0x36B2 JUMPI PUSH2 0x36B2 PUSH2 0x358B JUMP JUMPDEST POP PUSH1 0x0 NOT ADD SWAP1 JUMP JUMPDEST PUSH1 0x3 DUP2 LT PUSH2 0x36D8 JUMPI PUSH4 0x4E487B71 PUSH1 0xE0 SHL PUSH1 0x0 MSTORE PUSH1 0x21 PUSH1 0x4 MSTORE PUSH1 0x24 PUSH1 0x0 REVERT JUMPDEST SWAP1 MSTORE JUMP JUMPDEST DUP4 MLOAD PUSH1 0x1 PUSH1 0x1 PUSH1 0xA0 SHL SUB AND DUP2 MSTORE PUSH2 0x220 DUP2 ADD PUSH1 0x20 DUP6 ADD MLOAD PUSH2 0x3705 PUSH1 0x20 DUP5 ADD DUP3 PUSH4 0xFFFFFFFF AND SWAP1 MSTORE JUMP JUMPDEST POP PUSH1 0x40 DUP6 ADD MLOAD PUSH2 0x371B PUSH1 0x40 DUP5 ADD DUP3 PUSH2 0xFFFF AND SWAP1 MSTORE JUMP JUMPDEST POP PUSH1 0x60 DUP6 ADD MLOAD PUSH2 0x3732 PUSH1 0x60 DUP5 ADD DUP3 PUSH3 0xFFFFFF AND SWAP1 MSTORE JUMP JUMPDEST POP PUSH1 0x80 DUP6 ADD MLOAD PUSH2 0x3746 PUSH1 0x80 DUP5 ADD DUP3 ISZERO ISZERO SWAP1 MSTORE JUMP JUMPDEST POP PUSH1 0xA0 DUP6 ADD MLOAD PUSH2 0x375A PUSH1 0xA0 DUP5 ADD DUP3 ISZERO ISZERO SWAP1 MSTORE JUMP JUMPDEST POP PUSH1 0xC0 DUP6 ADD MLOAD PUSH2 0x376F PUSH1 0xC0 DUP5 ADD DUP3 PUSH1 0xFF AND SWAP1 MSTORE JUMP JUMPDEST POP PUSH1 0xE0 DUP6 ADD MLOAD PUSH2 0x3782 PUSH1 0xE0 DUP5 ADD DUP3 PUSH2 0x36BA JUMP JUMPDEST POP PUSH2 0x100 DUP6 DUP2 ADD MLOAD PUSH1 0x1 PUSH1 0x1 PUSH1 0x78 SHL SUB AND SWAP1 DUP4 ADD MSTORE PUSH2 0x120 DUP1 DUP7 ADD MLOAD PUSH1 0x1 PUSH1 0x1 PUSH1 0x40 SHL SUB SWAP1 DUP2 AND SWAP2 DUP5 ADD SWAP2 SWAP1 SWAP2 MSTORE PUSH2 0x140 DUP1 DUP8 ADD MLOAD DUP3 AND SWAP1 DUP5 ADD MSTORE PUSH2 0x160 DUP1 DUP8 ADD MLOAD SWAP1 SWAP2 AND SWAP1 DUP4 ADD MSTORE PUSH2 0x180 DUP1 DUP7 ADD MLOAD ISZERO ISZERO SWAP1 DUP4 ADD MSTORE PUSH2 0x1A0 DUP1 DUP7 ADD MLOAD PUSH1 0x1 PUSH1 0x1 PUSH1 0xA0 SHL SUB SWAP1 DUP2 AND SWAP2 DUP5 ADD SWAP2 SWAP1 SWAP2 MSTORE PUSH2 0x1C0 SWAP6 DUP7 ADD MLOAD PUSH3 0xFFFFFF AND SWAP6 DUP4 ADD SWAP6 SWAP1 SWAP6 MSTORE PUSH2 0xFFFF SWAP4 SWAP1 SWAP4 AND PUSH2 0x1E0 DUP3 ADD MSTORE SWAP3 AND PUSH2 0x200 SWAP1 SWAP3 ADD SWAP2 SWAP1 SWAP2 MSTORE SWAP1 JUMP INVALID LOG2 PUSH5 0x6970667358 0x22 SLT KECCAK256 PC 0x1E SWAP5 0xB4 0xDB PUSH9 0x1BAFF07257E9503AFD 0x2B EQ SWAP9 0xD4 SHL 0xC4 0xB8 0x4D 0xD9 0xB4 PUSH14 0xCC697291976E64736F6C63430008 SGT STOP CALLER "},"methodIdentifiers":{"BASIS_POINTS()":"e1f1c4a7","COPY_WINDOW()":"42c9c421","EMERGENCY_DELAY()":"82944e2d","LEVERAGE_PRECISION()":"8da793b2","MAX_RESULT_PCT()":"c8541cf1","MIN_COLLATERAL()":"fa779648","PLATFORM_FEE()":"34fbc9a1","PRICE_PRECISION()":"95082d25","PROVIDER_FEE()":"f623bb8b","TOTAL_FEE()":"63db7eae","acceptAdmin()":"0e18b681","admin()":"f851a440","adminDeposit(uint256)":"08687794","cancelSignal(uint256)":"840f51f5","claimProceeds(uint256)":"783e9f71","claimProviderFees()":"386ef40b","closeSignal(uint256,int256)":"a1dd5752","closeTradeMarket(uint32,uint64)":"36ce736b","copySignal(uint256,uint256)":"4376894a","diamond()":"f0b7db4e","emergencyWithdraw(uint256)":"5312ea8e","executeCopyFor(address,uint256)":"e6b8d04f","followProvider(address,uint256)":"e4969613","followerProviders(address,uint256)":"96b25410","follows(address,address)":"5d1ca476","getFollowerProviders(address)":"4dd70ec0","getProviderCount()":"46ce4175","getProviderFollowers(address)":"827879b6","getProviderList()":"a9d17203","getProviderSignals(address,uint256,uint256)":"8bcdf6c9","getUserSignalIds(address)":"fc6fee9c","globalSignalCount()":"c21c0445","nextTradeIndex()":"2e1b5124","paused()":"5c975abb","pendingAdmin()":"26782247","platformFeesCollected()":"b36ffca6","positions(address,uint256)":"c1be6677","postSignal(bool,uint64,uint64,uint64,uint24)":"99d8528e","providerFollowers(address,uint256)":"1db5c954","providerList(uint256)":"390bfd3c","providers(address)":"0787bc27","registerProvider()":"f769c6d0","setPaused(bool)":"16c38b3c","signalCore(uint256)":"7a88d0b5","signalMeta(uint256)":"80447e32","transferAdmin(address)":"75829def","unfollowProvider(address)":"16a2aacc","usdc()":"3e413bee","userSignalIds(address,uint256)":"a5534664","withdrawPlatformFees()":"d0b7830b"}}}}}