{
  "_format": "hh-sol-artifact-1",
  "contractName": "MockDiamond",
  "sourceName": "contracts/mocks/MockDiamond.sol",
  "abi": [
    {
      "inputs": [
        {
          "internalType": "uint32",
          "name": "",
          "type": "uint32"
        },
        {
          "internalType": "uint64",
          "name": "",
          "type": "uint64"
        }
      ],
      "name": "closeTradeMarket",
      "outputs": [],
      "stateMutability": "pure",
      "type": "function"
    },
    {
      "inputs": [],
      "name": "getTradeCount",
      "outputs": [
        {
          "internalType": "uint256",
          "name": "",
          "type": "uint256"
        }
      ],
      "stateMutability": "view",
      "type": "function"
    },
    {
      "inputs": [
        {
          "components": [
            {
              "internalType": "address",
              "name": "user",
              "type": "address"
            },
            {
              "internalType": "uint32",
              "name": "index",
              "type": "uint32"
            },
            {
              "internalType": "uint16",
              "name": "pairIndex",
              "type": "uint16"
            },
            {
              "internalType": "uint24",
              "name": "leverage",
              "type": "uint24"
            },
            {
              "internalType": "bool",
              "name": "long",
              "type": "bool"
            },
            {
              "internalType": "bool",
              "name": "isOpen",
              "type": "bool"
            },
            {
              "internalType": "uint8",
              "name": "collateralIndex",
              "type": "uint8"
            },
            {
              "internalType": "enum IGNSMultiCollatDiamond.TradeType",
              "name": "tradeType",
              "type": "uint8"
            },
            {
              "internalType": "uint120",
              "name": "collateralAmount",
              "type": "uint120"
            },
            {
              "internalType": "uint64",
              "name": "openPrice",
              "type": "uint64"
            },
            {
              "internalType": "uint64",
              "name": "tp",
              "type": "uint64"
            },
            {
              "internalType": "uint64",
              "name": "sl",
              "type": "uint64"
            },
            {
              "internalType": "bool",
              "name": "isCounterTrade",
              "type": "bool"
            },
            {
              "internalType": "uint160",
              "name": "positionSizeToken",
              "type": "uint160"
            },
            {
              "internalType": "uint24",
              "name": "__placeholder",
              "type": "uint24"
            }
          ],
          "internalType": "struct IGNSMultiCollatDiamond.Trade",
          "name": "trade",
          "type": "tuple"
        },
        {
          "internalType": "uint16",
          "name": "",
          "type": "uint16"
        },
        {
          "internalType": "address",
          "name": "",
          "type": "address"
        }
      ],
      "name": "openTrade",
      "outputs": [],
      "stateMutability": "nonpayable",
      "type": "function"
    },
    {
      "inputs": [
        {
          "internalType": "bool",
          "name": "_revert",
          "type": "bool"
        }
      ],
      "name": "setShouldRevert",
      "outputs": [],
      "stateMutability": "nonpayable",
      "type": "function"
    },
    {
      "inputs": [],
      "name": "shouldRevert",
      "outputs": [
        {
          "internalType": "bool",
          "name": "",
          "type": "bool"
        }
      ],
      "stateMutability": "view",
      "type": "function"
    },
    {
      "inputs": [
        {
          "internalType": "uint256",
          "name": "",
          "type": "uint256"
        }
      ],
      "name": "trades",
      "outputs": [
        {
          "internalType": "address",
          "name": "user",
          "type": "address"
        },
        {
          "internalType": "uint16",
          "name": "pairIndex",
          "type": "uint16"
        },
        {
          "internalType": "uint24",
          "name": "leverage",
          "type": "uint24"
        },
        {
          "internalType": "bool",
          "name": "long",
          "type": "bool"
        },
        {
          "internalType": "uint120",
          "name": "collateralAmount",
          "type": "uint120"
        },
        {
          "internalType": "uint64",
          "name": "openPrice",
          "type": "uint64"
        }
      ],
      "stateMutability": "view",
      "type": "function"
    }
  ],
  "bytecode": "0x608060405234801561001057600080fd5b50610580806100206000396000f3fe608060405234801561001057600080fd5b50600436106100625760003560e01c80631e6c598e1461006757806336ce736b146100d75780635bfcc4f8146100eb5780636813d787146100fe578063a3031b771461011f578063d3072d8214610130575b600080fd5b61007a610075366004610396565b61014d565b604080516001600160a01b03909716875261ffff909516602087015262ffffff90931693850193909352151560608401526001600160781b03909116608083015267ffffffffffffffff1660a082015260c0015b60405180910390f35b6100e96100e53660046103cc565b5050565b005b6100e96100f9366004610433565b6101c5565b6100e961010c366004610482565b6001805460ff1916911515919091179055565b6000546040519081526020016100ce565b60015461013d9060ff1681565b60405190151581526020016100ce565b6000818154811061015d57600080fd5b6000918252602090912060029091020180546001909101546001600160a01b0382169250600160a01b820461ffff1691600160b01b810462ffffff1691600160c81b90910460ff16906001600160781b03811690600160781b900467ffffffffffffffff1686565b60015460ff161561021c5760405162461bcd60e51b815260206004820152601a60248201527f4d6f636b4469616d6f6e643a20666f7263656420726576657274000000000000604482015260640160405180910390fd5b6040805160c081019091526000908061023860208701876104ab565b6001600160a01b0316815260200161025660608701604088016104c6565b61ffff16815260200161026f60808701606088016104e1565b62ffffff16815260200161028960a0870160808801610482565b151581526020016102a261012087016101008801610506565b6001600160781b031681526020016102c26101408701610120880161052f565b67ffffffffffffffff90811690915282546001818101855560009485526020948590208451600290930201805495850151604086015160608701511515600160c81b0260ff60c81b1962ffffff909216600160b01b029190911663ffffffff60b01b1961ffff909316600160a01b026001600160b01b03199099166001600160a01b039096169590951797909717169290921794909417815560808301519301805460a090930151909116600160781b026001600160b81b03199092166001600160781b0390931692909217179055505050565b6000602082840312156103a857600080fd5b5035919050565b803567ffffffffffffffff811681146103c757600080fd5b919050565b600080604083850312156103df57600080fd5b823563ffffffff811681146103f357600080fd5b9150610401602084016103af565b90509250929050565b803561ffff811681146103c757600080fd5b80356001600160a01b03811681146103c757600080fd5b600080600083850361022081121561044a57600080fd5b6101e08082121561045a57600080fd5b85945061046881870161040a565b93505050610479610200850161041c565b90509250925092565b60006020828403121561049457600080fd5b813580151581146104a457600080fd5b9392505050565b6000602082840312156104bd57600080fd5b6104a48261041c565b6000602082840312156104d857600080fd5b6104a48261040a565b6000602082840312156104f357600080fd5b813562ffffff811681146104a457600080fd5b60006020828403121561051857600080fd5b81356001600160781b03811681146104a457600080fd5b60006020828403121561054157600080fd5b6104a4826103af56fea2646970667358221220b1c789ebc8481e5466223aa177be75e6a901e1c806fb28d0f89c377783fd86e064736f6c63430008130033",
  "linkReferences": {},
  "deployedLinkReferences": {}
}