{"contracts/SmartTradingGoldBot.sol":{"SmartTradingGoldBot":{"abi":[{"type":"constructor","inputs":[{"name":"_usdcAddress","type":"address","internalType":"address"}],"stateMutability":"nonpayable"},{"type":"function","name":"DAILY_REWARD_RATE","inputs":[],"outputs":[{"name":"","type":"uint256","internalType":"uint256"}],"stateMutability":"view"},{"type":"function","name":"SECONDS_PER_DAY","inputs":[],"outputs":[{"name":"","type":"uint256","internalType":"uint256"}],"stateMutability":"view"},{"type":"function","name":"claimReward","inputs":[],"outputs":[],"stateMutability":"nonpayable"},{"type":"function","name":"deposit","inputs":[{"name":"_amount","type":"uint256","internalType":"uint256"}],"outputs":[],"stateMutability":"nonpayable"},{"type":"function","name":"getWeekdaySeconds","inputs":[{"name":"start","type":"uint256","internalType":"uint256"},{"name":"end","type":"uint256","internalType":"uint256"}],"outputs":[{"name":"","type":"uint256","internalType":"uint256"}],"stateMutability":"pure"},{"type":"function","name":"owner","inputs":[],"outputs":[{"name":"","type":"address","internalType":"address"}],"stateMutability":"view"},{"type":"function","name":"ownerDeposit","inputs":[{"name":"_amount","type":"uint256","internalType":"uint256"}],"outputs":[],"stateMutability":"nonpayable"},{"type":"function","name":"ownerWithdraw","inputs":[{"name":"_amount","type":"uint256","internalType":"uint256"}],"outputs":[],"stateMutability":"nonpayable"},{"type":"function","name":"pendingReward","inputs":[{"name":"_user","type":"address","internalType":"address"}],"outputs":[{"name":"","type":"uint256","internalType":"uint256"}],"stateMutability":"view"},{"type":"function","name":"usdcToken","inputs":[],"outputs":[{"name":"","type":"address","internalType":"contract IERC20"}],"stateMutability":"view"},{"type":"function","name":"users","inputs":[{"name":"","type":"address","internalType":"address"}],"outputs":[{"name":"depositedAmount","type":"uint256","internalType":"uint256"},{"name":"rewardDebt","type":"uint256","internalType":"uint256"},{"name":"lastActionTime","type":"uint256","internalType":"uint256"}],"stateMutability":"view"},{"type":"function","name":"withdraw","inputs":[{"name":"_amount","type":"uint256","internalType":"uint256"}],"outputs":[],"stateMutability":"nonpayable"},{"type":"event","name":"Deposited","inputs":[{"name":"user","type":"address","indexed":true,"internalType":"address"},{"name":"amount","type":"uint256","indexed":false,"internalType":"uint256"}],"anonymous":false},{"type":"event","name":"OwnerDeposited","inputs":[{"name":"amount","type":"uint256","indexed":false,"internalType":"uint256"}],"anonymous":false},{"type":"event","name":"OwnerWithdrawn","inputs":[{"name":"amount","type":"uint256","indexed":false,"internalType":"uint256"}],"anonymous":false},{"type":"event","name":"RewardClaimed","inputs":[{"name":"user","type":"address","indexed":true,"internalType":"address"},{"name":"reward","type":"uint256","indexed":false,"internalType":"uint256"}],"anonymous":false},{"type":"event","name":"Withdrawn","inputs":[{"name":"user","type":"address","indexed":true,"internalType":"address"},{"name":"amount","type":"uint256","indexed":false,"internalType":"uint256"},{"name":"reward","type":"uint256","indexed":false,"internalType":"uint256"}],"anonymous":false}],"userdoc":{},"devdoc":{},"evm":{"bytecode":{"object":"60806040523480156200001157600080fd5b5060405162001c5f38038062001c5f833981810160405281019062000037919062000129565b336000806101000a81548173ffffffffffffffffffffffffffffffffffffffff021916908373ffffffffffffffffffffffffffffffffffffffff16021790555080600160006101000a81548173ffffffffffffffffffffffffffffffffffffffff021916908373ffffffffffffffffffffffffffffffffffffffff160217905550506200015b565b600080fd5b600073ffffffffffffffffffffffffffffffffffffffff82169050919050565b6000620000f182620000c4565b9050919050565b6200010381620000e4565b81146200010f57600080fd5b50565b6000815190506200012381620000f8565b92915050565b600060208284031215620001425762000141620000bf565b5b6000620001528482850162000112565b91505092915050565b611af4806200016b6000396000f3fe608060405234801561001057600080fd5b50600436106100b45760003560e01c80638da5cb5b116100715780638da5cb5b14610179578063a87430ba14610197578063b6b55f25146101c9578063b88a802f146101e5578063f40f0f52146101ef578063f9a88fc41461021f576100b4565b8063076a3e2d146100b957806311eac855146100e9578063141833dc146101075780632e1a7d4d1461012357806333f707d11461013f57806374f0314f1461015b575b600080fd5b6100d360048036038101906100ce9190611190565b61023d565b6040516100e091906111df565b60405180910390f35b6100f1610371565b6040516100fe9190611279565b60405180910390f35b610121600480360381019061011c9190611294565b610397565b005b61013d60048036038101906101389190611294565b610560565b005b61015960048036038101906101549190611294565b61088b565b005b610163610b30565b60405161017091906111df565b60405180910390f35b610181610b37565b60405161018e91906112e2565b60405180910390f35b6101b160048036038101906101ac9190611329565b610b5b565b6040516101c093929190611356565b60405180910390f35b6101e360048036038101906101de9190611294565b610b85565b005b6101ed610d81565b005b61020960048036038101906102049190611329565b61108b565b60405161021691906111df565b60405180910390f35b610227611150565b60405161023491906111df565b60405180910390f35b600082821161024f576000905061036b565b6000838361025d91906113bc565b9050600062093a8082610270919061141f565b9050600062069780826102839190611450565b9050600062093a80836102969190611450565b876102a19190611492565b905060005b6007811015610362578682101561036257600062015180600162015180856102ce919061141f565b6102d89190611492565b6102e29190611450565b9050878111156102f0578790505b6000600760046201518086610305919061141f565b61030f9190611492565b61031991906114c6565b905060008111801561032b5750600681105b1561034a57838261033c91906113bc565b856103479190611492565b94505b8193505050808061035a906114f7565b9150506102a6565b50819450505050505b92915050565b600160009054906101000a900473ffffffffffffffffffffffffffffffffffffffff1681565b60008054906101000a900473ffffffffffffffffffffffffffffffffffffffff1673ffffffffffffffffffffffffffffffffffffffff163373ffffffffffffffffffffffffffffffffffffffff1614610425576040517f08c379a000000000000000000000000000000000000000000000000000000000815260040161041c9061159c565b60405180910390fd5b600160009054906101000a900473ffffffffffffffffffffffffffffffffffffffff1673ffffffffffffffffffffffffffffffffffffffff166323b872dd60008054906101000a900473ffffffffffffffffffffffffffffffffffffffff1630846040518463ffffffff1660e01b81526004016104a4939291906115bc565b6020604051808303816000875af11580156104c3573d6000803e3d6000fd5b505050506040513d601f19601f820116820180604052508101906104e7919061162b565b610526576040517f08c379a000000000000000000000000000000000000000000000000000000000815260040161051d906116ca565b60405180910390fd5b7f2cf422f0db775a5196b0522ebb4163e406555111657596b21fdf60a425ef9f4b8160405161055591906111df565b60405180910390a150565b6000600260003373ffffffffffffffffffffffffffffffffffffffff1673ffffffffffffffffffffffffffffffffffffffff168152602001908152602001600020905081816000015410156105ea576040517f08c379a00000000000000000000000000000000000000000000000000000000081526004016105e190611736565b60405180910390fd5b6000821161062d576040517f08c379a0000000000000000000000000000000000000000000000000000000008152600401610624906117a2565b60405180910390fd5b60006106383361108b565b90508282600001600082825461064e91906113bc565b9250508190555060008260010181905550428260020181905550600081846106769190611492565b905080600160009054906101000a900473ffffffffffffffffffffffffffffffffffffffff1673ffffffffffffffffffffffffffffffffffffffff166370a08231306040518263ffffffff1660e01b81526004016106d491906112e2565b602060405180830381865afa1580156106f1573d6000803e3d6000fd5b505050506040513d601f19601f8201168201806040525081019061071591906117d7565b1015610756576040517f08c379a000000000000000000000000000000000000000000000000000000000815260040161074d90611876565b60405180910390fd5b600160009054906101000a900473ffffffffffffffffffffffffffffffffffffffff1673ffffffffffffffffffffffffffffffffffffffff1663a9059cbb33836040518363ffffffff1660e01b81526004016107b3929190611896565b6020604051808303816000875af11580156107d2573d6000803e3d6000fd5b505050506040513d601f19601f820116820180604052508101906107f6919061162b565b610835576040517f08c379a000000000000000000000000000000000000000000000000000000000815260040161082c9061190b565b60405180910390fd5b3373ffffffffffffffffffffffffffffffffffffffff167f92ccf450a286a957af52509bc1c9939d1a6a481783e142e41e2499f0bb66ebc6858460405161087d92919061192b565b60405180910390a250505050565b60008054906101000a900473ffffffffffffffffffffffffffffffffffffffff1673ffffffffffffffffffffffffffffffffffffffff163373ffffffffffffffffffffffffffffffffffffffff1614610919576040517f08c379a00000000000000000000000000000000000000000000000000000000081526004016109109061159c565b60405180910390fd5b80600160009054906101000a900473ffffffffffffffffffffffffffffffffffffffff1673ffffffffffffffffffffffffffffffffffffffff166370a08231306040518263ffffffff1660e01b815260040161097591906112e2565b602060405180830381865afa158015610992573d6000803e3d6000fd5b505050506040513d601f19601f820116820180604052508101906109b691906117d7565b10156109f7576040517f08c379a00000000000000000000000000000000000000000000000000000000081526004016109ee906119a0565b60405180910390fd5b600160009054906101000a900473ffffffffffffffffffffffffffffffffffffffff1673ffffffffffffffffffffffffffffffffffffffff1663a9059cbb60008054906101000a900473ffffffffffffffffffffffffffffffffffffffff16836040518363ffffffff1660e01b8152600401610a74929190611896565b6020604051808303816000875af1158015610a93573d6000803e3d6000fd5b505050506040513d601f19601f82011682018060405250810190610ab7919061162b565b610af6576040517f08c379a0000000000000000000000000000000000000000000000000000000008152600401610aed9061190b565b60405180910390fd5b7fe1ba612886c314bab269521f17316b07e06593a8fbe87c52802306c8c6f7786581604051610b2591906111df565b60405180910390a150565b6201518081565b60008054906101000a900473ffffffffffffffffffffffffffffffffffffffff1681565b60026020528060005260406000206000915090508060000154908060010154908060020154905083565b60008111610bc8576040517f08c379a0000000000000000000000000000000000000000000000000000000008152600401610bbf906117a2565b60405180910390fd5b6000600260003373ffffffffffffffffffffffffffffffffffffffff1673ffffffffffffffffffffffffffffffffffffffff1681526020019081526020016000209050600081600001541115610c2a57610c213361108b565b81600101819055505b81816000016000828254610c3e9190611492565b92505081905550428160020181905550600160009054906101000a900473ffffffffffffffffffffffffffffffffffffffff1673ffffffffffffffffffffffffffffffffffffffff166323b872dd3330856040518463ffffffff1660e01b8152600401610cad939291906115bc565b6020604051808303816000875af1158015610ccc573d6000803e3d6000fd5b505050506040513d601f19601f82011682018060405250810190610cf0919061162b565b610d2f576040517f08c379a0000000000000000000000000000000000000000000000000000000008152600401610d269061190b565b60405180910390fd5b3373ffffffffffffffffffffffffffffffffffffffff167f2da466a7b24304f47e87fa2e1e5a81b9831ce54fec19055ce277ca2f39ba42c483604051610d7591906111df565b60405180910390a25050565b6000600260003373ffffffffffffffffffffffffffffffffffffffff1673ffffffffffffffffffffffffffffffffffffffff1681526020019081526020016000209050620151808160020154610dd79190611492565b421015610e19576040517f08c379a0000000000000000000000000000000000000000000000000000000008152600401610e1090611a32565b60405180910390fd5b6000610e243361108b565b905060008111610e69576040517f08c379a0000000000000000000000000000000000000000000000000000000008152600401610e6090611a9e565b60405180910390fd5b6000826001018190555042826002018190555080600160009054906101000a900473ffffffffffffffffffffffffffffffffffffffff1673ffffffffffffffffffffffffffffffffffffffff166370a08231306040518263ffffffff1660e01b8152600401610ed891906112e2565b602060405180830381865afa158015610ef5573d6000803e3d6000fd5b505050506040513d601f19601f82011682018060405250810190610f1991906117d7565b1015610f5a576040517f08c379a0000000000000000000000000000000000000000000000000000000008152600401610f5190611876565b60405180910390fd5b600160009054906101000a900473ffffffffffffffffffffffffffffffffffffffff1673ffffffffffffffffffffffffffffffffffffffff1663a9059cbb33836040518363ffffffff1660e01b8152600401610fb7929190611896565b6020604051808303816000875af1158015610fd6573d6000803e3d6000fd5b505050506040513d601f19601f82011682018060405250810190610ffa919061162b565b611039576040517f08c379a00000000000000000000000000000000000000000000000000000000081526004016110309061190b565b60405180910390fd5b3373ffffffffffffffffffffffffffffffffffffffff167f106f923f993c2149d49b4255ff723acafa1f2d94393f561d3eda32ae348f72418260405161107f91906111df565b60405180910390a25050565b600080600260008473ffffffffffffffffffffffffffffffffffffffff1673ffffffffffffffffffffffffffffffffffffffff168152602001908152602001600020905060008160000154036110e857806001015491505061114b565b60006110f882600201544261023d565b905060006201518061271061110d9190611450565b8260c8856000015461111f9190611450565b6111299190611450565b611133919061141f565b90508083600101546111459190611492565b93505050505b919050565b60c881565b600080fd5b6000819050919050565b61116d8161115a565b811461117857600080fd5b50565b60008135905061118a81611164565b92915050565b600080604083850312156111a7576111a6611155565b5b60006111b58582860161117b565b92505060206111c68582860161117b565b9150509250929050565b6111d98161115a565b82525050565b60006020820190506111f460008301846111d0565b92915050565b600073ffffffffffffffffffffffffffffffffffffffff82169050919050565b6000819050919050565b600061123f61123a611235846111fa565b61121a565b6111fa565b9050919050565b600061125182611224565b9050919050565b600061126382611246565b9050919050565b61127381611258565b82525050565b600060208201905061128e600083018461126a565b92915050565b6000602082840312156112aa576112a9611155565b5b60006112b88482850161117b565b91505092915050565b60006112cc826111fa565b9050919050565b6112dc816112c1565b82525050565b60006020820190506112f760008301846112d3565b92915050565b611306816112c1565b811461131157600080fd5b50565b600081359050611323816112fd565b92915050565b60006020828403121561133f5761133e611155565b5b600061134d84828501611314565b91505092915050565b600060608201905061136b60008301866111d0565b61137860208301856111d0565b61138560408301846111d0565b949350505050565b7f4e487b7100000000000000000000000000000000000000000000000000000000600052601160045260246000fd5b60006113c78261115a565b91506113d28361115a565b92508282039050818111156113ea576113e961138d565b5b92915050565b7f4e487b7100000000000000000000000000000000000000000000000000000000600052601260045260246000fd5b600061142a8261115a565b91506114358361115a565b925082611445576114446113f0565b5b828204905092915050565b600061145b8261115a565b91506114668361115a565b92508282026114748161115a565b9150828204841483151761148b5761148a61138d565b5b5092915050565b600061149d8261115a565b91506114a88361115a565b92508282019050808211156114c0576114bf61138d565b5b92915050565b60006114d18261115a565b91506114dc8361115a565b9250826114ec576114eb6113f0565b5b828206905092915050565b60006115028261115a565b91507fffffffffffffffffffffffffffffffffffffffffffffffffffffffffffffffff82036115345761153361138d565b5b600182019050919050565b600082825260208201905092915050565b7f4e6f7420617574686f72697a65643a204f776e6572206f6e6c79000000000000600082015250565b6000611586601a8361153f565b915061159182611550565b602082019050919050565b600060208201905081810360008301526115b581611579565b9050919050565b60006060820190506115d160008301866112d3565b6115de60208301856112d3565b6115eb60408301846111d0565b949350505050565b60008115159050919050565b611608816115f3565b811461161357600080fd5b50565b600081519050611625816115ff565b92915050565b60006020828403121561164157611640611155565b5b600061164f84828501611616565b91505092915050565b7f55534443207472616e73666572206661696c65642e2044696420796f7520617060008201527f70726f76653f0000000000000000000000000000000000000000000000000000602082015250565b60006116b460268361153f565b91506116bf82611658565b604082019050919050565b600060208201905081810360008301526116e3816116a7565b9050919050565b7f496e73756666696369656e74206465706f73697465642062616c616e63650000600082015250565b6000611720601e8361153f565b915061172b826116ea565b602082019050919050565b6000602082019050818103600083015261174f81611713565b9050919050565b7f416d6f756e74206d7573742062652067726561746572207468616e2030000000600082015250565b600061178c601d8361153f565b915061179782611756565b602082019050919050565b600060208201905081810360008301526117bb8161177f565b9050919050565b6000815190506117d181611164565b92915050565b6000602082840312156117ed576117ec611155565b5b60006117fb848285016117c2565b91505092915050565b7f436f6e74726163742068617320696e73756666696369656e74206c697175696460008201527f6974790000000000000000000000000000000000000000000000000000000000602082015250565b600061186060238361153f565b915061186b82611804565b604082019050919050565b6000602082019050818103600083015261188f81611853565b9050919050565b60006040820190506118ab60008301856112d3565b6118b860208301846111d0565b9392505050565b7f55534443205472616e73666572206661696c6564000000000000000000000000600082015250565b60006118f560148361153f565b9150611900826118bf565b602082019050919050565b60006020820190508181036000830152611924816118e8565b9050919050565b600060408201905061194060008301856111d0565b61194d60208301846111d0565b9392505050565b7f496e73756666696369656e74206c697175696469747900000000000000000000600082015250565b600061198a60168361153f565b915061199582611954565b602082019050919050565b600060208201905081810360008301526119b98161197d565b9050919050565b7f526577617264732063616e206f6e6c7920626520636c61696d6564206576657260008201527f7920323420686f75727300000000000000000000000000000000000000000000602082015250565b6000611a1c602a8361153f565b9150611a27826119c0565b604082019050919050565b60006020820190508181036000830152611a4b81611a0f565b9050919050565b7f4e6f207265776172647320617661696c61626c6520746f20636c61696d000000600082015250565b6000611a88601d8361153f565b9150611a9382611a52565b602082019050919050565b60006020820190508181036000830152611ab781611a7b565b905091905056fea2646970667358221220ad6406260108a09d9755c4e8f6de729fc9e803a232c9b7346a84441eb548b2b064736f6c63430008130033","linkReferences":{}},"methodIdentifiers":{"DAILY_REWARD_RATE()":"f9a88fc4","SECONDS_PER_DAY()":"74f0314f","claimReward()":"b88a802f","deposit(uint256)":"b6b55f25","getWeekdaySeconds(uint256,uint256)":"076a3e2d","owner()":"8da5cb5b","ownerDeposit(uint256)":"141833dc","ownerWithdraw(uint256)":"33f707d1","pendingReward(address)":"f40f0f52","usdcToken()":"11eac855","users(address)":"a87430ba","withdraw(uint256)":"2e1a7d4d"}}}}}