{"contracts/mocks/MockDiamond.sol":{"MockDiamond":{"abi":[{"type":"function","name":"closeTradeMarket","inputs":[{"name":"","type":"uint32","internalType":"uint32"},{"name":"","type":"uint64","internalType":"uint64"}],"outputs":[],"stateMutability":"pure"},{"type":"function","name":"getTradeCount","inputs":[],"outputs":[{"name":"","type":"uint256","internalType":"uint256"}],"stateMutability":"view"},{"type":"function","name":"openTrade","inputs":[{"name":"trade","type":"tuple","internalType":"struct IGNSMultiCollatDiamond.Trade","components":[{"name":"user","type":"address","internalType":"address"},{"name":"index","type":"uint32","internalType":"uint32"},{"name":"pairIndex","type":"uint16","internalType":"uint16"},{"name":"leverage","type":"uint24","internalType":"uint24"},{"name":"long","type":"bool","internalType":"bool"},{"name":"isOpen","type":"bool","internalType":"bool"},{"name":"collateralIndex","type":"uint8","internalType":"uint8"},{"name":"tradeType","type":"uint8","internalType":"enum IGNSMultiCollatDiamond.TradeType"},{"name":"collateralAmount","type":"uint120","internalType":"uint120"},{"name":"openPrice","type":"uint64","internalType":"uint64"},{"name":"tp","type":"uint64","internalType":"uint64"},{"name":"sl","type":"uint64","internalType":"uint64"},{"name":"isCounterTrade","type":"bool","internalType":"bool"},{"name":"positionSizeToken","type":"uint160","internalType":"uint160"},{"name":"__placeholder","type":"uint24","internalType":"uint24"}]},{"name":"","type":"uint16","internalType":"uint16"},{"name":"","type":"address","internalType":"address"}],"outputs":[],"stateMutability":"nonpayable"},{"type":"function","name":"setShouldRevert","inputs":[{"name":"_revert","type":"bool","internalType":"bool"}],"outputs":[],"stateMutability":"nonpayable"},{"type":"function","name":"shouldRevert","inputs":[],"outputs":[{"name":"","type":"bool","internalType":"bool"}],"stateMutability":"view"},{"type":"function","name":"trades","inputs":[{"name":"","type":"uint256","internalType":"uint256"}],"outputs":[{"name":"user","type":"address","internalType":"address"},{"name":"pairIndex","type":"uint16","internalType":"uint16"},{"name":"leverage","type":"uint24","internalType":"uint24"},{"name":"long","type":"bool","internalType":"bool"},{"name":"collateralAmount","type":"uint120","internalType":"uint120"},{"name":"openPrice","type":"uint64","internalType":"uint64"}],"stateMutability":"view"}],"userdoc":{},"devdoc":{},"evm":{"bytecode":{"object":"608060405234801561001057600080fd5b50610a57806100206000396000f3fe608060405234801561001057600080fd5b50600436106100625760003560e01c80631e6c598e1461006757806336ce736b1461009c5780635bfcc4f8146100b85780636813d787146100d4578063a3031b77146100f0578063d3072d821461010e575b600080fd5b610081600480360381019061007c91906104e0565b61012c565b604051610093969594939291906105f1565b60405180910390f35b6100b660048036038101906100b191906106ba565b6101f1565b005b6100d260048036038101906100cd9190610777565b6101f5565b005b6100ee60048036038101906100e991906107f9565b610469565b005b6100f8610486565b6040516101059190610835565b60405180910390f35b610116610492565b6040516101239190610850565b60405180910390f35b6000818154811061013c57600080fd5b90600052602060002090600202016000915090508060000160009054906101000a900473ffffffffffffffffffffffffffffffffffffffff16908060000160149054906101000a900461ffff16908060000160169054906101000a900462ffffff16908060000160199054906101000a900460ff16908060010160009054906101000a90046effffffffffffffffffffffffffffff169080600101600f9054906101000a900467ffffffffffffffff16905086565b5050565b600160009054906101000a900460ff1615610245576040517f08c379a000000000000000000000000000000000000000000000000000000000815260040161023c906108c8565b60405180910390fd5b60006040518060c0016040528085600001602081019061026591906108e8565b73ffffffffffffffffffffffffffffffffffffffff1681526020018560400160208101906102939190610915565b61ffff1681526020018560600160208101906102af919061096e565b62ffffff1681526020018560800160208101906102cc91906107f9565b15158152602001856101000160208101906102e791906109c7565b6effffffffffffffffffffffffffffff1681526020018561012001602081019061031191906109f4565b67ffffffffffffffff16815250908060018154018082558091505060019003906000526020600020906002020160009091909190915060008201518160000160006101000a81548173ffffffffffffffffffffffffffffffffffffffff021916908373ffffffffffffffffffffffffffffffffffffffff16021790555060208201518160000160146101000a81548161ffff021916908361ffff16021790555060408201518160000160166101000a81548162ffffff021916908362ffffff16021790555060608201518160000160196101000a81548160ff02191690831515021790555060808201518160010160006101000a8154816effffffffffffffffffffffffffffff02191690836effffffffffffffffffffffffffffff16021790555060a082015181600101600f6101000a81548167ffffffffffffffff021916908367ffffffffffffffff1602179055505050505050565b80600160006101000a81548160ff02191690831515021790555050565b60008080549050905090565b600160009054906101000a900460ff1681565b600080fd5b6000819050919050565b6104bd816104aa565b81146104c857600080fd5b50565b6000813590506104da816104b4565b92915050565b6000602082840312156104f6576104f56104a5565b5b6000610504848285016104cb565b91505092915050565b600073ffffffffffffffffffffffffffffffffffffffff82169050919050565b60006105388261050d565b9050919050565b6105488161052d565b82525050565b600061ffff82169050919050565b6105658161054e565b82525050565b600062ffffff82169050919050565b6105838161056b565b82525050565b60008115159050919050565b61059e81610589565b82525050565b60006effffffffffffffffffffffffffffff82169050919050565b6105c8816105a4565b82525050565b600067ffffffffffffffff82169050919050565b6105eb816105ce565b82525050565b600060c082019050610606600083018961053f565b610613602083018861055c565b610620604083018761057a565b61062d6060830186610595565b61063a60808301856105bf565b61064760a08301846105e2565b979650505050505050565b600063ffffffff82169050919050565b61066b81610652565b811461067657600080fd5b50565b60008135905061068881610662565b92915050565b610697816105ce565b81146106a257600080fd5b50565b6000813590506106b48161068e565b92915050565b600080604083850312156106d1576106d06104a5565b5b60006106df85828601610679565b92505060206106f0858286016106a5565b9150509250929050565b600080fd5b60006101e08284031215610716576107156106fa565b5b81905092915050565b6107288161054e565b811461073357600080fd5b50565b6000813590506107458161071f565b92915050565b6107548161052d565b811461075f57600080fd5b50565b6000813590506107718161074b565b92915050565b60008060006102208486031215610791576107906104a5565b5b600061079f868287016106ff565b9350506101e06107b186828701610736565b9250506102006107c386828701610762565b9150509250925092565b6107d681610589565b81146107e157600080fd5b50565b6000813590506107f3816107cd565b92915050565b60006020828403121561080f5761080e6104a5565b5b600061081d848285016107e4565b91505092915050565b61082f816104aa565b82525050565b600060208201905061084a6000830184610826565b92915050565b60006020820190506108656000830184610595565b92915050565b600082825260208201905092915050565b7f4d6f636b4469616d6f6e643a20666f7263656420726576657274000000000000600082015250565b60006108b2601a8361086b565b91506108bd8261087c565b602082019050919050565b600060208201905081810360008301526108e1816108a5565b9050919050565b6000602082840312156108fe576108fd6104a5565b5b600061090c84828501610762565b91505092915050565b60006020828403121561092b5761092a6104a5565b5b600061093984828501610736565b91505092915050565b61094b8161056b565b811461095657600080fd5b50565b60008135905061096881610942565b92915050565b600060208284031215610984576109836104a5565b5b600061099284828501610959565b91505092915050565b6109a4816105a4565b81146109af57600080fd5b50565b6000813590506109c18161099b565b92915050565b6000602082840312156109dd576109dc6104a5565b5b60006109eb848285016109b2565b91505092915050565b600060208284031215610a0a57610a096104a5565b5b6000610a18848285016106a5565b9150509291505056fea26469706673582212206f23b2172e8e5b3c13d95a02a8cb7f966329ecb864ff60f5e00ba6f86aecb86664736f6c63430008130033","linkReferences":{}},"methodIdentifiers":{"closeTradeMarket(uint32,uint64)":"36ce736b","getTradeCount()":"a3031b77","openTrade((address,uint32,uint16,uint24,bool,bool,uint8,uint8,uint120,uint64,uint64,uint64,bool,uint160,uint24),uint16,address)":"5bfcc4f8","setShouldRevert(bool)":"6813d787","shouldRevert()":"d3072d82","trades(uint256)":"1e6c598e"}}}}}