{
  "_format": "hh-sol-artifact-1",
  "contractName": "GoldCopyTraderV2",
  "sourceName": "contracts/GoldCopyTraderV2.sol",
  "abi": [
    {
      "inputs": [
        {
          "internalType": "address",
          "name": "_usdc",
          "type": "address"
        },
        {
          "internalType": "address",
          "name": "_diamond",
          "type": "address"
        }
      ],
      "stateMutability": "nonpayable",
      "type": "constructor"
    },
    {
      "anonymous": false,
      "inputs": [
        {
          "indexed": false,
          "internalType": "uint256",
          "name": "amount",
          "type": "uint256"
        }
      ],
      "name": "AdminDeposited",
      "type": "event"
    },
    {
      "anonymous": false,
      "inputs": [
        {
          "indexed": true,
          "internalType": "address",
          "name": "newAdmin",
          "type": "address"
        }
      ],
      "name": "AdminTransferStarted",
      "type": "event"
    },
    {
      "anonymous": false,
      "inputs": [
        {
          "indexed": true,
          "internalType": "address",
          "name": "oldAdmin",
          "type": "address"
        },
        {
          "indexed": true,
          "internalType": "address",
          "name": "newAdmin",
          "type": "address"
        }
      ],
      "name": "AdminTransferred",
      "type": "event"
    },
    {
      "anonymous": false,
      "inputs": [
        {
          "indexed": false,
          "internalType": "uint256",
          "name": "newFeePercent",
          "type": "uint256"
        }
      ],
      "name": "FeeUpdated",
      "type": "event"
    },
    {
      "anonymous": false,
      "inputs": [
        {
          "indexed": false,
          "internalType": "uint256",
          "name": "amount",
          "type": "uint256"
        }
      ],
      "name": "FeesWithdrawn",
      "type": "event"
    },
    {
      "anonymous": false,
      "inputs": [
        {
          "indexed": false,
          "internalType": "bool",
          "name": "isPaused",
          "type": "bool"
        }
      ],
      "name": "Paused",
      "type": "event"
    },
    {
      "anonymous": false,
      "inputs": [
        {
          "indexed": true,
          "internalType": "uint256",
          "name": "signalId",
          "type": "uint256"
        },
        {
          "indexed": false,
          "internalType": "uint256",
          "name": "totalDeposited",
          "type": "uint256"
        },
        {
          "indexed": false,
          "internalType": "uint32",
          "name": "gTradeIndex",
          "type": "uint32"
        }
      ],
      "name": "SignalOpened",
      "type": "event"
    },
    {
      "anonymous": false,
      "inputs": [
        {
          "indexed": true,
          "internalType": "uint256",
          "name": "signalId",
          "type": "uint256"
        },
        {
          "indexed": false,
          "internalType": "bool",
          "name": "long",
          "type": "bool"
        },
        {
          "indexed": false,
          "internalType": "uint64",
          "name": "entryPrice",
          "type": "uint64"
        },
        {
          "indexed": false,
          "internalType": "uint64",
          "name": "tp",
          "type": "uint64"
        },
        {
          "indexed": false,
          "internalType": "uint64",
          "name": "sl",
          "type": "uint64"
        },
        {
          "indexed": false,
          "internalType": "uint24",
          "name": "leverage",
          "type": "uint24"
        }
      ],
      "name": "SignalPosted",
      "type": "event"
    },
    {
      "anonymous": false,
      "inputs": [
        {
          "indexed": true,
          "internalType": "uint256",
          "name": "signalId",
          "type": "uint256"
        },
        {
          "indexed": false,
          "internalType": "uint256",
          "name": "totalDeposited",
          "type": "uint256"
        },
        {
          "indexed": false,
          "internalType": "uint256",
          "name": "totalReturned",
          "type": "uint256"
        },
        {
          "indexed": false,
          "internalType": "int256",
          "name": "resultPct",
          "type": "int256"
        }
      ],
      "name": "SignalSettled",
      "type": "event"
    },
    {
      "anonymous": false,
      "inputs": [
        {
          "indexed": true,
          "internalType": "address",
          "name": "user",
          "type": "address"
        },
        {
          "indexed": true,
          "internalType": "uint256",
          "name": "signalId",
          "type": "uint256"
        },
        {
          "indexed": false,
          "internalType": "uint256",
          "name": "payout",
          "type": "uint256"
        },
        {
          "indexed": false,
          "internalType": "uint256",
          "name": "fee",
          "type": "uint256"
        }
      ],
      "name": "UserClaimed",
      "type": "event"
    },
    {
      "anonymous": false,
      "inputs": [
        {
          "indexed": true,
          "internalType": "address",
          "name": "user",
          "type": "address"
        },
        {
          "indexed": true,
          "internalType": "uint256",
          "name": "signalId",
          "type": "uint256"
        },
        {
          "indexed": false,
          "internalType": "uint256",
          "name": "amount",
          "type": "uint256"
        }
      ],
      "name": "UserDeposited",
      "type": "event"
    },
    {
      "anonymous": false,
      "inputs": [
        {
          "indexed": true,
          "internalType": "address",
          "name": "user",
          "type": "address"
        },
        {
          "indexed": true,
          "internalType": "uint256",
          "name": "signalId",
          "type": "uint256"
        },
        {
          "indexed": false,
          "internalType": "uint256",
          "name": "amount",
          "type": "uint256"
        }
      ],
      "name": "UserWithdrawn",
      "type": "event"
    },
    {
      "inputs": [],
      "name": "BASIS_POINTS",
      "outputs": [
        {
          "internalType": "uint256",
          "name": "",
          "type": "uint256"
        }
      ],
      "stateMutability": "view",
      "type": "function"
    },
    {
      "inputs": [],
      "name": "COLLECTING_TIMEOUT",
      "outputs": [
        {
          "internalType": "uint256",
          "name": "",
          "type": "uint256"
        }
      ],
      "stateMutability": "view",
      "type": "function"
    },
    {
      "inputs": [],
      "name": "EMERGENCY_DELAY",
      "outputs": [
        {
          "internalType": "uint256",
          "name": "",
          "type": "uint256"
        }
      ],
      "stateMutability": "view",
      "type": "function"
    },
    {
      "inputs": [],
      "name": "MAX_DEPOSIT",
      "outputs": [
        {
          "internalType": "uint256",
          "name": "",
          "type": "uint256"
        }
      ],
      "stateMutability": "view",
      "type": "function"
    },
    {
      "inputs": [],
      "name": "MAX_POOL",
      "outputs": [
        {
          "internalType": "uint256",
          "name": "",
          "type": "uint256"
        }
      ],
      "stateMutability": "view",
      "type": "function"
    },
    {
      "inputs": [],
      "name": "MIN_DEPOSIT",
      "outputs": [
        {
          "internalType": "uint256",
          "name": "",
          "type": "uint256"
        }
      ],
      "stateMutability": "view",
      "type": "function"
    },
    {
      "inputs": [],
      "name": "acceptAdmin",
      "outputs": [],
      "stateMutability": "nonpayable",
      "type": "function"
    },
    {
      "inputs": [],
      "name": "activeSignalId",
      "outputs": [
        {
          "internalType": "uint256",
          "name": "",
          "type": "uint256"
        }
      ],
      "stateMutability": "view",
      "type": "function"
    },
    {
      "inputs": [],
      "name": "admin",
      "outputs": [
        {
          "internalType": "address",
          "name": "",
          "type": "address"
        }
      ],
      "stateMutability": "view",
      "type": "function"
    },
    {
      "inputs": [
        {
          "internalType": "uint256",
          "name": "_amount",
          "type": "uint256"
        }
      ],
      "name": "adminDeposit",
      "outputs": [],
      "stateMutability": "nonpayable",
      "type": "function"
    },
    {
      "inputs": [
        {
          "internalType": "uint256",
          "name": "_amount",
          "type": "uint256"
        }
      ],
      "name": "adminWithdrawDeposit",
      "outputs": [],
      "stateMutability": "nonpayable",
      "type": "function"
    },
    {
      "inputs": [],
      "name": "cancelSignal",
      "outputs": [],
      "stateMutability": "nonpayable",
      "type": "function"
    },
    {
      "inputs": [
        {
          "internalType": "uint256",
          "name": "_signalId",
          "type": "uint256"
        }
      ],
      "name": "claim",
      "outputs": [],
      "stateMutability": "nonpayable",
      "type": "function"
    },
    {
      "inputs": [
        {
          "internalType": "uint32",
          "name": "_index",
          "type": "uint32"
        },
        {
          "internalType": "uint64",
          "name": "_expectedPrice",
          "type": "uint64"
        }
      ],
      "name": "closeTrade",
      "outputs": [],
      "stateMutability": "nonpayable",
      "type": "function"
    },
    {
      "inputs": [
        {
          "internalType": "uint256",
          "name": "_amount",
          "type": "uint256"
        }
      ],
      "name": "deposit",
      "outputs": [],
      "stateMutability": "nonpayable",
      "type": "function"
    },
    {
      "inputs": [],
      "name": "diamond",
      "outputs": [
        {
          "internalType": "contract IGNSMultiCollatDiamond",
          "name": "",
          "type": "address"
        }
      ],
      "stateMutability": "view",
      "type": "function"
    },
    {
      "inputs": [
        {
          "internalType": "uint256",
          "name": "_signalId",
          "type": "uint256"
        }
      ],
      "name": "emergencyWithdraw",
      "outputs": [],
      "stateMutability": "nonpayable",
      "type": "function"
    },
    {
      "inputs": [],
      "name": "feePercent",
      "outputs": [
        {
          "internalType": "uint256",
          "name": "",
          "type": "uint256"
        }
      ],
      "stateMutability": "view",
      "type": "function"
    },
    {
      "inputs": [],
      "name": "getActiveSignalId",
      "outputs": [
        {
          "internalType": "uint256",
          "name": "",
          "type": "uint256"
        }
      ],
      "stateMutability": "view",
      "type": "function"
    },
    {
      "inputs": [
        {
          "internalType": "address",
          "name": "_user",
          "type": "address"
        },
        {
          "internalType": "uint256",
          "name": "_id",
          "type": "uint256"
        }
      ],
      "name": "getExpectedPayout",
      "outputs": [
        {
          "internalType": "uint256",
          "name": "",
          "type": "uint256"
        }
      ],
      "stateMutability": "view",
      "type": "function"
    },
    {
      "inputs": [
        {
          "internalType": "address",
          "name": "_user",
          "type": "address"
        }
      ],
      "name": "getUserSignalIds",
      "outputs": [
        {
          "internalType": "uint256[]",
          "name": "",
          "type": "uint256[]"
        }
      ],
      "stateMutability": "view",
      "type": "function"
    },
    {
      "inputs": [
        {
          "internalType": "uint32",
          "name": "_gTradeIndex",
          "type": "uint32"
        }
      ],
      "name": "openTrade",
      "outputs": [],
      "stateMutability": "nonpayable",
      "type": "function"
    },
    {
      "inputs": [],
      "name": "paused",
      "outputs": [
        {
          "internalType": "bool",
          "name": "",
          "type": "bool"
        }
      ],
      "stateMutability": "view",
      "type": "function"
    },
    {
      "inputs": [],
      "name": "pendingAdmin",
      "outputs": [
        {
          "internalType": "address",
          "name": "",
          "type": "address"
        }
      ],
      "stateMutability": "view",
      "type": "function"
    },
    {
      "inputs": [
        {
          "internalType": "address",
          "name": "",
          "type": "address"
        },
        {
          "internalType": "uint256",
          "name": "",
          "type": "uint256"
        }
      ],
      "name": "positions",
      "outputs": [
        {
          "internalType": "uint256",
          "name": "deposit",
          "type": "uint256"
        },
        {
          "internalType": "bool",
          "name": "claimed",
          "type": "bool"
        }
      ],
      "stateMutability": "view",
      "type": "function"
    },
    {
      "inputs": [
        {
          "internalType": "bool",
          "name": "_long",
          "type": "bool"
        },
        {
          "internalType": "uint64",
          "name": "_entry",
          "type": "uint64"
        },
        {
          "internalType": "uint64",
          "name": "_tp",
          "type": "uint64"
        },
        {
          "internalType": "uint64",
          "name": "_sl",
          "type": "uint64"
        },
        {
          "internalType": "uint24",
          "name": "_lev",
          "type": "uint24"
        }
      ],
      "name": "postSignal",
      "outputs": [],
      "stateMutability": "nonpayable",
      "type": "function"
    },
    {
      "inputs": [],
      "name": "reservedForSignals",
      "outputs": [
        {
          "internalType": "uint256",
          "name": "",
          "type": "uint256"
        }
      ],
      "stateMutability": "view",
      "type": "function"
    },
    {
      "inputs": [
        {
          "internalType": "uint256",
          "name": "_fee",
          "type": "uint256"
        }
      ],
      "name": "setFeePercent",
      "outputs": [],
      "stateMutability": "nonpayable",
      "type": "function"
    },
    {
      "inputs": [
        {
          "internalType": "bool",
          "name": "_paused",
          "type": "bool"
        }
      ],
      "name": "setPaused",
      "outputs": [],
      "stateMutability": "nonpayable",
      "type": "function"
    },
    {
      "inputs": [
        {
          "internalType": "uint256",
          "name": "_totalReturned",
          "type": "uint256"
        }
      ],
      "name": "settleSignal",
      "outputs": [],
      "stateMutability": "nonpayable",
      "type": "function"
    },
    {
      "inputs": [
        {
          "internalType": "uint256",
          "name": "",
          "type": "uint256"
        }
      ],
      "name": "signalCore",
      "outputs": [
        {
          "internalType": "bool",
          "name": "long",
          "type": "bool"
        },
        {
          "internalType": "enum GoldCopyTraderV2.SignalPhase",
          "name": "phase",
          "type": "uint8"
        },
        {
          "internalType": "uint64",
          "name": "entryPrice",
          "type": "uint64"
        },
        {
          "internalType": "uint64",
          "name": "tp",
          "type": "uint64"
        },
        {
          "internalType": "uint64",
          "name": "sl",
          "type": "uint64"
        },
        {
          "internalType": "uint24",
          "name": "leverage",
          "type": "uint24"
        },
        {
          "internalType": "uint256",
          "name": "feeAtCreation",
          "type": "uint256"
        },
        {
          "internalType": "uint32",
          "name": "gTradeIndex",
          "type": "uint32"
        }
      ],
      "stateMutability": "view",
      "type": "function"
    },
    {
      "inputs": [],
      "name": "signalCount",
      "outputs": [
        {
          "internalType": "uint256",
          "name": "",
          "type": "uint256"
        }
      ],
      "stateMutability": "view",
      "type": "function"
    },
    {
      "inputs": [
        {
          "internalType": "uint256",
          "name": "",
          "type": "uint256"
        }
      ],
      "name": "signalMeta",
      "outputs": [
        {
          "internalType": "uint256",
          "name": "timestamp",
          "type": "uint256"
        },
        {
          "internalType": "uint256",
          "name": "closedAt",
          "type": "uint256"
        },
        {
          "internalType": "uint256",
          "name": "totalDeposited",
          "type": "uint256"
        },
        {
          "internalType": "uint256",
          "name": "totalReturned",
          "type": "uint256"
        },
        {
          "internalType": "uint256",
          "name": "copierCount",
          "type": "uint256"
        },
        {
          "internalType": "uint256",
          "name": "originalDeposited",
          "type": "uint256"
        },
        {
          "internalType": "uint256",
          "name": "totalEmergencyWithdrawn",
          "type": "uint256"
        },
        {
          "internalType": "uint256",
          "name": "totalClaimed",
          "type": "uint256"
        },
        {
          "internalType": "uint256",
          "name": "balanceAtOpen",
          "type": "uint256"
        }
      ],
      "stateMutability": "view",
      "type": "function"
    },
    {
      "inputs": [],
      "name": "totalAdminDeposited",
      "outputs": [
        {
          "internalType": "uint256",
          "name": "",
          "type": "uint256"
        }
      ],
      "stateMutability": "view",
      "type": "function"
    },
    {
      "inputs": [],
      "name": "totalFeesCollected",
      "outputs": [
        {
          "internalType": "uint256",
          "name": "",
          "type": "uint256"
        }
      ],
      "stateMutability": "view",
      "type": "function"
    },
    {
      "inputs": [
        {
          "internalType": "address",
          "name": "_newAdmin",
          "type": "address"
        }
      ],
      "name": "transferAdmin",
      "outputs": [],
      "stateMutability": "nonpayable",
      "type": "function"
    },
    {
      "inputs": [],
      "name": "usdc",
      "outputs": [
        {
          "internalType": "contract IERC20",
          "name": "",
          "type": "address"
        }
      ],
      "stateMutability": "view",
      "type": "function"
    },
    {
      "inputs": [
        {
          "internalType": "uint256",
          "name": "_signalId",
          "type": "uint256"
        }
      ],
      "name": "userCancelExpiredSignal",
      "outputs": [],
      "stateMutability": "nonpayable",
      "type": "function"
    },
    {
      "inputs": [
        {
          "internalType": "address",
          "name": "",
          "type": "address"
        },
        {
          "internalType": "uint256",
          "name": "",
          "type": "uint256"
        }
      ],
      "name": "userSignalIds",
      "outputs": [
        {
          "internalType": "uint256",
          "name": "",
          "type": "uint256"
        }
      ],
      "stateMutability": "view",
      "type": "function"
    },
    {
      "inputs": [
        {
          "internalType": "uint256",
          "name": "_signalId",
          "type": "uint256"
        }
      ],
      "name": "withdrawDeposit",
      "outputs": [],
      "stateMutability": "nonpayable",
      "type": "function"
    },
    {
      "inputs": [],
      "name": "withdrawFees",
      "outputs": [],
      "stateMutability": "nonpayable",
      "type": "function"
    }
  ],
  "bytecode": "0x60c06040526107d06003553480156200001757600080fd5b5060405162003869380380620038698339810160408190526200003a9162000159565b6001600160a01b038216158015906200005b57506001600160a01b03811615155b620000985760405162461bcd60e51b81526020600482015260096024820152682d32b9379030b2323960b91b604482015260640160405180910390fd5b600080546001600160a01b0319163317905560016002556001600160a01b03828116608081905290821660a081905260405163095ea7b360e01b81526004810191909152600019602482015263095ea7b3906044016020604051808303816000875af11580156200010d573d6000803e3d6000fd5b505050506040513d601f19601f8201168201806040525081019062000133919062000191565b505050620001bc565b80516001600160a01b03811681146200015457600080fd5b919050565b600080604083850312156200016d57600080fd5b62000178836200013c565b915062000188602084016200013c565b90509250929050565b600060208284031215620001a457600080fd5b81518015158114620001b557600080fd5b9392505050565b60805160a051613625620002446000396000818161061701528181610ffb01526121f901526000818161033f01528181610750015281816109c101528181610eaf01528181611419015281816116f80152818161184d015281816119da01528181611ca701528181611d8f01528181611f1e015281816120360152612f6401526136256000f3fe608060405234801561001057600080fd5b50600436106102535760003560e01c806375829def11610146578063a5534664116100c3578063e1e158a511610087578063e1e158a5146105ff578063e1f1c4a714610609578063f0b7db4e14610612578063f23fae9314610639578063f851a44014610643578063fc6fee9c1461065657600080fd5b8063a55346641461057a578063ae0041aa1461058d578063b6b55f2514610596578063c1be6677146105a9578063dd5967c3146105f357600080fd5b806380447e321161010a57806380447e32146104a157806382944e2d14610541578063888bc3721461054b57806399d8528e14610554578063a55190361461056757600080fd5b806375829def146103e057806378739f47146103f35780637a88d0b5146103fb5780637ce3489b146104855780637fd6f15c1461049857600080fd5b8063379607f5116101d45780635312ea8e116101985780635312ea8e1461037a57806355e267ff1461038d5780635c975abb146103a057806360c6d8ae146103c45780636cca67a8146103cd57600080fd5b8063379607f5146103275780633e413bee1461033a578063476343ee14610361578063486834a3146103695780634cb96a921461037257600080fd5b806327dde56c1161021b57806327dde56c146102cb57806328d3bf0a146102de5780632c3c91c9146102f157806330cb5b4a1461030b57806333289a461461031457600080fd5b806308687794146102585780630e18b6811461026d57806315199c7f1461027557806316c38b3c14610288578063267822471461029b575b600080fd5b61026b61026636600461308e565b610676565b005b61026b610816565b61026b61028336600461308e565b6108c8565b61026b6102963660046130b8565b610c8e565b6001546102ae906001600160a01b031681565b6040516001600160a01b0390911681526020015b60405180910390f35b61026b6102d93660046130f5565b610d10565b61026b6102ec36600461308e565b6110bd565b6102fd64746a52880081565b6040519081526020016102c2565b6102fd60065481565b61026b61032236600461308e565b611253565b61026b61033536600461308e565b6114b6565b6102ae7f000000000000000000000000000000000000000000000000000000000000000081565b61026b6118ef565b6102fd60075481565b6006546102fd565b61026b61038836600461308e565b611a6d565b61026b61039b36600461308e565b611e2e565b6001546103b490600160a01b900460ff1681565b60405190151581526020016102c2565b6102fd60055481565b61026b6103db366004613127565b6120ca565b61026b6103ee366004613171565b612262565b61026b612318565b61047161040936600461308e565b60096020526000908152604090208054600182015460029092015460ff808316936101008404909116926001600160401b03620100008204811693600160501b8304821693600160901b84049092169262ffffff600160d01b90910416919063ffffffff1688565b6040516102c29897969594939291906131a2565b61026b61049336600461308e565b61248a565b6102fd60035481565b6104fd6104af36600461308e565b600a6020528060005260406000206000915090508060000154908060010154908060020154908060030154908060040154908060050154908060060154908060070154908060080154905089565b60408051998a5260208a0198909852968801959095526060870193909352608086019190915260a085015260c084015260e0830152610100820152610120016102c2565b6102fd62093a8081565b6102fd60085481565b61026b61056236600461320a565b612525565b6102fd61057536600461327d565b612a38565b6102fd61058836600461327d565b612ba4565b6102fd60045481565b61026b6105a436600461308e565b612bd5565b6105de6105b736600461327d565b600b6020908152600092835260408084209091529082529020805460019091015460ff1682565b604080519283529015156020830152016102c2565b6102fd640ba43b740081565b6102fd624c4b4081565b6102fd61271081565b6102ae7f000000000000000000000000000000000000000000000000000000000000000081565b6102fd6201518081565b6000546102ae906001600160a01b031681565b610669610664366004613171565b613022565b6040516102c291906132a7565b6000546001600160a01b031633146106a95760405162461bcd60e51b81526004016106a0906132eb565b60405180910390fd5b6002546002036106cb5760405162461bcd60e51b81526004016106a09061330e565b600280558061070a5760405162461bcd60e51b815260206004820152600b60248201526a16995c9bc8185b5bdd5b9d60aa1b60448201526064016106a0565b806008600082825461071c9190613347565b90915550506000546040516323b872dd60e01b81526001600160a01b039182166004820152306024820152604481018390527f0000000000000000000000000000000000000000000000000000000000000000909116906323b872dd906064016020604051808303816000875af115801561079b573d6000803e3d6000fd5b505050506040513d601f19601f820116820180604052508101906107bf919061335a565b6107db5760405162461bcd60e51b81526004016106a090613377565b6040518181527fb0daddc179952de74346a5e7759111c9edc9f99ca9204e97c889b85fb55b55c79060200160405180910390a1506001600255565b6001546001600160a01b031633146108645760405162461bcd60e51b81526020600482015260116024820152702737ba103832b73234b7339030b236b4b760791b60448201526064016106a0565b600154600080546040516001600160a01b0393841693909116917ff8ccb027dfcd135e000e9d45e6cc2d662578a8825d4c45b5e32e0adf67e79ec691a360018054600080546001600160a01b03199081166001600160a01b03841617909155169055565b6000546001600160a01b031633146108f25760405162461bcd60e51b81526004016106a0906132eb565b6000600654116109145760405162461bcd60e51b81526004016106a090613397565b6006546000908152600960209081526040808320600a90925290912060028254610100900460ff16600381111561094d5761094d61318c565b146109885760405162461bcd60e51b815260206004820152600b60248201526a4e6f742074726164696e6760a81b60448201526064016106a0565b60008160060154826005015461099e91906133c1565b6040516370a0823160e01b81523060048201529091506000906001600160a01b037f000000000000000000000000000000000000000000000000000000000000000016906370a0823190602401602060405180830381865afa158015610a08573d6000803e3d6000fd5b505050506040513d601f19601f82011682018060405250810190610a2c91906133d4565b905060008360050154846008015411610a46576000610a5a565b83600501548460080154610a5a91906133c1565b90506000818311610a6c576000610a85565b6006850154610a7b83856133c1565b610a859190613347565b905080871115610ad75760405162461bcd60e51b815260206004820152601860248201527f4d6f7265207468616e2074726164652072657475726e6564000000000000000060448201526064016106a0565b610ae28460036133ed565b871115610b235760405162461bcd60e51b815260206004820152600f60248201526e0a4cae6ead8e840e8dede40d0d2ced608b1b60448201526064016106a0565b86831015610b6a5760405162461bcd60e51b8152602060048201526014602482015273496e73756666696369656e742062616c616e636560601b60448201526064016106a0565b855461ff0019166103001786556003850187905542600186015560075484908111610bac578060076000828254610ba191906133c1565b90915550610bb29050565b60006007555b8760076000828254610bc49190613347565b9091555085905060008115610c3157818a10610c035781612710610be8828d6133c1565b610bf291906133ed565b610bfc9190613404565b9050610c31565b81612710610c118c836133c1565b610c1b91906133ed565b610c259190613404565b610c2e90613426565b90505b600680546000909155600289015460408051918252602082018d9052810183905281907fba18b330376d9405519e92aa6a1ebbc93aad8b9f68b95c8805c9e9d8e3a46cd09060600160405180910390a25050505050505050505050565b6000546001600160a01b03163314610cb85760405162461bcd60e51b81526004016106a0906132eb565b60018054821515600160a01b0260ff60a01b199091161790556040517f0e2fb031ee032dc02d8011dc50b816eb450cf856abd8261680dac74f72165bd290610d0590831515815260200190565b60405180910390a150565b6000546001600160a01b03163314610d3a5760405162461bcd60e51b81526004016106a0906132eb565b600060065411610d5c5760405162461bcd60e51b81526004016106a090613397565b6006546000908152600960209081526040808320600a90925290912060018254610100900460ff166003811115610d9557610d9561318c565b14610dd35760405162461bcd60e51b815260206004820152600e60248201526d4e6f7420636f6c6c656374696e6760901b60448201526064016106a0565b6000816002015411610e155760405162461bcd60e51b815260206004820152600b60248201526a4e6f206465706f7369747360a81b60448201526064016106a0565b60028101546001600160781b031015610e615760405162461bcd60e51b815260206004820152600e60248201526d506f6f6c20746f6f206c6172676560901b60448201526064016106a0565b815461020061ff00199091161782556002808301805463ffffffff861663ffffffff1990911617905581015460058201556040516370a0823160e01b81523060048201526001600160a01b037f000000000000000000000000000000000000000000000000000000000000000016906370a0823190602401602060405180830381865afa158015610ef6573d6000803e3d6000fd5b505050506040513d601f19601f82011682018060405250810190610f1a91906133d4565b6008820155600281015460078054600090610f36908490613347565b9091555050604080516101e081018252308152600060208201819052605a82840152845462ffffff600160d01b820416606084015260ff811615156080840152600160a0840152600360c084015260e0830182905260028501546001600160781b03166101008401526001600160401b036201000082048116610120850152600160501b82048116610140850152600160901b9091041661016083015261018082018190526101a082018190526101c082018190529151630b7f989f60e31b815290917f00000000000000000000000000000000000000000000000000000000000000006001600160a01b031691635bfcc4f89161103c9185916103e891600401613456565b600060405180830381600087803b15801561105657600080fd5b505af115801561106a573d6000803e3d6000fd5b505060065460028501546040805191825263ffffffff891660208301529193507fa677208bc5b8eaa0120e0169d8f9ea592d9bc704ef8cd4a3784d910fb4658f079250015b60405180910390a250505050565b60065481146111025760405162461bcd60e51b8152602060048201526011602482015270139bdd081858dd1a5d99481cda59db985b607a1b60448201526064016106a0565b6000818152600960209081526040808320600a90925290912060018254610100900460ff1660038111156111385761113861318c565b146111795760405162461bcd60e51b81526020600482015260116024820152704e6f7420696e20636f6c6c656374696e6760781b60448201526064016106a0565b8054611189906201518090613347565b42116111c55760405162461bcd60e51b815260206004820152600b60248201526a139bdd08195e1c1a5c995960aa1b60448201526064016106a0565b6002810180546005830155825461ff0019166103001783555460038201819055426001830155600780546000906111fd908490613347565b90915550506006805460009182905560028301546040805182815260208101929092528101929092529081907fba18b330376d9405519e92aa6a1ebbc93aad8b9f68b95c8805c9e9d8e3a46cd0906060016110af565b6002546002036112755760405162461bcd60e51b81526004016106a09061330e565b600280556000818152600960209081526040808320600a90925290912060018254610100900460ff1660038111156112af576112af61318c565b146112f35760405162461bcd60e51b8152602060048201526014602482015273151c98591948185b1c9958591e481bdc195b995960621b60448201526064016106a0565b336000908152600b602090815260408083208684529091529020805461132b5760405162461bcd60e51b81526004016106a09061359a565b600181015460ff16156113745760405162461bcd60e51b815260206004820152601160248201527020b63932b0b23c903bb4ba34323930bbb760791b60448201526064016106a0565b6001818101805460ff191690911790558054600080835560028401805483929061139f9084906133c1565b90915550506004830154156113c6576004830180549060006113c0836135bf565b91905055505b604051818152859033907f43389e74a5f67d287aa20ee5677bf6eaea427b4b436414723562a06c75debdc19060200160405180910390a360405163a9059cbb60e01b8152336004820152602481018290527f00000000000000000000000000000000000000000000000000000000000000006001600160a01b03169063a9059cbb906044016020604051808303816000875af115801561146a573d6000803e3d6000fd5b505050506040513d601f19601f8201168201806040525081019061148e919061335a565b6114aa5760405162461bcd60e51b81526004016106a090613377565b50506001600255505050565b6002546002036114d85760405162461bcd60e51b81526004016106a09061330e565b600280556000818152600960209081526040808320600a90925290912060038254610100900460ff1660038111156115125761151261318c565b1461154d5760405162461bcd60e51b815260206004820152600b60248201526a139bdd081cd95d1d1b195960aa1b60448201526064016106a0565b336000908152600b60209081526040808320868452909152902080546115855760405162461bcd60e51b81526004016106a09061359a565b600181015460ff16156115cc5760405162461bcd60e51b815260206004820152600f60248201526e105b1c9958591e4818db185a5b5959608a1b60448201526064016106a0565b6001818101805460ff19169091179055600682015460058301546000916115f2916133c1565b90506000811161162e5760405162461bcd60e51b8152602060048201526007602482015266139bc81c1bdbdb60ca1b60448201526064016106a0565b6000818360000154856003015461164591906133ed565b61164f9190613404565b90506000846007015485600301541161166957600061167d565b8460070154856003015461167d91906133c1565b90508082111561168b578091505b83546000908311156116c95784546000906116a690856133c1565b90506127108860010154826116bb91906133ed565b6116c59190613404565b9150505b60006116d582856133c1565b6040516370a0823160e01b81523060048201529091506000906001600160a01b037f000000000000000000000000000000000000000000000000000000000000000016906370a0823190602401602060405180830381865afa15801561173f573d6000803e3d6000fd5b505050506040513d601f19601f8201168201806040525081019061176391906133d4565b90508082111561177557809150600092505b82600560008282546117879190613347565b9091555061179790508383613347565b8860070160008282546117aa9190613347565b909155506117ba90508383613347565b600754106117e8576117cc8383613347565b600760008282546117dd91906133c1565b909155506117ee9050565b60006007555b60408051838152602081018590528b9133917f2a94bba74d07ed4238b20d39861968cc9e2cb42c6cba1fa45f0e897e128791c3910160405180910390a381156118de5760405163a9059cbb60e01b8152336004820152602481018390527f00000000000000000000000000000000000000000000000000000000000000006001600160a01b03169063a9059cbb906044016020604051808303816000875af115801561189e573d6000803e3d6000fd5b505050506040513d601f19601f820116820180604052508101906118c2919061335a565b6118de5760405162461bcd60e51b81526004016106a090613377565b505060016002555050505050505050565b6000546001600160a01b031633146119195760405162461bcd60e51b81526004016106a0906132eb565b60025460020361193b5760405162461bcd60e51b81526004016106a09061330e565b60028055600554806119795760405162461bcd60e51b81526020600482015260076024820152664e6f206665657360c81b60448201526064016106a0565b60006005556040518181527f9800e6f57aeb4360eaa72295a820a4293e1e66fbfcabcd8874ae141304a76deb9060200160405180910390a160005460405163a9059cbb60e01b81526001600160a01b039182166004820152602481018390527f00000000000000000000000000000000000000000000000000000000000000009091169063a9059cbb906044016020604051808303816000875af1158015611a25573d6000803e3d6000fd5b505050506040513d601f19601f82011682018060405250810190611a49919061335a565b611a655760405162461bcd60e51b81526004016106a090613377565b506001600255565b600254600203611a8f5760405162461bcd60e51b81526004016106a09061330e565b60028080556000828152600960209081526040808320600a90925290912090918254610100900460ff166003811115611aca57611aca61318c565b14611b085760405162461bcd60e51b815260206004820152600e60248201526d4e6f7420696e2074726164696e6760901b60448201526064016106a0565b8054611b189062093a8090613347565b4211611b525760405162461bcd60e51b8152602060048201526009602482015268546f6f206561726c7960b81b60448201526064016106a0565b336000908152600b6020908152604080832086845290915290208054611b8a5760405162461bcd60e51b81526004016106a09061359a565b600181015460ff1615611bd15760405162461bcd60e51b815260206004820152600f60248201526e105b1c9958591e4818db185a5b5959608a1b60448201526064016106a0565b6001818101805460ff191690911790558054600683018054829190600090611bfa908490613347565b9091555050600583015460068401541115611c4c5760405162461bcd60e51b8152602060048201526012602482015271456d657267656e6379206f766572666c6f7760701b60448201526064016106a0565b600483015415611c6e57600483018054906000611c68836135bf565b91905055505b8060075410611c8f578060076000828254611c8991906133c1565b90915550505b6040516370a0823160e01b81523060048201526000907f00000000000000000000000000000000000000000000000000000000000000006001600160a01b0316906370a0823190602401602060405180830381865afa158015611cf6573d6000803e3d6000fd5b505050506040513d601f19601f82011682018060405250810190611d1a91906133d4565b90506000818311611d2b5782611d2d565b815b6040805182815260006020820152919250889133917f2a94bba74d07ed4238b20d39861968cc9e2cb42c6cba1fa45f0e897e128791c3910160405180910390a38015611e205760405163a9059cbb60e01b8152336004820152602481018290527f00000000000000000000000000000000000000000000000000000000000000006001600160a01b03169063a9059cbb906044016020604051808303816000875af1158015611de0573d6000803e3d6000fd5b505050506040513d601f19601f82011682018060405250810190611e04919061335a565b611e205760405162461bcd60e51b81526004016106a090613377565b505060016002555050505050565b6000546001600160a01b03163314611e585760405162461bcd60e51b81526004016106a0906132eb565b600254600203611e7a5760405162461bcd60e51b81526004016106a09061330e565b6002805560065415611ebe5760405162461bcd60e51b815260206004820152600d60248201526c5369676e616c2061637469766560981b60448201526064016106a0565b600854811115611f065760405162461bcd60e51b8152602060048201526013602482015272135bdc99481d1a185b8819195c1bdcda5d1959606a1b60448201526064016106a0565b6040516370a0823160e01b81523060048201526000907f00000000000000000000000000000000000000000000000000000000000000006001600160a01b0316906370a0823190602401602060405180830381865afa158015611f6d573d6000803e3d6000fd5b505050506040513d601f19601f82011682018060405250810190611f9191906133d4565b905060055460075483611fa49190613347565b611fae9190613347565b811015611ff65760405162461bcd60e51b8152602060048201526016602482015275576f756c6420756e64657266756e6420636c61696d7360501b60448201526064016106a0565b816008600082825461200891906133c1565b909155505060005460405163a9059cbb60e01b81526001600160a01b039182166004820152602481018490527f00000000000000000000000000000000000000000000000000000000000000009091169063a9059cbb906044016020604051808303816000875af1158015612081573d6000803e3d6000fd5b505050506040513d601f19601f820116820180604052508101906120a5919061335a565b6120c15760405162461bcd60e51b81526004016106a090613377565b50506001600255565b6000546001600160a01b031633146120f45760405162461bcd60e51b81526004016106a0906132eb565b6000600654116121165760405162461bcd60e51b81526004016106a090613397565b600654600090815260096020526040902060028154610100900460ff1660038111156121445761214461318c565b1461217f5760405162461bcd60e51b815260206004820152600b60248201526a4e6f742074726164696e6760a81b60448201526064016106a0565b600281015463ffffffff8481169116146121cf5760405162461bcd60e51b81526020600482015260116024820152700aee4dedcce40e8e4c2c8ca40d2dcc8caf607b1b60448201526064016106a0565b6040516336ce736b60e01b815263ffffffff841660048201526001600160401b03831660248201527f00000000000000000000000000000000000000000000000000000000000000006001600160a01b0316906336ce736b90604401600060405180830381600087803b15801561224557600080fd5b505af1158015612259573d6000803e3d6000fd5b50505050505050565b6000546001600160a01b0316331461228c5760405162461bcd60e51b81526004016106a0906132eb565b6001600160a01b0381166122ce5760405162461bcd60e51b81526020600482015260096024820152682d32b9379030b2323960b91b60448201526064016106a0565b600180546001600160a01b0319166001600160a01b0383169081179091556040517f7e5a44b25c18c9c756d8bb0c33e9f77d9ab83dc254932c8a69436f23ab74f63490600090a250565b6000546001600160a01b031633146123425760405162461bcd60e51b81526004016106a0906132eb565b6000600654116123645760405162461bcd60e51b81526004016106a090613397565b6006546000908152600960209081526040808320600a90925290912060018254610100900460ff16600381111561239d5761239d61318c565b146123f45760405162461bcd60e51b815260206004820152602160248201527f43616e206f6e6c792063616e63656c20647572696e6720636f6c6c656374696f6044820152603760f91b60648201526084016106a0565b6002810180546005830155825461ff00191661030017835554600382018190554260018301556007805460009061242c908490613347565b90915550506006805460009182905560028301546040805182815260208101929092528101929092529081907fba18b330376d9405519e92aa6a1ebbc93aad8b9f68b95c8805c9e9d8e3a46cd09060600160405180910390a2505050565b6000546001600160a01b031633146124b45760405162461bcd60e51b81526004016106a0906132eb565b6107d08111156124f05760405162461bcd60e51b81526020600482015260076024820152664d61782032302560c81b60448201526064016106a0565b60038190556040518181527f8c4d35e54a3f2ef1134138fd8ea3daee6a3c89e10d2665996babdf70261e2c7690602001610d05565b6000546001600160a01b0316331461254f5760405162461bcd60e51b81526004016106a0906132eb565b600154600160a01b900460ff16156125925760405162461bcd60e51b815260206004820152600660248201526514185d5cd95960d21b60448201526064016106a0565b6107d08162ffffff16101580156125b157506203d0908162ffffff1611155b6125eb5760405162461bcd60e51b815260206004820152600b60248201526a098caec4064f05a646a60f60ab1b60448201526064016106a0565b6000846001600160401b031611801561260d57506000836001600160401b0316115b801561262257506000826001600160401b0316115b61265b5760405162461bcd60e51b815260206004820152600a6024820152694261642070726963657360b01b60448201526064016106a0565b600654156126ab5760405162461bcd60e51b815260206004820152601960248201527f436c6f736520616374697665207369676e616c2066697273740000000000000060448201526064016106a0565b841561272857836001600160401b0316836001600160401b03161180156126e35750836001600160401b0316826001600160401b0316105b6127235760405162461bcd60e51b8152602060048201526011602482015270131bdb99ce8815140f995b9d1c9e4f94d3607a1b60448201526064016106a0565b61279b565b836001600160401b0316836001600160401b031610801561275a5750836001600160401b0316826001600160401b0316115b61279b5760405162461bcd60e51b815260206004820152601260248201527114da1bdc9d0e8815140f195b9d1c9e4f14d360721b60448201526064016106a0565b600480549060006127ab836135d6565b90915550506040805161010080820183528715158252600160208084019182526001600160401b038981168587015288811660608601528716608085015262ffffff861660a08501526003805460c0860152600060e08601819052600454815260099092529490208351815490151560ff1982168117835592519495919493859361ff00191661ffff199092169190911791849081111561284e5761284e61318c565b0217905550604082810151825460608086015160808088015160a0808a015162ffffff16600160d01b0262ffffff60d01b196001600160401b03938416600160901b02166affffffffffffffffffffff60901b19958416600160501b0267ffffffffffffffff60501b199490991662010000029390931671ffffffffffffffffffffffffffffffff0000199097169690961796909617929092169190911792909217855560c08087015160018088019190915560e0978801516002978801805463ffffffff90921663ffffffff1990921691909117905585516101208101875242815260006020808301828152838a018381529684018381529784018381529884018381529584018381529b84018381526101008501848152600480548652600a909452938b90209451855590519484019490945594519882019890985593516003850155935183830155516005830155945160068083019190915591516007820155925160089093019290925591549081905590517fb3d05fed32daec5aa56697b6be763432a7921ad08804e3fd7be57f5ffd8e84db90612a29908890889088908890889094151585526001600160401b0393841660208601529183166040850152909116606083015262ffffff16608082015260a00190565b60405180910390a25050505050565b6000818152600960209081526040808320600a83528184206001600160a01b0387168552600b845282852086865290935290832080549192911580612a815750600181015460ff165b80612aa7575060038354610100900460ff166003811115612aa457612aa461318c565b14155b15612ab85760009350505050612b9e565b600082600601548360050154612ace91906133c1565b905080600003612ae5576000945050505050612b9e565b60008183600001548560030154612afc91906133ed565b612b069190613404565b905060008460070154856003015411612b20576000612b34565b84600701548560030154612b3491906133c1565b905080821115612b42578091505b8354821115612b96578354600090612b5a90846133c1565b90506000612710886001015483612b7191906133ed565b612b7b9190613404565b9050612b8781856133c1565b98505050505050505050612b9e565b509450505050505b92915050565b600c6020528160005260406000208181548110612bc057600080fd5b90600052602060002001600091509150505481565b600154600160a01b900460ff1615612c185760405162461bcd60e51b815260206004820152600660248201526514185d5cd95960d21b60448201526064016106a0565b600254600203612c3a5760405162461bcd60e51b81526004016106a09061330e565b60028055600654612c5d5760405162461bcd60e51b81526004016106a090613397565b6006546000908152600960209081526040808320600a90925290912060018254610100900460ff166003811115612c9657612c9661318c565b14612cdc5760405162461bcd60e51b81526020600482015260166024820152754e6f7420616363657074696e67206465706f7369747360501b60448201526064016106a0565b6000546001600160a01b03163303612d2f5760405162461bcd60e51b815260206004820152601660248201527510591b5a5b881d5cd94818591b5a5b91195c1bdcda5d60521b60448201526064016106a0565b624c4b40831015612d6f5760405162461bcd60e51b815260206004820152600a6024820152694d696e2035205553444360b01b60448201526064016106a0565b640ba43b7400831115612db55760405162461bcd60e51b815260206004820152600e60248201526d4d6178203530303030205553444360901b60448201526064016106a0565b64746a528800838260020154612dcb9190613347565b1115612e055760405162461bcd60e51b8152602060048201526009602482015268141bdbdb08199d5b1b60ba1b60448201526064016106a0565b336000908152600b60209081526040808320600654845290915290208054158015612e355750600181015460ff16155b612e755760405162461bcd60e51b8152602060048201526011602482015270105b1c9958591e4819195c1bdcda5d1959607a1b60448201526064016106a0565b6040805180820182528581526000602080830182815233808452600b83528584206006805486529084528685209551865591516001958601805460ff19169115159190911790558352600c8252938220935484549384018555938252812090910191909155600283018054869290612eee908490613347565b9091555050600482018054906000612f05836135d6565b909155505060065460405185815233907f9fa0303acb2d73e4e86bf54dd3fba8208feacfb4f5a79175dc1f36b674da0dbb9060200160405180910390a36040516323b872dd60e01b8152336004820152306024820152604481018590527f00000000000000000000000000000000000000000000000000000000000000006001600160a01b0316906323b872dd906064016020604051808303816000875af1158015612fb5573d6000803e3d6000fd5b505050506040513d601f19601f82011682018060405250810190612fd9919061335a565b6130175760405162461bcd60e51b815260206004820152600f60248201526e151c985b9cd9995c8819985a5b1959608a1b60448201526064016106a0565b505060016002555050565b6001600160a01b0381166000908152600c602090815260409182902080548351818402810184019094528084526060939283018282801561308257602002820191906000526020600020905b81548152602001906001019080831161306e575b50505050509050919050565b6000602082840312156130a057600080fd5b5035919050565b80151581146130b557600080fd5b50565b6000602082840312156130ca57600080fd5b81356130d5816130a7565b9392505050565b803563ffffffff811681146130f057600080fd5b919050565b60006020828403121561310757600080fd5b6130d5826130dc565b80356001600160401b03811681146130f057600080fd5b6000806040838503121561313a57600080fd5b613143836130dc565b915061315160208401613110565b90509250929050565b80356001600160a01b03811681146130f057600080fd5b60006020828403121561318357600080fd5b6130d58261315a565b634e487b7160e01b600052602160045260246000fd5b88151581526101008101600489106131bc576131bc61318c565b60208201989098526001600160401b039687166040820152948616606086015292909416608084015262ffffff1660a083015260c082019290925263ffffffff90911660e090910152919050565b600080600080600060a0868803121561322257600080fd5b853561322d816130a7565b945061323b60208701613110565b935061324960408701613110565b925061325760608701613110565b9150608086013562ffffff8116811461326f57600080fd5b809150509295509295909350565b6000806040838503121561329057600080fd5b6132998361315a565b946020939093013593505050565b6020808252825182820181905260009190848201906040850190845b818110156132df578351835292840192918401916001016132c3565b50909695505050505050565b6020808252600990820152682737ba1030b236b4b760b91b604082015260600190565b6020808252600990820152681499595b9d1c985b9d60ba1b604082015260600190565b634e487b7160e01b600052601160045260246000fd5b80820180821115612b9e57612b9e613331565b60006020828403121561336c57600080fd5b81516130d5816130a7565b60208082526006908201526511985a5b195960d21b604082015260600190565b60208082526010908201526f139bc81858dd1a5d99481cda59db985b60821b604082015260600190565b81810381811115612b9e57612b9e613331565b6000602082840312156133e657600080fd5b5051919050565b8082028115828204841417612b9e57612b9e613331565b60008261342157634e487b7160e01b600052601260045260246000fd5b500490565b6000600160ff1b820161343b5761343b613331565b5060000390565b600381106134525761345261318c565b9052565b83516001600160a01b031681526102208101602085015161347f602084018263ffffffff169052565b506040850151613495604084018261ffff169052565b5060608501516134ac606084018262ffffff169052565b5060808501516134c0608084018215159052565b5060a08501516134d460a084018215159052565b5060c08501516134e960c084018260ff169052565b5060e08501516134fc60e0840182613442565b50610100858101516001600160781b031690830152610120808601516001600160401b0390811691840191909152610140808701518216908401526101608087015190911690830152610180808601511515908301526101a0808601516001600160a01b03908116918401919091526101c09586015162ffffff169583019590955261ffff939093166101e082015292166102009092019190915290565b6020808252600b908201526a2737903837b9b4ba34b7b760a91b604082015260600190565b6000816135ce576135ce613331565b506000190190565b6000600182016135e8576135e8613331565b506001019056fea2646970667358221220b332274542a1dae8c86b721d83e673fc52aaa4538200896c5a84c1ec56dc694a64736f6c63430008130033",
  "linkReferences": {},
  "deployedLinkReferences": {}
}