{
  "_format": "hh-sol-artifact-1",
  "contractName": "MockUSDC",
  "sourceName": "contracts/mocks/MockUSDC.sol",
  "abi": [
    {
      "inputs": [
        {
          "internalType": "address",
          "name": "",
          "type": "address"
        },
        {
          "internalType": "address",
          "name": "",
          "type": "address"
        }
      ],
      "name": "allowance",
      "outputs": [
        {
          "internalType": "uint256",
          "name": "",
          "type": "uint256"
        }
      ],
      "stateMutability": "view",
      "type": "function"
    },
    {
      "inputs": [
        {
          "internalType": "address",
          "name": "spender",
          "type": "address"
        },
        {
          "internalType": "uint256",
          "name": "amount",
          "type": "uint256"
        }
      ],
      "name": "approve",
      "outputs": [
        {
          "internalType": "bool",
          "name": "",
          "type": "bool"
        }
      ],
      "stateMutability": "nonpayable",
      "type": "function"
    },
    {
      "inputs": [
        {
          "internalType": "address",
          "name": "",
          "type": "address"
        }
      ],
      "name": "balanceOf",
      "outputs": [
        {
          "internalType": "uint256",
          "name": "",
          "type": "uint256"
        }
      ],
      "stateMutability": "view",
      "type": "function"
    },
    {
      "inputs": [],
      "name": "decimals",
      "outputs": [
        {
          "internalType": "uint8",
          "name": "",
          "type": "uint8"
        }
      ],
      "stateMutability": "view",
      "type": "function"
    },
    {
      "inputs": [
        {
          "internalType": "address",
          "name": "to",
          "type": "address"
        },
        {
          "internalType": "uint256",
          "name": "amount",
          "type": "uint256"
        }
      ],
      "name": "mint",
      "outputs": [],
      "stateMutability": "nonpayable",
      "type": "function"
    },
    {
      "inputs": [],
      "name": "name",
      "outputs": [
        {
          "internalType": "string",
          "name": "",
          "type": "string"
        }
      ],
      "stateMutability": "view",
      "type": "function"
    },
    {
      "inputs": [],
      "name": "symbol",
      "outputs": [
        {
          "internalType": "string",
          "name": "",
          "type": "string"
        }
      ],
      "stateMutability": "view",
      "type": "function"
    },
    {
      "inputs": [
        {
          "internalType": "address",
          "name": "to",
          "type": "address"
        },
        {
          "internalType": "uint256",
          "name": "amount",
          "type": "uint256"
        }
      ],
      "name": "transfer",
      "outputs": [
        {
          "internalType": "bool",
          "name": "",
          "type": "bool"
        }
      ],
      "stateMutability": "nonpayable",
      "type": "function"
    },
    {
      "inputs": [
        {
          "internalType": "address",
          "name": "from",
          "type": "address"
        },
        {
          "internalType": "address",
          "name": "to",
          "type": "address"
        },
        {
          "internalType": "uint256",
          "name": "amount",
          "type": "uint256"
        }
      ],
      "name": "transferFrom",
      "outputs": [
        {
          "internalType": "bool",
          "name": "",
          "type": "bool"
        }
      ],
      "stateMutability": "nonpayable",
      "type": "function"
    }
  ],
  "bytecode": "0x60c060405260086080908152672aa9a21021b7b4b760c11b60a052600090610027908261010f565b506040805180820190915260048152635553444360e01b6020820152600190610050908261010f565b506002805460ff1916600617905534801561006a57600080fd5b506101ce565b634e487b7160e01b600052604160045260246000fd5b600181811c9082168061009a57607f821691505b6020821081036100ba57634e487b7160e01b600052602260045260246000fd5b50919050565b601f82111561010a57600081815260208120601f850160051c810160208610156100e75750805b601f850160051c820191505b81811015610106578281556001016100f3565b5050505b505050565b81516001600160401b0381111561012857610128610070565b61013c816101368454610086565b846100c0565b602080601f83116001811461017157600084156101595750858301515b600019600386901b1c1916600185901b178555610106565b600085815260208120601f198616915b828110156101a057888601518255948401946001909101908401610181565b50858210156101be5787850151600019600388901b60f8161c191681555b5050505050600190811b01905550565b610662806101dd6000396000f3fe608060405234801561001057600080fd5b50600436106100935760003560e01c806340c10f191161006657806340c10f191461010b57806370a082311461012057806395d89b411461014e578063a9059cbb14610156578063dd62ed3e1461016957600080fd5b806306fdde0314610098578063095ea7b3146100b657806323b872dd146100d9578063313ce567146100ec575b600080fd5b6100a0610194565b6040516100ad9190610491565b60405180910390f35b6100c96100c43660046104fb565b610222565b60405190151581526020016100ad565b6100c96100e7366004610525565b610251565b6002546100f99060ff1681565b60405160ff90911681526020016100ad565b61011e6101193660046104fb565b6103ab565b005b61014061012e366004610561565b60036020526000908152604090205481565b6040519081526020016100ad565b6100a06103dc565b6100c96101643660046104fb565b6103e9565b610140610177366004610583565b600460209081526000928352604080842090915290825290205481565b600080546101a1906105b6565b80601f01602080910402602001604051908101604052809291908181526020018280546101cd906105b6565b801561021a5780601f106101ef5761010080835404028352916020019161021a565b820191906000526020600020905b8154815290600101906020018083116101fd57829003601f168201915b505050505081565b3360009081526004602090815260408083206001600160a01b0386168452909152902081905560015b92915050565b6001600160a01b0383166000908152600360205260408120548211156102ad5760405162461bcd60e51b815260206004820152600c60248201526b125b9cdd59999a58da595b9d60a21b60448201526064015b60405180910390fd5b6001600160a01b038416600090815260046020908152604080832033845290915290205482111561030f5760405162461bcd60e51b815260206004820152600c60248201526b139bdd08185c1c1c9bdd995960a21b60448201526064016102a4565b6001600160a01b038416600090815260046020908152604080832033845290915281208054849290610342908490610606565b90915550506001600160a01b0384166000908152600360205260408120805484929061036f908490610606565b90915550506001600160a01b0383166000908152600360205260408120805484929061039c908490610619565b90915550600195945050505050565b6001600160a01b038216600090815260036020526040812080548392906103d3908490610619565b90915550505050565b600180546101a1906105b6565b336000908152600360205260408120548211156104375760405162461bcd60e51b815260206004820152600c60248201526b125b9cdd59999a58da595b9d60a21b60448201526064016102a4565b3360009081526003602052604081208054849290610456908490610606565b90915550506001600160a01b03831660009081526003602052604081208054849290610483908490610619565b909155506001949350505050565b600060208083528351808285015260005b818110156104be578581018301518582016040015282016104a2565b506000604082860101526040601f19601f8301168501019250505092915050565b80356001600160a01b03811681146104f657600080fd5b919050565b6000806040838503121561050e57600080fd5b610517836104df565b946020939093013593505050565b60008060006060848603121561053a57600080fd5b610543846104df565b9250610551602085016104df565b9150604084013590509250925092565b60006020828403121561057357600080fd5b61057c826104df565b9392505050565b6000806040838503121561059657600080fd5b61059f836104df565b91506105ad602084016104df565b90509250929050565b600181811c908216806105ca57607f821691505b6020821081036105ea57634e487b7160e01b600052602260045260246000fd5b50919050565b634e487b7160e01b600052601160045260246000fd5b8181038181111561024b5761024b6105f0565b8082018082111561024b5761024b6105f056fea2646970667358221220204003c6066c71cb7f1ecb5df35dcfad07a69d9b59862ccbd4c85df206dd085464736f6c63430008130033",
  "linkReferences": {},
  "deployedLinkReferences": {}
}