{"abi":[{"type":"constructor","inputs":[{"name":"_usdc","type":"address","internalType":"address"},{"name":"_diamond","type":"address","internalType":"address"}],"stateMutability":"nonpayable"},{"type":"function","name":"BASIS_POINTS","inputs":[],"outputs":[{"name":"","type":"uint256","internalType":"uint256"}],"stateMutability":"view"},{"type":"function","name":"COLLECTING_TIMEOUT","inputs":[],"outputs":[{"name":"","type":"uint256","internalType":"uint256"}],"stateMutability":"view"},{"type":"function","name":"EMERGENCY_DELAY","inputs":[],"outputs":[{"name":"","type":"uint256","internalType":"uint256"}],"stateMutability":"view"},{"type":"function","name":"MAX_DEPOSIT","inputs":[],"outputs":[{"name":"","type":"uint256","internalType":"uint256"}],"stateMutability":"view"},{"type":"function","name":"MAX_POOL","inputs":[],"outputs":[{"name":"","type":"uint256","internalType":"uint256"}],"stateMutability":"view"},{"type":"function","name":"MIN_DEPOSIT","inputs":[],"outputs":[{"name":"","type":"uint256","internalType":"uint256"}],"stateMutability":"view"},{"type":"function","name":"acceptAdmin","inputs":[],"outputs":[],"stateMutability":"nonpayable"},{"type":"function","name":"activeSignalId","inputs":[],"outputs":[{"name":"","type":"uint256","internalType":"uint256"}],"stateMutability":"view"},{"type":"function","name":"admin","inputs":[],"outputs":[{"name":"","type":"address","internalType":"address"}],"stateMutability":"view"},{"type":"function","name":"adminDeposit","inputs":[{"name":"_amount","type":"uint256","internalType":"uint256"}],"outputs":[],"stateMutability":"nonpayable"},{"type":"function","name":"adminWithdrawDeposit","inputs":[{"name":"_amount","type":"uint256","internalType":"uint256"}],"outputs":[],"stateMutability":"nonpayable"},{"type":"function","name":"cancelSignal","inputs":[],"outputs":[],"stateMutability":"nonpayable"},{"type":"function","name":"claim","inputs":[{"name":"_signalId","type":"uint256","internalType":"uint256"}],"outputs":[],"stateMutability":"nonpayable"},{"type":"function","name":"closeTrade","inputs":[{"name":"_index","type":"uint32","internalType":"uint32"},{"name":"_expectedPrice","type":"uint64","internalType":"uint64"}],"outputs":[],"stateMutability":"nonpayable"},{"type":"function","name":"deposit","inputs":[{"name":"_amount","type":"uint256","internalType":"uint256"}],"outputs":[],"stateMutability":"nonpayable"},{"type":"function","name":"diamond","inputs":[],"outputs":[{"name":"","type":"address","internalType":"contract IGNSMultiCollatDiamond"}],"stateMutability":"view"},{"type":"function","name":"emergencyWithdraw","inputs":[{"name":"_signalId","type":"uint256","internalType":"uint256"}],"outputs":[],"stateMutability":"nonpayable"},{"type":"function","name":"feePercent","inputs":[],"outputs":[{"name":"","type":"uint256","internalType":"uint256"}],"stateMutability":"view"},{"type":"function","name":"getActiveSignalId","inputs":[],"outputs":[{"name":"","type":"uint256","internalType":"uint256"}],"stateMutability":"view"},{"type":"function","name":"getExpectedPayout","inputs":[{"name":"_user","type":"address","internalType":"address"},{"name":"_id","type":"uint256","internalType":"uint256"}],"outputs":[{"name":"","type":"uint256","internalType":"uint256"}],"stateMutability":"view"},{"type":"function","name":"getUserSignalIds","inputs":[{"name":"_user","type":"address","internalType":"address"}],"outputs":[{"name":"","type":"uint256[]","internalType":"uint256[]"}],"stateMutability":"view"},{"type":"function","name":"openTrade","inputs":[{"name":"_gTradeIndex","type":"uint32","internalType":"uint32"}],"outputs":[],"stateMutability":"nonpayable"},{"type":"function","name":"paused","inputs":[],"outputs":[{"name":"","type":"bool","internalType":"bool"}],"stateMutability":"view"},{"type":"function","name":"pendingAdmin","inputs":[],"outputs":[{"name":"","type":"address","internalType":"address"}],"stateMutability":"view"},{"type":"function","name":"positions","inputs":[{"name":"","type":"address","internalType":"address"},{"name":"","type":"uint256","internalType":"uint256"}],"outputs":[{"name":"deposit","type":"uint256","internalType":"uint256"},{"name":"claimed","type":"bool","internalType":"bool"}],"stateMutability":"view"},{"type":"function","name":"postSignal","inputs":[{"name":"_long","type":"bool","internalType":"bool"},{"name":"_entry","type":"uint64","internalType":"uint64"},{"name":"_tp","type":"uint64","internalType":"uint64"},{"name":"_sl","type":"uint64","internalType":"uint64"},{"name":"_lev","type":"uint24","internalType":"uint24"}],"outputs":[],"stateMutability":"nonpayable"},{"type":"function","name":"reservedForSignals","inputs":[],"outputs":[{"name":"","type":"uint256","internalType":"uint256"}],"stateMutability":"view"},{"type":"function","name":"setFeePercent","inputs":[{"name":"_fee","type":"uint256","internalType":"uint256"}],"outputs":[],"stateMutability":"nonpayable"},{"type":"function","name":"setPaused","inputs":[{"name":"_paused","type":"bool","internalType":"bool"}],"outputs":[],"stateMutability":"nonpayable"},{"type":"function","name":"settleSignal","inputs":[{"name":"_totalReturned","type":"uint256","internalType":"uint256"}],"outputs":[],"stateMutability":"nonpayable"},{"type":"function","name":"signalCore","inputs":[{"name":"","type":"uint256","internalType":"uint256"}],"outputs":[{"name":"long","type":"bool","internalType":"bool"},{"name":"phase","type":"uint8","internalType":"enum GoldCopyTraderV2.SignalPhase"},{"name":"entryPrice","type":"uint64","internalType":"uint64"},{"name":"tp","type":"uint64","internalType":"uint64"},{"name":"sl","type":"uint64","internalType":"uint64"},{"name":"leverage","type":"uint24","internalType":"uint24"},{"name":"feeAtCreation","type":"uint256","internalType":"uint256"},{"name":"gTradeIndex","type":"uint32","internalType":"uint32"}],"stateMutability":"view"},{"type":"function","name":"signalCount","inputs":[],"outputs":[{"name":"","type":"uint256","internalType":"uint256"}],"stateMutability":"view"},{"type":"function","name":"signalMeta","inputs":[{"name":"","type":"uint256","internalType":"uint256"}],"outputs":[{"name":"timestamp","type":"uint256","internalType":"uint256"},{"name":"closedAt","type":"uint256","internalType":"uint256"},{"name":"totalDeposited","type":"uint256","internalType":"uint256"},{"name":"totalReturned","type":"uint256","internalType":"uint256"},{"name":"copierCount","type":"uint256","internalType":"uint256"},{"name":"originalDeposited","type":"uint256","internalType":"uint256"},{"name":"totalEmergencyWithdrawn","type":"uint256","internalType":"uint256"},{"name":"totalClaimed","type":"uint256","internalType":"uint256"},{"name":"balanceAtOpen","type":"uint256","internalType":"uint256"}],"stateMutability":"view"},{"type":"function","name":"totalAdminDeposited","inputs":[],"outputs":[{"name":"","type":"uint256","internalType":"uint256"}],"stateMutability":"view"},{"type":"function","name":"totalFeesCollected","inputs":[],"outputs":[{"name":"","type":"uint256","internalType":"uint256"}],"stateMutability":"view"},{"type":"function","name":"transferAdmin","inputs":[{"name":"_newAdmin","type":"address","internalType":"address"}],"outputs":[],"stateMutability":"nonpayable"},{"type":"function","name":"usdc","inputs":[],"outputs":[{"name":"","type":"address","internalType":"contract IERC20"}],"stateMutability":"view"},{"type":"function","name":"userCancelExpiredSignal","inputs":[{"name":"_signalId","type":"uint256","internalType":"uint256"}],"outputs":[],"stateMutability":"nonpayable"},{"type":"function","name":"userSignalIds","inputs":[{"name":"","type":"address","internalType":"address"},{"name":"","type":"uint256","internalType":"uint256"}],"outputs":[{"name":"","type":"uint256","internalType":"uint256"}],"stateMutability":"view"},{"type":"function","name":"withdrawDeposit","inputs":[{"name":"_signalId","type":"uint256","internalType":"uint256"}],"outputs":[],"stateMutability":"nonpayable"},{"type":"function","name":"withdrawFees","inputs":[],"outputs":[],"stateMutability":"nonpayable"},{"type":"event","name":"AdminDeposited","inputs":[{"name":"amount","type":"uint256","indexed":false,"internalType":"uint256"}],"anonymous":false},{"type":"event","name":"AdminTransferStarted","inputs":[{"name":"newAdmin","type":"address","indexed":true,"internalType":"address"}],"anonymous":false},{"type":"event","name":"AdminTransferred","inputs":[{"name":"oldAdmin","type":"address","indexed":true,"internalType":"address"},{"name":"newAdmin","type":"address","indexed":true,"internalType":"address"}],"anonymous":false},{"type":"event","name":"FeeUpdated","inputs":[{"name":"newFeePercent","type":"uint256","indexed":false,"internalType":"uint256"}],"anonymous":false},{"type":"event","name":"FeesWithdrawn","inputs":[{"name":"amount","type":"uint256","indexed":false,"internalType":"uint256"}],"anonymous":false},{"type":"event","name":"Paused","inputs":[{"name":"isPaused","type":"bool","indexed":false,"internalType":"bool"}],"anonymous":false},{"type":"event","name":"SignalOpened","inputs":[{"name":"signalId","type":"uint256","indexed":true,"internalType":"uint256"},{"name":"totalDeposited","type":"uint256","indexed":false,"internalType":"uint256"},{"name":"gTradeIndex","type":"uint32","indexed":false,"internalType":"uint32"}],"anonymous":false},{"type":"event","name":"SignalPosted","inputs":[{"name":"signalId","type":"uint256","indexed":true,"internalType":"uint256"},{"name":"long","type":"bool","indexed":false,"internalType":"bool"},{"name":"entryPrice","type":"uint64","indexed":false,"internalType":"uint64"},{"name":"tp","type":"uint64","indexed":false,"internalType":"uint64"},{"name":"sl","type":"uint64","indexed":false,"internalType":"uint64"},{"name":"leverage","type":"uint24","indexed":false,"internalType":"uint24"}],"anonymous":false},{"type":"event","name":"SignalSettled","inputs":[{"name":"signalId","type":"uint256","indexed":true,"internalType":"uint256"},{"name":"totalDeposited","type":"uint256","indexed":false,"internalType":"uint256"},{"name":"totalReturned","type":"uint256","indexed":false,"internalType":"uint256"},{"name":"resultPct","type":"int256","indexed":false,"internalType":"int256"}],"anonymous":false},{"type":"event","name":"UserClaimed","inputs":[{"name":"user","type":"address","indexed":true,"internalType":"address"},{"name":"signalId","type":"uint256","indexed":true,"internalType":"uint256"},{"name":"payout","type":"uint256","indexed":false,"internalType":"uint256"},{"name":"fee","type":"uint256","indexed":false,"internalType":"uint256"}],"anonymous":false},{"type":"event","name":"UserDeposited","inputs":[{"name":"user","type":"address","indexed":true,"internalType":"address"},{"name":"signalId","type":"uint256","indexed":true,"internalType":"uint256"},{"name":"amount","type":"uint256","indexed":false,"internalType":"uint256"}],"anonymous":false},{"type":"event","name":"UserWithdrawn","inputs":[{"name":"user","type":"address","indexed":true,"internalType":"address"},{"name":"signalId","type":"uint256","indexed":true,"internalType":"uint256"},{"name":"amount","type":"uint256","indexed":false,"internalType":"uint256"}],"anonymous":false}],"bytecode":{"object":"0x60c06040526107d06003553480156200001757600080fd5b5060405162006c1738038062006c1783398181016040528101906200003d9190620002b2565b600073ffffffffffffffffffffffffffffffffffffffff168273ffffffffffffffffffffffffffffffffffffffff1614158015620000a85750600073ffffffffffffffffffffffffffffffffffffffff168173ffffffffffffffffffffffffffffffffffffffff1614155b620000ea576040517f08c379a0000000000000000000000000000000000000000000000000000000008152600401620000e1906200035a565b60405180910390fd5b336000806101000a81548173ffffffffffffffffffffffffffffffffffffffff021916908373ffffffffffffffffffffffffffffffffffffffff16021790555060016002819055508173ffffffffffffffffffffffffffffffffffffffff1660808173ffffffffffffffffffffffffffffffffffffffff16815250508073ffffffffffffffffffffffffffffffffffffffff1660a08173ffffffffffffffffffffffffffffffffffffffff168152505060805173ffffffffffffffffffffffffffffffffffffffff1663095ea7b3827fffffffffffffffffffffffffffffffffffffffffffffffffffffffffffffffff6040518363ffffffff1660e01b8152600401620001f9929190620003a8565b6020604051808303816000875af115801562000219573d6000803e3d6000fd5b505050506040513d601f19601f820116820180604052508101906200023f919062000412565b50505062000444565b600080fd5b600073ffffffffffffffffffffffffffffffffffffffff82169050919050565b60006200027a826200024d565b9050919050565b6200028c816200026d565b81146200029857600080fd5b50565b600081519050620002ac8162000281565b92915050565b60008060408385031215620002cc57620002cb62000248565b5b6000620002dc858286016200029b565b9250506020620002ef858286016200029b565b9150509250929050565b600082825260208201905092915050565b7f5a65726f20616464720000000000000000000000000000000000000000000000600082015250565b600062000342600983620002f9565b91506200034f826200030a565b602082019050919050565b60006020820190508181036000830152620003758162000333565b9050919050565b62000387816200026d565b82525050565b6000819050919050565b620003a2816200038d565b82525050565b6000604082019050620003bf60008301856200037c565b620003ce602083018462000397565b9392505050565b60008115159050919050565b620003ec81620003d5565b8114620003f857600080fd5b50565b6000815190506200040c81620003e1565b92915050565b6000602082840312156200042b576200042a62000248565b5b60006200043b84828501620003fb565b91505092915050565b60805160a05161674b620004cc600039600081816115fe01528181612efc015261440001526000818161088101528181610d2b015281816113d501528181611b8a01528181611f7e01528181612109015281816121fb01528181612381015281816127a4015281816128ae01528181612b0201528181612c1401526142bf015261674b6000f3fe608060405234801561001057600080fd5b50600436106102535760003560e01c806375829def11610146578063a5534664116100c3578063e1e158a511610087578063e1e158a514610684578063e1f1c4a7146106a2578063f0b7db4e146106c0578063f23fae93146106de578063f851a440146106fc578063fc6fee9c1461071a57610253565b8063a5534664146105cb578063ae0041aa146105fb578063b6b55f2514610619578063c1be667714610635578063dd5967c31461066657610253565b806380447e321161010a57806380447e321461050b57806382944e2d14610543578063888bc3721461056157806399d8528e1461057f578063a55190361461059b57610253565b806375829def1461047457806378739f47146104905780637a88d0b51461049a5780637ce3489b146104d15780637fd6f15c146104ed57610253565b8063379607f5116101d45780635312ea8e116101985780635312ea8e146103e457806355e267ff146104005780635c975abb1461041c57806360c6d8ae1461043a5780636cca67a81461045857610253565b8063379607f5146103645780633e413bee14610380578063476343ee1461039e578063486834a3146103a85780634cb96a92146103c657610253565b806327dde56c1161021b57806327dde56c146102d457806328d3bf0a146102f05780632c3c91c91461030c57806330cb5b4a1461032a57806333289a461461034857610253565b806308687794146102585780630e18b6811461027457806315199c7f1461027e57806316c38b3c1461029a57806326782247146102b6575b600080fd5b610272600480360381019061026d919061451f565b61074a565b005b61027c6109c0565b005b6102986004803603810190610293919061451f565b610b92565b005b6102b460048036038101906102af9190614584565b611052565b005b6102be611134565b6040516102cb91906145f2565b60405180910390f35b6102ee60048036038101906102e99190614649565b61115a565b005b61030a6004803603810190610305919061451f565b6116d4565b005b6103146118d9565b6040516103219190614685565b60405180910390f35b6103326118e2565b60405161033f9190614685565b60405180910390f35b610362600480360381019061035d919061451f565b6118e8565b005b61037e6004803603810190610379919061451f565b611c74565b005b6103886121f9565b60405161039591906146ff565b60405180910390f35b6103a661221d565b005b6103b0612487565b6040516103bd9190614685565b60405180910390f35b6103ce61248d565b6040516103db9190614685565b60405180910390f35b6103fe60048036038101906103f9919061451f565b612497565b005b61041a6004803603810190610415919061451f565b61299b565b005b610424612d1b565b6040516104319190614729565b60405180910390f35b610442612d2e565b60405161044f9190614685565b60405180910390f35b610472600480360381019061046d9190614784565b612d34565b005b61048e600480360381019061048991906147f0565b612f8c565b005b610498613110565b005b6104b460048036038101906104af919061451f565b613353565b6040516104c89897969594939291906148d0565b60405180910390f35b6104eb60048036038101906104e6919061451f565b613410565b005b6104f5613524565b6040516105029190614685565b60405180910390f35b6105256004803603810190610520919061451f565b61352a565b60405161053a9998979695949392919061494e565b60405180910390f35b61054b613578565b6040516105589190614685565b60405180910390f35b61056961357f565b6040516105769190614685565b60405180910390f35b61059960048036038101906105949190614a07565b613585565b005b6105b560048036038101906105b09190614a82565b613b60565b6040516105c29190614685565b60405180910390f35b6105e560048036038101906105e09190614a82565b613d4c565b6040516105f29190614685565b60405180910390f35b610603613d7d565b6040516106109190614685565b60405180910390f35b610633600480360381019061062e919061451f565b613d83565b005b61064f600480360381019061064a9190614a82565b6143aa565b60405161065d929190614ac2565b60405180910390f35b61066e6143e8565b60405161067b9190614685565b60405180910390f35b61068c6143f1565b6040516106999190614685565b60405180910390f35b6106aa6143f8565b6040516106b79190614685565b60405180910390f35b6106c86143fe565b6040516106d59190614b0c565b60405180910390f35b6106e6614422565b6040516106f39190614685565b60405180910390f35b610704614429565b60405161071191906145f2565b60405180910390f35b610734600480360381019061072f91906147f0565b61444d565b6040516107419190614be5565b60405180910390f35b60008054906101000a900473ffffffffffffffffffffffffffffffffffffffff1673ffffffffffffffffffffffffffffffffffffffff163373ffffffffffffffffffffffffffffffffffffffff16146107d8576040517f08c379a00000000000000000000000000000000000000000000000000000000081526004016107cf90614c64565b60405180910390fd5b600280540361081c576040517f08c379a000000000000000000000000000000000000000000000000000000000815260040161081390614cd0565b60405180910390fd5b6002808190555060008111610866576040517f08c379a000000000000000000000000000000000000000000000000000000000815260040161085d90614d3c565b60405180910390fd5b80600860008282546108789190614d8b565b925050819055507f000000000000000000000000000000000000000000000000000000000000000073ffffffffffffffffffffffffffffffffffffffff166323b872dd60008054906101000a900473ffffffffffffffffffffffffffffffffffffffff1630846040518463ffffffff1660e01b81526004016108fc93929190614dbf565b6020604051808303816000875af115801561091b573d6000803e3d6000fd5b505050506040513d601f19601f8201168201806040525081019061093f9190614e0b565b61097e576040517f08c379a000000000000000000000000000000000000000000000000000000000815260040161097590614e84565b60405180910390fd5b7fb0daddc179952de74346a5e7759111c9edc9f99ca9204e97c889b85fb55b55c7816040516109ad9190614685565b60405180910390a1600160028190555050565b600160009054906101000a900473ffffffffffffffffffffffffffffffffffffffff1673ffffffffffffffffffffffffffffffffffffffff163373ffffffffffffffffffffffffffffffffffffffff1614610a50576040517f08c379a0000000000000000000000000000000000000000000000000000000008152600401610a4790614ef0565b60405180910390fd5b600160009054906101000a900473ffffffffffffffffffffffffffffffffffffffff1673ffffffffffffffffffffffffffffffffffffffff1660008054906101000a900473ffffffffffffffffffffffffffffffffffffffff1673ffffffffffffffffffffffffffffffffffffffff167ff8ccb027dfcd135e000e9d45e6cc2d662578a8825d4c45b5e32e0adf67e79ec660405160405180910390a3600160009054906101000a900473ffffffffffffffffffffffffffffffffffffffff166000806101000a81548173ffffffffffffffffffffffffffffffffffffffff021916908373ffffffffffffffffffffffffffffffffffffffff1602179055506000600160006101000a81548173ffffffffffffffffffffffffffffffffffffffff021916908373ffffffffffffffffffffffffffffffffffffffff160217905550565b60008054906101000a900473ffffffffffffffffffffffffffffffffffffffff1673ffffffffffffffffffffffffffffffffffffffff163373ffffffffffffffffffffffffffffffffffffffff1614610c20576040517f08c379a0000000000000000000000000000000000000000000000000000000008152600401610c1790614c64565b60405180910390fd5b600060065411610c65576040517f08c379a0000000000000000000000000000000000000000000000000000000008152600401610c5c90614f5c565b60405180910390fd5b600060096000600654815260200190815260200160002090506000600a60006006548152602001908152602001600020905060026003811115610cab57610caa61481d565b5b8260000160019054906101000a900460ff166003811115610ccf57610cce61481d565b5b14610d0f576040517f08c379a0000000000000000000000000000000000000000000000000000000008152600401610d0690614fc8565b60405180910390fd5b600081600601548260050154610d259190614fe8565b905060007f000000000000000000000000000000000000000000000000000000000000000073ffffffffffffffffffffffffffffffffffffffff166370a08231306040518263ffffffff1660e01b8152600401610d8291906145f2565b602060405180830381865afa158015610d9f573d6000803e3d6000fd5b505050506040513d601f19601f82011682018060405250810190610dc39190615031565b905060008360050154846008015411610ddd576000610df2565b83600501548460080154610df19190614fe8565b5b90506000818311610e04576000610e20565b84600601548284610e159190614fe8565b610e1f9190614d8b565b5b905080871115610e65576040517f08c379a0000000000000000000000000000000000000000000000000000000008152600401610e5c906150aa565b60405180910390fd5b600384610e7291906150ca565b871115610eb4576040517f08c379a0000000000000000000000000000000000000000000000000000000008152600401610eab90615158565b60405180910390fd5b86831015610ef7576040517f08c379a0000000000000000000000000000000000000000000000000000000008152600401610eee906151c4565b60405180910390fd5b60038660000160016101000a81548160ff02191690836003811115610f1f57610f1e61481d565b5b021790555086856003018190555042856001018190555060008490508060075410610f62578060076000828254610f569190614fe8565b92505081905550610f6b565b60006007819055505b8760076000828254610f7d9190614d8b565b925050819055506000859050600080821115610ff657818a10610fc55781612710838c610faa9190614fe8565b610fb491906150ca565b610fbe9190615213565b9050610ff5565b816127108b84610fd59190614fe8565b610fdf91906150ca565b610fe99190615213565b610ff29061524e565b90505b5b600060065490506000600681905550807fba18b330376d9405519e92aa6a1ebbc93aad8b9f68b95c8805c9e9d8e3a46cd08a600201548d8560405161103d939291906152a5565b60405180910390a25050505050505050505050565b60008054906101000a900473ffffffffffffffffffffffffffffffffffffffff1673ffffffffffffffffffffffffffffffffffffffff163373ffffffffffffffffffffffffffffffffffffffff16146110e0576040517f08c379a00000000000000000000000000000000000000000000000000000000081526004016110d790614c64565b60405180910390fd5b80600160146101000a81548160ff0219169083151502179055507f0e2fb031ee032dc02d8011dc50b816eb450cf856abd8261680dac74f72165bd2816040516111299190614729565b60405180910390a150565b600160009054906101000a900473ffffffffffffffffffffffffffffffffffffffff1681565b60008054906101000a900473ffffffffffffffffffffffffffffffffffffffff1673ffffffffffffffffffffffffffffffffffffffff163373ffffffffffffffffffffffffffffffffffffffff16146111e8576040517f08c379a00000000000000000000000000000000000000000000000000000000081526004016111df90614c64565b60405180910390fd5b60006006541161122d576040517f08c379a000000000000000000000000000000000000000000000000000000000815260040161122490614f5c565b60405180910390fd5b600060096000600654815260200190815260200160002090506000600a600060065481526020019081526020016000209050600160038111156112735761127261481d565b5b8260000160019054906101000a900460ff1660038111156112975761129661481d565b5b146112d7576040517f08c379a00000000000000000000000000000000000000000000000000000000081526004016112ce90615328565b60405180910390fd5b600081600201541161131e576040517f08c379a000000000000000000000000000000000000000000000000000000000815260040161131590615394565b60405180910390fd5b6effffffffffffffffffffffffffffff801681600201541115611376576040517f08c379a000000000000000000000000000000000000000000000000000000000815260040161136d90615400565b60405180910390fd5b60028260000160016101000a81548160ff0219169083600381111561139e5761139d61481d565b5b0217905550828260020160006101000a81548163ffffffff021916908363ffffffff160217905550806002015481600501819055507f000000000000000000000000000000000000000000000000000000000000000073ffffffffffffffffffffffffffffffffffffffff166370a08231306040518263ffffffff1660e01b815260040161142c91906145f2565b602060405180830381865afa158015611449573d6000803e3d6000fd5b505050506040513d601f19601f8201168201806040525081019061146d9190615031565b816008018190555080600201546007600082825461148b9190614d8b565b925050819055506000604051806101e001604052803073ffffffffffffffffffffffffffffffffffffffff168152602001600063ffffffff168152602001605a61ffff16815260200184600001601a9054906101000a900462ffffff1662ffffff1681526020018460000160009054906101000a900460ff1615158152602001600115158152602001600360ff168152602001600060028111156115325761153161481d565b5b815260200183600201546effffffffffffffffffffffffffffff1681526020018460000160029054906101000a900467ffffffffffffffff1667ffffffffffffffff16815260200184600001600a9054906101000a900467ffffffffffffffff1667ffffffffffffffff1681526020018460000160129054906101000a900467ffffffffffffffff1667ffffffffffffffff168152602001600015158152602001600073ffffffffffffffffffffffffffffffffffffffff168152602001600062ffffff1681525090507f000000000000000000000000000000000000000000000000000000000000000073ffffffffffffffffffffffffffffffffffffffff16635bfcc4f8826103e860006040518463ffffffff1660e01b815260040161165c93929190615695565b600060405180830381600087803b15801561167657600080fd5b505af115801561168a573d6000803e3d6000fd5b505050506006547fa677208bc5b8eaa0120e0169d8f9ea592d9bc704ef8cd4a3784d910fb4658f078360020154866040516116c69291906156cf565b60405180910390a250505050565b6006548114611718576040517f08c379a000000000000000000000000000000000000000000000000000000000815260040161170f90615744565b60405180910390fd5b60006009600083815260200190815260200160002090506000600a600084815260200190815260200160002090506001600381111561175a5761175961481d565b5b8260000160019054906101000a900460ff16600381111561177e5761177d61481d565b5b146117be576040517f08c379a00000000000000000000000000000000000000000000000000000000081526004016117b5906157b0565b60405180910390fd5b6201518081600001546117d19190614d8b565b4211611812576040517f08c379a00000000000000000000000000000000000000000000000000000000081526004016118099061581c565b60405180910390fd5b8060020154816005018190555060038260000160016101000a81548160ff021916908360038111156118475761184661481d565b5b0217905550806002015481600301819055504281600101819055508060020154600760008282546118789190614d8b565b92505081905550600060065490506000600681905550807fba18b330376d9405519e92aa6a1ebbc93aad8b9f68b95c8805c9e9d8e3a46cd08360020154846002015460006040516118cb93929190615877565b60405180910390a250505050565b64746a52880081565b60065481565b600280540361192c576040517f08c379a000000000000000000000000000000000000000000000000000000000815260040161192390614cd0565b60405180910390fd5b6002808190555060006009600083815260200190815260200160002090506000600a60008481526020019081526020016000209050600160038111156119755761197461481d565b5b8260000160019054906101000a900460ff1660038111156119995761199861481d565b5b146119d9576040517f08c379a00000000000000000000000000000000000000000000000000000000081526004016119d0906158fa565b60405180910390fd5b6000600b60003373ffffffffffffffffffffffffffffffffffffffff1673ffffffffffffffffffffffffffffffffffffffff168152602001908152602001600020600085815260200190815260200160002090506000816000015411611a74576040517f08c379a0000000000000000000000000000000000000000000000000000000008152600401611a6b90615966565b60405180910390fd5b8060010160009054906101000a900460ff1615611ac6576040517f08c379a0000000000000000000000000000000000000000000000000000000008152600401611abd906159d2565b60405180910390fd5b60018160010160006101000a81548160ff0219169083151502179055506000816000015490506000826000018190555080836002016000828254611b0a9190614fe8565b92505081905550600083600401541115611b3957826004016000815480929190611b33906159f2565b91905055505b843373ffffffffffffffffffffffffffffffffffffffff167f43389e74a5f67d287aa20ee5677bf6eaea427b4b436414723562a06c75debdc183604051611b809190614685565b60405180910390a37f000000000000000000000000000000000000000000000000000000000000000073ffffffffffffffffffffffffffffffffffffffff1663a9059cbb33836040518363ffffffff1660e01b8152600401611be3929190615a1b565b6020604051808303816000875af1158015611c02573d6000803e3d6000fd5b505050506040513d601f19601f82011682018060405250810190611c269190614e0b565b611c65576040517f08c379a0000000000000000000000000000000000000000000000000000000008152600401611c5c90614e84565b60405180910390fd5b50505050600160028190555050565b6002805403611cb8576040517f08c379a0000000000000000000000000000000000000000000000000000000008152600401611caf90614cd0565b60405180910390fd5b6002808190555060006009600083815260200190815260200160002090506000600a60008481526020019081526020016000209050600380811115611d0057611cff61481d565b5b8260000160019054906101000a900460ff166003811115611d2457611d2361481d565b5b14611d64576040517f08c379a0000000000000000000000000000000000000000000000000000000008152600401611d5b90615a90565b60405180910390fd5b6000600b60003373ffffffffffffffffffffffffffffffffffffffff1673ffffffffffffffffffffffffffffffffffffffff168152602001908152602001600020600085815260200190815260200160002090506000816000015411611dff576040517f08c379a0000000000000000000000000000000000000000000000000000000008152600401611df690615966565b60405180910390fd5b8060010160009054906101000a900460ff1615611e51576040517f08c379a0000000000000000000000000000000000000000000000000000000008152600401611e4890615afc565b60405180910390fd5b60018160010160006101000a81548160ff021916908315150217905550600082600601548360050154611e849190614fe8565b905060008111611ec9576040517f08c379a0000000000000000000000000000000000000000000000000000000008152600401611ec090615b68565b60405180910390fd5b60008183600001548560030154611ee091906150ca565b611eea9190615213565b905060008460070154856003015411611f04576000611f19565b84600701548560030154611f189190614fe8565b5b905080821115611f27578091505b60008460000154831115611f6a576000856000015484611f479190614fe8565b9050612710886001015482611f5c91906150ca565b611f669190615213565b9150505b60008184611f789190614fe8565b905060007f000000000000000000000000000000000000000000000000000000000000000073ffffffffffffffffffffffffffffffffffffffff166370a08231306040518263ffffffff1660e01b8152600401611fd591906145f2565b602060405180830381865afa158015611ff2573d6000803e3d6000fd5b505050506040513d601f19601f820116820180604052508101906120169190615031565b90508082111561202857809150600092505b826005600082825461203a9190614d8b565b92505081905550828261204d9190614d8b565b8860070160008282546120609190614d8b565b9250508190555082826120739190614d8b565b600754106120a45782826120879190614d8b565b600760008282546120989190614fe8565b925050819055506120ad565b60006007819055505b893373ffffffffffffffffffffffffffffffffffffffff167f2a94bba74d07ed4238b20d39861968cc9e2cb42c6cba1fa45f0e897e128791c384866040516120f6929190615b88565b60405180910390a360008211156121e5577f000000000000000000000000000000000000000000000000000000000000000073ffffffffffffffffffffffffffffffffffffffff1663a9059cbb33846040518363ffffffff1660e01b8152600401612162929190615a1b565b6020604051808303816000875af1158015612181573d6000803e3d6000fd5b505050506040513d601f19601f820116820180604052508101906121a59190614e0b565b6121e4576040517f08c379a00000000000000000000000000000000000000000000000000000000081526004016121db90614e84565b60405180910390fd5b5b505050505050505050600160028190555050565b7f000000000000000000000000000000000000000000000000000000000000000081565b60008054906101000a900473ffffffffffffffffffffffffffffffffffffffff1673ffffffffffffffffffffffffffffffffffffffff163373ffffffffffffffffffffffffffffffffffffffff16146122ab576040517f08c379a00000000000000000000000000000000000000000000000000000000081526004016122a290614c64565b60405180910390fd5b60028054036122ef576040517f08c379a00000000000000000000000000000000000000000000000000000000081526004016122e690614cd0565b60405180910390fd5b600280819055506000600554905060008111612340576040517f08c379a000000000000000000000000000000000000000000000000000000000815260040161233790615bfd565b60405180910390fd5b60006005819055507f9800e6f57aeb4360eaa72295a820a4293e1e66fbfcabcd8874ae141304a76deb816040516123779190614685565b60405180910390a17f000000000000000000000000000000000000000000000000000000000000000073ffffffffffffffffffffffffffffffffffffffff1663a9059cbb60008054906101000a900473ffffffffffffffffffffffffffffffffffffffff16836040518363ffffffff1660e01b81526004016123fa929190615a1b565b6020604051808303816000875af1158015612419573d6000803e3d6000fd5b505050506040513d601f19601f8201168201806040525081019061243d9190614e0b565b61247c576040517f08c379a000000000000000000000000000000000000000000000000000000000815260040161247390614e84565b60405180910390fd5b506001600281905550565b60075481565b6000600654905090565b60028054036124db576040517f08c379a00000000000000000000000000000000000000000000000000000000081526004016124d290614cd0565b60405180910390fd5b6002808190555060006009600083815260200190815260200160002090506000600a60008481526020019081526020016000209050600260038111156125245761252361481d565b5b8260000160019054906101000a900460ff1660038111156125485761254761481d565b5b14612588576040517f08c379a000000000000000000000000000000000000000000000000000000000815260040161257f90615c69565b60405180910390fd5b62093a80816000015461259b9190614d8b565b42116125dc576040517f08c379a00000000000000000000000000000000000000000000000000000000081526004016125d390615cd5565b60405180910390fd5b6000600b60003373ffffffffffffffffffffffffffffffffffffffff1673ffffffffffffffffffffffffffffffffffffffff168152602001908152602001600020600085815260200190815260200160002090506000816000015411612677576040517f08c379a000000000000000000000000000000000000000000000000000000000815260040161266e90615966565b60405180910390fd5b8060010160009054906101000a900460ff16156126c9576040517f08c379a00000000000000000000000000000000000000000000000000000000081526004016126c090615afc565b60405180910390fd5b60018160010160006101000a81548160ff021916908315150217905550600081600001549050808360060160008282546127039190614d8b565b92505081905550826005015483600601541115612755576040517f08c379a000000000000000000000000000000000000000000000000000000000815260040161274c90615d41565b60405180910390fd5b60008360040154111561277d57826004016000815480929190612777906159f2565b91905055505b80600754106127a05780600760008282546127989190614fe8565b925050819055505b60007f000000000000000000000000000000000000000000000000000000000000000073ffffffffffffffffffffffffffffffffffffffff166370a08231306040518263ffffffff1660e01b81526004016127fb91906145f2565b602060405180830381865afa158015612818573d6000803e3d6000fd5b505050506040513d601f19601f8201168201806040525081019061283c9190615031565b9050600081831161284d578261284f565b815b9050863373ffffffffffffffffffffffffffffffffffffffff167f2a94bba74d07ed4238b20d39861968cc9e2cb42c6cba1fa45f0e897e128791c383600060405161289b929190615d92565b60405180910390a3600081111561298a577f000000000000000000000000000000000000000000000000000000000000000073ffffffffffffffffffffffffffffffffffffffff1663a9059cbb33836040518363ffffffff1660e01b8152600401612907929190615a1b565b6020604051808303816000875af1158015612926573d6000803e3d6000fd5b505050506040513d601f19601f8201168201806040525081019061294a9190614e0b565b612989576040517f08c379a000000000000000000000000000000000000000000000000000000000815260040161298090614e84565b60405180910390fd5b5b505050505050600160028190555050565b60008054906101000a900473ffffffffffffffffffffffffffffffffffffffff1673ffffffffffffffffffffffffffffffffffffffff163373ffffffffffffffffffffffffffffffffffffffff1614612a29576040517f08c379a0000000000000000000000000000000000000000000000000000000008152600401612a2090614c64565b60405180910390fd5b6002805403612a6d576040517f08c379a0000000000000000000000000000000000000000000000000000000008152600401612a6490614cd0565b60405180910390fd5b60028081905550600060065414612ab9576040517f08c379a0000000000000000000000000000000000000000000000000000000008152600401612ab090615e07565b60405180910390fd5b600854811115612afe576040517f08c379a0000000000000000000000000000000000000000000000000000000008152600401612af590615e73565b60405180910390fd5b60007f000000000000000000000000000000000000000000000000000000000000000073ffffffffffffffffffffffffffffffffffffffff166370a08231306040518263ffffffff1660e01b8152600401612b5991906145f2565b602060405180830381865afa158015612b76573d6000803e3d6000fd5b505050506040513d601f19601f82011682018060405250810190612b9a9190615031565b905060055460075483612bad9190614d8b565b612bb79190614d8b565b811015612bf9576040517f08c379a0000000000000000000000000000000000000000000000000000000008152600401612bf090615edf565b60405180910390fd5b8160086000828254612c0b9190614fe8565b925050819055507f000000000000000000000000000000000000000000000000000000000000000073ffffffffffffffffffffffffffffffffffffffff1663a9059cbb60008054906101000a900473ffffffffffffffffffffffffffffffffffffffff16846040518363ffffffff1660e01b8152600401612c8d929190615a1b565b6020604051808303816000875af1158015612cac573d6000803e3d6000fd5b505050506040513d601f19601f82011682018060405250810190612cd09190614e0b565b612d0f576040517f08c379a0000000000000000000000000000000000000000000000000000000008152600401612d0690614e84565b60405180910390fd5b50600160028190555050565b600160149054906101000a900460ff1681565b60055481565b60008054906101000a900473ffffffffffffffffffffffffffffffffffffffff1673ffffffffffffffffffffffffffffffffffffffff163373ffffffffffffffffffffffffffffffffffffffff1614612dc2576040517f08c379a0000000000000000000000000000000000000000000000000000000008152600401612db990614c64565b60405180910390fd5b600060065411612e07576040517f08c379a0000000000000000000000000000000000000000000000000000000008152600401612dfe90614f5c565b60405180910390fd5b6000600960006006548152602001908152602001600020905060026003811115612e3457612e3361481d565b5b8160000160019054906101000a900460ff166003811115612e5857612e5761481d565b5b14612e98576040517f08c379a0000000000000000000000000000000000000000000000000000000008152600401612e8f90614fc8565b60405180910390fd5b8060020160009054906101000a900463ffffffff1663ffffffff168363ffffffff1614612efa576040517f08c379a0000000000000000000000000000000000000000000000000000000008152600401612ef190615f4b565b60405180910390fd5b7f000000000000000000000000000000000000000000000000000000000000000073ffffffffffffffffffffffffffffffffffffffff166336ce736b84846040518363ffffffff1660e01b8152600401612f55929190615f6b565b600060405180830381600087803b158015612f6f57600080fd5b505af1158015612f83573d6000803e3d6000fd5b50505050505050565b60008054906101000a900473ffffffffffffffffffffffffffffffffffffffff1673ffffffffffffffffffffffffffffffffffffffff163373ffffffffffffffffffffffffffffffffffffffff161461301a576040517f08c379a000000000000000000000000000000000000000000000000000000000815260040161301190614c64565b60405180910390fd5b600073ffffffffffffffffffffffffffffffffffffffff168173ffffffffffffffffffffffffffffffffffffffff1603613089576040517f08c379a000000000000000000000000000000000000000000000000000000000815260040161308090615fe0565b60405180910390fd5b80600160006101000a81548173ffffffffffffffffffffffffffffffffffffffff021916908373ffffffffffffffffffffffffffffffffffffffff1602179055508073ffffffffffffffffffffffffffffffffffffffff167f7e5a44b25c18c9c756d8bb0c33e9f77d9ab83dc254932c8a69436f23ab74f63460405160405180910390a250565b60008054906101000a900473ffffffffffffffffffffffffffffffffffffffff1673ffffffffffffffffffffffffffffffffffffffff163373ffffffffffffffffffffffffffffffffffffffff161461319e576040517f08c379a000000000000000000000000000000000000000000000000000000000815260040161319590614c64565b60405180910390fd5b6000600654116131e3576040517f08c379a00000000000000000000000000000000000000000000000000000000081526004016131da90614f5c565b60405180910390fd5b600060096000600654815260200190815260200160002090506000600a600060065481526020019081526020016000209050600160038111156132295761322861481d565b5b8260000160019054906101000a900460ff16600381111561324d5761324c61481d565b5b1461328d576040517f08c379a000000000000000000000000000000000000000000000000000000000815260040161328490616072565b60405180910390fd5b8060020154816005018190555060038260000160016101000a81548160ff021916908360038111156132c2576132c161481d565b5b0217905550806002015481600301819055504281600101819055508060020154600760008282546132f39190614d8b565b92505081905550600060065490506000600681905550807fba18b330376d9405519e92aa6a1ebbc93aad8b9f68b95c8805c9e9d8e3a46cd083600201548460020154600060405161334693929190615877565b60405180910390a2505050565b60096020528060005260406000206000915090508060000160009054906101000a900460ff16908060000160019054906101000a900460ff16908060000160029054906101000a900467ffffffffffffffff169080600001600a9054906101000a900467ffffffffffffffff16908060000160129054906101000a900467ffffffffffffffff169080600001601a9054906101000a900462ffffff16908060010154908060020160009054906101000a900463ffffffff16905088565b60008054906101000a900473ffffffffffffffffffffffffffffffffffffffff1673ffffffffffffffffffffffffffffffffffffffff163373ffffffffffffffffffffffffffffffffffffffff161461349e576040517f08c379a000000000000000000000000000000000000000000000000000000000815260040161349590614c64565b60405180910390fd5b6107d08111156134e3576040517f08c379a00000000000000000000000000000000000000000000000000000000081526004016134da906160de565b60405180910390fd5b806003819055507f8c4d35e54a3f2ef1134138fd8ea3daee6a3c89e10d2665996babdf70261e2c76816040516135199190614685565b60405180910390a150565b60035481565b600a6020528060005260406000206000915090508060000154908060010154908060020154908060030154908060040154908060050154908060060154908060070154908060080154905089565b62093a8081565b60085481565b60008054906101000a900473ffffffffffffffffffffffffffffffffffffffff1673ffffffffffffffffffffffffffffffffffffffff163373ffffffffffffffffffffffffffffffffffffffff1614613613576040517f08c379a000000000000000000000000000000000000000000000000000000000815260040161360a90614c64565b60405180910390fd5b600160149054906101000a900460ff1615613663576040517f08c379a000000000000000000000000000000000000000000000000000000000815260040161365a9061614a565b60405180910390fd5b6107d08162ffffff161015801561368257506203d0908162ffffff1611155b6136c1576040517f08c379a00000000000000000000000000000000000000000000000000000000081526004016136b8906161b6565b60405180910390fd5b60008467ffffffffffffffff161180156136e5575060008367ffffffffffffffff16115b80156136fb575060008267ffffffffffffffff16115b61373a576040517f08c379a000000000000000000000000000000000000000000000000000000000815260040161373190616222565b60405180910390fd5b60006006541461377f576040517f08c379a00000000000000000000000000000000000000000000000000000000081526004016137769061628e565b60405180910390fd5b84156137ff578367ffffffffffffffff168367ffffffffffffffff161180156137bb57508367ffffffffffffffff168267ffffffffffffffff16105b6137fa576040517f08c379a00000000000000000000000000000000000000000000000000000000081526004016137f1906162fa565b60405180910390fd5b613875565b8367ffffffffffffffff168367ffffffffffffffff1610801561383557508367ffffffffffffffff168267ffffffffffffffff16115b613874576040517f08c379a000000000000000000000000000000000000000000000000000000000815260040161386b90616366565b60405180910390fd5b5b6004600081548092919061388890616386565b91905055506040518061010001604052808615158152602001600160038111156138b5576138b461481d565b5b81526020018567ffffffffffffffff1681526020018467ffffffffffffffff1681526020018367ffffffffffffffff1681526020018262ffffff1681526020016003548152602001600063ffffffff1681525060096000600454815260200190815260200160002060008201518160000160006101000a81548160ff02191690831515021790555060208201518160000160016101000a81548160ff021916908360038111156139685761396761481d565b5b021790555060408201518160000160026101000a81548167ffffffffffffffff021916908367ffffffffffffffff160217905550606082015181600001600a6101000a81548167ffffffffffffffff021916908367ffffffffffffffff16021790555060808201518160000160126101000a81548167ffffffffffffffff021916908367ffffffffffffffff16021790555060a082015181600001601a6101000a81548162ffffff021916908362ffffff16021790555060c0820151816001015560e08201518160020160006101000a81548163ffffffff021916908363ffffffff160217905550905050604051806101200160405280428152602001600081526020016000815260200160008152602001600081526020016000815260200160008152602001600081526020016000815250600a60006004548152602001908152602001600020600082015181600001556020820151816001015560408201518160020155606082015181600301556080820151816004015560a0820151816005015560c0820151816006015560e0820151816007015561010082015181600801559050506004546006819055506004547fb3d05fed32daec5aa56697b6be763432a7921ad08804e3fd7be57f5ffd8e84db8686868686604051613b519594939291906163ce565b60405180910390a25050505050565b6000806009600084815260200190815260200160002090506000600a600085815260200190815260200160002090506000600b60008773ffffffffffffffffffffffffffffffffffffffff1673ffffffffffffffffffffffffffffffffffffffff16815260200190815260200160002060008681526020019081526020016000209050600081600001541480613c0457508060010160009054906101000a900460ff165b80613c445750600380811115613c1d57613c1c61481d565b5b8360000160019054906101000a900460ff166003811115613c4157613c4061481d565b5b14155b15613c555760009350505050613d46565b600082600601548360050154613c6b9190614fe8565b905060008103613c82576000945050505050613d46565b60008183600001548560030154613c9991906150ca565b613ca39190615213565b905060008460070154856003015411613cbd576000613cd2565b84600701548560030154613cd19190614fe8565b5b905080821115613ce0578091505b8360000154821115613d3c576000846000015483613cfe9190614fe8565b90506000612710886001015483613d1591906150ca565b613d1f9190615213565b90508084613d2d9190614fe8565b98505050505050505050613d46565b8196505050505050505b92915050565b600c6020528160005260406000208181548110613d6857600080fd5b90600052602060002001600091509150505481565b60045481565b600160149054906101000a900460ff1615613dd3576040517f08c379a0000000000000000000000000000000000000000000000000000000008152600401613dca9061614a565b60405180910390fd5b6002805403613e17576040517f08c379a0000000000000000000000000000000000000000000000000000000008152600401613e0e90614cd0565b60405180910390fd5b60028081905550600060065411613e63576040517f08c379a0000000000000000000000000000000000000000000000000000000008152600401613e5a90614f5c565b60405180910390fd5b600060096000600654815260200190815260200160002090506000600a60006006548152602001908152602001600020905060016003811115613ea957613ea861481d565b5b8260000160019054906101000a900460ff166003811115613ecd57613ecc61481d565b5b14613f0d576040517f08c379a0000000000000000000000000000000000000000000000000000000008152600401613f049061646d565b60405180910390fd5b60008054906101000a900473ffffffffffffffffffffffffffffffffffffffff1673ffffffffffffffffffffffffffffffffffffffff163373ffffffffffffffffffffffffffffffffffffffff1603613f9b576040517f08c379a0000000000000000000000000000000000000000000000000000000008152600401613f92906164d9565b60405180910390fd5b624c4b40831015613fe1576040517f08c379a0000000000000000000000000000000000000000000000000000000008152600401613fd890616545565b60405180910390fd5b640ba43b7400831115614029576040517f08c379a0000000000000000000000000000000000000000000000000000000008152600401614020906165b1565b60405180910390fd5b64746a52880083826002015461403f9190614d8b565b1115614080576040517f08c379a00000000000000000000000000000000000000000000000000000000081526004016140779061661d565b60405180910390fd5b6000600b60003373ffffffffffffffffffffffffffffffffffffffff1673ffffffffffffffffffffffffffffffffffffffff168152602001908152602001600020600060065481526020019081526020016000209050600081600001541480156140f957508060010160009054906101000a900460ff16155b614138576040517f08c379a000000000000000000000000000000000000000000000000000000000815260040161412f90616689565b60405180910390fd5b604051806040016040528085815260200160001515815250600b60003373ffffffffffffffffffffffffffffffffffffffff1673ffffffffffffffffffffffffffffffffffffffff168152602001908152602001600020600060065481526020019081526020016000206000820151816000015560208201518160010160006101000a81548160ff021916908315150217905550905050600c60003373ffffffffffffffffffffffffffffffffffffffff1673ffffffffffffffffffffffffffffffffffffffff16815260200190815260200160002060065490806001815401808255809150506001900390600052602060002001600090919091909150558382600201600082825461424b9190614d8b565b9250508190555081600401600081548092919061426790616386565b91905055506006543373ffffffffffffffffffffffffffffffffffffffff167f9fa0303acb2d73e4e86bf54dd3fba8208feacfb4f5a79175dc1f36b674da0dbb866040516142b59190614685565b60405180910390a37f000000000000000000000000000000000000000000000000000000000000000073ffffffffffffffffffffffffffffffffffffffff166323b872dd3330876040518463ffffffff1660e01b815260040161431a93929190614dbf565b6020604051808303816000875af1158015614339573d6000803e3d6000fd5b505050506040513d601f19601f8201168201806040525081019061435d9190614e0b565b61439c576040517f08c379a0000000000000000000000000000000000000000000000000000000008152600401614393906166f5565b60405180910390fd5b505050600160028190555050565b600b602052816000526040600020602052806000526040600020600091509150508060000154908060010160009054906101000a900460ff16905082565b640ba43b740081565b624c4b4081565b61271081565b7f000000000000000000000000000000000000000000000000000000000000000081565b6201518081565b60008054906101000a900473ffffffffffffffffffffffffffffffffffffffff1681565b6060600c60008373ffffffffffffffffffffffffffffffffffffffff1673ffffffffffffffffffffffffffffffffffffffff1681526020019081526020016000208054806020026020016040519081016040528092919081815260200182805480156144d857602002820191906000526020600020905b8154815260200190600101908083116144c4575b50505050509050919050565b600080fd5b6000819050919050565b6144fc816144e9565b811461450757600080fd5b50565b600081359050614519816144f3565b92915050565b600060208284031215614535576145346144e4565b5b60006145438482850161450a565b91505092915050565b60008115159050919050565b6145618161454c565b811461456c57600080fd5b50565b60008135905061457e81614558565b92915050565b60006020828403121561459a576145996144e4565b5b60006145a88482850161456f565b91505092915050565b600073ffffffffffffffffffffffffffffffffffffffff82169050919050565b60006145dc826145b1565b9050919050565b6145ec816145d1565b82525050565b600060208201905061460760008301846145e3565b92915050565b600063ffffffff82169050919050565b6146268161460d565b811461463157600080fd5b50565b6000813590506146438161461d565b92915050565b60006020828403121561465f5761465e6144e4565b5b600061466d84828501614634565b91505092915050565b61467f816144e9565b82525050565b600060208201905061469a6000830184614676565b92915050565b6000819050919050565b60006146c56146c06146bb846145b1565b6146a0565b6145b1565b9050919050565b60006146d7826146aa565b9050919050565b60006146e9826146cc565b9050919050565b6146f9816146de565b82525050565b600060208201905061471460008301846146f0565b92915050565b6147238161454c565b82525050565b600060208201905061473e600083018461471a565b92915050565b600067ffffffffffffffff82169050919050565b61476181614744565b811461476c57600080fd5b50565b60008135905061477e81614758565b92915050565b6000806040838503121561479b5761479a6144e4565b5b60006147a985828601614634565b92505060206147ba8582860161476f565b9150509250929050565b6147cd816145d1565b81146147d857600080fd5b50565b6000813590506147ea816147c4565b92915050565b600060208284031215614806576148056144e4565b5b6000614814848285016147db565b91505092915050565b7f4e487b7100000000000000000000000000000000000000000000000000000000600052602160045260246000fd5b6004811061485d5761485c61481d565b5b50565b600081905061486e8261484c565b919050565b600061487e82614860565b9050919050565b61488e81614873565b82525050565b61489d81614744565b82525050565b600062ffffff82169050919050565b6148bb816148a3565b82525050565b6148ca8161460d565b82525050565b6000610100820190506148e6600083018b61471a565b6148f3602083018a614885565b6149006040830189614894565b61490d6060830188614894565b61491a6080830187614894565b61492760a08301866148b2565b61493460c0830185614676565b61494160e08301846148c1565b9998505050505050505050565b600061012082019050614964600083018c614676565b614971602083018b614676565b61497e604083018a614676565b61498b6060830189614676565b6149986080830188614676565b6149a560a0830187614676565b6149b260c0830186614676565b6149bf60e0830185614676565b6149cd610100830184614676565b9a9950505050505050505050565b6149e4816148a3565b81146149ef57600080fd5b50565b600081359050614a01816149db565b92915050565b600080600080600060a08688031215614a2357614a226144e4565b5b6000614a318882890161456f565b9550506020614a428882890161476f565b9450506040614a538882890161476f565b9350506060614a648882890161476f565b9250506080614a75888289016149f2565b9150509295509295909350565b60008060408385031215614a9957614a986144e4565b5b6000614aa7858286016147db565b9250506020614ab88582860161450a565b9150509250929050565b6000604082019050614ad76000830185614676565b614ae4602083018461471a565b9392505050565b6000614af6826146cc565b9050919050565b614b0681614aeb565b82525050565b6000602082019050614b216000830184614afd565b92915050565b600081519050919050565b600082825260208201905092915050565b6000819050602082019050919050565b614b5c816144e9565b82525050565b6000614b6e8383614b53565b60208301905092915050565b6000602082019050919050565b6000614b9282614b27565b614b9c8185614b32565b9350614ba783614b43565b8060005b83811015614bd8578151614bbf8882614b62565b9750614bca83614b7a565b925050600181019050614bab565b5085935050505092915050565b60006020820190508181036000830152614bff8184614b87565b905092915050565b600082825260208201905092915050565b7f4e6f742061646d696e0000000000000000000000000000000000000000000000600082015250565b6000614c4e600983614c07565b9150614c5982614c18565b602082019050919050565b60006020820190508181036000830152614c7d81614c41565b9050919050565b7f5265656e7472616e740000000000000000000000000000000000000000000000600082015250565b6000614cba600983614c07565b9150614cc582614c84565b602082019050919050565b60006020820190508181036000830152614ce981614cad565b9050919050565b7f5a65726f20616d6f756e74000000000000000000000000000000000000000000600082015250565b6000614d26600b83614c07565b9150614d3182614cf0565b602082019050919050565b60006020820190508181036000830152614d5581614d19565b9050919050565b7f4e487b7100000000000000000000000000000000000000000000000000000000600052601160045260246000fd5b6000614d96826144e9565b9150614da1836144e9565b9250828201905080821115614db957614db8614d5c565b5b92915050565b6000606082019050614dd460008301866145e3565b614de160208301856145e3565b614dee6040830184614676565b949350505050565b600081519050614e0581614558565b92915050565b600060208284031215614e2157614e206144e4565b5b6000614e2f84828501614df6565b91505092915050565b7f4661696c65640000000000000000000000000000000000000000000000000000600082015250565b6000614e6e600683614c07565b9150614e7982614e38565b602082019050919050565b60006020820190508181036000830152614e9d81614e61565b9050919050565b7f4e6f742070656e64696e672061646d696e000000000000000000000000000000600082015250565b6000614eda601183614c07565b9150614ee582614ea4565b602082019050919050565b60006020820190508181036000830152614f0981614ecd565b9050919050565b7f4e6f20616374697665207369676e616c00000000000000000000000000000000600082015250565b6000614f46601083614c07565b9150614f5182614f10565b602082019050919050565b60006020820190508181036000830152614f7581614f39565b9050919050565b7f4e6f742074726164696e67000000000000000000000000000000000000000000600082015250565b6000614fb2600b83614c07565b9150614fbd82614f7c565b602082019050919050565b60006020820190508181036000830152614fe181614fa5565b9050919050565b6000614ff3826144e9565b9150614ffe836144e9565b925082820390508181111561501657615015614d5c565b5b92915050565b60008151905061502b816144f3565b92915050565b600060208284031215615047576150466144e4565b5b60006150558482850161501c565b91505092915050565b7f4d6f7265207468616e2074726164652072657475726e65640000000000000000600082015250565b6000615094601883614c07565b915061509f8261505e565b602082019050919050565b600060208201905081810360008301526150c381615087565b9050919050565b60006150d5826144e9565b91506150e0836144e9565b92508282026150ee816144e9565b9150828204841483151761510557615104614d5c565b5b5092915050565b7f526573756c7420746f6f20686967680000000000000000000000000000000000600082015250565b6000615142600f83614c07565b915061514d8261510c565b602082019050919050565b6000602082019050818103600083015261517181615135565b9050919050565b7f496e73756666696369656e742062616c616e6365000000000000000000000000600082015250565b60006151ae601483614c07565b91506151b982615178565b602082019050919050565b600060208201905081810360008301526151dd816151a1565b9050919050565b7f4e487b7100000000000000000000000000000000000000000000000000000000600052601260045260246000fd5b600061521e826144e9565b9150615229836144e9565b925082615239576152386151e4565b5b828204905092915050565b6000819050919050565b600061525982615244565b91507f8000000000000000000000000000000000000000000000000000000000000000820361528b5761528a614d5c565b5b816000039050919050565b61529f81615244565b82525050565b60006060820190506152ba6000830186614676565b6152c76020830185614676565b6152d46040830184615296565b949350505050565b7f4e6f7420636f6c6c656374696e67000000000000000000000000000000000000600082015250565b6000615312600e83614c07565b915061531d826152dc565b602082019050919050565b6000602082019050818103600083015261534181615305565b9050919050565b7f4e6f206465706f73697473000000000000000000000000000000000000000000600082015250565b600061537e600b83614c07565b915061538982615348565b602082019050919050565b600060208201905081810360008301526153ad81615371565b9050919050565b7f506f6f6c20746f6f206c61726765000000000000000000000000000000000000600082015250565b60006153ea600e83614c07565b91506153f5826153b4565b602082019050919050565b60006020820190508181036000830152615419816153dd565b9050919050565b615429816145d1565b82525050565b6154388161460d565b82525050565b600061ffff82169050919050565b6154558161543e565b82525050565b615464816148a3565b82525050565b6154738161454c565b82525050565b600060ff82169050919050565b61548f81615479565b82525050565b600381106154a6576154a561481d565b5b50565b60008190506154b782615495565b919050565b60006154c7826154a9565b9050919050565b6154d7816154bc565b82525050565b60006effffffffffffffffffffffffffffff82169050919050565b615501816154dd565b82525050565b61551081614744565b82525050565b61551f816145b1565b82525050565b6101e08201600082015161553c6000850182615420565b50602082015161554f602085018261542f565b506040820151615562604085018261544c565b506060820151615575606085018261545b565b506080820151615588608085018261546a565b5060a082015161559b60a085018261546a565b5060c08201516155ae60c0850182615486565b5060e08201516155c160e08501826154ce565b506101008201516155d66101008501826154f8565b506101208201516155eb610120850182615507565b50610140820151615600610140850182615507565b50610160820151615615610160850182615507565b5061018082015161562a61018085018261546a565b506101a082015161563f6101a0850182615516565b506101c08201516156546101c085018261545b565b50505050565b6000819050919050565b600061567f61567a6156758461565a565b6146a0565b61543e565b9050919050565b61568f81615664565b82525050565b6000610220820190506156ab6000830186615525565b6156b96101e0830185615686565b6156c76102008301846145e3565b949350505050565b60006040820190506156e46000830185614676565b6156f160208301846148c1565b9392505050565b7f4e6f7420616374697665207369676e616c000000000000000000000000000000600082015250565b600061572e601183614c07565b9150615739826156f8565b602082019050919050565b6000602082019050818103600083015261575d81615721565b9050919050565b7f4e6f7420696e20636f6c6c656374696e67000000000000000000000000000000600082015250565b600061579a601183614c07565b91506157a582615764565b602082019050919050565b600060208201905081810360008301526157c98161578d565b9050919050565b7f4e6f742065787069726564000000000000000000000000000000000000000000600082015250565b6000615806600b83614c07565b9150615811826157d0565b602082019050919050565b60006020820190508181036000830152615835816157f9565b9050919050565b6000819050919050565b600061586161585c6158578461583c565b6146a0565b615244565b9050919050565b61587181615846565b82525050565b600060608201905061588c6000830186614676565b6158996020830185614676565b6158a66040830184615868565b949350505050565b7f547261646520616c7265616479206f70656e6564000000000000000000000000600082015250565b60006158e4601483614c07565b91506158ef826158ae565b602082019050919050565b60006020820190508181036000830152615913816158d7565b9050919050565b7f4e6f20706f736974696f6e000000000000000000000000000000000000000000600082015250565b6000615950600b83614c07565b915061595b8261591a565b602082019050919050565b6000602082019050818103600083015261597f81615943565b9050919050565b7f416c72656164792077697468647261776e000000000000000000000000000000600082015250565b60006159bc601183614c07565b91506159c782615986565b602082019050919050565b600060208201905081810360008301526159eb816159af565b9050919050565b60006159fd826144e9565b915060008203615a1057615a0f614d5c565b5b600182039050919050565b6000604082019050615a3060008301856145e3565b615a3d6020830184614676565b9392505050565b7f4e6f7420736574746c6564000000000000000000000000000000000000000000600082015250565b6000615a7a600b83614c07565b9150615a8582615a44565b602082019050919050565b60006020820190508181036000830152615aa981615a6d565b9050919050565b7f416c726561647920636c61696d65640000000000000000000000000000000000600082015250565b6000615ae6600f83614c07565b9150615af182615ab0565b602082019050919050565b60006020820190508181036000830152615b1581615ad9565b9050919050565b7f4e6f20706f6f6c00000000000000000000000000000000000000000000000000600082015250565b6000615b52600783614c07565b9150615b5d82615b1c565b602082019050919050565b60006020820190508181036000830152615b8181615b45565b9050919050565b6000604082019050615b9d6000830185614676565b615baa6020830184614676565b9392505050565b7f4e6f206665657300000000000000000000000000000000000000000000000000600082015250565b6000615be7600783614c07565b9150615bf282615bb1565b602082019050919050565b60006020820190508181036000830152615c1681615bda565b9050919050565b7f4e6f7420696e2074726164696e67000000000000000000000000000000000000600082015250565b6000615c53600e83614c07565b9150615c5e82615c1d565b602082019050919050565b60006020820190508181036000830152615c8281615c46565b9050919050565b7f546f6f206561726c790000000000000000000000000000000000000000000000600082015250565b6000615cbf600983614c07565b9150615cca82615c89565b602082019050919050565b60006020820190508181036000830152615cee81615cb2565b9050919050565b7f456d657267656e6379206f766572666c6f770000000000000000000000000000600082015250565b6000615d2b601283614c07565b9150615d3682615cf5565b602082019050919050565b60006020820190508181036000830152615d5a81615d1e565b9050919050565b6000615d7c615d77615d728461583c565b6146a0565b6144e9565b9050919050565b615d8c81615d61565b82525050565b6000604082019050615da76000830185614676565b615db46020830184615d83565b9392505050565b7f5369676e616c2061637469766500000000000000000000000000000000000000600082015250565b6000615df1600d83614c07565b9150615dfc82615dbb565b602082019050919050565b60006020820190508181036000830152615e2081615de4565b9050919050565b7f4d6f7265207468616e206465706f736974656400000000000000000000000000600082015250565b6000615e5d601383614c07565b9150615e6882615e27565b602082019050919050565b60006020820190508181036000830152615e8c81615e50565b9050919050565b7f576f756c6420756e64657266756e6420636c61696d7300000000000000000000600082015250565b6000615ec9601683614c07565b9150615ed482615e93565b602082019050919050565b60006020820190508181036000830152615ef881615ebc565b9050919050565b7f57726f6e6720747261646520696e646578000000000000000000000000000000600082015250565b6000615f35601183614c07565b9150615f4082615eff565b602082019050919050565b60006020820190508181036000830152615f6481615f28565b9050919050565b6000604082019050615f8060008301856148c1565b615f8d6020830184614894565b9392505050565b7f5a65726f20616464720000000000000000000000000000000000000000000000600082015250565b6000615fca600983614c07565b9150615fd582615f94565b602082019050919050565b60006020820190508181036000830152615ff981615fbd565b9050919050565b7f43616e206f6e6c792063616e63656c20647572696e6720636f6c6c656374696f60008201527f6e00000000000000000000000000000000000000000000000000000000000000602082015250565b600061605c602183614c07565b915061606782616000565b604082019050919050565b6000602082019050818103600083015261608b8161604f565b9050919050565b7f4d61782032302500000000000000000000000000000000000000000000000000600082015250565b60006160c8600783614c07565b91506160d382616092565b602082019050919050565b600060208201905081810360008301526160f7816160bb565b9050919050565b7f5061757365640000000000000000000000000000000000000000000000000000600082015250565b6000616134600683614c07565b915061613f826160fe565b602082019050919050565b6000602082019050818103600083015261616381616127565b9050919050565b7f4c65762032782d32353078000000000000000000000000000000000000000000600082015250565b60006161a0600b83614c07565b91506161ab8261616a565b602082019050919050565b600060208201905081810360008301526161cf81616193565b9050919050565b7f4261642070726963657300000000000000000000000000000000000000000000600082015250565b600061620c600a83614c07565b9150616217826161d6565b602082019050919050565b6000602082019050818103600083015261623b816161ff565b9050919050565b7f436c6f736520616374697665207369676e616c20666972737400000000000000600082015250565b6000616278601983614c07565b915061628382616242565b602082019050919050565b600060208201905081810360008301526162a78161626b565b9050919050565b7f4c6f6e673a2054503e656e7472793e534c000000000000000000000000000000600082015250565b60006162e4601183614c07565b91506162ef826162ae565b602082019050919050565b60006020820190508181036000830152616313816162d7565b9050919050565b7f53686f72743a2054503c656e7472793c534c0000000000000000000000000000600082015250565b6000616350601283614c07565b915061635b8261631a565b602082019050919050565b6000602082019050818103600083015261637f81616343565b9050919050565b6000616391826144e9565b91507fffffffffffffffffffffffffffffffffffffffffffffffffffffffffffffffff82036163c3576163c2614d5c565b5b600182019050919050565b600060a0820190506163e3600083018861471a565b6163f06020830187614894565b6163fd6040830186614894565b61640a6060830185614894565b61641760808301846148b2565b9695505050505050565b7f4e6f7420616363657074696e67206465706f7369747300000000000000000000600082015250565b6000616457601683614c07565b915061646282616421565b602082019050919050565b600060208201905081810360008301526164868161644a565b9050919050565b7f41646d696e207573652061646d696e4465706f73697400000000000000000000600082015250565b60006164c3601683614c07565b91506164ce8261648d565b602082019050919050565b600060208201905081810360008301526164f2816164b6565b9050919050565b7f4d696e2035205553444300000000000000000000000000000000000000000000600082015250565b600061652f600a83614c07565b915061653a826164f9565b602082019050919050565b6000602082019050818103600083015261655e81616522565b9050919050565b7f4d61782035303030302055534443000000000000000000000000000000000000600082015250565b600061659b600e83614c07565b91506165a682616565565b602082019050919050565b600060208201905081810360008301526165ca8161658e565b9050919050565b7f506f6f6c2066756c6c0000000000000000000000000000000000000000000000600082015250565b6000616607600983614c07565b9150616612826165d1565b602082019050919050565b60006020820190508181036000830152616636816165fa565b9050919050565b7f416c7265616479206465706f7369746564000000000000000000000000000000600082015250565b6000616673601183614c07565b915061667e8261663d565b602082019050919050565b600060208201905081810360008301526166a281616666565b9050919050565b7f5472616e73666572206661696c65640000000000000000000000000000000000600082015250565b60006166df600f83614c07565b91506166ea826166a9565b602082019050919050565b6000602082019050818103600083015261670e816166d2565b905091905056fea26469706673582212207c9a1e420d4bc0e5038ef2c2589414a028a64b0118e3c6263f29feb0489560f664736f6c63430008130033","linkReferences":{}},"methodIdentifiers":{"BASIS_POINTS()":"e1f1c4a7","COLLECTING_TIMEOUT()":"f23fae93","EMERGENCY_DELAY()":"82944e2d","MAX_DEPOSIT()":"dd5967c3","MAX_POOL()":"2c3c91c9","MIN_DEPOSIT()":"e1e158a5","acceptAdmin()":"0e18b681","activeSignalId()":"30cb5b4a","admin()":"f851a440","adminDeposit(uint256)":"08687794","adminWithdrawDeposit(uint256)":"55e267ff","cancelSignal()":"78739f47","claim(uint256)":"379607f5","closeTrade(uint32,uint64)":"6cca67a8","deposit(uint256)":"b6b55f25","diamond()":"f0b7db4e","emergencyWithdraw(uint256)":"5312ea8e","feePercent()":"7fd6f15c","getActiveSignalId()":"4cb96a92","getExpectedPayout(address,uint256)":"a5519036","getUserSignalIds(address)":"fc6fee9c","openTrade(uint32)":"27dde56c","paused()":"5c975abb","pendingAdmin()":"26782247","positions(address,uint256)":"c1be6677","postSignal(bool,uint64,uint64,uint64,uint24)":"99d8528e","reservedForSignals()":"486834a3","setFeePercent(uint256)":"7ce3489b","setPaused(bool)":"16c38b3c","settleSignal(uint256)":"15199c7f","signalCore(uint256)":"7a88d0b5","signalCount()":"ae0041aa","signalMeta(uint256)":"80447e32","totalAdminDeposited()":"888bc372","totalFeesCollected()":"60c6d8ae","transferAdmin(address)":"75829def","usdc()":"3e413bee","userCancelExpiredSignal(uint256)":"28d3bf0a","userSignalIds(address,uint256)":"a5534664","withdrawDeposit(uint256)":"33289a46","withdrawFees()":"476343ee"},"id":1}